:020000040000FA
:100000000C9435010C9466010C9466010C94660105
:100010000C9466010C9466010C9466010C946601C4
:100020000C9466010C9466010C9466010C946601B4
:100030000C9466010C9466010C9466010C946601A4
:100040000C9466010C9466010C9466010C94660194
:100050000C9466010C9466010C9466010C94500B90
:100060000C9466010C94C40B0C949A0B0C946601CE
:100070000C9466010C9466010C9466010C94660164
:100080000C9466010C9466010C9466010C94660154
:100090000C9466010C9466010C9466010C94660144
:1000A0000C9466010C9466010C9466010C94660134
:1000B0000C9466010C9466010C9466010C94660124
:1000C0000C9466010C9466010C9466010C94660114
:1000D0000C9466010C9466010C9466010C94660104
:1000E0000C9466010C9423030C94A7010C94D60184
:1000F0000C9495010C94BE010C94A3010C94C201C4
:100100000C94CA030C947D030C9414030C943703D1
:100110000C94BA010C94D0010C94E7020C94FA0BE5
:100120000C94C8010C949B010C9445030C94B401ED
:100130000C94B0010C94D5010C94DA010C94CC0110
:100140000C949F010C94AA010000210024002700B8
:100150002A002D00300033000101000004010701D6
:100160000A0100002200250028002B002E0031008B
:10017000340002010000050108010B01000020000D
:100180002300260029002C002F003200000100006F
:10019000030106010901050505050705080808080A
:1001A000020202020A0A080804040404010101010F
:1001B000010101010303030303030303040707070A
:1001C0000C0C0C0C0C0C0C0C0202020206060606AF
:1001D000060606060B0B0B0B0B0B0B0B010210207C
:1001E000200808102040102040800201020108046D
:1001F0000201010204081020408080402010080401
:100200000201800402018040201008040201080459
:10021000020101020408102040800102040810209D
:10022000408000000A0B02090C0D0E0807030401B0
:1002300000000000000000000000000000000000BE
:10024000000000000000000000000000000012118B
:10025000100000000000000000000000000000008E
:100260000000000000000000FA0B11241FBECFEFB9
:10027000D1E2DEBFCDBF00E00CBF1DE0A0E0B2E0E8
:10028000E4EAF8E200E00BBF02C007900D92AA304A
:10029000B107D9F721E1AAE0BDE001C01D92A33466
:1002A000B207E1F711E0C5E3D1E000E006C0219715
:1002B0000109802FFE010E942514C433D10780E07C
:1002C0000807A9F70E94AE0C0C9450140C9400007F
:1002D000892B39F481E0860F803140F081EF860F61
:1002E0000895662311F08FEFFACF8FE008958150C3
:1002F000823108F05AC0E82FF0E08827ED57FE4F12
:100300008F4F0C942514A301A70195019B019F0118
:10031000D501AA01B001B401BA01BE01C201C801F0
:10032000CC01D501D001D601DA01809180008F7710
:10033000809380000895809180008F7DF9CF809117
:100340008000877FF5CF84B58F7784BD089584B50D
:100350008F7DFBCF8091B0008F778093B0000895A0
:100360008091B0008F7DF9CF809190008F7780933E
:1003700090000895809190008F7DF9CF809190003A
:10038000877FF5CF8091A0008F778093A00008959C
:100390008091A0008F7DF9CF8091A000877FF5CF5D
:1003A000809120018F778093200108958091200112
:1003B0008F7DF9CF80912001877FF5CFCF93DF9399
:1003C000282F30E0F901EE5DFD4F8491F901E452F0
:1003D000FE4FD491F901EA56FE4FC491CC23A1F00F
:1003E00081110E947701EC2FF0E0EE0FFF1FE4581F
:1003F000FE4FA591B491EC91ED2381E090E009F4DA
:1004000080E0DF91CF91089580E090E0FACF1F93D4
:10041000CF93DF93282F30E0F901EE5DFD4F8491FB
:10042000F901E452FE4FD491F901EA56FE4FC4910E
:10043000CC23A9F0162F81110E947701EC2FF0E058
:10044000EE0FFF1FEE59FE4FA591B4918FB7F894B0
:10045000EC91111108C0D095DE23DC938FBFDF91A2
:10046000CF911F910895DE2BF8CFCF93DF9390E0CB
:10047000FC01E452FE4F24918A569E4FFC01849168
:100480008823D1F090E0880F991FFC01E85BFE4FB4
:10049000A591B491FC01EE59FE4FC591D491611123
:1004A0000EC09FB7F8948C91E22FE0958E238C9329
:1004B0002881E223E8839FBFDF91CF9108958FB712
:1004C000F894EC91E22BEC938FBFF6CF863308F0D3
:1004D000865320917B00982F9870277F922B9093C2
:1004E0007B008770806480937C0080917A008064B8
:1004F00080937A0080917A0086FDFCCF809178000D
:100500009091790008953FB7F89480914A109091A6
:100510004B10A0914C10B0914D1026B5A89B05C072
:100520002F3F19F00196A11DB11D3FBFBA2FA92F72
:10053000982F8827BC01CD01620F711D811D911D6F
:1005400042E0660F771F881F991F4A95D1F70895DB
:100550008F929F92AF92BF92CF92DF92EF92FF92D3
:100560006B017C010E9483024B015C01C114D10428
:10057000E104F104B9F00E948302681979098A093B
:100580009B09683E73408105910580F321E0C21A02
:10059000D108E108F10888EE880E83E0981EA11CBE
:1005A000B11CE4CFFF90EF90DF90CF90BF90AF9061
:1005B0009F908F9008952FB7F89460914610709196
:1005C000471080914810909149102FBF0895AF9225
:1005D000BF92CF92DF92EF92FF920F931F93CF9330
:1005E000DF936C017B018B01040F151FEB015E0192
:1005F000AE18BF08C017D10759F06991D601ED9127
:10060000FC910190F081E02DC6011995892B79F7B5
:10061000C501DF91CF911F910F91FF90EF90DF9077
:10062000CF90BF90AF900895FC01538D448D252F3E
:1006300030E0842F90E0821B930B541710F0CF967C
:10064000089501970895FC01918D828D981761F0AE
:10065000A28DAE0FBF2FB11D5D968C91928D9F5FC5
:100660009F73928F90E008958FEF9FEF0895FC01A4
:10067000918D828D981731F0828DE80FF11D858D57
:1006800090E008958FEF9FEF0895FC01918D228DEA
:10069000892F90E0805C9F4F821B91098F7399276F
:1006A00008958EE490E10E94450321E0892B09F42E
:1006B00020E0822F0895FC01A48DA80FB92FB11D51
:1006C000A35ABF4F2C91848D90E001968F73992788
:1006D000848FA689B7892C93A089B1898C91837066
:1006E00080648C93938D848D981306C00288F3895F
:1006F000E02D80818F7D80830895EF92FF920F938C
:100700001F93CF93DF93EC0181E0888F9B8D8C8DBD
:1007100098131AC0E889F989808185FF15C09FB7B1
:10072000F894EE89FF896083E889F9898081837074
:10073000806480839FBF81E090E0DF91CF911F9123
:100740000F91FF90EF900895F62E0B8D10E00F5F44
:100750001F4F0F731127E02E8C8D8E110CC00FB61A
:1007600007FCFACFE889F989808185FFF5CFCE01B2
:100770000E945B03F1CFEB8DEC0FFD2FF11DE35ACF
:10078000FF4FF0829FB7F8940B8FEA89FB89808135
:100790008062CFCFCF93DF93EC01888D8823B9F0AF
:1007A000AA89BB89E889F9898C9185FD03C080817C
:1007B00086FD0DC00FB607FCF7CF8C9185FFF2CFF9
:1007C000808185FFEDCFCE010E945B03E9CFDF91F1
:1007D000CF91089580E090E0892B29F00E94510389
:1007E00081110E94000080E090E0892B49F080E0B8
:1007F00090E0892B29F00E94000081110E940000E6
:1008000080E090E0892B49F080E090E0892B29F08E
:100810000E94000081110E94000080E090E0892B7E
:1008200049F080E090E0892B29F00E9400008111BE
:100830000C9400000895BF92CF92DF92EF92FF9246
:100840000F931F93CF93DF9308EA17E08EE0E82E13
:1008500082E0F82E98EAC92E97E0D92EF801B080F0
:100860000E5F1F4F60E08B2D0E940702D0E0C0E0BA
:10087000F701EC0FFD1F80819181019739F461E050
:10088000FE01E856F84F80810E9407022296C0318F
:10089000D10571F761E070E080E090E00E94A8026D
:1008A00061E08B2D0E940702C8E9D7E0888122967B
:1008B00060E00E940702CC16DD06C1F7F0E1EF0E02
:1008C000F11C87E0083B180749F6DF91CF911F9193
:1008D0000F91FF90EF90DF90CF90BF90089585E348
:1008E0009FE030E020E0F901EE0FFF1FE80FF91F55
:1008F000118210822F5F3F4F20313105A1F7809682
:1009000020E18533920769F70895CF93DF93E5E2FD
:10091000FFE085E39FE0A1E0B0E0619170E0AC0111
:1009200030E020E040525109261737073CF4EA0135
:10093000D395B983A8832F5F3F4FF4CF02962FE062
:10094000E533F20751F7DF91CF91089520914010E0
:1009500030E040913D10D90154E0AA0FBB1F5A95D9
:10096000E1F7FD01E40FF11DEE0FFF1FEB5CF04F0F
:1009700011821082E0913E10EA0FFB2FF11DEE0F65
:10098000FF1FEB5CF04F11821082E0913F10AE0F21
:10099000B11DAA0FBB1FAB5CB04F1D921C92215022
:1009A000310980913B1090913C10892B09F0E42F84
:1009B00084E0220F331F8A95E1F7E20FF32FF11D38
:1009C000EE0FFF1FEB5CF04F118210820895CF9263
:1009D000DF92EF92FF920F931F93CF93DF931F92BB
:1009E0001F92CDB7DEB769834A83880F991F0091A4
:1009F000411110914211000F111FEBEEF0E19F0128
:100A00002B5E30412017310714F41192F8CF298161
:100A1000FC01E551FF4E21838A81808360E0809153
:100A20003F110E9407021016110604F5015011092A
:100A3000F801E551FF4EE080D0903D11C0903B1190
:100A400088E0F82E6E2D661F6627661F8C2D0E948B
:100A50000702EE0C61E08D2D0E94070260E08D2DF3
:100A60000E940702FA94F110EDCFDDCF61E0809192
:100A70003F110F900F90DF91CF911F910F91FF9039
:100A8000EF90DF90CF900C940702EF92FF920F93BC
:100A90001F93CF937C018C0183E0000F111F8A9577
:100AA000E1F705501F4EC1E0F80111928F0140E0BF
:100AB0006C2FC7010E94E704CF5FC930A9F7CF911F
:100AC0001F910F91FF90EF900895EF92FF920F9377
:100AD0001F93CF93DF93809141119091421118168B
:100AE000190624F490E080E00E944505C8E9D7E0AB
:100AF00088EBE82E87E0F82E8881229661E00E943C
:100B0000070208EA17E0F80180810E5F1F4F60E0DE
:100B10000E940702E016F106B1F7F7E0C83ADF07D6
:100B200059F7DF91CF911F910F91FF90EF900895AA
:100B30002F923F924F925F926F927F928F929F92ED
:100B4000AF92BF92CF92DF92EF92FF920F931F93DB
:100B5000CF93DF9300D01F92CDB7DEB738E9632E75
:100B600037E0732E2BEE30E13C832B836C012B019D
:100B700031E0398340E8242E312CF301F081FA83EF
:100B800022E0620E711C61E08F2F0E94070228EAAA
:100B9000E22E27E0F22E5701420110E000E0F501BD
:100BA0008081F2E0AF0EB11CF4012081318160E060
:100BB0002130310509F061E00E9407028091411166
:100BC000909142111816190604F5C101002E02C0B9
:100BD000959587950A94E2F7EB81FC812089F801CD
:100BE000EE0FFF1FEC0DFD1D40815181452B09F4D7
:100BF00053C0822BEB81FC81808BEB81FC8140898F
:100C0000698190E080E00E94E7040F5F1F4FF0E1F0
:100C10008F0E911C0830110511F661E070E080E044
:100C200090E00E94A80260E08A810E940702F7011A
:100C30008081F2E0EF0EF11C61E00E94070228EBD8
:100C400037E02E153F0599F78B819C8101969C8397
:100C50008B8399819F5F9983E0E1CE0ED11CF2E0F6
:100C60004F0E511C993009F088CF0F900F900F90C4
:100C70000F90DF91CF911F910F91FF90EF90DF9038
:100C8000CF90BF90AF909F908F907F906F905F902C
:100C90004F903F902F90089580958223ABCF6F9215
:100CA0007F928F929F92AF92BF92CF92DF92EF92FC
:100CB000FF920F931F93CF93DF93CDB7DEB7DA95F3
:100CC0000FB6F894DEBF0FBECDBF9C015B01942E22
:100CD000EAE0F0E0BF010E9411146C01C9018C1917
:100CE0009D09BF010E9411149B013695322F2227C6
:100CF0003795279522573D4F40E15DE0C61AD70A48
:100D0000D694DC2CCC24D794C7943A0170E060E0F0
:100D100089010C0D1D1DF30190E080E07901683020
:100D200071050CF07801E80EF91ED701ED90FC90EA
:100D3000F182E082B09640968038910579F76F5F36
:100D40007F4F2E5F3F4FB2E06B0E711C603171051B
:100D5000F9F680E88E010F5F1F4FF801982F11926E
:100D60009A95E9F77E01A1E8EA0EF11CF7011192CC
:100D70008A95E9F7B801F70190E080E030E020E0E3
:100D8000DA01A80FB91FCD90DC90DB01A80FB91FC5
:100D90002830310524F0DC015097AE0FBF1FCD92F3
:100DA000DC922F5F3F4F02962031310549F7605F9B
:100DB0007F4F7096405E5F4F6E157F05E9F691108C
:100DC00013C088E28A9D40018B9D900C1124D12C88
:100DD000C12CB701C8010E949805FFEFCF1ADF0AA6
:100DE0008C149D04B1F703C0C8010E949805D395E7
:100DF0000FB6F894DEBF0FBECDBFDF91CF911F912C
:100E00000F91FF90EF90DF90CF90BF90AF909F90A9
:100E10008F907F906F900895AF92BF92CF92DF92A4
:100E2000EF92FF920F931F93CF93DF93CDB7DEB76F
:100E3000DA950FB6F894DEBF0FBECDBF20E8CE0125
:100E40000196DC01E22F1D92EA95E9F75E01F1E8D7
:100E5000AF0EB11CD5011D922A95E9F7BC018501A1
:100E6000A5E3BFE030E020E050E040E07D01E20E8D
:100E7000F31EF701C080D1807B01E20EF31E4830E3
:100E8000510534F07901F0E1EF1AF108E00EF11E9E
:100E9000F701D182C0824F5F5F4F2E5F3F4F4031DD
:100EA000510521F7605F7F4F005F1F4F90966A15D5
:100EB0007B05C1F60E949805D3950FB6F894DEBF66
:100EC0000FBECDBFDF91CF911F910F91FF90EF909B
:100ED000DF90CF90BF90AF900895FC01019000206B
:100EE000E9F73197AF01481B590BBC018EE490E143
:100EF0000C94E7028F929F92AF92BF920F931F9331
:100F0000CF93DF93CDB7DEB7A1970FB6F894DEBFCE
:100F10000FBECDBF19A2423008F44AE08E010F5D2A
:100F20001F4F842E912CB12CA12CA50194010E945D
:100F30003112E62FB901CA01EA30F4F4E05DD801BC
:100F4000EE938D01232B242B252B79F790E080E065
:100F5000109719F0CD010E946D07A1960FB6F89475
:100F6000DEBF0FBECDBFDF91CF911F910F91BF901C
:100F7000AF909F908F900895E95CE1CFCF92DF9280
:100F8000EF92FF92CF93DF936B017C016DE28EE4D1
:100F900090E10E947D03EC0166277727CB016C1955
:100FA0007D098E099F094AE00E947A078C0F9D1FD8
:100FB000DF91CF91FF90EF90DF90CF900895BC012B
:100FC000990F880B990B97FD0C94BE074AE00C947F
:100FD0007A07CF93DF930E946D07EC018AE49CE0CF
:100FE0000E946D078C0F9D1FDF91CF910895DF92B6
:100FF000EF92FF920F931F93CF93DF938C3661F4A0
:1010000010923C1010923B10DF91CF911F910F91E5
:10101000FF90EF90DF900895823739F481E090E0FF
:1010200090933C1080933B10EFCF8B3609F078C043
:10103000F0904210FF2009F465C08091371041E024
:1010400061E070E090E00E944F0610920E0D109249
:101050000D0DE12CD12C83E00E94DE01019789F572
:1010600000910D0D10910E0DE8012196D0930E0DFB
:10107000C0930D0D64E670E080E090E00E94A8024D
:10108000CE31D1054CF0CE010E94DF078DE49CE00B
:101090000E94E907DF2CDFCF03511109CE010A308E
:1010A000110540F40E94DF078FE59CE00E94E907EC
:1010B000EF2CD1CF0E94DF0781E79CE00E94E90777
:1010C000CACFDD2091F0109242101092351010928C
:1010D000050281E080934410109236101092431064
:1010E00010920E0D10920D0D8FCFEE2009F48CCFC3
:1010F0001092421081E080933510109205021092F8
:101100004410EACF81E08093421010923510109283
:10111000050210924410109236101092431074CFB2
:10112000833709F071CF8091411081116DCF81E03B
:1011300080934110E0913E10E0930B0D9091401090
:1011400090930C0DF0E0EB5DF04F9081992309F442
:101150005BCF80930A0D58CFCF93DF93BC01990FDB
:10116000880B990B97FF0CC00E94BE07EC018AE424
:101170009CE00E946D078C0F9D1FDF91CF91089519
:101180004AE00E947A07F2CFCF93DF9386E00E9475
:10119000DE01019709F4CEC087E00E94DE010197CD
:1011A00009F4CAC084E00E94DE01019791F58091A4
:1011B0000502882319F18091441081111FC080918C
:1011C000361081111BC080914310811117C083E834
:1011D0009CE00E94E90780910F0D811111C087E901
:1011E0009CE00E94E90781E080930F0D80931C0E24
:1011F00062E370E080E090E00E94A80283E714C000
:1012000081EA9CE00E94E90710920F0D10921C0EDB
:10121000EFCF83E00E94DE01019709F085C0809145
:101220004210882321F08BE6DF91CF910895C09181
:101230000D0DD0910E0D2196D0930E0DC0930D0D76
:1012400062E370E080E090E00E94A802CE010E947C
:10125000AC0880910D0D90910E0D4E9724F3809166
:1012600005028823E9F080914410811119C0809112
:101270003610811115C080914310811111C089EA87
:101280009CE00E94E9071092050281E080934410DF
:10129000109236101092431010920E0D10920D0DF8
:1012A0008091050281111DC080914410811119C0E7
:1012B000809136108823A9F080914310811111C0CC
:1012C00089EA9CE00E94E9071092050281E0809380
:1012D0004410109236101092431010920E0D10927E
:1012E0000D0D8091050281119ECF809144108111D6
:1012F0009ACF80913610811196CF80914310882328
:1013000009F491CF8EEA9CE00E94E9071092050251
:1013100081E0809344101092361010924310109286
:101320000E0D10920D0D7FCF10920E0D10920D0D1F
:1013300080E27ACF82E778CF8CE676CFCF92DF92C9
:10134000EF92FF920F931F93CF93DF93C82ED12C70
:1013500080E1E82EF12CC4E0D0E0DC14B9F00E946A
:101360004C118C010E944C11B7010E941114FC0118
:10137000FF27EB5DF04F80818111EFCFC801BE01E7
:101380000E9411148F5F8083D394E7CF0E946F0473
:10139000DF91CF911F910F91FF90EF90DF90CF9051
:1013A0000C948504CF92DF92EF92FF920F931F93DC
:1013B000CF930E94A60400913B1010913C106091C5
:1013C0003D10C8010E946801C82F80933D106091B4
:1013D0003E10C8010E946801F82E80933E10609173
:1013E0003F10C8010E94680180933F106091401037
:1013F00070E0AC2FB0E09B0144E0220F331F4A9510
:10140000E1F7F901EA0FFB1FEE0FFF1FEB5CF04F56
:10141000CC24C394D12CD182C0824F2D50E0F9014D
:10142000E40FF51FEE0FFF1FEB5CF04FD182C0827F
:10143000E82EF12CF901EE0DFF1DEE0FFF1FEB5C06
:10144000F04FD182C082FB0131970115110509F4DB
:10145000C82F84E0EE0FFF1F8A95E1F7EC0FF11D16
:10146000EE0FFF1FEB5CF04F81E090E091838083F3
:10147000F701EB5DF04F208121110DC0FA01EB5D0A
:10148000F04F8081811107C0FD01EB5DF04F80813D
:10149000882309F45AC088E090E0FC01E21BF109BE
:1014A0006E177F079CF44B5D504FFA012081AC0111
:1014B000421B5109641775074CF4AB5DB04F2C917A
:1014C000821B9109681779070CF43FC0809137108F
:1014D00081110DC0109242101092351091E090933E
:1014E0000502109244101092361010924310815051
:1014F000809337100E94A60482E080933D1081E023
:1015000080933E1010923F108093401081E090E055
:1015100090935A0F8093590F9093580F8093570FC1
:101520009093560F8093550FE0E0012B09F0E2E015
:10153000F0E0EE0FFF1FEB5CF04F81E090E0918355
:1015400080830E9485040E940C070E940C078091F2
:101550004110882309F48CC0E0910C0D6E2F70E0CF
:1015600020910B0D30E0DB0194E0AA0FBB1F9A9590
:10157000E1F7A20FB31FAA0FBB1FAB5CB04F1D92C8
:101580001C92D901AB5DB04F8C91882349F047E0A4
:1015900050E0461B570B8417150611F481508C93AD
:1015A000EF5FE0930C0DE83008F46BC080910A0DFA
:1015B0008823A1F090913A10809139108F5F809329
:1015C00039109F5F90933A1065E00E9405149111C5
:1015D00005C0809137108F5F8093371010924110B3
:1015E00010920A0DC0913A1080913810C81340C073
:1015F00040E062E070E08C2F90E00E944F060E9475
:101600006F04E5E2FFE085E39FE011928E179F07EC
:10161000E1F710923C1010923B1082E080933D1055
:1016200081E080933E1010923F1080934010109202
:101630003A10C03108F0CFE081E08C0F8093381071
:1016400021E030E030935A0F2093590F3093580F18
:101650002093570F3093560F2093550F3093360F2A
:101660002093350F0E949E090E9485040E94D20992
:10167000CF911F910F91FF90EF90DF90CF900C943E
:101680000C0750E1E59FF0011124E20FF31FEE0F6C
:10169000FF1FEB5CF04F81E090E091838083E8CF07
:1016A0001F920F920FB60F9211242F933F938F9397
:1016B0009F93AF93BF938091461090914710A09154
:1016C0004810B09149103091451023E0230F2D3779
:1016D00058F50196A11DB11D209345108093461029
:1016E00090934710A0934810B093491080914A10EE
:1016F00090914B10A0914C10B0914D100196A11DEE
:10170000B11D80934A1090934B10A0934C10B0934E
:101710004D10BF91AF919F918F913F912F910F905D
:101720000FBE0F901F90189526E8230F0296A11D5B
:10173000B11DD2CF1F920F920FB60F9211240BB68C
:101740000F922F933F934F935F936F937F938F935A
:101750009F93AF93BF93EF93FF938EE490E10E942A
:101760005B03FF91EF91BF91AF919F918F917F911B
:101770006F915F914F913F912F910F900BBE0F9002
:101780000FBE0F901F9018951F920F920FB60F92D9
:1017900011240BB60F922F938F939F93EF93FF9388
:1017A000E0915E10F0915F108081E0916410F09103
:1017B000651082FD1DC09081809167108F5F8F73CF
:1017C00020916810821741F0E0916710F0E0E25B31
:1017D000FF4E958F80936710FF91EF919F918F91AE
:1017E0002F910F900BBE0F900FBE0F901F9018956A
:1017F0008081F2CFCF93DF9310925110109250104E
:1018000088EE93E0A0E0B0E08093521090935310E4
:10181000A0935410B09355108CE39CE090934F101C
:1018200080934E1085EC90E090935B1080935A105B
:1018300084EC90E090935D1080935C1080EC90E0DD
:1018400090935F1080935E1081EC90E09093611014
:101850008093601082EC90E090936310809362100C
:1018600086EC90E09093651080936410109267105E
:10187000109268101092691010926A10C3E3D0E0C1
:10188000D0933C11C0933B1185E390E090933E11BF
:1018900080933D1184E390E09093401180933F1139
:1018A00081E090E0909342118093411161E083E3E5
:1018B0000E94350261E080913D110E94350261E095
:1018C00080913F110E94350261E080913F110E949A
:1018D0000702D0933C11C0933B11EBEFF0E1119262
:1018E00081E1EB33F807D9F7D0E0C0E080914111F6
:1018F00090914211C817D90774F540E06FE0CE010E
:101900000E94E7048091411190914211C817D907B4
:101910002CF447E06BE0CE010E94E70440E069E070
:10192000CE010E94E7048091411190914211C817A5
:10193000D9071CF4CE010E94450580914111909178
:101940004211C817D9072CF440E06CE0CE010E9488
:10195000E7042196CBCFDF91CF910895789484B599
:10196000826084BD84B5816084BD85B5826085BD9B
:1019700085B5816085BD80916E00816080936E0029
:10198000109281008091810082608093810080911B
:1019900081008160809381008091800081608093CC
:1019A00080008091B10084608093B1008091B0008C
:1019B00081608093B000809191008260809391005B
:1019C000809191008160809391008091900081606E
:1019D000809390008091A10082608093A10080910B
:1019E000A10081608093A1008091A000816080931C
:1019F000A0008091210182608093210180912101CA
:101A00008160809321018091200181608093200179
:101A100080917A00846080937A0080917A0082605D
:101A200080937A0080917A00816080937A0080911F
:101A30007A00806880937A001092C100E0915E1075
:101A4000F0915F1082E08083E0915A10F0915B107A
:101A50001082E0915C10F0915D108FEC8083109209
:101A60006610E0916210F091631086E08083E0914F
:101A70006010F0916110808180618083E09160103E
:101A8000F0916110808188608083E0916010F09116
:101A90006110808180688083E0916010F091611016
:101AA00080818F7D808380E00E946602BC01990F57
:101AB000880B990B611571058105910511F00E9444
:101AC000F611C8E9D7E07E0108EA17E0F801808145
:101AD0000E5F1F4F61E00E943502F7018081F2E046
:101AE000EF0EF11C61E00E94350227E0083B12076F
:101AF00069F780914111909142111816190634F43A
:101B000041E06CE090E080E00E94E70480914111A8
:101B1000909142111816190634F448E06AE090E0FA
:101B200080E00E94E70480914111909142111816C3
:101B3000190624F490E080E00E94450588812296F1
:101B400060E00E94070208EA17E0F80180810E5F5A
:101B50001F4F61E00E940702F7E0083B1F07A9F74B
:101B600007E0C83AD00751F760E086E00E943502EE
:101B700060E087E00E94350260E084E00E94350268
:101B800060E083E00E9435020EE817E0C0E1DEE08D
:101B90007E0184E6882E912CA12CB12CF801619154
:101BA00071918F01072E000C880B990B0E940C136A
:101BB00020E030E040E450E40E94621220E030E097
:101BC00048EC52E40E9498130E94D4129B01AC018D
:101BD000A7E0B0E00E941E12A50194010E94FF112F
:101BE0002F5F3F4F4F4F5F4FF701219331937F019D
:101BF000F7E008391F0791F683E29EE030E020E02D
:101C0000F901EE0FFF1FE80FF91F118210822F5FFD
:101C10003F4F20313105A1F780960FE083329007C6
:101C200069F790E080E067E070E0A1E0B0E0299122
:101C300039912115310591F0FC01EB5FF04F47E040
:101C400050E08B01021B130B041715070CF0C6C2E2
:101C5000B183A08341505109B097F6CF06968E31DB
:101C6000910529F7C1E0D0E044244394512C8091A0
:101C70000502882309F4ADC08AEB9CE00E94E907C5
:101C80000E94C4080E94DB026B017C01F5E36F2E09
:101C9000FFE07F2E312C212C0091210E1091220E7D
:101CA00030E020E0B801620D731DFB01E20FF31F6D
:101CB000E854F84F4081C901880F991F860D971D80
:101CC000FC01411169C0118210822F5F3F4F20310A
:101CD000310559F78090010290900202A090030212
:101CE000B0900402C501B40124E630E040E050E0C9
:101CF0000E943112CA01B9010E94A802F0E26F0EDF
:101D0000711C20E8220E311C211434E0330621F628
:101D100080911D0E90911E0EA0911F0EB091200E6D
:101D2000A7019601281B390B4A0B5B0BDA01C9018D
:101D300088169906AA06BB0600F5C0921D0ED09221
:101D40001E0EE0921F0EF092200E20911C0E80912C
:101D50001A0E90911B0E222341F10F371105F9F055
:101D60000F5F1F4F1093220E0093210E0097D1F0AA
:101D7000019790931B0E80931A0E0E940C070E94ED
:101D80006F046091010270910202809103029091B0
:101D900004020E94A802C0C1D183C08396CF10E084
:101DA00000E0E0CF8EE790E0E4CF0115110559F097
:101DB000015011091093220E0093210E8F379105C7
:101DC00029F00196D6CF0EE710E0F4CF90E080E046
:101DD000D0CF70904410772009F4F6C085EC9CE0D9
:101DE0000E94E9078091230F9091240F892B09F518
:101DF0000E9465050E941B040E941B040E941B0494
:101E00006AE070E080E090E00E94A8025092240F07
:101E10004092230F0E94C4088C3609F04EC08DEC0E
:101E20009CE00E94E9071092441031E03093361094
:101E3000A8CF0E94DB0205E31FE068EBE62E6BE013
:101E4000F62E74E6872E912CA12CB12C30E020E0E8
:101E5000F701E20FF31F4081C901880F991F800F1E
:101E6000911FFC01411126C0118210822F5F3F4F4C
:101E70002031310569F76091010270910202809171
:101E8000030290910402A50194010E943112CA013B
:101E9000B9010E94A802005E1F4FF0E1EF0EF11C95
:101EA00025E330E12017310789F60E940C070E94D4
:101EB0006F04B0CFD183C083D9CF0E94C4088337C9
:101EC00009F073C083ED9CE00E94E907612C812C2E
:101ED000912C54010E94DB0205E31FE033E2E32E64
:101EE0003EE0F32E90E080E0F701E80FF91F20813B
:101EF0003181F801E80FF91F232B69F51182108257
:101F000002968032910581F761E070E080E090E018
:101F10000E94A802005E1F4F40E2E40EF11C85E320
:101F200090E180179107F1F60E940C070E946F0460
:101F30000E94DB026B017C0183E00E94DE010197BD
:101F400041F461100BC00E94DB024B015C01672C65
:101F5000C1CF612CBFCFD183C083D2CFC818D908DD
:101F6000EA08FB0890EFC91A9AE0D90AE108F108DB
:101F7000E5EFCE16E1E0DE06E104F10408F0AACFB9
:101F800082E00E94DE01892B09F0A4CF0E946F0439
:101F900064E670E080E090E00E94A80266E970E0EC
:101FA00080E090E00E94A802ECCE0E94C408823734
:101FB00009F0E7CE89ED9CE00E94E90710924410F9
:101FC000F1E0F0934310DDCE80914310882309F4B3
:101FD0008FC082EE9CE00E94E90761E070E080E043
:101FE00090E00E94A8020E94C4080E94DB0286E3DF
:101FF0000E9466029C01A8EDBFEF0E942D1428EEFE
:1020000033E040E050E00E94FF11DA01C9018896F8
:10201000A11DB11D8C0197FF02C00D5F1F4F1595CB
:10202000079515950795119501951109065F1F4FA5
:102030008093010290930202A0930302B0930402E2
:102040008EE30E94660227E030E0DC010E94351436
:1020500028EE33E040E050E00E94FF11BA01A901F0
:102060004D5F5F4F6F4F7F4FDA014093000265E392
:102070007FE04FEF5FEF2BEF3FEF90E080E0FC0160
:10208000EE0FFF1FE60FF71F11821082423051053D
:1020900028F48017910714F4D183C08322303105CE
:1020A00028F48A179B0714F4D183C08301968031EA
:1020B000910529F7605E7F4F2F5F3F4F4F5F5F4F66
:1020C00023303105D1F6C8010E94AC0860910102AD
:1020D0007091020280910302909104024AE00E94F2
:1020E0007A078AE49CE00E946D070E940C0749CEA3
:1020F00080914210882399F08CEE9CE00E94E907C1
:102100008091371041E061E070E090E00E944F065E
:102110000E94C4080E94F7070E94EA03A8CD80919C
:102120003610882309F444C085EF9CE00E94E9073B
:102130000E946F04E5E2FFE011920FE0E533F00743
:10214000D9F7809100028093371010923C101092C2
:102150003B1012E010933D1021E020933E101092AE
:102160003F102093401010923A10109239101092A4
:1021700041102093381050925A0F4092590F5092AC
:10218000580F4092570F5092560F4092550F509251
:10219000360F4092350F81E00E949E090E9485040F
:1021A0000E94D2091092361031E030933510E9CDFB
:1021B00080913510882309F4E4CD81E09DE00E94F0
:1021C000E9070E9465050E94D2090E94C4080E9486
:1021D000F70761E070E080E090E0E4CEFC01E95FA9
:1021E000F04F47E050E08B01021B130B98012417BE
:1021F00035070CF033CDB183A08341505109B0971E
:10220000F6CF8F929F92AF92BF92CF92DF92EF92D2
:10221000FF92CF93DF93EC01688179818A819B8162
:10222000611571058105910521F464E279ED8BE575
:1022300097E02DE133EF41E050E00E94FF114901AA
:102240005A019B01AC01A7EAB1E40E941E126B0186
:102250007C01ACEEB4EFA50194010E942C12DC01CC
:10226000CB018C0D9D1DAE1DBF1DB7FF03C0019797
:10227000A109B04888839983AA83BB839F77DF91A4
:10228000CF91FF90EF90DF90CF90BF90AF909F9055
:102290008F9008950C94011186E092E00C94011146
:1022A000B0E0A0E08093060290930702A09308029A
:1022B000B093090208958F929F92AF92BF92CF92EE
:1022C000DF92EF92FF92CF93DF93EC0168817981E7
:1022D0008A819B81611571058105910521F464E274
:1022E00079ED8BE597E02DE133EF41E050E00E947E
:1022F000FF1149015A019B01AC01A7EAB1E40E9418
:102300001E126B017C01ACEEB4EFA50194010E949A
:102310002C12C60ED71EE81EF91EF7FE06C081E07D
:10232000C81AD108E10880E8F80AC882D982EA828E
:10233000FB82C701B6019F77DF91CF91FF90EF90AD
:10234000DF90CF90BF90AF909F908F9008958F9225
:102350009F92AF92BF92CF92DF92EF92FF926091E5
:102360000A0270910B0280910C0290910D0261158E
:1023700071058105910521F464E279ED8BE597E023
:102380002DE133EF41E050E00E94FF1149015A0175
:102390009B01AC01A7EAB1E40E941E126B017C0113
:1023A000ACEEB4EFA50194010E942C12C60ED71E0C
:1023B000E81EF91EF7FE06C081E0C81AD108E10840
:1023C00080E8F80AC0920A02D0920B02E0920C0256
:1023D000F0920D02C701B6019F77FF90EF90DF905A
:1023E000CF90BF90AF909F908F90089560930A0216
:1023F00070930B0280930C0290930D020895052EAA
:1024000097FB1EF400940E94161257FD07D00E94FD
:10241000311207FC03D04EF40C94161250954095DF
:10242000309521953F4F4F4F5F4F08959095809580
:10243000709561957F4F8F4F9F4F08950E94531263
:10244000A59F900DB49F900DA49F800D911D112408
:102450000895B7FF0C941E120E941E12821B930B4C
:102460000895A1E21A2EAA1BBB1BFD010DC0AA1FD5
:10247000BB1FEE1FFF1FA217B307E407F50720F0ED
:10248000A21BB30BE40BF50B661F771F881F991F68
:102490001A9469F760957095809590959B01AC01B1
:1024A000BD01CF010895A29FB001B39FC001A39FBA
:1024B000700D811D1124911DB29F700D811D11247D
:1024C000911D08950E9476120C945E130E9457137A
:1024D00058F00E94501340F029F45F3F29F00C940B
:1024E000471351110C9492130C944D130E946F13C7
:1024F00068F39923B1F3552391F3951B550BBB2733
:10250000AA2762177307840738F09F5F5F4F220F77
:10251000331F441FAA1FA9F335D00E2E3AF0E0E86E
:1025200032D091505040E695001CCAF72BD0FE2FB8
:1025300029D0660F771F881FBB1F2617370748074C
:10254000AB07B0E809F0BB0B802DBF01FF27935804
:102550005F4F3AF09E3F510578F00C9447130C946E
:1025600092135F3FE4F3983ED4F386957795679591
:10257000B795F7959F5FC9F7880F911D9695879539
:1025800097F90895E1E0660F771F881FBB1F621758
:1025900073078407BA0720F0621B730B840BBA0B16
:1025A000EE1F88F7E09508950E94DB126894B11140
:1025B0000C94921308950E94771388F09F5798F017
:1025C000B92F9927B751B0F0E1F0660F771F881F38
:1025D000991F1AF0BA95C9F714C0B13091F00E9452
:1025E0009113B1E008950C949113672F782F8827E9
:1025F000B85F39F0B93FCCF3869577956795B39579
:10260000D9F73EF490958095709561957F4F8F4FE7
:102610009F4F0895E89409C097FB3EF490958095EC
:10262000709561957F4F8F4F9F4F9923A9F0F92F98
:1026300096E9BB279395F695879577956795B79516
:10264000F111F8CFFAF4BB0F11F460FF1BC06F5FFC
:102650007F4F8F4F9F4F16C0882311F096E911C00E
:10266000772321F09EE8872F762F05C0662371F02F
:1026700096E8862F70E060E02AF09A95660F771F43
:10268000881FDAF7880F9695879597F9089597F937
:102690009F6780E870E060E008959FEF80EC089508
:1026A00000240A9416161706180609060895002431
:1026B0000A9412161306140605060895092E0394AB
:1026C000000C11F4882352F0BB0F40F4BF2B11F41F
:1026D00060FF04C06F5F7F4F8F4F9F4F089557FD7E
:1026E0009058440F551F59F05F3F71F04795880F80
:1026F00097FB991F61F09F3F79F087950895121617
:1027000013061406551FF2CF4695F1DF08C01616C2
:1027100017061806991FF1CF869571056105089473
:102720000895E894BB2766277727CB0197F908958A
:102730000E94AB130C945E130E94501338F00E9459
:10274000571320F0952311F00C9447130C944D135C
:1027500011240C9492130E946F1370F3959FC1F390
:10276000950F50E0551F629FF001729FBB27F00D3F
:10277000B11D639FAA27F00DB11DAA1F649F662794
:10278000B00DA11D661F829F2227B00DA11D621FE3
:10279000739FB00DA11D621F839FA00D611D221F9D
:1027A000749F3327A00D611D231F849F600D211D81
:1027B000822F762F6A2F11249F5750409AF0F1F004
:1027C00088234AF0EE0FFF1FBB1F661F771F881F6D
:1027D00091505040A9F79E3F510580F00C9447134B
:1027E0000C9492135F3FE4F3983ED4F3869577956B
:1027F0006795B795F795E7959F5FC1F7FE2B880F13
:10280000911D9695879597F90895991B79E004C0D5
:10281000991F961708F0961B881F7A95C9F780951F
:10282000089597FB072E16F4009407D077FD09D082
:102830000E943C1407FC05D03EF4909581959F4F73
:102840000895709561957F4F0895EE0FFF1F881FC3
:102850008BBF0790F691E02D19940E9453123323F9
:1028600012F48A1B9B0B0C9437140E945312B7FF6F
:102870000895821B930B0895AA1BBB1B51E107C04F
:10288000AA1FBB1FA617B70710F0A61BB70B881F00
:10289000991F5A95A9F780959095BC01CD0108958F
:1028A000F894FFCF032800000001010000000100A0
:1028B0000000000000000000000000000000000018
:1028C0000000000000000000000000000000000008
:1028D00000000000000000000000000000000000F8
:1028E00000000000000000000000000000000000E8
:1028F00000000000000000000000000000000000D8
:1029000000000000000000000000000000000000C7
:1029100000000000000000000000000000000000B7
:1029200000000000000000000000000000000000A7
:102930000000000000000100010001000000000094
:102940000000000001000000000000000100000085
:102950000000000001000000000000000100000075
:102960000000000001000000000000000100000065
:102970000000000001000000000000000100000055
:102980000000000001000000000000000100000045
:102990000000000001000000000000000100000035
:1029A0000000000000000100010001000000000024
:1029B0000000000000000000010000000000000016
:1029C0000000000000000100010000000000000005
:1029D00000000000000000000100000000000000F6
:1029E00000000000000000000100000000000000E6
:1029F00000000000000000000100000000000000D6
:102A000000000000000000000100000000000000C5
:102A100000000000000000000100000000000000B5
:102A200000000000000001000100010000000000A3
:102A30000000000000000000000000000000000096
:102A40000000000000000100010001000000000083
:102A50000000000001000000000000000100000074
:102A60000000000000000000000001000000000065
:102A70000000000000000000010000000000000055
:102A80000000000000000100000000000000000045
:102A90000000000001000100010001000100000031
:102AA0000000000000000000000000000000000026
:102AB0000000000000000000000000000000000016
:102AC0000000000000000100010001000000000003
:102AD00000000000010000000000000001000000F4
:102AE00000000000000000000000000001000000E5
:102AF00000000000000000000100010000000000D4
:102B000000000000000000000000000001000000C4
:102B100000000000010000000000000001000000B3
:102B200000000000000001000100010000000000A2
:102B30000000000000000000000000000000000095
:102B40000000000001000000000000000100000083
:102B50000000000001000000000000000100000073
:102B6000000000000100010001000100010001005F
:102B70000000000000000000000000000100000054
:102B80000000000000000000000000000100000044
:102B90000000000000000000000000000100000034
:102BA0000000000000000000000000000000000025
:102BB0000000000000000000000000000000000015
:102BC00000000000010001000100010001000100FF
:102BD00000000000010000000000000000000000F4
:102BE00000000000010001000100010000000000E1
:102BF00000000000000000000000000001000000D4
:102C000000000000000000000000000000000100C3
:102C100000000000000000000000000001000000B3
:102C200000000000010001000100010000000000A0
:102C30000000000000000000000000000000000094
:102C40000000000000000100010001000000000081
:102C50000000000001000000000000000000000073
:102C60000000000001000000010001000100000060
:102C70000000000001000100000000000000010051
:102C80000000000001000000000000000000010042
:102C90000000000000000100010001000100000030
:102CA0000000000000000000000000000000000024
:102CB0000000000000000000000000000000000014
:102CC00000000000010001000100010001000100FE
:102CD00000000000000000000000000000000100F3
:102CE00000000000000000000000000001000000E3
:102CF00000000000000000000000010000000000D3
:102D000000000000000000000100000000000000C2
:102D100000000000000001000000000000000000B2
:102D200000000000000000000000000000000000A3
:102D30000000000000000000000000000000000093
:102D4000000000000100010001000100010001007D
:102D50000000000001000000000000000000010071
:102D60000000000001000000000000000000010061
:102D7000000000000100010001000100010001004D
:102D80000000000001000000000000000000010041
:102D90000000000001000000000000000000010031
:102DA000000000000100010001000100010001001D
:102DB0000000000000000000000000000000000013
:102DC00000000000010001000100010001000100FD
:102DD00000000000010000000000000000000100F1
:102DE00000000000010001000100010001000100DD
:102DF00000000000000000000000000000000100D2
:102E000000000000000000000000000000000100C1
:102E100000000000000000000000000000000100B1
:102E200000000000000000000000000000000000A2
:102E30000000020001000000000000002A0029003C
:102E4000280027002600250024002300320031003E
:102E500030002F002E002D002C002B000000000061
:102E60000000000000000000000000000000000062
:102E70000000000000000000000000000000000052
:102E80000000000000000000000000000000000042
:102E90000000000000000000000000000000000032
:102EA0000000000000000000000000000000000022
:102EB0000000000000000000000000000000000012
:102EC0000000000000000000000000000000000002
:102ED00000000000000000000000000000000000F2
:102EE00000000000010101010000000101010000DB
:102EF00000000100000000000000000000000000D1
:102F000001010101010000000000000000010101B9
:102F100000000001010100000001010100000001AA
:102F2000010100000000010000000000000001019C
:102F30000101000001000000010001010101000089
:102F4000000101010000000000000000000101017B
:102F5000000000000100010000000000000001016D
:102F6000010100000100000001000100000001005B
:102F7000010101000000000000000000000000004E
:102F8000000001000000000000000000010000003F
:102F9000010001000000010001000000010001002B
:102FA000000001000001000000010101000001001B
:102FB000000001000100000001000100000001000C
:102FC00001000000010000000000000001000000FE
:102FD00001000101010000010000000000000100EB
:102FE00000000100010000000100010000000100DC
:102FF00000000100010101010100000000000000CB
:1030000000000100000001010101010000000001B9
:1030100000000100000001000000000100000000AD
:10302000000100000100000001000000010001009B
:10303000000100000100000001000100000001008B
:10304000010000000100000000000000000000017D
:10305000000000000100000001000000000001006D
:103060000000010001010101000001010101010056
:103070000000010001010101010001000000010048
:103080000100010000000101010101000000010038
:10309000000001000000010000000100000000002D
:1030A0000101000001000000010000000100010119
:1030B0000100000001000000010001010101000009
:1030C00001000000010000000000000000000100FD
:1030D00000000000010000000100000000000101EC
:1030E00001010000010000010000010000000100DA
:1030F00000000100000000000000000100010000CD
:1031000001000100000000000000000000010000BC
:1031100000000100000001000001000000000100AB
:103120000000010000010000000101010100010098
:10313000000100000100000001000100000000008B
:10314000010000000100000000000000000100007C
:10315000000000000100000100000000000001006C
:10316000000000000100000001000100000001005B
:10317000000001000000000000000000010000004D
:10318000000100000000000000000000010101013A
:103190000100000101010000010101010100000125
:1031A000010100000000010000000000010001001A
:1031B000000001000001010100000100000000000A
:1031C00000010101000000000000000001010101F8
:1031D00001000000010001000000000000000100EB
:1031E00000000000000000000000000000000000DF
:1031F00000000000000000000000000000000000CF
:1032000000000000000000000000000000000000BE
:1032100000000000000000000000000000000000AE
:10322000000000000000000000010101000000009B
:10323000000000000000000000000000000000008E
:10324000000000000000000000000000000000007E
:10325000000000000000000000000000000000006E
:103260000001010101010100000000000000000058
:103270000001010101010100000000000001000047
:103280000001000101010100000101000001010134
:103290000001000101000100010000000000010028
:1032A000000100000100010001000000000000001A
:1032B000000100000000010000010100000000000A
:1032C00000010101010101000000000000000000F8
:1032D00000010101010101000000000000000000E8
:1032E0007D03E7021403CA034503230337030D0AD2
:1032F0000020524547524553415220414C204D45F4
:103300004E5500524547524553415220414C204AA8
:103310005545474F00515545444152534520454E70
:103320002050415553410043616D62696F206465CF
:1033300020646972656363696F6E00697A7175698B
:10334000657264610064657265636861003373650A
:1033500067003373656720636F6E66696700656E2B
:10336000206D656E73616A6500656E206D656E75B2
:10337000004A7565676F00737461747300656E430E
:103380006F6E66696700656E20636F6E66696700C1
:10339000656E207061757361006E7565766F206A69
:0E33A0007565676F00656E206A7565676F0062
:020000040003F7
:10E000000D9489F10D94B2F10D94B2F10D94B2F129
:10E010000D94B2F10D94B2F10D94B2F10D94B2F1F0
:10E020000D94B2F10D94B2F10D94B2F10D94B2F1E0
:10E030000D94B2F10D94B2F10D94B2F10D94B2F1D0
:10E040000D94B2F10D94B2F10D94B2F10D94B2F1C0
:10E050000D94B2F10D94B2F10D94B2F10D94B2F1B0
:10E060000D94B2F10D94B2F10D94B2F10D94B2F1A0
:10E070000D94B2F10D94B2F10D94B2F10D94B2F190
:10E080000D94B2F10D94B2F10D94B2F10D94B2F180
:10E090000D94B2F10D94B2F10D94B2F10D94B2F170
:10E0A0000D94B2F10D94B2F10D94B2F10D94B2F160
:10E0B0000D94B2F10D94B2F10D94B2F10D94B2F150
:10E0C0000D94B2F10D94B2F10D94B2F10D94B2F140
:10E0D0000D94B2F10D94B2F10D94B2F10D94B2F130
:10E0E0000D94B2F141546D656761323536300041AF
:10E0F000726475696E6F206578706C6F72657220DE
:10E1000073746B3530305632206279204D4C530099
:10E11000426F6F746C6F616465723E004875683F52
:10E1200000436F6D70696C6564206F6E203D200048
:10E130004350552054797065202020203D20005FF9
:10E140005F4156525F415243485F5F3D2000415658
:10E1500052204C696243205665723D20004743437C
:10E160002056657273696F6E203D20004350552024
:10E1700049442020202020203D20004C6F7720663D
:10E18000757365202020203D20004869676820665F
:10E190007573652020203D200045787420667573D6
:10E1A00065202020203D20004C6F636B2066757336
:10E1B000652020203D20004D617220203720323024
:10E1C000313300312E362E3800342E332E350056A2
:10E1D00023202020414444522020206F7020636F70
:10E1E00064652020202020696E73747275637469E1
:10E1F0006F6E2061646472202020496E74657272B3
:10E20000757074006E6F20766563746F7200726A49
:10E210006D702020006A6D70200057686174207056
:10E220006F72743A00506F7274206E6F7420737541
:10E2300070706F72746564004D7573742062652030
:10E2400061206C6574746572002000577269747483
:10E25000696E672045450052656164696E672045B7
:10E26000450045452065727220636E743D00504F35
:10E27000525400303D5A65726F2061646472003FF1
:10E280003D43505520737461747300403D454550C3
:10E29000524F4D207465737400423D426C696E6B41
:10E2A000204C454400453D44756D70204545505215
:10E2B0004F4D00463D44756D7020464C415348001B
:10E2C000483D48656C70004C3D4C69737420492F83
:10E2D0004F20506F72747300513D51756974005234
:10E2E0003D44756D702052414D00563D73686F7707
:10E2F00020696E7465727275707420566563746FF0
:10E30000727300593D506F727420626C696E6B00BD
:10E310002A0011241FBECFEFD1E2DEBFCDBF01E046
:10E320000CBF12E0A0E0B2E0EEE1FDEF03E00BBFB6
:10E3300002C007900D92A030B107D9F712E0A0E01B
:10E34000B2E001C01D92AE30B107E1F70F9460F367
:10E350000D948DFE01E20EBF0FEF0DBF11241FBE05
:10E360000D9460F30D9400F020E030E040ED57E0B4
:10E3700005C0FA013197F1F72F5F3F4F2817390792
:10E38000C0F308959C01260F311DC901A0E0B0E043
:10E390002F5F3F4FABBFFC018791882361F08093D3
:10E3A000C6008091C00086FFFCCF8091C0008064D1
:10E3B0008093C000EACF08958DE08093C6008091DD
:10E3C000C00086FFFCCF8091C00080648093C000B5
:10E3D0008AE08093C6008091C00086FFFCCF8091C8
:10E3E000C00080648093C00008950F94C2F10F9420
:10E3F000DCF10895FC019081992359F09093C600B7
:10E400008091C00086FFFCCF8091C0008064809323
:10E41000C0003196992379F70895282F982F929567
:10E420009F70892F805D8A3308F0895F8093C600D2
:10E430008091C00086FFFCCF8091C00080648093F3
:10E44000C000822F8F70982F905D9A3308F0995FEB
:10E450009093C6008091C00086FFFCCF8091C000E1
:10E4600080648093C00008959C01FB01853691056E
:10E470001CF46330710594F0C90164E670E00F94F8
:10E480002EFE605D7F4F6093C6008091C00086FFC6
:10E49000FCCF8091C00080648093C0002B30310598
:10E4A00014F43297B4F0C90164E670E00F942EFEC4
:10E4B0006AE070E00F942EFE605D7F4F6093C600AF
:10E4C0008091C00086FFFCCF8091C0008064809363
:10E4D000C000C9016AE070E00F942EFEC0968093E0
:10E4E000C6008091C00086FFFCCF8091C000806490
:10E4F0008093C00008951F93182F8EE692EE60E07F
:10E500000F94C2F11093C6008091C00086FFFCCF2B
:10E510008091C00080648093C0000F94DCF11F9153
:10E5200008952F923F924F925F926F927F928F92B7
:10E530009F92AF92BF92CF92DF92EF92FF920F9392
:10E540001F93DF93CF93CDB7DEB762970FB6F894E2
:10E55000DEBF0FBECDBF382E622ECA01DB015C01CB
:10E560006D01772420E2222E2E010894411C511CBB
:10E570008BC081E0A81680E0B80681E0C80680E084
:10E58000D80628F0C601AA27BB270F940DF2BB2797
:10E59000AD2D9C2D8B2D0F940DF28A2D0F940DF225
:10E5A0002092C6008091C00086FFFCCF8091C00001
:10E5B00080648093C0009DE29093C6008091C0006B
:10E5C00086FFFCCF8091C00080648093C0002092C1
:10E5D000C6008091C00086FFFCCF8091C00080649F
:10E5E0008093C00019828601750188249924A1E0D6
:10E5F0003A1651F03A1620F0B2E03B1661F409C029
:10E600000BBFF701779007C0C7010F9477FE782EF4
:10E6100002C0F7017080872D0F940DF22092C60082
:10E620008091C00086FFFCCF8091C0008064809301
:10E63000C000872D8052F401EF70F0708F3520F408
:10E64000E40DF51D708204C0E40DF51D8EE280839B
:10E650000894E11CF11C011D111D0894811C911CE2
:10E6600090E18916910409F0C2CF80E190E0A0E02A
:10E67000B0E0A80EB91ECA1EDB1E198AC2010F9493
:10E68000FAF10F94DCF16A94662009F072CF629679
:10E690000FB6F894DEBF0FBECDBFCF91DF911F91B3
:10E6A0000F91FF90EF90DF90CF90BF90AF909F9031
:10E6B0008F907F906F905F904F903F902F90089534
:10E6C0002F923F924F925F926F927F928F929F9282
:10E6D000AF92BF92CF92DF92EF92FF920F931F9370
:10E6E000DF93CF93CDB7DEB7CD53D1400FB6F894BB
:10E6F000DEBF0FBECDBF01E20EBF0FEF0DBF94B75F
:10E70000F894A89514BE80916000886180936000A1
:10E7100010926000789493FF05C0E0910002F091A0
:10E7200001021995279A2F9A8091C00082608093E8
:10E73000C00080E18093C40088E18093C1000000A4
:10E74000EE24FF24870144E0A42EB12CCC24DD2448
:10E7500024C0C5010197F1F70894E11CF11C011DCB
:10E76000111D21E2E2162EE4F20620E0020720E06D
:10E77000120718F031E0C32ED12CC801B70127ECE5
:10E780003BE140E050E00F9441FE611571058105C9
:10E79000910519F485B1805885B98091C00087FD35
:10E7A00003C0C114D104A9F2A6014F5F5F4FC25E3E
:10E7B000DE4F59834883CE51D140C25EDE4F8881FF
:10E7C0009981CE51D140019711F00D9410FEC05D9A
:10E7D000DE4F19821882C053D14060E0C15DDE4F28
:10E7E0001882CF52D14088249924C35DDE4F19820C
:10E7F0001882CD52D140C05EDE4F188219821A8233
:10E800001B82C052D140CE5CDE4F188219821A8220
:10E810001B82C253D140EE24FF2487010BBFF701B6
:10E8200007911691C45CDE4F19830883CC53D14005
:10E830000D940BFEC25EDE4F28813981CE51D1404E
:10E840002130310509F52091C600C25EDE4F1982E4
:10E850001882CE51D14022C02F5F3F4F4F4F5F4FA4
:10E86000213082E138078AE7480780E0580780F0C6
:10E87000C45CDE4FE881F981CC53D140EF5FFF4F9C
:10E8800019F0EE27FF27099420E030E040E050E047
:10E890008091C00087FFE0CF2091C600C35DDE4FAE
:10E8A00048815981CD52D1404F5F5F4FC35DDE4FEC
:10E8B00059834883CD52D140213209F063C64A3092
:10E8C000510508F05FC60894811C911C53E0851621
:10E8D000910409F059C600E010E018C081E280936D
:10E8E000C6008091C00086FFFCCF8091C00080648C
:10E8F0008093C0002F5F3F4F2931310579F70F9486
:10E90000DCF10F5F1F4F0530110519F020E030E0FA
:10E91000E5CF10920A0210920B0210920C02109294
:10E920000D02109206021092070210920802109235
:10E930000902109202021092030210920402109235
:10E9400005028FEE90EE60E00F94F5F180E191EE1C
:10E9500060E00F94C2F18091C00087FFFCCF9091DE
:10E96000C600903608F09F759032B8F09093C600BC
:10E970008091C00086FFFCCF8091C00080648093AE
:10E98000C000A0E2A093C6008091C00086FFFCCF2B
:10E990008091C00080648093C000983409F4D7C18E
:10E9A0009934B8F4923409F459C1933458F490333B
:10E9B00019F1903308F4E3C59F33A1F1903409F0C5
:10E9C000DEC5BDC0953409F470C1963409F0D7C5D1
:10E9D00098C1923509F42BC2933538F49C3409F46C
:10E9E000F5C1913509F0CBC518C2963509F445C279
:10E9F000993509F0C4C567C483E792EE62E00F94CD
:10EA0000F5F110920602109207021092080210927D
:10EA1000090210920A0210920B0210920C0210923C
:10EA20000D0213C18FE792EE62E00F94F5F18FEEC5
:10EA300090EE60E00F94F5F181E291EE60E00F94CA
:10EA4000C2F187EB91EE60E00F94F5F180E391EE77
:10EA500060E00F94C2F184EE90EE60E00F94F5F167
:10EA60008FE391EE60E00F94C2F186E090E061E008
:10EA700070E00F9434F20F94DCF18DE591EE60E0DC
:10EA80000F94C2F189EC91EE60E00F94F5F18EE401
:10EA900091EE60E00F94C2F183EC91EE60E00F9490
:10EAA000F5F18CE691EE60E00F94C2F18EE10F94E7
:10EAB0000DF288E90F940DF281E00F940DF20F949E
:10EAC000DCF18BE791EE60E00F94C2F119E0E0E039
:10EAD000F0E010935700E4918E2F0F940DF20F94F5
:10EAE000DCF18AE891EE60E00F94C2F1E3E0F0E03F
:10EAF00010935700E4918E2F0F940DF20F94DCF1D8
:10EB000089E991EE60E00F94C2F1E2E0F0E0109349
:10EB10005700E4918E2F0F940DF20F94DCF188EAE8
:10EB200091EE60E00F94C2F1E1E0F0E01093570045
:10EB30001491812F0F940DF20F94DCF107CF8BE825
:10EB400092EE62E00F94F5F18BE492EE60E00F94A8
:10EB5000F5F10F94DCF100E010E019C0C8016F2D51
:10EB60000F947FFEFF2031F489E492EE60E00F9471
:10EB7000C2F10BC0F092C6008091C00086FFFCCFAE
:10EB80008091C00080648093C0000F5F1F4FC80158
:10EB900081519F41A0E0B0E0ABBFFC01F790BAE229
:10EBA000FB1621F0E2E000301E07C1F60F94DCF105
:10EBB0000F94DCF187E592EE60E00F94F5F10F948D
:10EBC000DCF1CC24DD2400E010E01EC0C8010F946D
:10EBD00077FEF82E882331F489E492EE60E00F94FA
:10EBE000C2F10BC08093C6008091C00086FFFCCFAD
:10EBF0008091C00080648093C000FE1419F00894D6
:10EC0000C11CD11C0F5F1F4FC80181519F41A0E063
:10EC1000B0E0ABBFFC01E790FAE2EF1621F022E092
:10EC20000030120799F60F94DCF10F94DCF182E6C4
:10EC300092EE60E00F94C2F1C60161E070E00F94C3
:10EC400034F20F94DCF10F94DCF110920202109276
:10EC50000302109204021092050278CE89E992EE26
:10EC600062E00F94F5F1279A2F9A16C02F9880E052
:10EC700090E0E0EDF7E03197F1F7019684369105E9
:10EC8000C1F72F9A80E090E0E0EDF7E03197F1F7DF
:10EC9000019684369105C1F78091C00087FFE6CFC9
:10ECA0008091C00087FFFCCF64C485EA92EE62E0E9
:10ECB0000F94F5F140910202509103026091040219
:10ECC0007091050281E020E10F9491F2809102029F
:10ECD00090910302A0910402B091050280509F4FD1
:10ECE000AF4FBF4F8093020290930302A0930402A0
:10ECF000B093050280509041A040B04008F426CE69
:10ED0000A4CF83EB92EE62E00F94F5F140910602FE
:10ED100050910702609108027091090280E020E1A1
:10ED20000F9491F28091060290910702A09108023F
:10ED3000B091090280509F4FAF4FBF4F80930602A2
:10ED400090930702A0930802B0930902FFCD80ECD4
:10ED500092EE62E00F94F5F183E792EE60E00F949B
:10ED6000F5F18FE792EE60E00F94F5F18BE892EE0B
:10ED700060E00F94F5F189E992EE60E00F94F5F10F
:10ED800085EA92EE60E00F94F5F183EB92EE60E09D
:10ED90000F94F5F180EC92EE60E00F94F5F187ECC2
:10EDA00092EE60E00F94F5F188ED92EE60E00F9442
:10EDB000F5F18FED92EE60E00F94F5F18AEE92EEB0
:10EDC00060E00F94F5F183E093EEBDCD87EC92EE19
:10EDD00062E00F94F5F181E40F947BF282E40F94EA
:10EDE0007BF283E40F947BF284E40F947BF285E45E
:10EDF0000F947BF286E40F947BF287E40F947BF20E
:10EE000088E40F947BF28AE40F947BF28BE40F94F6
:10EE10007BF28CE40F947BF299CD88ED92EE62E068
:10EE20000F94F5F1772473948824992409C48FED05
:10EE300092EE62E00F94F5F140910A0250910B02BC
:10EE400060910C0270910D0282E020E10F9491F22A
:10EE500080910A0290910B02A0910C02B0910D02D8
:10EE600080509F4FAF4FBF4F80930A0290930B0289
:10EE7000A0930C02B0930D0269CD8AEE92EE62E08F
:10EE80000F94F5F184EE90EE60E00F94F5F18FECC5
:10EE900091EE60E00F94F5F1662477244301CC5D98
:10EEA000DE4F19821882C452D140D401C301B695F5
:10EEB000A79597958795CA5DDE4F88839983AA8326
:10EEC000BB83C652D140CC5DDE4FA881B981C4520C
:10EED000D1401196CC5DDE4FB983A883C452D14096
:10EEE000CD0162E070E00F9434F2B0E2B093C6005E
:10EEF0008091C00086FFFCCF8091C0008064809329
:10EF0000C000EDE2E093C6008091C00086FFFCCF18
:10EF10008091C00080648093C000F0E2F093C6004E
:10EF20008091C00086FFFCCF8091C00080648093F8
:10EF3000C000CA5DDE4FE880F9800A811B81C6529D
:10EF4000D140BB27A12F902F8F2D0F940DF2CA5DBA
:10EF5000DE4F8881C652D1400F940DF2B0E2FB2EF5
:10EF6000F092C6008091C00086FFFCCF8091C00067
:10EF700080648093C0000DE30093C6008091C000C0
:10EF800086FFFCCF8091C00080648093C00010E2B7
:10EF90001093C6008091C00086FFFCCF8091C00016
:10EFA00080648093C0008BBEF3012791C65DDE4F65
:10EFB0002883CA52D140A22EBB24CC24DD2408943D
:10EFC000611C711C811C911C8BBEF3018791282E42
:10EFD0003324442455240894611C711C811C911C09
:10EFE0008BBEF3013791C55DDE4F3883CB52D140E4
:10EFF0000894611C711C811C911C8BBEF30147910C
:10F00000C45DDE4F4883CC52D140ADEFEA2EAFEF66
:10F01000FA2EAFEF0A2FAFEF1A2F6E0C7F1C801E57
:10F02000911E142D032DF22CEE24EA0CFB1C0C1D5A
:10F030001D1D0F940DF220E22093C6008091C000A8
:10F0400086FFFCCF8091C00080648093C000C65DC5
:10F05000DE4F8881CA52D1400F940DF230E23093D6
:10F06000C6008091C00086FFFCCF8091C000806404
:10F070008093C000C45DDE4F8881CC52D1400F9494
:10F080000DF240E24093C6008091C00086FFFCCFA5
:10F090008091C00080648093C000C55DDE4F888190
:10F0A000CB52D1400F940DF250E25093C6008091A4
:10F0B000C00086FFFCCF8091C00080648093C000B8
:10F0C0008FEFE8168FEFF80680E0080780E018075A
:10F0D00031F484E092EE60E00F94C2F1DFC0D80119
:10F0E000C7018070907CA070B0708050904CA040A0
:10F0F000B040D1F52FEF3FE340E050E0E222F322B1
:10F1000004231523CA5DDE4FA880B980CA80DB8046
:10F11000C652D140AE0CBF1CC01ED11EAA0CBB1CD7
:10F12000CC1CDD1C8EE092EE60E00F94C2F1BB2798
:10F13000A12F902F8F2D0F940DF28E2D0F940DF285
:10F1400030E23093C6008091C00086FFFCCF8091F2
:10F15000C00080648093C0004EE34093C60080915D
:10F16000C00086FFFCCF87C08EE09EEFA0E0B0E03D
:10F17000E822F9220A231B239CE0E91694E9F90608
:10F1800090E0090790E0190709F088C0C45DDE4FE0
:10F19000A881CC52D140EA2EFF2400E010E0102FCD
:10F1A0000F2DFE2CEE24C55DDE4FB881CB52D14031
:10F1B000EB0EF11C011D111DD601C501817090706F
:10F1C000A070B070DC0199278827E80EF91E0A1F8D
:10F1D0001B1F20EF30E040E050E0A222B322C42207
:10F1E000D52241E1AA0CBB1CCC1CDD1C4A95D1F7F1
:10F1F000EA0CFB1C0C1D1D1D81E090E0A0E0B0E0BE
:10F20000282239224A225B2235E1220C331C441C7D
:10F21000551C3A95D1F7E20CF31C041D151D57013E
:10F220006801AA0CBB1CCC1CDD1C85E192EE60E0E1
:10F230000F94C2F1C801AA27BB270F940DF2BB2778
:10F24000A12F902F8F2D0F940DF28E2D0F940DF274
:10F2500090E29093C6008091C00086FFFCCF809121
:10F26000C00080648093C000AEE3A093C60080918C
:10F27000C00086FFFCCF8091C00080648093C000F6
:10F28000C601AA27BB270F940DF2BB27AD2D9C2DDD
:10F290008B2D0F940DF28A2D0F940DF20F94DCF14B
:10F2A000CC5DDE4FE881F981C452D140F99709F471
:10F2B0004DCBF4E0EF2EF12C012D112D6E0C7F1CA7
:10F2C000801E911EF2CD83E093EE62E00F94F5F183
:10F2D0008AE192EE60E00F94C2F18091C00087FF56
:10F2E000FCCF1091C6001F751093C6008091C0001E
:10F2F00086FFFCCF8091C00080648093C0000F9493
:10F30000DCF1812F81548A3108F036C1163409F4BA
:10F3100095C0173490F4133409F44EC0143430F40B
:10F320001134F1F0123409F01DC130C0143409F465
:10F3300059C0153409F016C16BC01A3409F4C4C0A1
:10F340001B3438F4173409F48FC0183409F00AC19B
:10F35000A1C01B3409F4D2C01C3409F003C1E8C0B9
:10F360008FEF81B90DC082B1809582B980E090E0C5
:10F37000E0EDF7E03197F1F70196883C9105C1F790
:10F380008091C00087FFEFCF12B8EFC08FEF84B934
:10F390000DC085B1809585B980E090E0E0EDF7E0A3
:10F3A0003197F1F70196883C9105C1F78091C00033
:10F3B00087FFEFCF15B8D9C08FEF87B90DC088B1DF
:10F3C000809588B980E090E0E0EDF7E03197F1F7C3
:10F3D0000196883C9105C1F78091C00087FFEFCF6F
:10F3E00018B8C3C08FEF8AB90DC08BB180958BB9A7
:10F3F00080E090E0E0EDF7E03197F1F70196883C8E
:10F400009105C1F78091C00087FFEFCF1BB8ADC059
:10F410008FEF8DB90DC08EB180958EB980E090E0F0
:10F42000E0EDF7E03197F1F70196883C9105C1F7DF
:10F430008091C00087FFEFCF1EB897C08FEF80BBD1
:10F440000DC081B3809581BB80E090E0E0EDF7E0F6
:10F450003197F1F70196883C9105C1F78091C00082
:10F4600087FFEFCF11BA81C08FEF83BB0DC084B38C
:10F47000809584BB80E090E0E0EDF7E03197F1F714
:10F480000196883C9105C1F78091C00087FFEFCFBE
:10F4900014BA6BC08FEF809301010FC080910201FD
:10F4A00080958093020180E090E0E0EDF7E03197F5
:10F4B000F1F70196883C9105C1F78091C00087FF64
:10F4C000EDCF1092020151C08FEF809304010FC065
:10F4D0008091050180958093050180E090E0E0ED4A
:10F4E000F7E03197F1F70196883C9105C1F78091DB
:10F4F000C00087FFEDCF1092050137C08FEF8093DA
:10F5000007010FC08091080180958093080180E079
:10F5100090E0E0EDF7E03197F1F70196883C910536
:10F52000C1F78091C00087FFEDCF109208011DC088
:10F530008FEF80930A010FC080910B01809580931B
:10F540000B0180E090E0E0EDF7E03197F1F70196F4
:10F55000883C9105C1F78091C00087FFEDCF1092E4
:10F560000B0103C085E292EEEEC98091C00087FFD7
:10F57000FCCF8091C600EAC988E392EEE4C98CE131
:10F5800091EEE1C988249924933011F1943028F444
:10F59000913089F09230B8F408C0953061F195301F
:10F5A000F0F0963009F048C043C02B3109F042C951
:10F5B00091E06BE13FC96227C15DDE4F2883CF52E6
:10F5C000D14092E037C9B22FA0E0622793E032C960
:10F5D000822F90E0A82BB92B622794E02BC92E3004
:10F5E00009F039C3622795E0C05DDE4F19821882A9
:10F5F000C053D1401FC9E1E0F0E0EC0FFD1FC05D3A
:10F60000DE4F08811981C053D140E00FF11F2083E4
:10F610000F5F1F4FC05DDE4F19830883C053D14079
:10F6200062270A171B0709F005C9D80196E002C92D
:10F63000261709F010C303C0973009F0FBC87724E0
:10F640009981933109F412C19431C8F4963009F4C8
:10F65000D8C0973050F4923009F406C1933009F4C1
:10F660006DC0913009F059C253C0913109F477C08F
:10F67000923108F0BBC0903109F04FC2F5C098310B
:10F6800009F487C0993150F4953109F4EFC09531F0
:10F6900008F4C6C1963109F040C2C2C19A3109F4DA
:10F6A0006CC09A3108F491C09B3109F45BC09D3164
:10F6B00009F033C29D81903359F48F81882311F46E
:10F6C0009EE11CC0813011F091E018C098E916C08D
:10F6D000892F807591F0903539F4E0E0F0E089E011
:10F6E0008093570094910AC0983539F4E3E0F0E034
:10F6F00089E080935700949101C090E01A821B82A8
:10F700008D818C831D829E831F8227E030E009C299
:10F710001A8288E08B8381E48C8386E58D8382E581
:10F720008E8389E48F8383E5888780E589878FE5E9
:10F730008A8782E38B872BE030E0F3C18A818139AD
:10F7400041F0823941F0803911F48FE005C080E04A
:10F7500003C082E001C08AE01A828B8344C0772410
:10F76000739482C08D81882311F48EE12CC0813086
:10F7700011F081E028C088E926C01A82E1E0F0E0BB
:10F7800089E08093570084918B831C8224E030E0D1
:10F79000C8C18B81803589F48C81883039F4E2E0EE
:10F7A000F0E089E08093570084910DC0E0E0F0E044
:10F7B00089E080935700849106C0E3E0F0E089E09F
:10F7C0008093570084911A82DFCF8D81836C99E0FA
:10F7D000E1E0F0E0082E90935700E89507B600FCB2
:10F7E000FDCF1A821B8223E030E09BC180EC8A832C
:10F7F000CE5CDE4F188219821A821B82C253D1401E
:10F800008EC18A8190E0A0E0B0E0582F44273327D2
:10F8100022278B8190E0A0E0B0E0DC0199278827C7
:10F82000282B392B4A2B5B2B8D8190E0A0E0B0E098
:10F83000282B392B4A2B5B2B8C8190E0A0E0B0E089
:10F84000BA2FA92F982F8827282B392B4A2B5B2BCF
:10F85000220F331F441F551FC05EDE4F288339839C
:10F860004A835B83C052D1401A8259C13A81C95C34
:10F87000DE4F3883C753D140CA5CDE4F1882C6536F
:10F88000D1408B81C82EDD24CA5CDE4F488159816E
:10F89000C653D140C42AD52A933109F082C0CE5C28
:10F8A000DE4F88819981AA81BB81C253D1408050AB
:10F8B000904CA340B04030F583E0CE5CDE4FE88052
:10F8C000F9800A811B81C253D140F70100935B008C
:10F8D00080935700E89507B600FCFDCFCE5CDE4F65
:10F8E000088119812A813B81C253D14000501F4FAA
:10F8F0002F4F3F4FCE5CDE4F088319832A833B8313
:10F90000C253D140C05EDE4F488159816A817B81FC
:10F91000C052D140DE011B9631E08C9111962C91A2
:10F9200011971296C75CDE4F2883C953D140C85C3B
:10F93000DE4F1882C853D14090E0C85CDE4FE881AA
:10F94000F981C853D1408E2B9F2B0C01FA01609393
:10F950005B0030935700E89511244E5F5F4F6F4F67
:10F960007F4F0EEFE02E0FEFF02ECE0CDF1CC114F8
:10F97000D10499F685E0C05EDE4F088119812A81A5
:10F980003B81C052D140F80120935B008093570027
:10F99000E89507B600FCFDCF81E180935700E8951C
:10F9A00035C0C05EDE4F88819981AA81BB81C0527B
:10F9B000D140B695A795979587957C018601ABE0D8
:10F9C000AA2EB12CAC0EBD1E0BC0D5016D915D01F0
:10F9D000C7010F947FFE0894E11CF11C01501040F8
:10F9E0000115110591F7A60160E070E0440F551F65
:10F9F000661F771FC05EDE4FE880F9800A811B8199
:10FA0000C052D1404E0D5F1D601F711F1A82C05E33
:10FA1000DE4F488359836A837B83C052D1407FC0C5
:10FA2000FA80C55CDE4FF882CB53D140C65CDE4F16
:10FA30001882CA53D1408B81C82EDD24C65CDE4FAC
:10FA400008811981CA53D140C02AD12A1A828981DA
:10FA5000BE016D5F7F4F843121F59601C05EDE4FA0
:10FA6000E880F9800A811B81C052D1400BBFF701A9
:10FA700087919691DB018C9311969C936E5F7F4FDB
:10FA8000D801C7010296A11DB11DC05EDE4F88835B
:10FA90009983AA83BB83C052D14022503040F1F6F3
:10FAA00036C0C05EDE4F288139814A815B81C052F9
:10FAB000D1400894C108D108760100E010E0089414
:10FAC000C11CD11C0894E11CF11C011D111DE20E8A
:10FAD000F31E041F151F21BDBB27A52F942F832FB5
:10FAE00082BD2F5F3F4F4F4F5F4FF89A80B5DB01CC
:10FAF0008D93BD012E153F054007510761F7C05E8C
:10FB0000DE4F288339834A835B83C052D1409601FC
:10FB10002D5F3F4FFB01108204C080EC8A8322E0FE
:10FB200030E08BE18093C6008091C00086FFFCCF5F
:10FB30008091C00080648093C000C15DDE4FF88179
:10FB4000CF52D140F093C6008091C00086FFFCCF19
:10FB50008091C00080648093C000432F3093C60022
:10FB60008091C00086FFFCCF8091C00080648093AC
:10FB7000C000922F2093C6008091C00086FFFCCF6A
:10FB80008091C00080648093C0008EE08093C600A6
:10FB90008091C00086FFFCCF8091C000806480937C
:10FBA000C00065E1C15DDE4FE880CF52D1406E25D7
:10FBB00069276427FE01319610C090819093C6009A
:10FBC0008091C00086FFFCCF31968091C000806498
:10FBD0008093C0006927215030402115310569F715
:10FBE0006093C6008091C00086FFFCCF8091C0006A
:10FBF00080648093C00085B1805885B9772081F4F6
:10FC0000C15DDE4F0881CF52D1400F5FC15DDE4F35
:10FC10000883CF52D14090E0A0E0B0E00D941AF4F8
:10FC200027982F9880E090E020ED37E0F901319798
:10FC3000F1F7019684369105C9F700008091C00064
:10FC40008D7F8093C00081E180935700E895EE2777
:10FC5000FF270994FFCF90E00D941AF497FB092E2B
:10FC600007260AD077FD04D02ED006D000201AF443
:10FC7000709561957F4F0895F6F7909581959F4F08
:10FC80000895A1E21A2EAA1BBB1BFD010DC0AA1FDD
:10FC9000BB1FEE1FFF1FA217B307E407F50720F0F5
:10FCA000A21BB30BE40BF50B661F771F881F991F70
:10FCB0001A9469F760957095809590959B01AC01B9
:10FCC000BD01CF010895AA1BBB1B51E107C0AA1FAC
:10FCD000BB1FA617B70710F0A61BB70B881F991FED
:10FCE0005A95A9F780959095BC01CD010895F99991
:10FCF000FECF92BD81BDF89A992780B50895262F31
:10FD0000F999FECF1FBA92BD81BD20BD0FB6F89400
:0EFD1000FA9AF99A0FBE01960895F894FFCF63
:00000001FF
