:100000000C9435010C9466010C9466010C94660105
:100010000C9466010C9466010C9466010C946601C4
:100020000C9466010C9466010C9466010C946601B4
:100030000C9466010C9466010C9466010C946601A4
:100040000C9466010C9466010C9466010C94660194
:100050000C9466010C9466010C9466010C949B064A
:100060000C9466010C940F070C94E5060C94660141
:100070000C9466010C9466010C9466010C94660164
:100080000C9466010C9466010C9466010C94660154
:100090000C9466010C9466010C9466010C94660144
:1000A0000C9466010C9466010C9466010C94660134
:1000B0000C9466010C9466010C9466010C94660124
:1000C0000C9466010C9466010C9466010C94660114
:1000D0000C9466010C9466010C9466010C94660104
:1000E0000C9466010C9492030C9486010C940D03FD
:1000F0000C9490010C949B010C94A1010C9494011C
:100100000C94EB020C94C7010C94C6010C94AF0242
:100110000C94B9010C94BD010C94B3010C94FF0232
:100120000C9445030C94CB010C94C1010C948C01EC
:100130000C94DC020C9445070C94AF010C949801CC
:100140000C94A5010C94AB010000210024002700B1
:100150002A002D00300033000101000004010701D6
:100160000A0100002200250028002B002E0031008B
:10017000340002010000050108010B01000020000D
:100180002300260029002C002F003200000100006F
:10019000030106010901050505050705080808080A
:1001A000020202020A0A080804040404010101010F
:1001B000010101010303030303030303040707070A
:1001C0000C0C0C0C0C0C0C0C0202020206060606AF
:1001D000060606060B0B0B0B0B0B0B0B010210207C
:1001E000200808102040102040800201020108046D
:1001F0000201010204081020408080402010080401
:100200000201800402018040201008040201080459
:10021000020101020408102040800102040810209D
:10022000408000000A0B02090C0D0E0807030401B0
:1002300000000000000000000000000000000000BE
:10024000000000000000000000000000000012118B
:10025000100000000000000000000000000000008E
:100260000000000000000000450711241FBECFEF72
:10027000D1E2DEBFCDBF00E00CBF17E0A0E0B2E0EE
:10028000EEE3F7E100E00BBF02C007900D92AA3A3F
:10029000B107D9F729E0AAEAB7E001C01D92A83B4F
:1002A000B207E1F711E0C5E3D1E000E006C0219715
:1002B0000109802FFE010E94950BC433D10780E015
:1002C0000807A9F70E94F9070C949D0B0C940000F5
:1002D0008150823108F05AC0E82FF0E08827EC58AE
:1002E000FE4F8F4F0C94950B9401980186018C0161
:1002F0009001C6019B01A101A501AB01AF01B301B2
:10030000B901BD01C601C101C701CB0180918000C7
:100310008F77809380000895809180008F7DF9CF42
:1003200080918000877FF5CF84B58F7784BD089555
:1003300084B58F7DFBCF8091B0008F778093B00024
:1003400008958091B0008F7DF9CF809190008F77D4
:10035000809390000895809190008F7DF9CF8091D7
:100360009000877FF5CF8091A0008F778093A000C9
:1003700008958091A0008F7DF9CF8091A000877FA4
:10038000F5CF809120018F7780932001089580918F
:1003900020018F7DF9CF80912001877FF5CFCF930A
:1003A000DF93282F30E0F901EE5DFD4F8491F901D4
:1003B000E452FE4FD491F901EA56FE4FC491CC238A
:1003C000A1F081110E946801EC2FF0E0EE0FFF1FF9
:1003D000E458FE4FA591B491EC91ED2381E090E0BB
:1003E00009F480E0DF91CF91089580E090E0FACFAA
:1003F0001F93CF93DF93282F30E0F901EE5DFD4F7F
:100400008491F901E452FE4FD491F901EA56FE4F6E
:10041000C491CC23A9F0162F81110E946801EC2F02
:10042000F0E0EE0FFF1FEE59FE4FA591B4918FB78C
:10043000F894EC91111108C0D095DE23DC938FBFA6
:10044000DF91CF911F910895DE2BF8CFCF93DF93EB
:1004500090E0FC01E452FE4F24918A569E4FFC012D
:1004600084918823D1F090E0880F991FFC01E85B0C
:10047000FE4FA591B491FC01EE59FE4FC591D49168
:1004800061110EC09FB7F8948C91E22FE0958E23F6
:100490008C932881E223E8839FBFDF91CF91089559
:1004A0008FB7F894EC91E22BEC938FBFF6CF3FB768
:1004B000F8948091BF089091C008A091C108B091B4
:1004C000C20826B5A89B05C02F3F19F00196A11DB3
:1004D000B11D3FBFBA2FA92F982F8827BC01CD018E
:1004E000620F711D811D911D42E0660F771F881FED
:1004F000991F4A95D1F708958F929F92AF92BF921C
:10050000CF92DF92EF92FF926B017C010E94570223
:100510004B015C01C114D104E104F104B9F00E9463
:100520005702681979098A099B09683E7340810559
:10053000910580F321E0C21AD108E108F10888EEA4
:10054000880E83E0981EA11CB11CE4CFFF90EF90B1
:10055000DF90CF90BF90AF909F908F900895AF9213
:10056000BF92CF92DF92EF92FF920F931F93CF93A0
:10057000DF936C017B018B01040F151FEB015E0102
:10058000AE18BF08C017D10759F06991D601ED9197
:10059000FC910190F081E02DC6011995892B79F726
:1005A000C501DF91CF911F910F91FF90EF90DF90E8
:1005B000CF90BF90AF900895FC01538D448D252FAF
:1005C00030E0842F90E0821B930B541710F0CF96ED
:1005D000089501970895FC01918D828D981761F01F
:1005E000A28DAE0FBF2FB11D5D968C91928D9F5F36
:1005F0009F73928F90E008958FEF9FEF0895FC0115
:10060000918D828D981731F0828DE80FF11D858DC7
:1006100090E008958FEF9FEF0895FC01918D228D5A
:10062000892F90E0805C9F4F821B91098F739927DF
:10063000089583EC98E00E940D0321E0892B09F4D2
:1006400020E0822F0895FC01A48DA80FB92FB11DC1
:10065000A35ABF4F2C91848D90E001968F739927F8
:10066000848FA689B7892C93A089B1898C918370D6
:1006700080648C93938D848D981306C00288F389CF
:10068000E02D80818F7D80830895EF92FF920F93FC
:100690001F93CF93DF93EC0181E0888F9B8D8C8D2E
:1006A00098131AC0E889F989808185FF15C09FB722
:1006B000F894EE89FF896083E889F98980818370E5
:1006C000806480839FBF81E090E0DF91CF911F9194
:1006D0000F91FF90EF900895F62E0B8D10E00F5FB5
:1006E0001F4F0F731127E02E8C8D8E110CC00FB68B
:1006F00007FCFACFE889F989808185FFF5CFCE0123
:100700000E942303F1CFEB8DEC0FFD2FF11DE35A77
:10071000FF4FF0829FB7F8940B8FEA89FB898081A5
:100720008062CFCFCF93DF93EC01888D8823B9F01F
:10073000AA89BB89E889F9898C9185FD03C08081EC
:1007400086FD0DC00FB607FCF7CF8C9185FFF2CF69
:10075000808185FFEDCFCE010E942303E9CFDF9199
:10076000CF91089580E090E0892B29F00E94190331
:1007700081110E94000080E090E0892B49F080E028
:1007800090E0892B29F00E94000081110E94000056
:1007900080E090E0892B49F080E090E0892B29F0FF
:1007A0000E94000081110E94000080E090E0892BEF
:1007B00049F080E090E0892B29F00E94000081112F
:1007C0000C9400000895BF92CF92DF92EF92FF92B7
:1007D0000F931F93CF93DF9309E816E089E0E82E8B
:1007E00082E0F82E99EAC92E96E0D92EF801B08061
:1007F0000E5F1F4F60E08B2D0E94F801D0E0C0E03B
:10080000F701EC0FFD1F80819181019739F461E0C0
:10081000FE01E756F94F80810E94F8012296C0310F
:10082000D10571F761E070E080E090E00E947C0209
:1008300061E08B2D0E94F801C9E9D6E088812296FB
:1008400060E00E94F801CC16DD06C1F7F0E1EF0E82
:10085000F11C86E00939180749F6DF91CF911F9105
:100860000F91FF90EF90DF90CF90BF90089586EBAF
:1008700097E030E020E0F901EE0FFF1FE80FF91FCD
:10088000118210822F5F3F4F20313105A1F78096F2
:1008900028E0863B920769F70895CF92DF92EF92A6
:1008A000FF920F931F93CF93DF931F921F92CDB7A9
:1008B000DEB769834A83880F991F0091B6091091AA
:1008C000B709000F111FE0E6F9E09F0120563940FB
:1008D0002017310714F41192F8CF2981FC01E05A56
:1008E000F64F21838A81808360E08091B4090E9461
:1008F000F8011016110604F501501109F801E05A2B
:10090000F64FE080D090B209C090B00988E0F82E90
:100910006E2D661F6627661F8C2D0E94F801EE0C57
:1009200061E08D2D0E94F80160E08D2D0E94F8019C
:10093000FA94F110EDCFDDCF61E08091B4090F9012
:100940000F90DF91CF911F910F91FF90EF90DF906B
:10095000CF900C94F801EF92FF920F931F93CF93D7
:100960007C018C0183E0000F111F8A95E1F700598B
:10097000164FC1E0F80111928F0140E06C2FC701C2
:100980000E944D04CF5FC930A9F7CF911F910F91FD
:10099000FF90EF9008952F923F924F925F926F9247
:1009A0007F928F929F92AF92BF92CF92DF92EF92FF
:1009B000FF920F931F93CF93DF93CDB7DEB7C25053
:1009C000D1400FB6F894DEBF0FBECDBF80E88E01D8
:1009D0000F5F1F4FD801E82F1D92EA95E9F7FE013E
:1009E000EF57FF4FDF011D928A95E9F74F0166EB44
:1009F00077E05F01980190E080E050E040E07B010B
:100A0000E80EF91ED701CD90DC907901E80EF91EB1
:100A10004830510534F07C01B0E1EB1AF108EA0CE2
:100A2000FB1CD701CD92DC924F5F5F4F02964031A5
:100A3000510529F7205F3F4FB0E1AB0EB11C605E5E
:100A40007F4F2E173F07B9F639E9232E36E0332EB4
:100A500040E6E42E49E0F42EE1E0CF5FDE4FE8838C
:100A6000C150D140D101BC91CE5FDE4FB883C2509E
:100A7000D140E2E02E0E311C61E08B2F0E94F80184
:100A800029E8A22E26E0B22E35012401D12CC12C5A
:100A9000D3018C91B2E06B0E711CF2012081318187
:100AA00060E02130310509F061E00E94F801809199
:100AB000B6099091B709181619062CF580E890E050
:100AC0000C2C02C0959587950A94E2F7D7015096B1
:100AD0002C915097F601EE0FFF1FE00FF11F4081A0
:100AE0005181452B09F465C0822B50968C93D70118
:100AF00050964C91CF5FDE4F6881C150D14090E05D
:100B000080E00E944D04BFEFCB1ADB0AE0E14E0EFD
:100B1000511CF8E0CF16D10409F0BACF61E070E0C3
:100B200080E090E00E947C0260E0CE5FDE4F888132
:100B3000C250D1400E94F801D5018C91B2E0AB0EB9
:100B4000B11C61E00E94F801E9E9AE16E6E0BE06DC
:100B500099F7FFEFEF1AFF0ACF5FDE4F8881C15090
:100B6000D1408F5FCF5FDE4F8883C150D140005F9F
:100B70001F4F92E0890E911C893009F073CFCE5F30
:100B8000DE4F0FB6F894DEBF0FBECDBFDF91CF9121
:100B90001F910F91FF90EF90DF90CF90BF90AF909B
:100BA0009F908F907F906F905F904F903F902F908D
:100BB000089580958223F701808B99CFFC010190E5
:100BC0000020E9F73197AF01481B590BBC0183ECBA
:100BD00098E00C94AF02CF93DF930E94DE05EC0106
:100BE0008BE397E00E94DE058C0F9D1FDF91CF9174
:100BF0000895CF93DF9386E00E94CF01019709F417
:100C000094C087E00E94CF01019709F490C084E06E
:100C10000E94CF01019741F5809104028823C9F019
:100C20008091B908811115C08091B608811111C059
:100C30008EE397E00E94EB058091AC0781110BC019
:100C400082E597E00E94DE0581E08093AC07809307
:100C5000AF0783E740C08CE597E00E94DE05109265
:100C6000AC071092AF07F5CF83E00E94CF01019748
:100C700009F05FC0C091AA07D091AB072196D0932D
:100C8000AB07C093AA0764EF71E080E090E00E9498
:100C90007C02809104022397CCF18823B9F08091E3
:100CA000B908811113C08091B60881110FC084E684
:100CB00097E00E94EB051092040281E08093B9084E
:100CC0001092B6081092AB071092AA078091040206
:100CD000882321F08BE6DF91CF9108958091B908A8
:100CE0008111F8CF8091B6088823A1F384E697E0BC
:100CF0000E94EB051092040281E08093B9081092E3
:100D0000B6081092AB071092AA07E4CF8111E2CF88
:100D10008091B9088111DECF8091B6088823D1F285
:100D200089E697E00E94EB05D5CF82E7D4CF8CE629
:100D3000D2CF80E2D0CF1F920F920FB60F92112424
:100D40002F933F938F939F93AF93BF938091BB0853
:100D50009091BC08A091BD08B091BE083091BA082E
:100D600023E0230F2D3758F50196A11DB11D2093C7
:100D7000BA088093BB089093BC08A093BD08B093B9
:100D8000BE088091BF089091C008A091C108B091A1
:100D9000C2080196A11DB11D8093BF089093C008A1
:100DA000A093C108B093C208BF91AF919F918F915A
:100DB0003F912F910F900FBE0F901F90189526E82E
:100DC000230F0296A11DB11DD2CF1F920F920FB615
:100DD0000F9211240BB60F922F933F934F935F9373
:100DE0006F937F938F939F93AF93BF93EF93FF93F3
:100DF00083EC98E00E942303FF91EF91BF91AF91A4
:100E00009F918F917F916F915F914F913F912F9122
:100E10000F900BBE0F900FBE0F901F9018951F9252
:100E20000F920FB60F9211240BB60F922F938F9340
:100E30009F93EF93FF93E091D308F091D4088081C2
:100E4000E091D908F091DA0882FD1DC0908180916F
:100E5000DC088F5F8F732091DD08821741F0E091ED
:100E6000DC08F0E0ED53F74F958F8093DC08FF919D
:100E7000EF919F918F912F910F900BBE0F900FBE0E
:100E80000F901F9018958081F2CFCF93DF9310922F
:100E9000C6081092C50888EE93E0A0E0B0E0809309
:100EA000C7089093C808A093C908B093CA088DE2F8
:100EB00097E09093C4088093C30885EC90E09093EA
:100EC000D0088093CF0884EC90E09093D208809370
:100ED000D10880EC90E09093D4088093D30881EC03
:100EE00090E09093D6088093D50882EC90E09093A0
:100EF000D8088093D70886EC90E09093DA08809326
:100F0000D9081092DC081092DD081092DE081092C9
:100F1000DF08C3E3D0E0D093B109C093B00985E303
:100F200090E09093B3098093B20984E390E09093AA
:100F3000B5098093B40981E090E09093B70980935C
:100F4000B60961E083E30E94260261E08091B20964
:100F50000E94260261E08091B4090E94260261E0AD
:100F60008091B4090E94F801D093B109C093B009EF
:100F7000E0E7F9E0119289E0E03BF807D9F7D0E02B
:100F8000C0E08091B6099091B709C817D90774F5E8
:100F900040E06FE0CE010E944D048091B60990912F
:100FA000B709C817D9072CF447E06BE0CE010E94BF
:100FB0004D0440E069E0CE010E944D048091B609E5
:100FC0009091B709C817D9071CF4CE010E94AB0451
:100FD0008091B6099091B709C817D9072CF440E061
:100FE0006CE0CE010E944D042196CBCFDF91CF91D2
:100FF0000895789484B5826084BD84B5816084BD91
:1010000085B5826085BD85B5816085BD80916E00A6
:10101000816080936E0010928100809181008260D7
:101020008093810080918100816080938100809114
:1010300080008160809380008091B1008460809303
:10104000B1008091B00081608093B00080919100E8
:1010500082608093910080919100816080939100E3
:10106000809190008160809390008091A1008260C7
:101070008093A1008091A10081608093A100809164
:10108000A00081608093A000809121018260809304
:1010900021018091210181608093210180912001B3
:1010A00081608093200180917A00846080937A002F
:1010B00080917A00826080937A0080917A008160CA
:1010C00080937A0080917A00806880937A001092F1
:1010D000C100E091D308F091D40882E08083E091D0
:1010E000CF08F091D0081082E091D108F091D20899
:1010F0008FEC80831092DB08E091D708F091D8083C
:1011000086E08083E091D508F091D60880818061E7
:101110008083E091D508F091D60880818860808333
:10112000E091D508F091D608808180688083E091B5
:10113000D508F091D60880818F7D808380917B00D7
:10114000877F80937B0080E480937C0080917A008D
:10115000806480937A0080917A0086FDFCCF609154
:10116000780070917900072E000C880B990B61159F
:1011700071058105910511F00E94290B09E916E01E
:10118000C9E8D6E08881229661E00E942602F80133
:1011900080810E5F1F4F61E00E942602F6E0C93990
:1011A000DF0781F78091B6099091B70918161906E3
:1011B00034F441E06CE090E080E00E944D048091C6
:1011C000B6099091B7091816190634F448E06AE098
:1011D00090E080E00E944D048091B6099091B7099B
:1011E0001816190624F490E080E00E94AB04C9E9C7
:1011F000D6E08881229660E00E94F80109E816E0B6
:10120000F80180810E5F1F4F61E00E94F801F6E057
:1012100009391F07A9F786E0C93AD80751F760E0F6
:1012200086E00E94260260E087E00E94260260E0DD
:1012300084E00E94260260E083E00E94260255249A
:101240005394CC24C394D12C66246394712C809144
:101250000402882309F4B2C089E797E00E94EB05F5
:101260000E94F905109200021092010210920202EF
:10127000109203028FB7F8948090BB089090BC083E
:10128000A090BD08B090BE088FBFE6EBEE2EE7E061
:10129000FE2E10E000E0C091B407D091B50730E019
:1012A00020E0AE01400F511FFA01E20FF31FE75794
:1012B000FD4F6081C901880F991F8E0D9F1DFC0194
:1012C000611161C0118210822F5F3F4F20313105C3
:1012D00059F765E070E080E090E00E947C02F0E267
:1012E000EF0EF11C00581F4F011584E0180799F606
:1012F0008091B0079091B107A091B207B091B30768
:10130000B501A401481B590B6A0B7B0B80910002AD
:1013100090910102A0910202B091030284179507F7
:10132000A607B707F8F48092B0079092B107A09291
:10133000B207B092B3072091AF078091AD079091AB
:10134000AE07222349F1CF37D10501F12196D09381
:10135000B507C093B4070097E1F001979093AE07EB
:101360008093AD070E94CB040E9437046091000275
:101370007091010280910202909103020E947C020E
:101380000E94B20364CFD182C0829ECFD0E0C0E081
:10139000DECF8EE790E0E2CF209751F02197D093F7
:1013A000B507C093B4078F37910529F00196D6CFC2
:1013B000CEE7D0E0F4CF90E080E0D0CF8091B908C4
:1013C000882309F49EC084E897E00E94EB05809191
:1013D000B7089091B808892B09F041C08091B609EF
:1013E0009091B7091816190624F490E080E00E9445
:1013F000AB04C9E9D6E08881229661E00E94F80139
:1014000009E816E0F80180810E5F1F4F60E00E943E
:10141000F801F6E009391F07A9F786E0C93AD807AD
:1014200051F70E94E3030E94E3030E94E3036AE092
:1014300070E080E090E00E947C027092B8086092B8
:10144000B7080E94F9058C3609F04AC08CE897E08D
:101450000E94EB051092B9085092B60887CF1092FF
:1014600000021092010210920202109203028FB742
:10147000F8944091BB085091BC086091BD087091F0
:10148000BE088FBFC6EBD7E009EA16E030E020E0E7
:10149000F801E20FF31F4081C901880F991F8C0FDB
:1014A0009D1FFC01411119C0118210822F5F3F4F17
:1014B0002031310569F761E070E080E090E00E9442
:1014C0007C02A096005F1F4FF8E0C63BDF07F1F6F5
:1014D0000E94CB040E943704B4CFD182C082E6CFF1
:1014E0000E94F905823729F482E997E00E94EB0512
:1014F0003DCF0E94F905833709F038CF8BE997E09B
:10150000F5CF81EA97E00E94EB050E94F90561E0C2
:1015100070E080E090E00E947C0228CF8F929F9242
:10152000AF92BF92CF92DF92EF92FF92CF93DF9371
:10153000EC01688179818A819B8161157105810542
:10154000910521F464E279ED8BE597E02DE133EF2D
:1015500041E050E00E94320B49015A019B01AC016D
:10156000A7EAB1E40E94510B6B017C01ACEEB4EF31
:10157000A50194010E945F0BC60ED71EE81EF91E3E
:10158000F7FE06C081E0C81AD108E10880E8F80A31
:10159000C882D982EA82FB82C701B6019F77DF91B8
:1015A000CF91FF90EF90DF90CF90BF90AF909F9042
:1015B0008F9008958F929F92AF92BF92CF92DF92B9
:1015C000EF92FF92609105027091060280910702EE
:1015D00090910802611571058105910521F464E27D
:1015E00079ED8BE597E02DE133EF41E050E00E948B
:1015F000320B49015A019B01AC01A7EAB1E40E94F8
:10160000510B6B017C01ACEEB4EFA50194010E947B
:101610005F0BC60ED71EE81EF91EF7FE06C081E05E
:10162000C81AD108E10880E8F80AC0920502D092F1
:101630000602E0920702F0920802C701B6019F7706
:10164000FF90EF90DF90CF90BF90AF909F908F90E2
:1016500008956093050270930602809307029093A9
:1016600008020895052E97FB1EF400940E94490B72
:1016700057FD07D00E94640B07FC03D04EF40C9476
:10168000490B50954095309521953F4F4F4F5F4FF7
:10169000089590958095709561957F4F8F4F9F4FDE
:1016A00008950E94860BA59F900DB49F900DA49F56
:1016B000800D911D11240895B7FF0C94510B0E94C9
:1016C000510B821B930B0895A1E21A2EAA1BBB1B80
:1016D000FD010DC0AA1FBB1FEE1FFF1FA217B307FE
:1016E000E407F50720F0A21BB30BE40BF50B661F14
:1016F000771F881F991F1A9469F7609570958095D8
:1017000090959B01AC01BD01CF010895A29FB0014E
:10171000B39FC001A39F700D811D1124911DB29F25
:10172000700D811D1124911D0895EE0FFF1F881F5C
:0E1730008BBF0790F691E02D1994F894FFCF2F
:10173E006400000001010000000000000000000035
:10174E00000000000000000000000000000000008B
:10175E00000000000000000000000000000000007B
:10176E00000000000000000000000000000000006B
:10177E00000000000000000000000000000000005B
:10178E00000000000000000000000000000000004B
:10179E00000000000000000000000000000000003B
:1017AE00000000000000000000000000000000002B
:1017BE00000000000000000000000000000000001B
:1017CE00000000000000000000000000000000000B
:1017DE0000000000000000000000000000000000FB
:1017EE0000000000000000000000000000000000EB
:1017FE0000000000000000000000000000000000DB
:10180E0000000000000000000000000000000000CA
:10181E0000000000000000000000000000000000BA
:10182E0000000000000000000000000000000000AA
:10183E00000000000000000000000000000000009A
:10184E000001010101000000010101000000000182
:10185E000000000000000000000000000001010177
:10186E000101000000000000000001010100000065
:10187E000101010000000101010000000101010051
:10188E000000000100000000000000010101010045
:10189E000001000000010001010101000000010132
:1018AE000100000000000000000001010100000026
:1018BE000001000100000000000000010101010014
:1018CE000001000000010001000000010001010103
:1018DE0000000000000000000000000000000001F9
:1018EE0000000000000000000001000000010001E7
:1018FE0000000001000100000001000100000001D5
:10190E0000000100000001010100000100000001C3
:10191E0000010000000100010000000100010000B4
:10192E0000010000000000000001000000010001A5
:10193E000101000001000000000000010000000194
:10194E000001000000010001000000010000000184
:10195E000001010101010000000000000000000173
:10196E000000000101010101000000000100000162
:10197E000000000100000000010000000000010056
:10198E000001000000010000000100010000010044
:10199E000001000000010001000000010001000034
:1019AE000001000000000000000000000100000027
:1019BE000001000000010000000000010000000115
:1019CE0000010101010000010101010100000001FF
:1019DE0000010101010100010000000100010001F0
:1019EE0000000001010101010000000100000001E2
:1019FE0000000001000000010000000000010100D5
:101A0E0000010000000100000001000101010000C2
:101A1E0000010000000100010101010000010000B1
:101A2E0000010000000000000000000100000000A6
:101A3E000001000000010000000000010101010092
:101A4E000001000001000001000000010000000183
:101A5E000000000000000000010001000001000174
:101A6E000000000000000000000001000000000166
:101A7E000000000100000100000000010000000154
:101A8E000000010000000101010100010000010041
:101A9E000001000000010001000000000001000034
:101AAE000001000000000000000001000000000026
:101ABE000001000001000000000000010000000015
:101ACE000001000000010001000000010000000103
:101ADE0000000000000000000001000000000100F6
:101AEE0000000000000000000001010101010000E3
:101AFE0001010100000101010101000001010100CD
:101B0E0000000001000000000001000100000001C3
:101B1E0000000101010000010000000000000101B1
:101B2E0001000000000000000001010101010000A1
:101B3E000001000100000000000000010000000094
:101B4E000000000000000000000000000000000087
:101B5E000000000000000000000000000000000077
:101B6E000000000000000000000000000000000067
:101B7E000000000000000000000000000000000057
:101B8E000000000000000101010000000000000044
:101B9E000000000000000000000000000000000037
:101BAE000000000000000000000000000000000027
:101BBE000000000000000000003200310030002F55
:101BCE00002E002D002C002B002A002900280027B3
:101BDE000026002500240023000000000000010163
:101BEE0001010101000000000000000000000101E1
:101BFE0001010101000000000000010000000100D1
:101C0E0001010101000001010000010101000100BC
:101C1E0001010001000100000000000100000100B0
:101C2E0000010001000100000000000000000100A2
:101C3E000000000100000101000000000000010191
:101C4E000101010100000000000000000000010180
:101C5E00010101010000000000000000004503AF7B
:101C6E0002DC0292030D03EB02FF020D0A00436138
:101C7E006D62696F20646520646972656363696F64
:101C8E006E00697A7175696572646100646572656A
:101C9E006368610033736567004C415320564944B5
:101CAE00415320534F4E203A00656E206D656E7382
:101CBE00616A6500656E206D656E75004A756567B3
:101CCE006F00656E436F6E6669670073746174733F
:0A1CDE0000656E206A7565676F00EF
:00000001FF
