:020000040000FA
:100000000C9435010C9466010C9466010C94660105
:100010000C9466010C9466010C9466010C946601C4
:100020000C9466010C9466010C9466010C946601B4
:100030000C9466010C9466010C9466010C946601A4
:100040000C9466010C9466010C9466010C94660194
:100050000C9466010C9466010C9466010C943A09A8
:100060000C9466010C94AE090C9484090C946601FE
:100070000C9466010C9466010C9466010C94660164
:100080000C9466010C9466010C9466010C94660154
:100090000C9466010C9466010C9466010C94660144
:1000A0000C9466010C9466010C9466010C94660134
:1000B0000C9466010C9466010C9466010C94660124
:1000C0000C9466010C9466010C9466010C94660114
:1000D0000C9466010C9466010C9466010C94660104
:1000E0000C9466010C9445030C94B0010C94140319
:1000F0000C94E4090C949F010C9437030C94D501E3
:100100000C94A7010C94CA030C94A3010C94DA017B
:100110000C9423030C94BA010C94BE010C94B4010A
:100120000C94C2010C949B010C94E7020C94AA015C
:100130000C947D030C9495010C94CC010C94D0018B
:100140000C94C8010C94D601000021002400270063
:100150002A002D00300033000101000004010701D6
:100160000A0100002200250028002B002E0031008B
:10017000340002010000050108010B01000020000D
:100180002300260029002C002F003200000100006F
:10019000030106010901050505050705080808080A
:1001A000020202020A0A080804040404010101010F
:1001B000010101010303030303030303040707070A
:1001C0000C0C0C0C0C0C0C0C0202020206060606AF
:1001D000060606060B0B0B0B0B0B0B0B010210207C
:1001E000200808102040102040800201020108046D
:1001F0000201010204081020408080402010080401
:100200000201800402018040201008040201080459
:10021000020101020408102040800102040810209D
:10022000408000000A0B02090C0D0E0807030401B0
:1002300000000000000000000000000000000000BE
:10024000000000000000000000000000000012118B
:10025000100000000000000000000000000000008E
:100260000000000000000000E40911241FBECFEFD1
:10027000D1E2DEBFCDBF00E00CBF17E0A0E0B2E0EE
:10028000EAEFF4E200E00BBF02C007900D92A03D40
:10029000B107D9F72BE0A0EDB7E001C01D92A73060
:1002A000B207E1F711E0C5E3D1E000E006C0219715
:1002B0000109802FFE010E945012C433D10780E053
:1002C0000807A9F70E94980A0C947B120C9400006E
:1002D000892B39F481E0860F803140F081EF860F61
:1002E0000895662311F08FEFFACF8FE008958150C3
:1002F000823108F05AC0E82FF0E08827ED57FE4F12
:100300008F4F0C945012A301A70195019B019F01EF
:10031000D501AA01B001B401BA01BE01C201C801F0
:10032000CC01D501D001D601DA01809180008F7710
:10033000809380000895809180008F7DF9CF809117
:100340008000877FF5CF84B58F7784BD089584B50D
:100350008F7DFBCF8091B0008F778093B0000895A0
:100360008091B0008F7DF9CF809190008F7780933E
:1003700090000895809190008F7DF9CF809190003A
:10038000877FF5CF8091A0008F778093A00008959C
:100390008091A0008F7DF9CF8091A000877FF5CF5D
:1003A000809120018F778093200108958091200112
:1003B0008F7DF9CF80912001877FF5CFCF93DF9399
:1003C000282F30E0F901EE5DFD4F8491F901E452F0
:1003D000FE4FD491F901EA56FE4FC491CC23A1F00F
:1003E00081110E947701EC2FF0E0EE0FFF1FE4581F
:1003F000FE4FA591B491EC91ED2381E090E009F4DA
:1004000080E0DF91CF91089580E090E0FACF1F93D4
:10041000CF93DF93282F30E0F901EE5DFD4F8491FB
:10042000F901E452FE4FD491F901EA56FE4FC4910E
:10043000CC23A9F0162F81110E947701EC2FF0E058
:10044000EE0FFF1FEE59FE4FA591B4918FB7F894B0
:10045000EC91111108C0D095DE23DC938FBFDF91A2
:10046000CF911F910895DE2BF8CFCF93DF9390E0CB
:10047000FC01E452FE4F24918A569E4FFC01849168
:100480008823D1F090E0880F991FFC01E85BFE4FB4
:10049000A591B491FC01EE59FE4FC591D491611123
:1004A0000EC09FB7F8948C91E22FE0958E238C9329
:1004B0002881E223E8839FBFDF91CF9108958FB712
:1004C000F894EC91E22BEC938FBFF6CF863308F0D3
:1004D000865320917B00982F9870277F922B9093C2
:1004E0007B008770806480937C0080917A008064B8
:1004F00080937A0080917A0086FDFCCF809178000D
:100500009091790008953FB7F89480910E0A9091E8
:100510000F0AA091100AB091110A26B5A89B05C038
:100520002F3F19F00196A11DB11D3FBFBA2FA92F72
:10053000982F8827BC01CD01620F711D811D911D6F
:1005400042E0660F771F881F991F4A95D1F70895DB
:100550008F929F92AF92BF92CF92DF92EF92FF92D3
:100560006B017C010E9483024B015C01C114D10428
:10057000E104F104B9F00E948302681979098A093B
:100580009B09683E73408105910580F321E0C21A02
:10059000D108E108F10888EE880E83E0981EA11CBE
:1005A000B11CE4CFFF90EF90DF90CF90BF90AF9061
:1005B0009F908F9008952FB7F89460910A0A7091D8
:1005C0000B0A80910C0A90910D0A2FBF0895AF92EB
:1005D000BF92CF92DF92EF92FF920F931F93CF9330
:1005E000DF936C017B018B01040F151FEB015E0192
:1005F000AE18BF08C017D10759F06991D601ED9127
:10060000FC910190F081E02DC6011995892B79F7B5
:10061000C501DF91CF911F910F91FF90EF90DF9077
:10062000CF90BF90AF900895FC01538D448D252F3E
:1006300030E0842F90E0821B930B541710F0CF967C
:10064000089501970895FC01918D828D981761F0AE
:10065000A28DAE0FBF2FB11D5D968C91928D9F5FC5
:100660009F73928F90E008958FEF9FEF0895FC01A4
:10067000918D828D981731F0828DE80FF11D858D57
:1006800090E008958FEF9FEF0895FC01918D228DEA
:10069000892F90E0805C9F4F821B91098F7399276F
:1006A000089582E19AE00E94450321E0892B09F434
:1006B00020E0822F0895FC01A48DA80FB92FB11D51
:1006C000A35ABF4F2C91848D90E001968F73992788
:1006D000848FA689B7892C93A089B1898C91837066
:1006E00080648C93938D848D981306C00288F3895F
:1006F000E02D80818F7D80830895EF92FF920F938C
:100700001F93CF93DF93EC0181E0888F9B8D8C8DBD
:1007100098131AC0E889F989808185FF15C09FB7B1
:10072000F894EE89FF896083E889F9898081837074
:10073000806480839FBF81E090E0DF91CF911F9123
:100740000F91FF90EF900895F62E0B8D10E00F5F44
:100750001F4F0F731127E02E8C8D8E110CC00FB61A
:1007600007FCFACFE889F989808185FFF5CFCE01B2
:100770000E945B03F1CFEB8DEC0FFD2FF11DE35ACF
:10078000FF4FF0829FB7F8940B8FEA89FB89808135
:100790008062CFCFCF93DF93EC01888D8823B9F0AF
:1007A000AA89BB89E889F9898C9185FD03C080817C
:1007B00086FD0DC00FB607FCF7CF8C9185FFF2CFF9
:1007C000808185FFEDCFCE010E945B03E9CFDF91F1
:1007D000CF91089580E090E0892B29F00E94510389
:1007E00081110E94000080E090E0892B49F080E0B8
:1007F00090E0892B29F00E94000081110E940000E6
:1008000080E090E0892B49F080E090E0892B29F08E
:100810000E94000081110E94000080E090E0892B7E
:1008200049F080E090E0892B29F00E9400008111BE
:100830000C94000008958BEF98E030E020E0F9017F
:10084000EE0FFF1FE80FF91F118210822F5F3F4F3D
:1008500020313105A1F7809629E08B3F920769F797
:100860000895CF93DF93EBEEF8E08BEF98E0A1E0F3
:10087000B0E0619170E0AC0130E020E040525109FD
:10088000261737073CF4EA01D395B983A8832F5F75
:100890003F4FF4CF029628E0EB3FF20751F7DF918C
:1008A000CF9108952091040A30E04091010AD901C6
:1008B00054E0AA0FBB1F5A95E1F7FD01E40FF11DAB
:1008C000EE0FFF1FE550F74F11821082E091020AF0
:1008D000EA0FFB2FF11DEE0FFF1FE550F74F1182BE
:1008E0001082E091030AAE0FB11DAA0FBB1FA550E5
:1008F000B74F1D921C92215031098091FF099091B0
:10090000000A892B09F0E42F84E0220F331F8A9517
:10091000E1F7E20FF32FF11DEE0FFF1FE550F74F48
:10092000118210820895CF92DF92EF92FF920F937F
:100930001F93CF93DF931F921F92CDB7DEB76983CA
:100940004A83880F991F0091050B1091060B000F29
:10095000111FEFEAFAE09F012F5A3A4020173107A2
:1009600014F41192F8CF2981FC01E155F54F218350
:100970008A81808360E08091030B0E940702101639
:10098000110604F501501109F801E155F54FE08019
:10099000D090010BC090FF0A88E0F82E6E2D661FE4
:1009A0006627661F8C2D0E940702EE0C61E08D2DDC
:1009B0000E94070260E08D2D0E940702FA94F11058
:1009C000EDCFDDCF61E08091030B0F900F90DF91B1
:1009D000CF911F910F91FF90EF90DF90CF900C94EB
:1009E0000702EF92FF920F931F93CF937C018C012C
:1009F00083E0000F111F8A95E1F70154154FC1E004
:100A0000F80111928F0140E06C2FC7010E949304FE
:100A1000CF5FC930A9F7CF911F910F91FF90EF9051
:100A20000895EF92FF920F931F93CF93DF938091DE
:100A3000050B9091060B1816190624F490E080E03F
:100A40000E94F104C8E1D6E088EBE82E86E0F82E9B
:100A50008881229660E00E94070208EA16E0F80109
:100A600080810E5F1F4F61E00E940702E016F106D1
:100A7000B1F7F6E0C832DF0759F7DF91CF911F9148
:100A80000F91FF90EF9008952F923F924F925F92B7
:100A90006F927F928F929F92AF92BF92CF92DF928E
:100AA000EF92FF920F931F93CF93DF93CDB7DEB7F3
:100AB000C250D1400FB6F894DEBF0FBECDBF80E864
:100AC0008E010F5F1F4FD801E82F1D92EA95E9F7BD
:100AD000FE01EF57FF4FDF011D928A95E9F74F01A5
:100AE0006BEF78E05F01980190E080E050E040E03B
:100AF0007B01E80EF91ED701CD90DC907901E80E5C
:100B0000F91E4830510534F07C01B0E1EB1AF108D0
:100B1000EA0CFB1CD701CD92DC924F5F5F4F02962F
:100B20004031510529F7205F3F4FB0E1AB0EB11CBA
:100B3000605E7F4F2E173F07B9F638E1232E36E06F
:100B4000332E4FEAE42E4AE0F42EE1E0CF5FDE4F91
:100B5000E883C150D140D101BC91CE5FDE4FB88354
:100B6000C250D140E2E02E0E311C61E08B2F0E947A
:100B7000070228EAA22E26E0B22E35012401D12C4C
:100B8000C12CD3018C91B2E06B0E711CF20120815B
:100B9000318160E02130310509F061E00E940702F7
:100BA0008091050B9091060B181619062CF580E81C
:100BB00090E00C2C02C0959587950A94E2F7D70136
:100BC00050962C915097F601EE0FFF1FE00FF11F8A
:100BD00040815181452B09F465C0822B50968C933E
:100BE000D70150964C91CF5FDE4F6881C150D14004
:100BF00090E080E00E949304BFEFCB1ADB0AE0E1B3
:100C00004E0E511CF8E0CF16D10409F0BACF61E0C6
:100C100070E080E090E00E94A80260E0CE5FDE4FCE
:100C20008881C250D1400E940702D5018C91B2E068
:100C3000AB0EB11C61E00E940702E8EBAE16E6E0E5
:100C4000BE0699F7FFEFEF1AFF0ACF5FDE4F8881EC
:100C5000C150D1408F5FCF5FDE4F8883C150D140FC
:100C6000005F1F4F92E0890E911C893009F073CF0D
:100C7000CE5FDE4F0FB6F894DEBF0FBECDBFDF9163
:100C8000CF911F910F91FF90EF90DF90CF90BF9089
:100C9000AF909F908F907F906F905F904F903F901C
:100CA0002F90089580958223F701808B99CFFC01C6
:100CB00001900020E9F73197AF01481B590BBC01A7
:100CC00082E19AE00C94E7028F929F92AF92BF92DA
:100CD0000F931F93CF93DF93CDB7DEB7A1970FB6D6
:100CE000F894DEBF0FBECDBF19A2423008F44AE02F
:100CF0008E010F5D1F4F842E912CB12CA12CA501CC
:100D000094010E945C10E62FB901CA01EA30F4F4A4
:100D1000E05DD801EE938D01232B242B252B79F751
:100D200090E080E0109719F0CD010E945706A1963F
:100D30000FB6F894DEBF0FBECDBFDF91CF911F91EC
:100D40000F91BF90AF909F908F900895E95CE1CF95
:100D5000CF93DF930E945706EC018AE497E00E944C
:100D600057068C0F9D1FDF91CF910895CF93DF938E
:100D700086E00E94DE01019709F4D0C087E00E945E
:100D8000DE01019709F4CCC084E00E94DE010197E6
:100D900091F580910502882319F18091080A81114B
:100DA0001FC08091060A81111BC08091070A811122
:100DB00017C08DE497E00E94A8068091D2078111A8
:100DC00011C081E697E00E94A80681E08093D207D7
:100DD0008093DF0762E370E080E090E00E94A80269
:100DE00083E768C08BE697E00E94A8061092D207BE
:100DF0001092DF07EFCF83E00E94DE01019709F038
:100E000091C0C091D007D091D1072196D093D1073E
:100E1000C093D00764EF71E080E090E00E94A802E8
:100E20008091050223970CF466C08823E9F0809135
:100E3000080A811119C08091060A811115C080919C
:100E4000070A811111C083E797E00E94A80610925B
:100E5000050281E08093080A1092060A1092070AA0
:100E60001092D1071092D0078091050281111DC008
:100E70008091080A811119C08091060A8823A9F07F
:100E80008091070A811111C083E797E00E94A806AC
:100E90001092050281E08093080A1092060A1092CF
:100EA000070A1092D1071092D0078091050288237B
:100EB00021F08BE6DF91CF9108958091080A81118E
:100EC000F8CF8091060A8111F4CF8091070A882318
:100ED00081F388E797E00E94A8061092050281E05E
:100EE0008093080A1092060A1092070A1092D107FE
:100EF0001092D007DECF8111DCCF8091080A8111DA
:100F0000D8CF8091060A8823A1F28091070A811127
:100F1000D0CF84E897E00E94A806CBCF82E7CACF63
:100F20008CE6C8CF80E2C6CFCF92DF92EF92FF92DD
:100F30000F931F93CF93DF93C82ED12C80E1E82E1F
:100F4000F12CC4E0D0E0DC14B9F00E94770F8C01E2
:100F50000E94770FB7010E943C12FC01FF27E55168
:100F6000F74F80818111EFCFC801BE010E943C1272
:100F70008F5F8083D394E7CF0E941B04DF91CF91D2
:100F80001F910F91FF90EF90DF90CF900C94310460
:100F9000CF92DF92EF92FF920F931F93CF930E9415
:100FA00052040091FF091091000A6091010AC801E2
:100FB0000E946801C82F8093010A6091020AC8014B
:100FC0000E946801F82E8093020A6091030AC8010A
:100FD0000E9468018093030A6091040A70E0AC2FBC
:100FE000B0E09B0144E0220F331F4A95E1F7F9017D
:100FF000EA0FFB1FEE0FFF1FE550F74FCC24C39401
:10100000D12CD182C0824F2D50E0F901E40FF51FA1
:10101000EE0FFF1FE550F74FD182C082E82EF12C72
:10102000F901EE0DFF1DEE0FFF1FE550F74FD182C6
:10103000C082FB0131970115110509F4C82F84E026
:10104000EE0FFF1F8A95E1F7EC0FF11DEE0FFF1F6A
:10105000E550F74F81E090E091838083F701E551FF
:10106000F74F208121110DC0FA01E551F74F808122
:10107000811107C0FD01E551F74F8081882309F4F4
:1010800055C088E090E0FC01E21BF1096E177F0774
:1010900094F44551574FFA012081AC01421B51098C
:1010A0006417750744F4A551B74F2C91821B910921
:1010B00068177907DCF18091FB09811109C091E083
:1010C000909305021092080A1092060A1092070ADD
:1010D00081508093FB090E94520482E08093010AB0
:1010E00081E08093020A1092030A8093040A81E04F
:1010F00090E09093200980931F0990931E0980939C
:101100001D0990931C0980931B09E0E0012B09F055
:10111000E2E0F0E0EE0FFF1FE550F74F81E090E0D6
:10112000918380830E9431040E9444050E944405FB
:101130008091050A882309F485C0E091E9086E2FA3
:1011400070E02091EA0830E0DB0194E0AA0FBB1FB9
:101150009A95E1F7A20FB31FAA0FBB1FA550B74F77
:101160001D921C92D901A551B74F8C91882349F04B
:1011700047E050E0461B570B8417150611F48150C9
:101180008C93EF5FE093E908E83008F464C0809145
:10119000E8088823A1F09091FE098091FD098F5FF6
:1011A0008093FD099F5F9093FE0965E00E943012D5
:1011B000911105C08091FB098F5F8093FB0910920C
:1011C000050A1092E808C091FE098091FC09C81335
:1011D00039C00E941B04EBEEF8E08BEF98E011920F
:1011E0008E179F07E1F71092000A1092FF0982E024
:1011F0008093010A81E08093020A1092030A80938F
:10120000040A1092FE098C2FC03108F08FE08F5F26
:101210008093FC0921E030E03093200920931F09DE
:1012200030931E0920931D0930931C0920931B093C
:101230003093FC082093FB080E9494070E9431041D
:101240000E94C807CF911F910F91FF90EF90DF9000
:10125000CF900C94440550E1E59FF0011124E20F7A
:10126000F31FEE0FFF1FE550F74F81E090E09183F1
:101270008083E8CF1F920F920FB60F9211242F9305
:101280003F938F939F93AF93BF9380910A0A90915E
:101290000B0AA0910C0AB0910D0A3091090A23E0C3
:1012A000230F2D3758F50196A11DB11D2093090A72
:1012B00080930A0A90930B0AA0930C0AB0930D0A2C
:1012C00080910E0A90910F0AA091100AB091110A14
:1012D0000196A11DB11D80930E0A90930F0AA09351
:1012E000100AB093110ABF91AF919F918F913F91D6
:1012F0002F910F900FBE0F901F90189526E8230F87
:101300000296A11DB11DD2CF1F920F920FB60F9260
:1013100011240BB60F922F933F934F935F936F93CC
:101320007F938F939F93AF93BF93EF93FF9382E14C
:101330009AE00E945B03FF91EF91BF91AF919F9163
:101340008F917F916F915F914F913F912F910F906E
:101350000BBE0F900FBE0F901F9018951F920F920B
:101360000FB60F9211240BB60F922F938F939F936A
:10137000EF93FF93E091220AF091230A8081E0919C
:10138000280AF091290A82FD1DC0908180912B0AC4
:101390008F5F8F7320912C0A821741F0E0912B0A06
:1013A000F0E0EE5EF54F958F80932B0AFF91EF9161
:1013B0009F918F912F910F900BBE0F900FBE0F90AA
:1013C0001F9018958081F2CFCF93DF931092150A6A
:1013D0001092140A88EE93E0A0E0B0E08093160A21
:1013E0009093170AA093180AB093190A8CE397E018
:1013F0009093130A8093120A85EC90E090931F0A51
:1014000080931E0A84EC90E09093210A8093200A36
:1014100080EC90E09093230A8093220A81EC90E084
:101420009093250A8093240A82EC90E09093270AF7
:101430008093260A86EC90E09093290A8093280AEC
:1014400010922B0A10922C0A10922D0A10922E0A3A
:10145000C3E3D0E0D093000BC093FF0A85E390E094
:101460009093020B8093010B84E390E09093040B24
:101470008093030B81E090E09093060B8093050B23
:1014800061E083E30E94350261E08091010B0E94DC
:10149000350261E08091030B0E94350261E080918A
:1014A000030B0E940702D093000BC093FF0AEFEBDF
:1014B000FAE011928AE0EF3FF807D9F7D0E0C0E0F8
:1014C0008091050B9091060BC817D90774F540E081
:1014D0006FE0CE010E9493048091050B9091060B62
:1014E000C817D9072CF447E06BE0CE010E949304A3
:1014F00040E069E0CE010E9493048091050B909139
:10150000060BC817D9071CF4CE010E94F104809184
:10151000050B9091060BC817D9072CF440E06CE03E
:10152000CE010E9493042196CBCFDF91CF910895F5
:10153000CF93DF9300D0CDB7DEB7789484B58260C7
:1015400084BD84B5816084BD85B5826085BD85B567
:10155000816085BD80916E00816080936E001092E5
:101560008100809181008260809381008091810060
:1015700081608093810080918000816080938000F1
:101580008091B10084608093B1008091B00081604F
:101590008093B0008091910082608093910080914F
:1015A0009100816080939100809190008160809390
:1015B00090008091A10082608093A1008091A100A1
:1015C00081608093A1008091A00081608093A00041
:1015D00080912101826080932101809121018160AD
:1015E000809321018091200181608093200180916E
:1015F0007A00846080937A0080917A008260809380
:101600007A0080917A00816080937A0080917A00DC
:10161000806880937A001092C100E091220AF091D4
:10162000230A82E08083E0911E0AF0911F0A108253
:10163000E091200AF091210A8FEC808310922A0A0F
:10164000E091260AF091270A86E08083E091240A3F
:10165000F091250A808180618083E091240AF091D5
:10166000250A808188608083E091240AF091250A10
:10167000808180688083E091240AF091250A80812E
:101680008F7D808380E00E946602BC01990F880BE9
:10169000990B611571058105910511F00E942110CA
:1016A00008E116E028EA36E03B832A83AA81BB8161
:1016B0008C911296BB83AA8361E00E943502F801E7
:1016C00080810E5F1F4F61E00E9435022A813B81BD
:1016D000285B364059F78091050B9091060B181640
:1016E000190634F441E06CE090E080E00E9493043D
:1016F0008091050B9091060B1816190634F448E0FA
:101700006AE090E080E00E9493048091050B909144
:10171000060B1816190624F490E080E00E94F104EC
:1017200008E116E01B830A83AA81BB818C91129683
:10173000BB83AA8360E00E94070208EA16E0F80172
:1017400080810E5F1F4F61E00E940702F6E0083BB8
:101750001F07A9F70A811B810852164029F760E08C
:1017600086E00E94350260E087E00E94350260E07A
:1017700084E00E94350260E083E00E9435020EE0C2
:1017800012E083ED97E09B838A837C0154E6852EEB
:10179000912CA12CB12CD8016D917D918D01072E3A
:1017A000000C880B990B0E94371120E030E040E4D8
:1017B00050E40E948D1020E030E048EC52E40E949A
:1017C000C3110E94FF109B01AC01A7E0B0E00E9492
:1017D0004910A50194010E942A102F5F3F4F4F4FDF
:1017E0005F4FF701219331937F01F2E008311F072A
:1017F00091F686EE97E030E020E0F901EE0FFF1F52
:10180000E80FF91F118210822F5F3F4F2031310501
:10181000A1F7809608E0863E900769F790E080E0A7
:1018200067E070E0A1E0B0E0EA81FB8121913191B5
:10183000FB83EA832115310591F0FC01E853F74F52
:1018400047E050E08B01021B130B041715070CF047
:10185000F0C2B183A08341505109B097F6CF0696EC
:101860008E31910509F73324339401E010E088EEBE
:10187000482E83E0582E612C712C8091050288231C
:1018800009F490C084E997E00E94A8060E94B60679
:101890000E94DB026B017C018091E4079091E507D7
:1018A0004BEF58E0BC01685E7D4FF0E0E0E0DB010B
:1018B000AE0FBF1FAC919F01220F331F240F351FA6
:1018C000A11153C0D9011D921C923196E031F1054E
:1018D00071F7405E5F4F60587F4FEBEFF9E0E41720
:1018E000F50719F74091E0075091E1076091E20791
:1018F0007091E30746015701841A950AA60AB70AB0
:101900004091010250910202609103027091040221
:10191000481559056A057B0508F5C092E007D09285
:10192000E107E092E207F092E3074091DF072091A0
:10193000DD073091DE07442311F18F379105C9F09F
:1019400001969093E5078093E40721153105A1F0F6
:10195000215031093093DE072093DD070E944405B2
:101960000E941B040E94EA0388CFD9010D931C93A7
:10197000ACCF90E080E0E5CF2EE730E0EBCF0097F2
:1019800059F001979093E5078093E4072F373105CD
:1019900031F02F5F3F4FDECF8EE790E0F3CF30E0A6
:1019A00020E0D8CFF091080AF983FF2309F41AC187
:1019B0008FE997E00E94A8068091E6089091E708D9
:1019C000892B09F05AC00E941105B8E2AB2EB6E08F
:1019D000BB2E88EAC82E86E0D82ED6019C90B2E0B5
:1019E000CB0ED11C60E0892D0E940702F12CE12C66
:1019F000F501EE0DFF1D80819181019739F461E0C1
:101A0000F701E85EF94F80810E940702E2E0EE0EE6
:101A1000F11CF0E1EF16F10459F761E0892D0E9405
:101A20000702A8E1EA2EA6E0FA2ED7018C91B2E0D7
:101A3000EB0EF11C60E00E940702E8E2EE16E6E021
:101A4000FE0699F7F0E1AF0EB11C28EBC21626E0B6
:101A5000D20619F681E090E09093E7088093E608BB
:101A60000E94B6068C36A9F587EA97E00E94A80680
:101A70001092080A3092060A75CF0E94DB022BEF03
:101A800038E068EB76E050E040E0FB01E40FF51F42
:101A9000E081CA01880F991F820F931FE11115C0C1
:101AA000DC011D921C924F5F5F4F4031510569F779
:101AB000205E3F4F605F7F4FF9E02B3F3F0719F7F4
:101AC0000E9444050E941B04CBCFFC0111830083BC
:101AD000EACF0E94B606833709F076C08DEA97E018
:101AE0000E94A806212C812C912C54010E94DB021B
:101AF0008BEFE82E88E0F82E96EEC92E97E0D92ECF
:101B000090E080E0F601E80FF91F20813181F701B4
:101B1000E80FF91F232B71F5118210820296803293
:101B2000910581F761E070E080E090E00E94A802FA
:101B300020E2E20EF11C30E2C30ED11C8BEFE8165E
:101B400089E0F806E9F60E9444050E941B040E9401
:101B5000DB026B017C0183E00E94DE01019741F40E
:101B600021100BC00E94DB024B015C012980BECF1B
:101B7000212CBCCF11830083D1CFC818D908EA0823
:101B8000FB0890EFC91A9AE0D90AE108F108A5EF1D
:101B9000CA16A1E0DA06E104F10408F0A7CF82E05A
:101BA0000E94DE01892B09F0A1CF0E941B0464E68C
:101BB00070E080E090E00E94A80266E970E080E0BA
:101BC00090E00E94A802CECE0E94B606823709F0AD
:101BD000C9CE83EB97E00E94A8061092080A3092C3
:101BE000070AC0CE8091070A882309F49CC08CEBB9
:101BF00097E00E94A8060E94B6060E94DB0286E3D8
:101C00000E9466029C01A2EEBFEF0E945812A3013F
:101C100092010E942A1049015A01BEE18B0E911CCB
:101C2000A11CB11CC4016DEF7FEF0E943C127B012F
:101C3000EAE0EE0EF11C8092010290920202A09264
:101C40000302B09204028EE30E94660227E030E0B5
:101C5000DC010E946012A30192010E942A10BA01C5
:101C6000A9014D5F5F4F6F4F7F4FDA014093000234
:101C70006BEF78E04FEF5FEF2BEF3FEF90E080E00E
:101C8000FC01EE0FFF1FE60FF71F1182108242309A
:101C9000510528F48E159F0514F41183008322301A
:101CA000310528F48A179B0714F4118300830196E9
:101CB0008031910529F7605E7F4F2F5F3F4F4F5F67
:101CC0005F4F23303105D1F647010F2C000CAA08D5
:101CD000BB084AE0C501B401F7FE0DC06DE282E128
:101CE0009AE00E947D0366277727CB01681979095E
:101CF0008A099B094AE00E9464068AE497E00E94F0
:101D00005706609101027091020280910302909146
:101D100004024AE00E9464068AE497E00E945706A3
:101D20000E9444051FCE86EC97E00E94A8060E9400
:101D300011058091060A8823E1F10E941B04EBEE55
:101D4000F8E0119228E0EB3FF207D9F7809100020A
:101D50008093FB091092000A1092FF0932E0309341
:101D6000010A3092020A1092030A3092040A109279
:101D7000FE091092FD091092050A3092FC0981E0DB
:101D800090E09093200980931F0990931E098093FF
:101D90001D0990931C0980931B099093FC08809364
:101DA000FB080E9494070E9431040E94C807109209
:101DB000060A0E94C8070E94B6068C3669F4109283
:101DC000000A1092FF096091010270910202809155
:101DD000030290910402F5CE823739F4A1E0B0E01D
:101DE000B093000AA093FF09EECF8B3649F410920E
:101DF00005021092080A1092060A1092070AE3CF11
:101E0000833709F78091050A8111DDCF3092050AE9
:101E1000E091020AE093EA088091040A8093E908BD
:101E2000F0E0E551F74F8081882369F23092E808AD
:101E3000CACFFC01E653F74F47E050E08B01021B8D
:101E4000130B9801241735070CF009CDB183A0833B
:101E500041505109B097F6CF8F929F92AF92BF92A7
:101E6000CF92DF92EF92FF92CF93DF93EC016881E4
:101E700079818A819B81611571058105910521F424
:101E800064E279ED8BE597E02DE133EF41E050E03E
:101E90000E942A1049015A019B01AC01A7EAB1E452
:101EA0000E9449106B017C01ACEEB4EFA5019401D6
:101EB0000E945710DC01CB018C0D9D1DAE1DBF1D76
:101EC000B7FF03C00197A109B04888839983AA830B
:101ED000BB839F77DF91CF91FF90EF90DF90CF9002
:101EE000BF90AF909F908F9008950C942C0F86E038
:101EF00092E00C942C0FB0E0A0E080930602909347
:101F00000702A0930802B093090208958F929F924E
:101F1000AF92BF92CF92DF92EF92FF92CF93DF9377
:101F2000EC01688179818A819B8161157105810548
:101F3000910521F464E279ED8BE597E02DE133EF33
:101F400041E050E00E942A1049015A019B01AC0176
:101F5000A7EAB1E40E9449106B017C01ACEEB4EF3A
:101F6000A50194010E945710C60ED71EE81EF91E47
:101F7000F7FE06C081E0C81AD108E10880E8F80A37
:101F8000C882D982EA82FB82C701B6019F77DF91BE
:101F9000CF91FF90EF90DF90CF90BF90AF909F9048
:101FA0008F9008958F929F92AF92BF92CF92DF92BF
:101FB000EF92FF9260910A0270910B0280910C02E5
:101FC00090910D02611571058105910521F464E27E
:101FD00079ED8BE597E02DE133EF41E050E00E9491
:101FE0002A1049015A019B01AC01A7EAB1E40E9401
:101FF00049106B017C01ACEEB4EFA50194010E9485
:102000005710C60ED71EE81EF91EF7FE06C081E067
:10201000C81AD108E10880E8F80AC0920A02D092F2
:102020000B02E0920C02F0920D02C701B6019F77FD
:10203000FF90EF90DF90CF90BF90AF909F908F90E8
:10204000089560930A0270930B0280930C029093A0
:102050000D020895052E97FB1EF400940E94411076
:1020600057FD07D00E945C1007FC03D04EF40C947F
:10207000411050954095309521953F4F4F4F5F4F00
:10208000089590958095709561957F4F8F4F9F4FE4
:1020900008950E947E10A59F900DB49F900DA49F5F
:1020A000800D911D11240895B7FF0C9449100E94D2
:1020B0004910821B930B0895A1E21A2EAA1BBB1B89
:1020C000FD010DC0AA1FBB1FEE1FFF1FA217B30704
:1020D000E407F50720F0A21BB30BE40BF50B661F1A
:1020E000771F881F991F1A9469F7609570958095DE
:1020F00090959B01AC01BD01CF010895A29FB00155
:10210000B39FC001A39F700D811D1124911DB29F2B
:10211000700D811D1124911D08950E94A1100C9431
:1021200089110E94821158F00E947B1140F029F41D
:102130005F3F29F00C94721151110C94BD110C9455
:1021400078110E949A1168F39923B1F3552391F302
:10215000951B550BBB27AA2762177307840738F016
:102160009F5F5F4F220F331F441FAA1FA9F335D073
:102170000E2E3AF0E0E832D091505040E695001C27
:10218000CAF72BD0FE2F29D0660F771F881FBB1FE1
:10219000261737074807AB07B0E809F0BB0B802DBF
:1021A000BF01FF2793585F4F3AF09E3F510578F0EB
:1021B0000C9472110C94BD115F3FE4F3983ED4F37C
:1021C000869577956795B795F7959F5FC9F7880FBF
:1021D000911D9695879597F90895E1E0660F771F11
:1021E000881FBB1F621773078407BA0720F0621BA2
:1021F000730B840BBA0BEE1F88F7E09508950E94CD
:1022000006116894B1110C94BD1108950E94A21199
:1022100088F09F5798F0B92F9927B751B0F0E1F0A7
:10222000660F771F881F991F1AF0BA95C9F714C057
:10223000B13091F00E94BC11B1E008950C94BC1132
:10224000672F782F8827B85F39F0B93FCCF3869590
:1022500077956795B395D9F73EF4909580957095ED
:1022600061957F4F8F4F9F4F0895E89409C097FB6A
:102270003EF490958095709561957F4F8F4F9F4F5D
:102280009923A9F0F92F96E9BB279395F6958795A1
:1022900077956795B795F111F8CFFAF4BB0F11F464
:1022A00060FF1BC06F5F7F4F8F4F9F4F16C088230B
:1022B00011F096E911C0772321F09EE8872F762F41
:1022C00005C0662371F096E8862F70E060E02AF082
:1022D0009A95660F771F881FDAF7880F969587956E
:1022E00097F9089597F99F6780E870E060E0089596
:1022F0009FEF80EC089500240A941616170618061E
:102300000906089500240A941216130614060506F9
:102310000895092E0394000C11F4882352F0BB0F8A
:1023200040F4BF2B11F460FF04C06F5F7F4F8F4FED
:102330009F4F089557FD9058440F551F59F05F3F28
:1023400071F04795880F97FB991F61F09F3F79F0D7
:1023500087950895121613061406551FF2CF469559
:10236000F1DF08C0161617061806991FF1CF8695DB
:102370007105610508940895E894BB2766277727BF
:10238000CB0197F908950E94D6110C9489110E94EF
:102390007B1138F00E94821120F0952311F00C94EB
:1023A00072110C94781111240C94BD110E949A1191
:1023B00070F3959FC1F3950F50E0551F629FF00198
:1023C000729FBB27F00DB11D639FAA27F00DB11DB1
:1023D000AA1F649F6627B00DA11D661F829F22273A
:1023E000B00DA11D621F739FB00DA11D621F839FC1
:1023F000A00D611D221F749F3327A00D611D231F97
:10240000849F600D211D822F762F6A2F11249F57E4
:1024100050409AF0F1F088234AF0EE0FFF1FBB1FE7
:10242000661F771F881F91505040A9F79E3F5105A6
:1024300080F00C9472110C94BD115F3FE4F3983E50
:10244000D4F3869577956795B795F795E7959F5F50
:10245000C1F7FE2B880F911D9695879597F90895E2
:10246000991B79E004C0991F961708F0961B881FE6
:102470007A95C9F78095089597FB072E16F4009476
:1024800007D077FD09D00E94671207FC05D03EF403
:10249000909581959F4F0895709561957F4F089510
:1024A000EE0FFF1F881F8BBF0790F691E02D199448
:1024B0000E947E10332312F48A1B9B0B0C94621231
:1024C0000E947E10B7FF0895821B930B0895AA1BEC
:1024D000BB1B51E107C0AA1FBB1FA617B70710F00F
:1024E000A61BB70B881F991F5A95A9F78095909541
:1024F000BC01CD010895F894FFCF031E0000000138
:1025000001000000010000000200010000000000C6
:1025100000000000000000000000000000000000BB
:1025200000000000000000000000000000000000AB
:10253000000000000000000000000000000000009B
:10254000000000000000000000000000000000008B
:10255000000000000000000000000000000000007B
:10256000000000000000000000000000000000006B
:10257000000000000000000000000000000000005B
:10258000000000000000000000000000000000004B
:102590000000000000000000000001010101000037
:1025A0000001010100000000010000000000000027
:1025B0000000000000000101010101000000000016
:1025C0000000000101010000000101010000000104
:1025D00001010000000101010000000001000000F5
:1025E00000000000010101010000010000000100E5
:1025F00001010101000000010101000000000000D4
:1026000000000001010100000000010001000000C5
:1026100000000000010101010000010000000100B4
:1026200001000000010001010100000000000000A5
:102630000000000000000000010000000000000099
:102640000000010000000100010000000100010085
:102650000000010001000000010000010000000175
:102660000101000001000000010001000000010064
:102670000100000001000100000001000000000056
:102680000000010000000100010101000001000044
:102690000000000001000000010001000000010036
:1026A0000100000001000000010001010101010022
:1026B0000000000000000000010000000101010115
:1026C0000100000000010000010000000100000006
:1026D00000010000000000010000010000000100F6
:1026E00000000100010000010000010000000100E5
:1026F00001000000010001000000010000000000D6
:1027000000000000000100000000010000000100C6
:1027100000000000010000000100010101010000B3
:10272000010101010100000001000101010101009E
:102730000100000001000100010000000101010191
:102740000100000001000000010000000100000085
:102750000100000000000101000001000000010074
:102760000000010001010100000001000000010063
:102770000101010100000100000001000000000053
:102780000000000001000000000001000000010046
:102790000000000001010101000001000001000033
:1027A0000100000001000000010000000000000026
:1027B0000001000100000100010000000000000015
:1027C0000000000100000000010000000100000105
:1027D00000000000010000000100000100000001F5
:1027E00001010100010000010000010000000100E2
:1027F00001000000000001000000010000000000D6
:1028000000000001000000000000010000010000C5
:1028100000000000010000000000010000000100B5
:1028200001000000010000000100000000000000A5
:102830000000010000000001000000000000000096
:10284000000001010101010000010101000001017E
:102850000101010000010101000000000100000071
:102860000000010001000000010000010101000062
:102870000100000000000001010100000000000054
:102880000000010101010100000001000100000041
:102890000000000001000000000000000000000037
:1028A0000000000000000000000000000000000028
:1028B0000000000000000000000000000000000018
:1028C0000000000000000000000000000000000008
:1028D00000000000000000000000000000000001F7
:1028E00001010000000000000000000000000000E6
:1028F00000000000000000000000000000000000D8
:1029000000000000000000000000000000000000C7
:1029100000002A00290028002700260025002400A6
:102920002300000000000000000000000000000084
:102930000000000000000000000000000000000097
:102940000000000000000000000000000000000087
:102950000000000000000000000000000000000077
:102960000000000000000000000000000000000067
:102970000000000000000000000000000000000057
:102980000000000000000000000000000000000047
:102990000000000000000000000000000000000037
:1029A00000003200310030002F002E002D002C00DE
:1029B0002B000000000000010101010101000000E6
:1029C0000000000000000001010101010100000001
:1029D00000000001000000010001010101000001F0
:1029E00001000001010100010001010001000100DE
:1029F00000000000010000010000010001000100D2
:102A000000000000000000010000000001000001C3
:102A100001000000000000010101010101000000AF
:102A200000000000000000010101010101000000A0
:102A30000000000000007D03E7021403CA03450301
:102A4000230337030D0A0043616D62696F206465DB
:102A500020646972656363696F6E00697A71756974
:102A600065726461006465726563686100337365F3
:102A700067003373656720636F6E666967004C415A
:102A80005320564944415320534F4E203A00656E1F
:102A9000206D656E73616A6500656E206D656E758B
:102AA000004A7565676F00737461747300656E43E7
:102AB0006F6E66696700656E20636F6E666967009A
:0A2AC000656E206A7565676F0000FF
:020000040003F7
:10E000000D9489F10D94B2F10D94B2F10D94B2F129
:10E010000D94B2F10D94B2F10D94B2F10D94B2F1F0
:10E020000D94B2F10D94B2F10D94B2F10D94B2F1E0
:10E030000D94B2F10D94B2F10D94B2F10D94B2F1D0
:10E040000D94B2F10D94B2F10D94B2F10D94B2F1C0
:10E050000D94B2F10D94B2F10D94B2F10D94B2F1B0
:10E060000D94B2F10D94B2F10D94B2F10D94B2F1A0
:10E070000D94B2F10D94B2F10D94B2F10D94B2F190
:10E080000D94B2F10D94B2F10D94B2F10D94B2F180
:10E090000D94B2F10D94B2F10D94B2F10D94B2F170
:10E0A0000D94B2F10D94B2F10D94B2F10D94B2F160
:10E0B0000D94B2F10D94B2F10D94B2F10D94B2F150
:10E0C0000D94B2F10D94B2F10D94B2F10D94B2F140
:10E0D0000D94B2F10D94B2F10D94B2F10D94B2F130
:10E0E0000D94B2F141546D656761323536300041AF
:10E0F000726475696E6F206578706C6F72657220DE
:10E1000073746B3530305632206279204D4C530099
:10E11000426F6F746C6F616465723E004875683F52
:10E1200000436F6D70696C6564206F6E203D200048
:10E130004350552054797065202020203D20005FF9
:10E140005F4156525F415243485F5F3D2000415658
:10E1500052204C696243205665723D20004743437C
:10E160002056657273696F6E203D20004350552024
:10E1700049442020202020203D20004C6F7720663D
:10E18000757365202020203D20004869676820665F
:10E190007573652020203D200045787420667573D6
:10E1A00065202020203D20004C6F636B2066757336
:10E1B000652020203D20004D617220203720323024
:10E1C000313300312E362E3800342E332E350056A2
:10E1D00023202020414444522020206F7020636F70
:10E1E00064652020202020696E73747275637469E1
:10E1F0006F6E2061646472202020496E74657272B3
:10E20000757074006E6F20766563746F7200726A49
:10E210006D702020006A6D70200057686174207056
:10E220006F72743A00506F7274206E6F7420737541
:10E2300070706F72746564004D7573742062652030
:10E2400061206C6574746572002000577269747483
:10E25000696E672045450052656164696E672045B7
:10E26000450045452065727220636E743D00504F35
:10E27000525400303D5A65726F2061646472003FF1
:10E280003D43505520737461747300403D454550C3
:10E29000524F4D207465737400423D426C696E6B41
:10E2A000204C454400453D44756D70204545505215
:10E2B0004F4D00463D44756D7020464C415348001B
:10E2C000483D48656C70004C3D4C69737420492F83
:10E2D0004F20506F72747300513D51756974005234
:10E2E0003D44756D702052414D00563D73686F7707
:10E2F00020696E7465727275707420566563746FF0
:10E30000727300593D506F727420626C696E6B00BD
:10E310002A0011241FBECFEFD1E2DEBFCDBF01E046
:10E320000CBF12E0A0E0B2E0EEE1FDEF03E00BBFB6
:10E3300002C007900D92A030B107D9F712E0A0E01B
:10E34000B2E001C01D92AE30B107E1F70F9460F367
:10E350000D948DFE01E20EBF0FEF0DBF11241FBE05
:10E360000D9460F30D9400F020E030E040ED57E0B4
:10E3700005C0FA013197F1F72F5F3F4F2817390792
:10E38000C0F308959C01260F311DC901A0E0B0E043
:10E390002F5F3F4FABBFFC018791882361F08093D3
:10E3A000C6008091C00086FFFCCF8091C0008064D1
:10E3B0008093C000EACF08958DE08093C6008091DD
:10E3C000C00086FFFCCF8091C00080648093C000B5
:10E3D0008AE08093C6008091C00086FFFCCF8091C8
:10E3E000C00080648093C00008950F94C2F10F9420
:10E3F000DCF10895FC019081992359F09093C600B7
:10E400008091C00086FFFCCF8091C0008064809323
:10E41000C0003196992379F70895282F982F929567
:10E420009F70892F805D8A3308F0895F8093C600D2
:10E430008091C00086FFFCCF8091C00080648093F3
:10E44000C000822F8F70982F905D9A3308F0995FEB
:10E450009093C6008091C00086FFFCCF8091C000E1
:10E4600080648093C00008959C01FB01853691056E
:10E470001CF46330710594F0C90164E670E00F94F8
:10E480002EFE605D7F4F6093C6008091C00086FFC6
:10E49000FCCF8091C00080648093C0002B30310598
:10E4A00014F43297B4F0C90164E670E00F942EFEC4
:10E4B0006AE070E00F942EFE605D7F4F6093C600AF
:10E4C0008091C00086FFFCCF8091C0008064809363
:10E4D000C000C9016AE070E00F942EFEC0968093E0
:10E4E000C6008091C00086FFFCCF8091C000806490
:10E4F0008093C00008951F93182F8EE692EE60E07F
:10E500000F94C2F11093C6008091C00086FFFCCF2B
:10E510008091C00080648093C0000F94DCF11F9153
:10E5200008952F923F924F925F926F927F928F92B7
:10E530009F92AF92BF92CF92DF92EF92FF920F9392
:10E540001F93DF93CF93CDB7DEB762970FB6F894E2
:10E55000DEBF0FBECDBF382E622ECA01DB015C01CB
:10E560006D01772420E2222E2E010894411C511CBB
:10E570008BC081E0A81680E0B80681E0C80680E084
:10E58000D80628F0C601AA27BB270F940DF2BB2797
:10E59000AD2D9C2D8B2D0F940DF28A2D0F940DF225
:10E5A0002092C6008091C00086FFFCCF8091C00001
:10E5B00080648093C0009DE29093C6008091C0006B
:10E5C00086FFFCCF8091C00080648093C0002092C1
:10E5D000C6008091C00086FFFCCF8091C00080649F
:10E5E0008093C00019828601750188249924A1E0D6
:10E5F0003A1651F03A1620F0B2E03B1661F409C029
:10E600000BBFF701779007C0C7010F9477FE782EF4
:10E6100002C0F7017080872D0F940DF22092C60082
:10E620008091C00086FFFCCF8091C0008064809301
:10E63000C000872D8052F401EF70F0708F3520F408
:10E64000E40DF51D708204C0E40DF51D8EE280839B
:10E650000894E11CF11C011D111D0894811C911CE2
:10E6600090E18916910409F0C2CF80E190E0A0E02A
:10E67000B0E0A80EB91ECA1EDB1E198AC2010F9493
:10E68000FAF10F94DCF16A94662009F072CF629679
:10E690000FB6F894DEBF0FBECDBFCF91DF911F91B3
:10E6A0000F91FF90EF90DF90CF90BF90AF909F9031
:10E6B0008F907F906F905F904F903F902F90089534
:10E6C0002F923F924F925F926F927F928F929F9282
:10E6D000AF92BF92CF92DF92EF92FF920F931F9370
:10E6E000DF93CF93CDB7DEB7CD53D1400FB6F894BB
:10E6F000DEBF0FBECDBF01E20EBF0FEF0DBF94B75F
:10E70000F894A89514BE80916000886180936000A1
:10E7100010926000789493FF05C0E0910002F091A0
:10E7200001021995279A2F9A8091C00082608093E8
:10E73000C00080E18093C40088E18093C1000000A4
:10E74000EE24FF24870144E0A42EB12CCC24DD2448
:10E7500024C0C5010197F1F70894E11CF11C011DCB
:10E76000111D21E2E2162EE4F20620E0020720E06D
:10E77000120718F031E0C32ED12CC801B70127ECE5
:10E780003BE140E050E00F9441FE611571058105C9
:10E79000910519F485B1805885B98091C00087FD35
:10E7A00003C0C114D104A9F2A6014F5F5F4FC25E3E
:10E7B000DE4F59834883CE51D140C25EDE4F8881FF
:10E7C0009981CE51D140019711F00D9410FEC05D9A
:10E7D000DE4F19821882C053D14060E0C15DDE4F28
:10E7E0001882CF52D14088249924C35DDE4F19820C
:10E7F0001882CD52D140C05EDE4F188219821A8233
:10E800001B82C052D140CE5CDE4F188219821A8220
:10E810001B82C253D140EE24FF2487010BBFF701B6
:10E8200007911691C45CDE4F19830883CC53D14005
:10E830000D940BFEC25EDE4F28813981CE51D1404E
:10E840002130310509F52091C600C25EDE4F1982E4
:10E850001882CE51D14022C02F5F3F4F4F4F5F4FA4
:10E86000213082E138078AE7480780E0580780F0C6
:10E87000C45CDE4FE881F981CC53D140EF5FFF4F9C
:10E8800019F0EE27FF27099420E030E040E050E047
:10E890008091C00087FFE0CF2091C600C35DDE4FAE
:10E8A00048815981CD52D1404F5F5F4FC35DDE4FEC
:10E8B00059834883CD52D140213209F063C64A3092
:10E8C000510508F05FC60894811C911C53E0851621
:10E8D000910409F059C600E010E018C081E280936D
:10E8E000C6008091C00086FFFCCF8091C00080648C
:10E8F0008093C0002F5F3F4F2931310579F70F9486
:10E90000DCF10F5F1F4F0530110519F020E030E0FA
:10E91000E5CF10920A0210920B0210920C02109294
:10E920000D02109206021092070210920802109235
:10E930000902109202021092030210920402109235
:10E9400005028FEE90EE60E00F94F5F180E191EE1C
:10E9500060E00F94C2F18091C00087FFFCCF9091DE
:10E96000C600903608F09F759032B8F09093C600BC
:10E970008091C00086FFFCCF8091C00080648093AE
:10E98000C000A0E2A093C6008091C00086FFFCCF2B
:10E990008091C00080648093C000983409F4D7C18E
:10E9A0009934B8F4923409F459C1933458F490333B
:10E9B00019F1903308F4E3C59F33A1F1903409F0C5
:10E9C000DEC5BDC0953409F470C1963409F0D7C5D1
:10E9D00098C1923509F42BC2933538F49C3409F46C
:10E9E000F5C1913509F0CBC518C2963509F445C279
:10E9F000993509F0C4C567C483E792EE62E00F94CD
:10EA0000F5F110920602109207021092080210927D
:10EA1000090210920A0210920B0210920C0210923C
:10EA20000D0213C18FE792EE62E00F94F5F18FEEC5
:10EA300090EE60E00F94F5F181E291EE60E00F94CA
:10EA4000C2F187EB91EE60E00F94F5F180E391EE77
:10EA500060E00F94C2F184EE90EE60E00F94F5F167
:10EA60008FE391EE60E00F94C2F186E090E061E008
:10EA700070E00F9434F20F94DCF18DE591EE60E0DC
:10EA80000F94C2F189EC91EE60E00F94F5F18EE401
:10EA900091EE60E00F94C2F183EC91EE60E00F9490
:10EAA000F5F18CE691EE60E00F94C2F18EE10F94E7
:10EAB0000DF288E90F940DF281E00F940DF20F949E
:10EAC000DCF18BE791EE60E00F94C2F119E0E0E039
:10EAD000F0E010935700E4918E2F0F940DF20F94F5
:10EAE000DCF18AE891EE60E00F94C2F1E3E0F0E03F
:10EAF00010935700E4918E2F0F940DF20F94DCF1D8
:10EB000089E991EE60E00F94C2F1E2E0F0E0109349
:10EB10005700E4918E2F0F940DF20F94DCF188EAE8
:10EB200091EE60E00F94C2F1E1E0F0E01093570045
:10EB30001491812F0F940DF20F94DCF107CF8BE825
:10EB400092EE62E00F94F5F18BE492EE60E00F94A8
:10EB5000F5F10F94DCF100E010E019C0C8016F2D51
:10EB60000F947FFEFF2031F489E492EE60E00F9471
:10EB7000C2F10BC0F092C6008091C00086FFFCCFAE
:10EB80008091C00080648093C0000F5F1F4FC80158
:10EB900081519F41A0E0B0E0ABBFFC01F790BAE229
:10EBA000FB1621F0E2E000301E07C1F60F94DCF105
:10EBB0000F94DCF187E592EE60E00F94F5F10F948D
:10EBC000DCF1CC24DD2400E010E01EC0C8010F946D
:10EBD00077FEF82E882331F489E492EE60E00F94FA
:10EBE000C2F10BC08093C6008091C00086FFFCCFAD
:10EBF0008091C00080648093C000FE1419F00894D6
:10EC0000C11CD11C0F5F1F4FC80181519F41A0E063
:10EC1000B0E0ABBFFC01E790FAE2EF1621F022E092
:10EC20000030120799F60F94DCF10F94DCF182E6C4
:10EC300092EE60E00F94C2F1C60161E070E00F94C3
:10EC400034F20F94DCF10F94DCF110920202109276
:10EC50000302109204021092050278CE89E992EE26
:10EC600062E00F94F5F1279A2F9A16C02F9880E052
:10EC700090E0E0EDF7E03197F1F7019684369105E9
:10EC8000C1F72F9A80E090E0E0EDF7E03197F1F7DF
:10EC9000019684369105C1F78091C00087FFE6CFC9
:10ECA0008091C00087FFFCCF64C485EA92EE62E0E9
:10ECB0000F94F5F140910202509103026091040219
:10ECC0007091050281E020E10F9491F2809102029F
:10ECD00090910302A0910402B091050280509F4FD1
:10ECE000AF4FBF4F8093020290930302A0930402A0
:10ECF000B093050280509041A040B04008F426CE69
:10ED0000A4CF83EB92EE62E00F94F5F140910602FE
:10ED100050910702609108027091090280E020E1A1
:10ED20000F9491F28091060290910702A09108023F
:10ED3000B091090280509F4FAF4FBF4F80930602A2
:10ED400090930702A0930802B0930902FFCD80ECD4
:10ED500092EE62E00F94F5F183E792EE60E00F949B
:10ED6000F5F18FE792EE60E00F94F5F18BE892EE0B
:10ED700060E00F94F5F189E992EE60E00F94F5F10F
:10ED800085EA92EE60E00F94F5F183EB92EE60E09D
:10ED90000F94F5F180EC92EE60E00F94F5F187ECC2
:10EDA00092EE60E00F94F5F188ED92EE60E00F9442
:10EDB000F5F18FED92EE60E00F94F5F18AEE92EEB0
:10EDC00060E00F94F5F183E093EEBDCD87EC92EE19
:10EDD00062E00F94F5F181E40F947BF282E40F94EA
:10EDE0007BF283E40F947BF284E40F947BF285E45E
:10EDF0000F947BF286E40F947BF287E40F947BF20E
:10EE000088E40F947BF28AE40F947BF28BE40F94F6
:10EE10007BF28CE40F947BF299CD88ED92EE62E068
:10EE20000F94F5F1772473948824992409C48FED05
:10EE300092EE62E00F94F5F140910A0250910B02BC
:10EE400060910C0270910D0282E020E10F9491F22A
:10EE500080910A0290910B02A0910C02B0910D02D8
:10EE600080509F4FAF4FBF4F80930A0290930B0289
:10EE7000A0930C02B0930D0269CD8AEE92EE62E08F
:10EE80000F94F5F184EE90EE60E00F94F5F18FECC5
:10EE900091EE60E00F94F5F1662477244301CC5D98
:10EEA000DE4F19821882C452D140D401C301B695F5
:10EEB000A79597958795CA5DDE4F88839983AA8326
:10EEC000BB83C652D140CC5DDE4FA881B981C4520C
:10EED000D1401196CC5DDE4FB983A883C452D14096
:10EEE000CD0162E070E00F9434F2B0E2B093C6005E
:10EEF0008091C00086FFFCCF8091C0008064809329
:10EF0000C000EDE2E093C6008091C00086FFFCCF18
:10EF10008091C00080648093C000F0E2F093C6004E
:10EF20008091C00086FFFCCF8091C00080648093F8
:10EF3000C000CA5DDE4FE880F9800A811B81C6529D
:10EF4000D140BB27A12F902F8F2D0F940DF2CA5DBA
:10EF5000DE4F8881C652D1400F940DF2B0E2FB2EF5
:10EF6000F092C6008091C00086FFFCCF8091C00067
:10EF700080648093C0000DE30093C6008091C000C0
:10EF800086FFFCCF8091C00080648093C00010E2B7
:10EF90001093C6008091C00086FFFCCF8091C00016
:10EFA00080648093C0008BBEF3012791C65DDE4F65
:10EFB0002883CA52D140A22EBB24CC24DD2408943D
:10EFC000611C711C811C911C8BBEF3018791282E42
:10EFD0003324442455240894611C711C811C911C09
:10EFE0008BBEF3013791C55DDE4F3883CB52D140E4
:10EFF0000894611C711C811C911C8BBEF30147910C
:10F00000C45DDE4F4883CC52D140ADEFEA2EAFEF66
:10F01000FA2EAFEF0A2FAFEF1A2F6E0C7F1C801E57
:10F02000911E142D032DF22CEE24EA0CFB1C0C1D5A
:10F030001D1D0F940DF220E22093C6008091C000A8
:10F0400086FFFCCF8091C00080648093C000C65DC5
:10F05000DE4F8881CA52D1400F940DF230E23093D6
:10F06000C6008091C00086FFFCCF8091C000806404
:10F070008093C000C45DDE4F8881CC52D1400F9494
:10F080000DF240E24093C6008091C00086FFFCCFA5
:10F090008091C00080648093C000C55DDE4F888190
:10F0A000CB52D1400F940DF250E25093C6008091A4
:10F0B000C00086FFFCCF8091C00080648093C000B8
:10F0C0008FEFE8168FEFF80680E0080780E018075A
:10F0D00031F484E092EE60E00F94C2F1DFC0D80119
:10F0E000C7018070907CA070B0708050904CA040A0
:10F0F000B040D1F52FEF3FE340E050E0E222F322B1
:10F1000004231523CA5DDE4FA880B980CA80DB8046
:10F11000C652D140AE0CBF1CC01ED11EAA0CBB1CD7
:10F12000CC1CDD1C8EE092EE60E00F94C2F1BB2798
:10F13000A12F902F8F2D0F940DF28E2D0F940DF285
:10F1400030E23093C6008091C00086FFFCCF8091F2
:10F15000C00080648093C0004EE34093C60080915D
:10F16000C00086FFFCCF87C08EE09EEFA0E0B0E03D
:10F17000E822F9220A231B239CE0E91694E9F90608
:10F1800090E0090790E0190709F088C0C45DDE4FE0
:10F19000A881CC52D140EA2EFF2400E010E0102FCD
:10F1A0000F2DFE2CEE24C55DDE4FB881CB52D14031
:10F1B000EB0EF11C011D111DD601C501817090706F
:10F1C000A070B070DC0199278827E80EF91E0A1F8D
:10F1D0001B1F20EF30E040E050E0A222B322C42207
:10F1E000D52241E1AA0CBB1CCC1CDD1C4A95D1F7F1
:10F1F000EA0CFB1C0C1D1D1D81E090E0A0E0B0E0BE
:10F20000282239224A225B2235E1220C331C441C7D
:10F21000551C3A95D1F7E20CF31C041D151D57013E
:10F220006801AA0CBB1CCC1CDD1C85E192EE60E0E1
:10F230000F94C2F1C801AA27BB270F940DF2BB2778
:10F24000A12F902F8F2D0F940DF28E2D0F940DF274
:10F2500090E29093C6008091C00086FFFCCF809121
:10F26000C00080648093C000AEE3A093C60080918C
:10F27000C00086FFFCCF8091C00080648093C000F6
:10F28000C601AA27BB270F940DF2BB27AD2D9C2DDD
:10F290008B2D0F940DF28A2D0F940DF20F94DCF14B
:10F2A000CC5DDE4FE881F981C452D140F99709F471
:10F2B0004DCBF4E0EF2EF12C012D112D6E0C7F1CA7
:10F2C000801E911EF2CD83E093EE62E00F94F5F183
:10F2D0008AE192EE60E00F94C2F18091C00087FF56
:10F2E000FCCF1091C6001F751093C6008091C0001E
:10F2F00086FFFCCF8091C00080648093C0000F9493
:10F30000DCF1812F81548A3108F036C1163409F4BA
:10F3100095C0173490F4133409F44EC0143430F40B
:10F320001134F1F0123409F01DC130C0143409F465
:10F3300059C0153409F016C16BC01A3409F4C4C0A1
:10F340001B3438F4173409F48FC0183409F00AC19B
:10F35000A1C01B3409F4D2C01C3409F003C1E8C0B9
:10F360008FEF81B90DC082B1809582B980E090E0C5
:10F37000E0EDF7E03197F1F70196883C9105C1F790
:10F380008091C00087FFEFCF12B8EFC08FEF84B934
:10F390000DC085B1809585B980E090E0E0EDF7E0A3
:10F3A0003197F1F70196883C9105C1F78091C00033
:10F3B00087FFEFCF15B8D9C08FEF87B90DC088B1DF
:10F3C000809588B980E090E0E0EDF7E03197F1F7C3
:10F3D0000196883C9105C1F78091C00087FFEFCF6F
:10F3E00018B8C3C08FEF8AB90DC08BB180958BB9A7
:10F3F00080E090E0E0EDF7E03197F1F70196883C8E
:10F400009105C1F78091C00087FFEFCF1BB8ADC059
:10F410008FEF8DB90DC08EB180958EB980E090E0F0
:10F42000E0EDF7E03197F1F70196883C9105C1F7DF
:10F430008091C00087FFEFCF1EB897C08FEF80BBD1
:10F440000DC081B3809581BB80E090E0E0EDF7E0F6
:10F450003197F1F70196883C9105C1F78091C00082
:10F4600087FFEFCF11BA81C08FEF83BB0DC084B38C
:10F47000809584BB80E090E0E0EDF7E03197F1F714
:10F480000196883C9105C1F78091C00087FFEFCFBE
:10F4900014BA6BC08FEF809301010FC080910201FD
:10F4A00080958093020180E090E0E0EDF7E03197F5
:10F4B000F1F70196883C9105C1F78091C00087FF64
:10F4C000EDCF1092020151C08FEF809304010FC065
:10F4D0008091050180958093050180E090E0E0ED4A
:10F4E000F7E03197F1F70196883C9105C1F78091DB
:10F4F000C00087FFEDCF1092050137C08FEF8093DA
:10F5000007010FC08091080180958093080180E079
:10F5100090E0E0EDF7E03197F1F70196883C910536
:10F52000C1F78091C00087FFEDCF109208011DC088
:10F530008FEF80930A010FC080910B01809580931B
:10F540000B0180E090E0E0EDF7E03197F1F70196F4
:10F55000883C9105C1F78091C00087FFEDCF1092E4
:10F560000B0103C085E292EEEEC98091C00087FFD7
:10F57000FCCF8091C600EAC988E392EEE4C98CE131
:10F5800091EEE1C988249924933011F1943028F444
:10F59000913089F09230B8F408C0953061F195301F
:10F5A000F0F0963009F048C043C02B3109F042C951
:10F5B00091E06BE13FC96227C15DDE4F2883CF52E6
:10F5C000D14092E037C9B22FA0E0622793E032C960
:10F5D000822F90E0A82BB92B622794E02BC92E3004
:10F5E00009F039C3622795E0C05DDE4F19821882A9
:10F5F000C053D1401FC9E1E0F0E0EC0FFD1FC05D3A
:10F60000DE4F08811981C053D140E00FF11F2083E4
:10F610000F5F1F4FC05DDE4F19830883C053D14079
:10F6200062270A171B0709F005C9D80196E002C92D
:10F63000261709F010C303C0973009F0FBC87724E0
:10F640009981933109F412C19431C8F4963009F4C8
:10F65000D8C0973050F4923009F406C1933009F4C1
:10F660006DC0913009F059C253C0913109F477C08F
:10F67000923108F0BBC0903109F04FC2F5C098310B
:10F6800009F487C0993150F4953109F4EFC09531F0
:10F6900008F4C6C1963109F040C2C2C19A3109F4DA
:10F6A0006CC09A3108F491C09B3109F45BC09D3164
:10F6B00009F033C29D81903359F48F81882311F46E
:10F6C0009EE11CC0813011F091E018C098E916C08D
:10F6D000892F807591F0903539F4E0E0F0E089E011
:10F6E0008093570094910AC0983539F4E3E0F0E034
:10F6F00089E080935700949101C090E01A821B82A8
:10F700008D818C831D829E831F8227E030E009C299
:10F710001A8288E08B8381E48C8386E58D8382E581
:10F720008E8389E48F8383E5888780E589878FE5E9
:10F730008A8782E38B872BE030E0F3C18A818139AD
:10F7400041F0823941F0803911F48FE005C080E04A
:10F7500003C082E001C08AE01A828B8344C0772410
:10F76000739482C08D81882311F48EE12CC0813086
:10F7700011F081E028C088E926C01A82E1E0F0E0BB
:10F7800089E08093570084918B831C8224E030E0D1
:10F79000C8C18B81803589F48C81883039F4E2E0EE
:10F7A000F0E089E08093570084910DC0E0E0F0E044
:10F7B00089E080935700849106C0E3E0F0E089E09F
:10F7C0008093570084911A82DFCF8D81836C99E0FA
:10F7D000E1E0F0E0082E90935700E89507B600FCB2
:10F7E000FDCF1A821B8223E030E09BC180EC8A832C
:10F7F000CE5CDE4F188219821A821B82C253D1401E
:10F800008EC18A8190E0A0E0B0E0582F44273327D2
:10F8100022278B8190E0A0E0B0E0DC0199278827C7
:10F82000282B392B4A2B5B2B8D8190E0A0E0B0E098
:10F83000282B392B4A2B5B2B8C8190E0A0E0B0E089
:10F84000BA2FA92F982F8827282B392B4A2B5B2BCF
:10F85000220F331F441F551FC05EDE4F288339839C
:10F860004A835B83C052D1401A8259C13A81C95C34
:10F87000DE4F3883C753D140CA5CDE4F1882C6536F
:10F88000D1408B81C82EDD24CA5CDE4F488159816E
:10F89000C653D140C42AD52A933109F082C0CE5C28
:10F8A000DE4F88819981AA81BB81C253D1408050AB
:10F8B000904CA340B04030F583E0CE5CDE4FE88052
:10F8C000F9800A811B81C253D140F70100935B008C
:10F8D00080935700E89507B600FCFDCFCE5CDE4F65
:10F8E000088119812A813B81C253D14000501F4FAA
:10F8F0002F4F3F4FCE5CDE4F088319832A833B8313
:10F90000C253D140C05EDE4F488159816A817B81FC
:10F91000C052D140DE011B9631E08C9111962C91A2
:10F9200011971296C75CDE4F2883C953D140C85C3B
:10F93000DE4F1882C853D14090E0C85CDE4FE881AA
:10F94000F981C853D1408E2B9F2B0C01FA01609393
:10F950005B0030935700E89511244E5F5F4F6F4F67
:10F960007F4F0EEFE02E0FEFF02ECE0CDF1CC114F8
:10F97000D10499F685E0C05EDE4F088119812A81A5
:10F980003B81C052D140F80120935B008093570027
:10F99000E89507B600FCFDCF81E180935700E8951C
:10F9A00035C0C05EDE4F88819981AA81BB81C0527B
:10F9B000D140B695A795979587957C018601ABE0D8
:10F9C000AA2EB12CAC0EBD1E0BC0D5016D915D01F0
:10F9D000C7010F947FFE0894E11CF11C01501040F8
:10F9E0000115110591F7A60160E070E0440F551F65
:10F9F000661F771FC05EDE4FE880F9800A811B8199
:10FA0000C052D1404E0D5F1D601F711F1A82C05E33
:10FA1000DE4F488359836A837B83C052D1407FC0C5
:10FA2000FA80C55CDE4FF882CB53D140C65CDE4F16
:10FA30001882CA53D1408B81C82EDD24C65CDE4FAC
:10FA400008811981CA53D140C02AD12A1A828981DA
:10FA5000BE016D5F7F4F843121F59601C05EDE4FA0
:10FA6000E880F9800A811B81C052D1400BBFF701A9
:10FA700087919691DB018C9311969C936E5F7F4FDB
:10FA8000D801C7010296A11DB11DC05EDE4F88835B
:10FA90009983AA83BB83C052D14022503040F1F6F3
:10FAA00036C0C05EDE4F288139814A815B81C052F9
:10FAB000D1400894C108D108760100E010E0089414
:10FAC000C11CD11C0894E11CF11C011D111DE20E8A
:10FAD000F31E041F151F21BDBB27A52F942F832FB5
:10FAE00082BD2F5F3F4F4F4F5F4FF89A80B5DB01CC
:10FAF0008D93BD012E153F054007510761F7C05E8C
:10FB0000DE4F288339834A835B83C052D1409601FC
:10FB10002D5F3F4FFB01108204C080EC8A8322E0FE
:10FB200030E08BE18093C6008091C00086FFFCCF5F
:10FB30008091C00080648093C000C15DDE4FF88179
:10FB4000CF52D140F093C6008091C00086FFFCCF19
:10FB50008091C00080648093C000432F3093C60022
:10FB60008091C00086FFFCCF8091C00080648093AC
:10FB7000C000922F2093C6008091C00086FFFCCF6A
:10FB80008091C00080648093C0008EE08093C600A6
:10FB90008091C00086FFFCCF8091C000806480937C
:10FBA000C00065E1C15DDE4FE880CF52D1406E25D7
:10FBB00069276427FE01319610C090819093C6009A
:10FBC0008091C00086FFFCCF31968091C000806498
:10FBD0008093C0006927215030402115310569F715
:10FBE0006093C6008091C00086FFFCCF8091C0006A
:10FBF00080648093C00085B1805885B9772081F4F6
:10FC0000C15DDE4F0881CF52D1400F5FC15DDE4F35
:10FC10000883CF52D14090E0A0E0B0E00D941AF4F8
:10FC200027982F9880E090E020ED37E0F901319798
:10FC3000F1F7019684369105C9F700008091C00064
:10FC40008D7F8093C00081E180935700E895EE2777
:10FC5000FF270994FFCF90E00D941AF497FB092E2B
:10FC600007260AD077FD04D02ED006D000201AF443
:10FC7000709561957F4F0895F6F7909581959F4F08
:10FC80000895A1E21A2EAA1BBB1BFD010DC0AA1FDD
:10FC9000BB1FEE1FFF1FA217B307E407F50720F0F5
:10FCA000A21BB30BE40BF50B661F771F881F991F70
:10FCB0001A9469F760957095809590959B01AC01B9
:10FCC000BD01CF010895AA1BBB1B51E107C0AA1FAC
:10FCD000BB1FA617B70710F0A61BB70B881F991FED
:10FCE0005A95A9F780959095BC01CD010895F99991
:10FCF000FECF92BD81BDF89A992780B50895262F31
:10FD0000F999FECF1FBA92BD81BD20BD0FB6F89400
:0EFD1000FA9AF99A0FBE01960895F894FFCF63
:00000001FF
