:100000000C9435010C9466010C9466010C94660105
:100010000C9466010C9466010C9466010C946601C4
:100020000C9466010C9466010C9466010C946601B4
:100030000C9466010C9466010C9466010C946601A4
:100040000C9466010C9466010C9466010C94660194
:100050000C9466010C9466010C9466010C94FD08E6
:100060000C9466010C9471090C9447090C94660178
:100070000C9466010C9466010C9466010C94660164
:100080000C9466010C9466010C9466010C94660154
:100090000C9466010C9466010C9466010C94660144
:1000A0000C9466010C9466010C9466010C94660134
:1000B0000C9466010C9466010C9466010C94660124
:1000C0000C9466010C9466010C9466010C94660114
:1000D0000C9466010C9466010C9466010C94660104
:1000E0000C9466010C94AD030C9495010C94600380
:1000F0000C94DA010C94D6010C94C8010C941A03E8
:100100000C9428030C94A3010C94CC010C94C20110
:100110000C94A7090C949B010C94A7010C94BA01B0
:100120000C94F7020C94AA010C94B4010C940603ED
:100130000C94D0010C94B0010C94CA020C94D5011B
:100140000C94BE010C949F010000210024002700A4
:100150002A002D00300033000101000004010701D6
:100160000A0100002200250028002B002E0031008B
:10017000340002010000050108010B01000020000D
:100180002300260029002C002F003200000100006F
:10019000030106010901050505050705080808080A
:1001A000020202020A0A080804040404010101010F
:1001B000010101010303030303030303040707070A
:1001C0000C0C0C0C0C0C0C0C0202020206060606AF
:1001D000060606060B0B0B0B0B0B0B0B010210207C
:1001E000200808102040102040800201020108046D
:1001F0000201010204081020408080402010080401
:100200000201800402018040201008040201080459
:10021000020101020408102040800102040810209D
:10022000408000000A0B02090C0D0E0807030401B0
:1002300000000000000000000000000000000000BE
:10024000000000000000000000000000000012118B
:10025000100000000000000000000000000000008E
:100260000000000000000000A70911241FBECFEF0E
:10027000D1E2DEBFCDBF00E00CBF17E0A0E0B2E0EE
:10028000E6E4F2E200E00BBF02C007900D92A83B4B
:10029000B107D9F72AE0A8EBB7E001C01D92AE3E46
:1002A000B207E1F711E0C5E3D1E000E006C0219715
:1002B0000109802FFE010E940511C433D10780E09F
:1002C0000807A9F70E945B0A0C9421110C94000006
:1002D000892B39F481E0860F803140F081EF860F61
:1002E0000895662311F08FEFFACF8FE008958150C3
:1002F000823108F05AC0E82FF0E08827ED57FE4F12
:100300008F4F0C940511A301A70195019B019F013B
:10031000D501AA01B001B401BA01BE01C201C801F0
:10032000CC01D501D001D601DA01809180008F7710
:10033000809380000895809180008F7DF9CF809117
:100340008000877FF5CF84B58F7784BD089584B50D
:100350008F7DFBCF8091B0008F778093B0000895A0
:100360008091B0008F7DF9CF809190008F7780933E
:1003700090000895809190008F7DF9CF809190003A
:10038000877FF5CF8091A0008F778093A00008959C
:100390008091A0008F7DF9CF8091A000877FF5CF5D
:1003A000809120018F778093200108958091200112
:1003B0008F7DF9CF80912001877FF5CFCF93DF9399
:1003C000282F30E0F901EE5DFD4F8491F901E452F0
:1003D000FE4FD491F901EA56FE4FC491CC23A1F00F
:1003E00081110E947701EC2FF0E0EE0FFF1FE4581F
:1003F000FE4FA591B491EC91ED2381E090E009F4DA
:1004000080E0DF91CF91089580E090E0FACF1F93D4
:10041000CF93DF93282F30E0F901EE5DFD4F8491FB
:10042000F901E452FE4FD491F901EA56FE4FC4910E
:10043000CC23A9F0162F81110E947701EC2FF0E058
:10044000EE0FFF1FEE59FE4FA591B4918FB7F894B0
:10045000EC91111108C0D095DE23DC938FBFDF91A2
:10046000CF911F910895DE2BF8CFCF93DF9390E0CB
:10047000FC01E452FE4F24918A569E4FFC01849168
:100480008823D1F090E0880F991FFC01E85BFE4FB4
:10049000A591B491FC01EE59FE4FC591D491611123
:1004A0000EC09FB7F8948C91E22FE0958E238C9329
:1004B0002881E223E8839FBFDF91CF9108958FB712
:1004C000F894EC91E22BEC938FBFF6CF3FB7F89402
:1004D0008091F5099091F609A091F709B091F8097A
:1004E00026B5A89B05C02F3F19F00196A11DB11D8F
:1004F0003FBFBA2FA92F982F8827BC01CD01620FCB
:10050000711D811D911D42E0660F771F881F991F85
:100510004A95D1F708958F929F92AF92BF92CF9252
:10052000DF92EF92FF926B017C010E9466024B0109
:100530005C01C114D104E104F104B9F00E94660227
:10054000681979098A099B09683E734081059105FC
:1005500080F321E0C21AD108E108F10888EE880E84
:1005600083E0981EA11CB11CE4CFFF90EF90DF90B8
:10057000CF90BF90AF909F908F9008952FB7F89431
:100580006091F1097091F2098091F3099091F40959
:100590002FBF0895AF92BF92CF92DF92EF92FF925A
:1005A0000F931F93CF93DF936C017B018B01040F9B
:1005B000151FEB015E01AE18BF08C017D10759F037
:1005C0006991D601ED91FC910190F081E02DC60179
:1005D0001995892B79F7C501DF91CF911F910F9163
:1005E000FF90EF90DF90CF90BF90AF900895FC0107
:1005F000538D448D252F30E0842F90E0821B930B88
:10060000541710F0CF96089501970895FC01918D2D
:10061000828D981761F0A28DAE0FBF2FB11D5D9630
:100620008C91928D9F5F9F73928F90E008958FEFD2
:100630009FEF0895FC01918D828D981731F0828D86
:10064000E80FF11D858D90E008958FEF9FEF0895DD
:10065000FC01918D228D892F90E0805C9F4F821B41
:1006600091098F739927089589EF99E00E942803D3
:1006700021E0892B09F420E0822F0895FC01A48D4C
:10068000A80FB92FB11DA35ABF4F2C91848D90E0B4
:1006900001968F739927848FA689B7892C93A08997
:1006A000B1898C91837080648C93938D848D981321
:1006B00006C00288F389E02D80818F7D80830895B4
:1006C000EF92FF920F931F93CF93DF93EC0181E0A2
:1006D000888F9B8D8C8D98131AC0E889F989808149
:1006E00085FF15C09FB7F894EE89FF896083E8897C
:1006F000F98980818370806480839FBF81E090E06E
:10070000DF91CF911F910F91FF90EF900895F62EFA
:100710000B8D10E00F5F1F4F0F731127E02E8C8D94
:100720008E110CC00FB607FCFACFE889F9898081D9
:1007300085FFF5CFCE010E943E03F1CFEB8DEC0F8C
:10074000FD2FF11DE35AFF4FF0829FB7F8940B8FF6
:10075000EA89FB8980818062CFCFCF93DF93EC0160
:10076000888D8823B9F0AA89BB89E889F9898C9199
:1007700085FD03C0808186FD0DC00FB607FCF7CF55
:100780008C9185FFF2CF808185FFEDCFCE010E9455
:100790003E03E9CFDF91CF91089580E090E0892B6F
:1007A00029F00E94340381110E94000080E090E053
:1007B000892B49F080E090E0892B29F00E9400000D
:1007C00081110E94000080E090E0892B49F080E0D8
:1007D00090E0892B29F00E94000081110E94000006
:1007E00080E090E0892B49F080E090E0892B29F0AF
:1007F0000E94000081110C9400000895BF92CF92D6
:10080000DF92EF92FF920F931F93CF93DF9307EA4C
:1008100012E08DE0E82E82E0F82E97EAC92E92E0F1
:10082000D92EF801B0800E5F1F4F60E08B2D0E9423
:100830000702D0E0C0E0F701EC0FFD1F808191813D
:10084000019739F461E0FE01E956FD4F80810E9475
:1008500007022296C031D10571F761E070E080E0B7
:1008600090E00E948B0261E08B2D0E940702C7E995
:10087000D2E08881229660E00E940702CC16DD0655
:10088000C1F7F0E1EF0EF11C82E0073B180749F6D3
:10089000DF91CF911F910F91FF90EF90DF90CF905C
:1008A000BF90089580ED98E030E020E0F901EE0F70
:1008B000FF1FE80FF91F118210822F5F3F4F203179
:1008C0003105A1F7809629E0803D920769F70895E8
:1008D000CF93DF93E1EDF9E080ED98E0A1E0B0E0A7
:1008E000619170E0AC0130E020E0405251092617E0
:1008F00037073CF4EA01D395B983A8832F5F3F4FB4
:10090000F4CF029629E0E13EF20751F7DF91CF9153
:1009100008952091EC0930E04091E909D90154E0B3
:10092000AA0FBB1F5A95E1F7FD01E40FF11DEE0F71
:10093000FF1FE053F74F11821082E091EA09EA0F9E
:10094000FB2FF11DEE0FFF1FE053F74F11821082B6
:10095000E091EB09AE0FB11DAA0FBB1FA053B74F1B
:100960001D921C92215031098091E7099091E8096C
:10097000892B09F0E42F84E0220F331F8A95E1F7D9
:10098000E20FF32FF11DEE0FFF1FE053F74F11821F
:1009900010820895CF92DF92EF92FF920F931F93F0
:1009A000CF93DF931F921F92CDB7DEB769834A833F
:1009B000880F991F0091EC0A1091ED0A000F111F8A
:1009C000E6E9FAE09F0126593A402017310714F46E
:1009D0001192F8CF2981FC01EA56F54F21838A81D3
:1009E000808360E08091EA0A0E94070210161106D7
:1009F00004F501501109F801EA56F54FE080D09056
:100A0000E80AC090E60A88E0F82E6E2D661F662779
:100A1000661F8C2D0E940702EE0C61E08D2D0E9456
:100A2000070260E08D2D0E940702FA94F110EDCFCD
:100A3000DDCF61E08091EA0A0F900F90DF91CF91B6
:100A40001F910F91FF90EF90DF90CF900C940702D1
:100A5000EF92FF920F931F93CF937C018C0183E061
:100A6000000F111F8A95E1F70A55154FC1E0F801F3
:100A700011928F0140E06C2FC7010E94CA04CF5F22
:100A8000C930A9F7CF911F910F91FF90EF90089572
:100A9000EF92FF920F931F93CF93DF938091EC0A15
:100AA0009091ED0A1816190624F490E080E00E9457
:100AB0002805C7E9D2E087EBE82E82E0F82E88818E
:100AC000229661E00E94070207EA12E0F8018081A5
:100AD0000E5F1F4F60E00E940702E016F106B1F7BB
:100AE000F2E0C73ADF0759F7DF91CF911F910F91DD
:100AF000FF90EF9008952F923F924F925F926F92E6
:100B00007F928F929F92AF92BF92CF92DF92EF929D
:100B1000FF920F931F93CF93DF93CDB7DEB7C250F1
:100B2000D1400FB6F894DEBF0FBECDBF80E88E0176
:100B30000F5F1F4FD801E82F1D92EA95E9F7FE01DC
:100B4000EF57FF4FDF011D928A95E9F74F0160EDE6
:100B500078E05F01980190E080E050E040E07B01A8
:100B6000E80EF91ED701CD90DC907901E80EF91E50
:100B70004830510534F07C01B0E1EB1AF108EA0C81
:100B8000FB1CD701CD92DC924F5F5F4F0296403144
:100B9000510529F7205F3F4FB0E1AB0EB11C605EFD
:100BA0007F4F2E173F07B9F637E9232E32E0332E59
:100BB00046E9E42E4AE0F42EE1E0CF5FDE4FE88321
:100BC000C150D140D101BC91CE5FDE4FB883C2503D
:100BD000D140E2E02E0E311C61E08B2F0E94070213
:100BE00027EAA22E22E0B22E35012401D12CC12CFD
:100BF000D3018C91B2E06B0E711CF2012081318126
:100C000060E02130310509F061E00E940702809127
:100C1000EC0A9091ED0A181619062CF580E890E080
:100C20000C2C02C0959587950A94E2F7D70150964F
:100C30002C915097F601EE0FFF1FE00FF11F40813E
:100C40005181452B09F465C0822B50968C93D701B6
:100C500050964C91CF5FDE4F6881C150D14090E0FB
:100C600080E00E94CA04BFEFCB1ADB0AE0E14E0E1F
:100C7000511CF8E0CF16D10409F0BACF61E070E062
:100C800080E090E00E948B0260E0CE5FDE4F8881C2
:100C9000C250D1400E940702D5018C91B2E0AB0E48
:100CA000B11C61E00E940702E7EBAE16E2E0BE066F
:100CB00099F7FFEFEF1AFF0ACF5FDE4F8881C1502F
:100CC000D1408F5FCF5FDE4F8883C150D140005F3E
:100CD0001F4F92E0890E911C893009F073CFCE5FCF
:100CE000DE4F0FB6F894DEBF0FBECDBFDF91CF91C0
:100CF0001F910F91FF90EF90DF90CF90BF90AF903A
:100D00009F908F907F906F905F904F903F902F902B
:100D1000089580958223F701808B99CFCF93DF933D
:100D2000FC0101900020E9F73197AF01481B590BF6
:100D3000BC0189EF99E00E94CA02EC0142E050E058
:100D400069E477E089EF99E00E94CA028C0F9D1F49
:100D5000DF91CF910895CF93DF9386E00E94DE016B
:100D6000019709F4A0C087E00E94DE01019709F411
:100D70009CC084E00E94DE010197A1F580910402ED
:100D80008823F9F08091EF0981111BC08091EE0951
:100D9000811117C08CE497E00E948E068091BA07FB
:100DA000811111C065E070E080E090E00E948B024C
:100DB00080E697E00E948E0681E08093BA078093D8
:100DC000C70783E746C065E070E080E090E00E94DE
:100DD0008B028AE697E00E948E061092BA07109264
:100DE000C707EFCF83E00E94DE01019709F05FC0E3
:100DF000C091B807D091B9072196D093B907C09395
:100E0000B80764EF71E080E090E00E948B0280916F
:100E100004022397CCF18823B9F08091EF09811166
:100E200013C08091EE0981110FC082E797E00E9404
:100E30008E061092040281E08093EF091092EE0971
:100E40001092B9071092B80780910402882321F00C
:100E50008BE6DF91CF9108958091EF098111F8CF52
:100E60008091EE098823A1F382E797E00E948E0625
:100E70001092040281E08093EF091092EE09109223
:100E8000B9071092B807E4CF8111E2CF8091EF0942
:100E90008111DECF8091EE098823D1F287E797E0B8
:100EA0000E948E06D5CF82E7D4CF8CE6D2CF80E2E7
:100EB000D0CFCF92DF92EF92FF920F931F93CF93F9
:100EC000DF93C82ED12C80E1E82EF12CC4E0D0E0D5
:100ED000DC14B9F00E942C0E8C010E942C0EB7017C
:100EE0000E94F110FC01FF27EF52F64F8081811123
:100EF000EFCFC801BE010E94F1108F5F8083D394B1
:100F0000E7CF0E945204DF91CF911F910F91FF9084
:100F1000EF90DF90CF900C946804CF92DF92EF9225
:100F2000FF920F931F93CF930E9489040091E709CA
:100F30001091E8096091E909C8010E946801C82F71
:100F40008093E9096091EA09C8010E946801F82EBE
:100F50008093EA096091EB09C8010E9468018093BF
:100F6000EB096091EC0970E0AC2FB0E09B0144E02C
:100F7000220F331F4A95E1F7F901EA0FFB1FEE0F2D
:100F8000FF1FE053F74FCC24C394D12CD182C082F1
:100F90004F2D50E0F901E40FF51FEE0FFF1FE05356
:100FA000F74FD182C082E82EF12CF901EE0DFF1D22
:100FB000EE0FFF1FE053F74FD182C082FB01319744
:100FC0000115110509F4C82F84E0EE0FFF1F8A9563
:100FD000E1F7EC0FF11DEE0FFF1FE053F74F81E03B
:100FE00090E091838083F701EF52F64F2081211129
:100FF0000DC0FA01EF52F64F8081811107C0FD014B
:10100000EF52F64F8081882309F453C088E090E0C6
:10101000FC01E21BF1096E177F0794F44F52564F03
:10102000FA012081AC01421B51096417750744F491
:10103000AF52B64F2C91821B910968177907CCF1FA
:101040008091E309811107C091E09093040210920E
:10105000EF091092EE0981508093E3090E94890400
:1010600082E08093E90981E08093EA091092EB091C
:101070008093EC0981E090E09093F5088093F40868
:101080009093F3088093F2089093F1088093F0080E
:10109000E0E0012B09F0E2E0F0E0EE0FFF1FE0538B
:1010A000F74F81E090E0918380830E9468040E9462
:1010B0007B050E947B058091ED09882309F485C09A
:1010C000E091E1096E2F70E02091E20930E0DB0150
:1010D00094E0AA0FBB1F9A95E1F7A20FB31FAA0FC6
:1010E000BB1FA053B74F1D921C92D901AF52B64FF0
:1010F0008C91882349F047E050E0461B570B84173A
:10110000150611F481508C93EF5FE093E109E8300C
:1011100008F464C08091D0098823A1F09091E60979
:101120008091E5098F5F8093E5099F5F9093E609C1
:1011300065E00E94E510911105C08091E3098F5F81
:101140008093E3091092ED091092D009C091E6094D
:101150008091E409C81339C00E945204E1EDF9E01E
:1011600081EE99E011928E179F07E1F71092E8093E
:101170001092E70982E08093E90981E08093EA090F
:101180001092EB098093EC091092E6098C2FC03184
:1011900008F08FE08F5F8093E40921E030E0309326
:1011A000F5082093F4083093F3082093F208309365
:1011B000F1082093F0083093D1082093D0080E94C2
:1011C00059070E9468040E948D07CF911F910F91CB
:1011D000FF90EF90DF90CF900C947B0550E1E59F5E
:1011E000F0011124E20FF31FEE0FFF1FE053F74F42
:1011F00081E090E091838083E8CF1F920F920FB639
:101200000F9211242F933F938F939F93AF93BF938C
:101210008091F1099091F209A091F309B091F4093C
:101220003091F00923E0230F2D3758F50196A11DC9
:10123000B11D2093F0098093F1099093F209A093D6
:10124000F309B093F4098091F5099091F609A09102
:10125000F709B091F8090196A11DB11D8093F50918
:101260009093F609A093F709B093F809BF91AF9155
:101270009F918F913F912F910F900FBE0F901F90D4
:10128000189526E8230F0296A11DB11DD2CF1F92FB
:101290000F920FB60F9211240BB60F922F933F931C
:1012A0004F935F936F937F938F939F93AF93BF936E
:1012B000EF93FF9389EF99E00E943E03FF91EF9136
:1012C000BF91AF919F918F917F916F915F914F915E
:1012D0003F912F910F900BBE0F900FBE0F901F905C
:1012E00018951F920F920FB60F9211240BB60F9202
:1012F0002F938F939F93EF93FF93E091090AF091BF
:101300000A0A8081E0910F0AF091100A82FD1DC047
:1013100090818091120A8F5F8F732091130A821738
:1013200041F0E091120AF0E0E750F64F958F80937C
:10133000120AFF91EF919F918F912F910F900BBE09
:101340000F900FBE0F901F9018958081F2CFCF9312
:10135000DF931092FC091092FB0988EE93E0A0E065
:10136000B0E08093FD099093FE09A093FF09B0932C
:10137000000A8BE397E09093FA098093F90985ECD2
:1013800090E09093060A8093050A84EC90E0909395
:10139000080A8093070A80EC90E090930A0A8093F1
:1013A000090A81EC90E090930C0A80930B0A82EC7E
:1013B00090E090930E0A80930D0A86EC90E0909353
:1013C000100A80930F0A1092120A1092130A1092B8
:1013D000140A1092150AC3E3D0E0D093E70AC09331
:1013E000E60A85E390E09093E90A8093E80A84E3B3
:1013F00090E09093EB0A8093EA0A81E090E090936A
:10140000ED0A8093EC0A61E083E30E94350261E01B
:101410008091E80A0E94350261E08091EA0A0E9408
:10142000350261E08091EA0A0E940702D093E70A40
:10143000C093E60AE6EAFAE011928AE0E63EF8078F
:10144000D9F7D0E0C0E08091EC0A9091ED0AC8177E
:10145000D90774F540E06FE0CE010E94CA04809184
:10146000EC0A9091ED0AC817D9072CF447E06BE01D
:10147000CE010E94CA0440E069E0CE010E94CA0485
:101480008091EC0A9091ED0AC817D9071CF4CE019F
:101490000E9428058091EC0A9091ED0AC817D9079F
:1014A0002CF440E06CE0CE010E94CA042196CBCF20
:1014B000DF91CF910895789484B5826084BD84B51E
:1014C000816084BD85B5826085BD85B5816085BD3F
:1014D00080916E00816080936E00109281008091F7
:1014E000810082608093810080918100816080937F
:1014F0008100809180008160809380008091B100A4
:1015000084608093B1008091B00081608093B000CE
:101510008091910082608093910080919100816020
:1015200080939100809190008160809390008091E1
:10153000A10082608093A1008091A10081608093CE
:10154000A1008091A00081608093A0008091210182
:10155000826080932101809121018160809321012B
:101560008091200181608093200180917A008460C5
:1015700080937A0080917A00826080937A008091D3
:101580007A00816080937A0080917A0080688093ED
:101590007A001092C100E091090AF0910A0A82E0F3
:1015A0008083E091050AF091060A1082E091070A13
:1015B000F091080A8FEC80831092110AE0910D0AD5
:1015C000F0910E0A86E08083E0910B0AF0910C0AFC
:1015D000808180618083E0910B0AF0910C0A808108
:1015E00088608083E0910B0AF0910C0A808180680A
:1015F0008083E0910B0AF0910C0A80818F7D8083BB
:1016000080917B00877F80937B0080E480937C00C7
:1016100080917A00806480937A0080917A0086FDC0
:10162000FCCF6091780070917900072E000C880B38
:10163000990B611571058105910511F00E94D60E77
:10164000C7E9D2E07E0107EA12E0F80180810E5F6F
:101650001F4F61E00E943502F7018081F2E0EF0E3A
:10166000F11C61E00E94350222E0073B120769F796
:101670008091EC0A9091ED0A1816190634F441E0B5
:101680006CE090E080E00E94CA048091EC0A9091A6
:10169000ED0A1816190634F448E06AE090E080E09C
:1016A0000E94CA048091EC0A9091ED0A181619065E
:1016B00024F490E080E00E9428058881229660E072
:1016C0000E94070207EA12E0F80180810E5F1F4FB7
:1016D00061E00E940702F2E0073B1F07A9F702E062
:1016E000C73AD00751F760E086E00E94350260E01B
:1016F00087E00E94350260E084E00E94350260E0ED
:1017000083E00E9435020DE812E0CBEBD7E07E01CA
:1017100084E6882E912CA12CB12CF8016191719155
:101720008F01072E000C880B990B0E94EC0F20E014
:1017300030E040E450E40E94420F20E030E048EC0A
:1017400052E40E9478100E94B40F9B01AC01A7E004
:10175000B0E00E94FE0EA50194010E94DF0E2F5FF3
:101760003F4F4F4F5F4FF701219331937F01F2E0DD
:1017700007391F0791F68EEC97E030E020E0F90181
:10178000EE0FFF1FE80FF91F118210822F5F3F4FEE
:1017900020313105A1F7809608E08E3C900769F76B
:1017A00090E080E067E070E0A1E0B0E0299139913D
:1017B0002115310591F0FC01E055F74F47E050E06D
:1017C0008B01021B130B041715070CF0E7C1B18343
:1017D000A08341505109B097F6CF06968E319105FE
:1017E00029F711E088248394912CEE24E394F12CC2
:1017F000B3E03B2E02E080910402882309F49EC0EE
:1018000087E897E00E948E060E94AB0610920002C5
:101810001092010210920202109203020E94BE0274
:101820002B013C01E0EDAE2EE8E0BE2ED12CC12C08
:10183000C091CC07D091CD0730E020E0AE014C0D37
:101840005D1DFA01E20FF31FE954FD4F6081C901EC
:10185000880F991F8A0D9B1DFC01611154C01182D4
:1018600010822F5F3F4F2031310559F765E070E05E
:1018700080E090E00E948B02F0E2AF0EB11C20E805
:10188000C20ED11CC11484E0D80691F68091C8071D
:101890009091C907A091CA07B091CB074816590685
:1018A0006A067B06F9F04092C8075092C907609219
:1018B000CA077092CB072091C7078091C507909106
:1018C000C607222349F1CF37D10501F12196D093E4
:1018D000CD07C093CC070097E1F001979093C6071E
:1018E0008093C5070E947B050E945204609100020C
:1018F0007091010280910202909103020E948B027A
:101900000E94CD0378CF91828082ABCFD0E0C0E03F
:10191000DECF8EE790E0E2CF209751F02197D09371
:10192000CD07C093CC078F37910529F00196D6CF0C
:10193000CEE7D0E0F4CF90E080E0D0CF8091EF0907
:10194000882309F4AFC082E997E00E948E06809157
:10195000CE089091CF08892B01F50E9448050E947E
:10196000FE030E94FE030E94FE036AE070E080E036
:1019700090E00E948B02F092CF08E092CE080E9485
:10198000AB068C3609F044C08AE997E00E948E06C7
:101990001092EF091093EE09A9CF10920002109255
:1019A000010210920202109203020E94BE0260ED38
:1019B000C62E68E0D62EC7EBD6E030E020E0FE0170
:1019C000E20FF31F4081C901880F991F8C0D9D1DE7
:1019D000FC0141111AC0118210822F5F3F4F20314C
:1019E000310569F761E070E080E090E00E948B02D1
:1019F000F0E2CF0ED11C609627E0C733D207E9F69C
:101A00000E947B050E945204BACF91828082E5CF6A
:101A10000E94AB068237E1F580EA97E00E948E06CD
:101A2000EE24E394F12C1092000210920102109225
:101A30000202109203020E94BE02C0EDD8E00EEC3A
:101A400017E090E080E0F801E80FF91F2081318174
:101A5000FE01E80FF91F232BC1F4118210820296B8
:101A60008032910581F761E070E080E090E00E94B3
:101A70008B02A096005E1F4F89E0C03DD80709F792
:101A80000E947B050E945204CECFF182E082E7CF14
:101A90000E94AB06833709F029CF86EA97E00E94BF
:101AA0008E0624CF8FEA97E00E948E060E9448059A
:101AB0008091EE098823C1F10E945204E1EDF9E022
:101AC000119299E0E13EF907D9F73092E3091092BB
:101AD000E8091092E7090093E9091093EA091092C6
:101AE000EB091093EC091092E6091092E5091092A7
:101AF000ED091093E409F092F508E092F408F092F1
:101B0000F308E092F208F092F108E092F008F09207
:101B1000D108E092D00881E00E9459070E94680431
:101B20000E948D071092EE090E948D070E94AB065D
:101B30008C3659F41092E8091092E70961E070E0E0
:101B400080E090E00E948B02D1CE823729F4F0929F
:101B5000E809E092E709F2CF8B3639F410920402DB
:101B60001092EF091092EE09E9CF833739F780918F
:101B7000ED098111E3CF1093ED09E091EA09E093BB
:101B8000E2098091EC098093E109F0E0EF52F64F11
:101B90008081882399F21093D009D0CFFC01EE54B4
:101BA000F74F47E050E08B01021B130B98012417FD
:101BB00035070CF012CEB183A08341505109B09784
:101BC000F6CF8F929F92AF92BF92CF92DF92EF9219
:101BD000FF92CF93DF93EC01688179818A819B81A9
:101BE000611571058105910521F464E279ED8BE5BC
:101BF00097E02DE133EF41E050E00E94DF0E490114
:101C00005A019B01AC01A7EAB1E40E94FE0E6B01F0
:101C10007C01ACEEB4EFA50194010E940C0FDC0135
:101C2000CB018C0D9D1DAE1DBF1DB7FF03C00197DD
:101C3000A109B04888839983AA83BB839F77DF91EA
:101C4000CF91FF90EF90DF90CF90BF90AF909F909B
:101C50008F9008950C94E10D85E092E00C94E10DD5
:101C6000B0E0A0E08093050290930602A0930702E3
:101C7000B093080208958F929F92AF92BF92CF9235
:101C8000DF92EF92FF92CF93DF93EC01688179812D
:101C90008A819B81611571058105910521F464E2BA
:101CA00079ED8BE597E02DE133EF41E050E00E94C4
:101CB000DF0E49015A019B01AC01A7EAB1E40E9481
:101CC000FE0E6B017C01ACEEB4EFA50194010E9405
:101CD0000C0FC60ED71EE81EF91EF7FE06C081E0E7
:101CE000C81AD108E10880E8F80AC882D982EA82D5
:101CF000FB82C701B6019F77DF91CF91FF90EF90F4
:101D0000DF90CF90BF90AF909F908F9008958F926B
:101D10009F92AF92BF92CF92DF92EF92FF9260912B
:101D2000090270910A0280910B0290910C026115D8
:101D300071058105910521F464E279ED8BE597E069
:101D40002DE133EF41E050E00E94DF0E49015A01DE
:101D50009B01AC01A7EAB1E40E94FE0E6B017C017D
:101D6000ACEEB4EFA50194010E940C0FC60ED71E75
:101D7000E81EF91EF7FE06C081E0C81AD108E10886
:101D800080E8F80AC0920902D0920A02E0920B029F
:101D9000F0920C02C701B6019F77FF90EF90DF90A1
:101DA000CF90BF90AF909F908F900895609309025D
:101DB00070930A0280930B0290930C020895052EF3
:101DC00097FB1EF400940E94F60E57FD07D00E9468
:101DD000110F07FC03D04EF40C94F60E509540956D
:101DE000309521953F4F4F4F5F4F089590958095C7
:101DF000709561957F4F8F4F9F4F08950E94330FCD
:101E0000A59F900DB49F900DA49F800D911D11244E
:101E10000895B7FF0C94FE0E0E94FE0E821B930BDA
:101E20000895A1E21A2EAA1BBB1BFD010DC0AA1F1B
:101E3000BB1FEE1FFF1FA217B307E407F50720F033
:101E4000A21BB30BE40BF50B661F771F881F991FAE
:101E50001A9469F760957095809590959B01AC01F7
:101E6000BD01CF010895A29FB001B39FC001A39F00
:101E7000700D811D1124911DB29F700D811D1124C3
:101E8000911D08950E94560F0C943E100E94371029
:101E900058F00E94301040F029F45F3F29F00C9474
:101EA000271051110C9472100C942D100E944F1099
:101EB00068F39923B1F3552391F3951B550BBB2779
:101EC000AA2762177307840738F09F5F5F4F220FBE
:101ED000331F441FAA1FA9F335D00E2E3AF0E0E8B5
:101EE00032D091505040E695001CCAF72BD0FE2FFF
:101EF00029D0660F771F881FBB1F26173707480793
:101F0000AB07B0E809F0BB0B802DBF01FF2793584A
:101F10005F4F3AF09E3F510578F00C9427100C94D7
:101F200072105F3FE4F3983ED4F3869577956795FA
:101F3000B795F7959F5FC9F7880F911D969587957F
:101F400097F90895E1E0660F771F881FBB1F62179E
:101F500073078407BA0720F0621B730B840BBA0B5C
:101F6000EE1F88F7E09508950E94BB0F6894B111A9
:101F70000C94721008950E94571088F09F5798F0A3
:101F8000B92F9927B751B0F0E1F0660F771F881F7E
:101F9000991F1AF0BA95C9F714C0B13091F00E9498
:101FA0007110B1E008950C947110672F782F882775
:101FB000B85F39F0B93FCCF3869577956795B395BF
:101FC000D9F73EF490958095709561957F4F8F4F2E
:101FD0009F4F0895E89409C097FB3EF49095809533
:101FE000709561957F4F8F4F9F4F9923A9F0F92FDF
:101FF00096E9BB279395F695879577956795B7955D
:10200000F111F8CFFAF4BB0F11F460FF1BC06F5F42
:102010007F4F8F4F9F4F16C0882311F096E911C054
:10202000772321F09EE8872F762F05C0662371F075
:1020300096E8862F70E060E02AF09A95660F771F89
:10204000881FDAF7880F9695879597F9089597F97D
:102050009F6780E870E060E008959FEF80EC08954E
:1020600000240A9416161706180609060895002477
:102070000A9412161306140605060895092E0394F1
:10208000000C11F4882352F0BB0F40F4BF2B11F465
:1020900060FF04C06F5F7F4F8F4F9F4F089557FDC4
:1020A0009058440F551F59F05F3F71F04795880FC6
:1020B00097FB991F61F09F3F79F08795089512165D
:1020C00013061406551FF2CF4695F1DF08C0161609
:1020D00017061806991FF1CF8695710561050894BA
:1020E0000895E894BB2766277727CB0197F90895D1
:1020F0000E948B100C943E100E94301038F00E9409
:10210000371020F0952311F00C9427100C942D100B
:1021100011240C9472100E944F1070F3959FC1F31C
:10212000950F50E0551F629FF001729FBB27F00D85
:10213000B11D639FAA27F00DB11DAA1F649F6627DA
:10214000B00DA11D661F829F2227B00DA11D621F29
:10215000739FB00DA11D621F839FA00D611D221FE3
:10216000749F3327A00D611D231F849F600D211DC7
:10217000822F762F6A2F11249F5750409AF0F1F04A
:1021800088234AF0EE0FFF1FBB1F661F771F881FB3
:1021900091505040A9F79E3F510580F00C942710B4
:1021A0000C9472105F3FE4F3983ED4F386957795D4
:1021B0006795B795F795E7959F5FC1F7FE2B880F59
:1021C000911D9695879597F90895991B79E004C01C
:1021D000991F961708F0961B881F7A95C9F7809566
:1021E000089597FB072E16F4009407D077FD09D0C9
:1021F0000E940D1107FC05D03EF4909581959F4FEC
:102200000895709561957F4F0895EE0FFF1F881F09
:102210008BBF0790F691E02D1994AA1BBB1B51E1CF
:1022200007C0AA1FBB1FA617B70710F0A61BB70B46
:10223000881F991F5A95A9F780959095BC01CD01EB
:062240000895F894FFCFA1
:102246006400000001010000000100000000000021
:102256000000000000000000000000000000000078
:102266000000000000000000000000000000000068
:102276000000000000000000000000000000000058
:102286000000000000000000000000000000000048
:102296000000000000000000000000000000000038
:1022A6000000000000000000000000000000000028
:1022B6000000000000000000000000000000000018
:1022C6000000000000000000000000000002000105
:1022D600000000000000002A002900280027002630
:1022E600002500240023003200310030002F002E8C
:1022F600002D002C002B0000000000000000000054
:1023060000000000000000000000000000000000C7
:1023160000000000000000000000000000000000B7
:1023260000000000000000000000000000000000A7
:102336000000000000000000000000000000000097
:102346000000000000000000000000000000000087
:102356000000000000000000000000000000000077
:102366000000000000000000000000000000000067
:102376000000000000000000000000000000000156
:102386000101010000000101010000000001000040
:102396000000000000000000000000010101010132
:1023A6000000000000000000010101000000010122
:1023B6000100000001010100000001010100000010
:1023C6000001000000000000000101010100000101
:1023D60000000001000101010100000001010100EF
:1023E60000000000000000000101010000000001E3
:1023F60000010000000000000001010101000001D1
:1024060000000001000100000001000101010000C0
:1024160000000000000000000000000000010000B5
:1024260000000000000000010000000100010000A3
:102436000001000100000001000100000001000091
:10244600010000000101010000010000000100017F
:102456000000000100010000000100010000000171
:102466000000000000000001000000010001010161
:102476000000010000000000000100000001000152
:102486000000000100010000000100000001000141
:102496000101010100000000000000000001000031
:1024A600000101010101000000000100000100001F
:1024B6000001000000000100000000000100000112
:1024C6000000000100000001000100000100000101
:1024D60000000001000100000001000100000001F1
:1024E60000000000000000000000010000000001E4
:1024F60000000001000000000001000000010001D2
:1025060001010100000101010101000000010001BB
:1025160001010101000100000001000100010000AD
:10252600000101010101000000010000000100009E
:102536000001000000010000000000010100000190
:10254600000000010000000100010101000000017F
:10255600000000010001010101000001000000016E
:102566000000000000000000000100000000000163
:10257600000000010000000000010101010000014F
:102586000000010000010000000100000001000041
:102596000000000000000100010000010001000031
:1025A6000000000000000000010000000001000023
:1025B6000001000001000000000100000001000011
:1025C60001000000010101010001000001000001FD
:1025D60000000001000100000000000100000001F1
:1025E60000000000000000000100000000000001E3
:1025F60000000100000000000001000000000001D2
:1026060000000001000100000001000000010000C0
:1026160000000000000000010000000001000000B2
:10262600000000000000000101010101000001019D
:10263600010000010101010100000101010000008B
:102646000001000000000001000100000001000080
:10265600010101000001000000000000010101006D
:10266600000000000000000101010101000000015E
:102676000001000000000000000100000000000052
:102686000000000000000000000000000000000044
:102696000000000000000000000000000000000034
:1026A6000000000000000000000000000000000024
:1026B6000000000000000000000000000000000014
:1026C6000000000001010100000000000000000001
:1026D60000000000000000000000000000000000F4
:1026E60000000000000000000000000000000000E4
:1026F60000000000000000000000000001010101D0
:1027060001010000000000000000000001010101BD
:1027160001010000000000000100000001000101AD
:102726000101000001010000010101000100010199
:10273600000100010000000000010000010000018E
:102746000001000100000000000000000100000080
:10275600000100000101000000000000010101016C
:10276600010100000000000000000000010101015D
:1027760001010000000000000000006003CA02F72B
:1027860002AD03280306031A030D0A0043616D62B6
:10279600696F20646520646972656363696F6E00A2
:1027A600697A7175696572646100646572656368EA
:1027B600610033736567004C4153205649444153C9
:1027C60020534F4E203A00656E206D656E73616A28
:1027D6006500656E206D656E75004A7565676F00EC
:1027E600737461747300656E436F6E666967006526
:0827F6006E206A7565676F0033
:00000001FF
