:100000000C9435010C9466010C9466010C94660105
:100010000C9466010C9466010C9466010C946601C4
:100020000C9466010C9466010C9466010C946601B4
:100030000C9466010C9466010C9466010C946601A4
:100040000C9466010C9466010C9466010C94660194
:100050000C9466010C9466010C9466010C943A09A8
:100060000C9466010C94AE090C9484090C946601FE
:100070000C9466010C9466010C9466010C94660164
:100080000C9466010C9466010C9466010C94660154
:100090000C9466010C9466010C9466010C94660144
:1000A0000C9466010C9466010C9466010C94660134
:1000B0000C9466010C9466010C9466010C94660124
:1000C0000C9466010C9466010C9466010C94660114
:1000D0000C9466010C9466010C9466010C94660104
:1000E0000C9466010C9445030C94B0010C94140319
:1000F0000C94E4090C949F010C9437030C94D501E3
:100100000C94A7010C94CA030C94A3010C94DA017B
:100110000C9423030C94BA010C94BE010C94B4010A
:100120000C94C2010C949B010C94E7020C94AA015C
:100130000C947D030C9495010C94CC010C94D0018B
:100140000C94C8010C94D601000021002400270063
:100150002A002D00300033000101000004010701D6
:100160000A0100002200250028002B002E0031008B
:10017000340002010000050108010B01000020000D
:100180002300260029002C002F003200000100006F
:10019000030106010901050505050705080808080A
:1001A000020202020A0A080804040404010101010F
:1001B000010101010303030303030303040707070A
:1001C0000C0C0C0C0C0C0C0C0202020206060606AF
:1001D000060606060B0B0B0B0B0B0B0B010210207C
:1001E000200808102040102040800201020108046D
:1001F0000201010204081020408080402010080401
:100200000201800402018040201008040201080459
:10021000020101020408102040800102040810209D
:10022000408000000A0B02090C0D0E0807030401B0
:1002300000000000000000000000000000000000BE
:10024000000000000000000000000000000012118B
:10025000100000000000000000000000000000008E
:100260000000000000000000E40911241FBECFEFD1
:10027000D1E2DEBFCDBF00E00CBF17E0A0E0B2E0EE
:10028000EAEFF4E200E00BBF02C007900D92A03D40
:10029000B107D9F72BE0A0EDB7E001C01D92A73060
:1002A000B207E1F711E0C5E3D1E000E006C0219715
:1002B0000109802FFE010E945012C433D10780E053
:1002C0000807A9F70E94980A0C947B120C9400006E
:1002D000892B39F481E0860F803140F081EF860F61
:1002E0000895662311F08FEFFACF8FE008958150C3
:1002F000823108F05AC0E82FF0E08827ED57FE4F12
:100300008F4F0C945012A301A70195019B019F01EF
:10031000D501AA01B001B401BA01BE01C201C801F0
:10032000CC01D501D001D601DA01809180008F7710
:10033000809380000895809180008F7DF9CF809117
:100340008000877FF5CF84B58F7784BD089584B50D
:100350008F7DFBCF8091B0008F778093B0000895A0
:100360008091B0008F7DF9CF809190008F7780933E
:1003700090000895809190008F7DF9CF809190003A
:10038000877FF5CF8091A0008F778093A00008959C
:100390008091A0008F7DF9CF8091A000877FF5CF5D
:1003A000809120018F778093200108958091200112
:1003B0008F7DF9CF80912001877FF5CFCF93DF9399
:1003C000282F30E0F901EE5DFD4F8491F901E452F0
:1003D000FE4FD491F901EA56FE4FC491CC23A1F00F
:1003E00081110E947701EC2FF0E0EE0FFF1FE4581F
:1003F000FE4FA591B491EC91ED2381E090E009F4DA
:1004000080E0DF91CF91089580E090E0FACF1F93D4
:10041000CF93DF93282F30E0F901EE5DFD4F8491FB
:10042000F901E452FE4FD491F901EA56FE4FC4910E
:10043000CC23A9F0162F81110E947701EC2FF0E058
:10044000EE0FFF1FEE59FE4FA591B4918FB7F894B0
:10045000EC91111108C0D095DE23DC938FBFDF91A2
:10046000CF911F910895DE2BF8CFCF93DF9390E0CB
:10047000FC01E452FE4F24918A569E4FFC01849168
:100480008823D1F090E0880F991FFC01E85BFE4FB4
:10049000A591B491FC01EE59FE4FC591D491611123
:1004A0000EC09FB7F8948C91E22FE0958E238C9329
:1004B0002881E223E8839FBFDF91CF9108958FB712
:1004C000F894EC91E22BEC938FBFF6CF863308F0D3
:1004D000865320917B00982F9870277F922B9093C2
:1004E0007B008770806480937C0080917A008064B8
:1004F00080937A0080917A0086FDFCCF809178000D
:100500009091790008953FB7F89480910E0A9091E8
:100510000F0AA091100AB091110A26B5A89B05C038
:100520002F3F19F00196A11DB11D3FBFBA2FA92F72
:10053000982F8827BC01CD01620F711D811D911D6F
:1005400042E0660F771F881F991F4A95D1F70895DB
:100550008F929F92AF92BF92CF92DF92EF92FF92D3
:100560006B017C010E9483024B015C01C114D10428
:10057000E104F104B9F00E948302681979098A093B
:100580009B09683E73408105910580F321E0C21A02
:10059000D108E108F10888EE880E83E0981EA11CBE
:1005A000B11CE4CFFF90EF90DF90CF90BF90AF9061
:1005B0009F908F9008952FB7F89460910A0A7091D8
:1005C0000B0A80910C0A90910D0A2FBF0895AF92EB
:1005D000BF92CF92DF92EF92FF920F931F93CF9330
:1005E000DF936C017B018B01040F151FEB015E0192
:1005F000AE18BF08C017D10759F06991D601ED9127
:10060000FC910190F081E02DC6011995892B79F7B5
:10061000C501DF91CF911F910F91FF90EF90DF9077
:10062000CF90BF90AF900895FC01538D448D252F3E
:1006300030E0842F90E0821B930B541710F0CF967C
:10064000089501970895FC01918D828D981761F0AE
:10065000A28DAE0FBF2FB11D5D968C91928D9F5FC5
:100660009F73928F90E008958FEF9FEF0895FC01A4
:10067000918D828D981731F0828DE80FF11D858D57
:1006800090E008958FEF9FEF0895FC01918D228DEA
:10069000892F90E0805C9F4F821B91098F7399276F
:1006A000089582E19AE00E94450321E0892B09F434
:1006B00020E0822F0895FC01A48DA80FB92FB11D51
:1006C000A35ABF4F2C91848D90E001968F73992788
:1006D000848FA689B7892C93A089B1898C91837066
:1006E00080648C93938D848D981306C00288F3895F
:1006F000E02D80818F7D80830895EF92FF920F938C
:100700001F93CF93DF93EC0181E0888F9B8D8C8DBD
:1007100098131AC0E889F989808185FF15C09FB7B1
:10072000F894EE89FF896083E889F9898081837074
:10073000806480839FBF81E090E0DF91CF911F9123
:100740000F91FF90EF900895F62E0B8D10E00F5F44
:100750001F4F0F731127E02E8C8D8E110CC00FB61A
:1007600007FCFACFE889F989808185FFF5CFCE01B2
:100770000E945B03F1CFEB8DEC0FFD2FF11DE35ACF
:10078000FF4FF0829FB7F8940B8FEA89FB89808135
:100790008062CFCFCF93DF93EC01888D8823B9F0AF
:1007A000AA89BB89E889F9898C9185FD03C080817C
:1007B00086FD0DC00FB607FCF7CF8C9185FFF2CFF9
:1007C000808185FFEDCFCE010E945B03E9CFDF91F1
:1007D000CF91089580E090E0892B29F00E94510389
:1007E00081110E94000080E090E0892B49F080E0B8
:1007F00090E0892B29F00E94000081110E940000E6
:1008000080E090E0892B49F080E090E0892B29F08E
:100810000E94000081110E94000080E090E0892B7E
:1008200049F080E090E0892B29F00E9400008111BE
:100830000C94000008958BEF98E030E020E0F9017F
:10084000EE0FFF1FE80FF91F118210822F5F3F4F3D
:1008500020313105A1F7809629E08B3F920769F797
:100860000895CF93DF93EBEEF8E08BEF98E0A1E0F3
:10087000B0E0619170E0AC0130E020E040525109FD
:10088000261737073CF4EA01D395B983A8832F5F75
:100890003F4FF4CF029628E0EB3FF20751F7DF918C
:1008A000CF9108952091040A30E04091010AD901C6
:1008B00054E0AA0FBB1F5A95E1F7FD01E40FF11DAB
:1008C000EE0FFF1FE550F74F11821082E091020AF0
:1008D000EA0FFB2FF11DEE0FFF1FE550F74F1182BE
:1008E0001082E091030AAE0FB11DAA0FBB1FA550E5
:1008F000B74F1D921C92215031098091FF099091B0
:10090000000A892B09F0E42F84E0220F331F8A9517
:10091000E1F7E20FF32FF11DEE0FFF1FE550F74F48
:10092000118210820895CF92DF92EF92FF920F937F
:100930001F93CF93DF931F921F92CDB7DEB76983CA
:100940004A83880F991F0091050B1091060B000F29
:10095000111FEFEAFAE09F012F5A3A4020173107A2
:1009600014F41192F8CF2981FC01E155F54F218350
:100970008A81808360E08091030B0E940702101639
:10098000110604F501501109F801E155F54FE08019
:10099000D090010BC090FF0A88E0F82E6E2D661FE4
:1009A0006627661F8C2D0E940702EE0C61E08D2DDC
:1009B0000E94070260E08D2D0E940702FA94F11058
:1009C000EDCFDDCF61E08091030B0F900F90DF91B1
:1009D000CF911F910F91FF90EF90DF90CF900C94EB
:1009E0000702EF92FF920F931F93CF937C018C012C
:1009F00083E0000F111F8A95E1F70154154FC1E004
:100A0000F80111928F0140E06C2FC7010E949304FE
:100A1000CF5FC930A9F7CF911F910F91FF90EF9051
:100A20000895EF92FF920F931F93CF93DF938091DE
:100A3000050B9091060B1816190624F490E080E03F
:100A40000E94F104C8E1D6E088EBE82E86E0F82E9B
:100A50008881229660E00E94070208EA16E0F80109
:100A600080810E5F1F4F61E00E940702E016F106D1
:100A7000B1F7F6E0C832DF0759F7DF91CF911F9148
:100A80000F91FF90EF9008952F923F924F925F92B7
:100A90006F927F928F929F92AF92BF92CF92DF928E
:100AA000EF92FF920F931F93CF93DF93CDB7DEB7F3
:100AB000C250D1400FB6F894DEBF0FBECDBF80E864
:100AC0008E010F5F1F4FD801E82F1D92EA95E9F7BD
:100AD000FE01EF57FF4FDF011D928A95E9F74F01A5
:100AE0006BEF78E05F01980190E080E050E040E03B
:100AF0007B01E80EF91ED701CD90DC907901E80E5C
:100B0000F91E4830510534F07C01B0E1EB1AF108D0
:100B1000EA0CFB1CD701CD92DC924F5F5F4F02962F
:100B20004031510529F7205F3F4FB0E1AB0EB11CBA
:100B3000605E7F4F2E173F07B9F638E1232E36E06F
:100B4000332E4FEAE42E4AE0F42EE1E0CF5FDE4F91
:100B5000E883C150D140D101BC91CE5FDE4FB88354
:100B6000C250D140E2E02E0E311C61E08B2F0E947A
:100B7000070228EAA22E26E0B22E35012401D12C4C
:100B8000C12CD3018C91B2E06B0E711CF20120815B
:100B9000318160E02130310509F061E00E940702F7
:100BA0008091050B9091060B181619062CF580E81C
:100BB00090E00C2C02C0959587950A94E2F7D70136
:100BC00050962C915097F601EE0FFF1FE00FF11F8A
:100BD00040815181452B09F465C0822B50968C933E
:100BE000D70150964C91CF5FDE4F6881C150D14004
:100BF00090E080E00E949304BFEFCB1ADB0AE0E1B3
:100C00004E0E511CF8E0CF16D10409F0BACF61E0C6
:100C100070E080E090E00E94A80260E0CE5FDE4FCE
:100C20008881C250D1400E940702D5018C91B2E068
:100C3000AB0EB11C61E00E940702E8EBAE16E6E0E5
:100C4000BE0699F7FFEFEF1AFF0ACF5FDE4F8881EC
:100C5000C150D1408F5FCF5FDE4F8883C150D140FC
:100C6000005F1F4F92E0890E911C893009F073CF0D
:100C7000CE5FDE4F0FB6F894DEBF0FBECDBFDF9163
:100C8000CF911F910F91FF90EF90DF90CF90BF9089
:100C9000AF909F908F907F906F905F904F903F901C
:100CA0002F90089580958223F701808B99CFFC01C6
:100CB00001900020E9F73197AF01481B590BBC01A7
:100CC00082E19AE00C94E7028F929F92AF92BF92DA
:100CD0000F931F93CF93DF93CDB7DEB7A1970FB6D6
:100CE000F894DEBF0FBECDBF19A2423008F44AE02F
:100CF0008E010F5D1F4F842E912CB12CA12CA501CC
:100D000094010E945C10E62FB901CA01EA30F4F4A4
:100D1000E05DD801EE938D01232B242B252B79F751
:100D200090E080E0109719F0CD010E945706A1963F
:100D30000FB6F894DEBF0FBECDBFDF91CF911F91EC
:100D40000F91BF90AF909F908F900895E95CE1CF95
:100D5000CF93DF930E945706EC018AE497E00E944C
:100D600057068C0F9D1FDF91CF910895CF93DF938E
:100D700086E00E94DE01019709F4D0C087E00E945E
:100D8000DE01019709F4CCC084E00E94DE010197E6
:100D900091F580910502882319F18091080A81114B
:100DA0001FC08091060A81111BC08091070A811122
:100DB00017C08DE497E00E94A8068091D2078111A8
:100DC00011C081E697E00E94A80681E08093D207D7
:100DD0008093DF0762E370E080E090E00E94A80269
:100DE00083E768C08BE697E00E94A8061092D207BE
:100DF0001092DF07EFCF83E00E94DE01019709F038
:100E000091C0C091D007D091D1072196D093D1073E
:100E1000C093D00764EF71E080E090E00E94A802E8
:100E20008091050223970CF466C08823E9F0809135
:100E3000080A811119C08091060A811115C080919C
:100E4000070A811111C083E797E00E94A80610925B
:100E5000050281E08093080A1092060A1092070AA0
:100E60001092D1071092D0078091050281111DC008
:100E70008091080A811119C08091060A8823A9F07F
:100E80008091070A811111C083E797E00E94A806AC
:100E90001092050281E08093080A1092060A1092CF
:100EA000070A1092D1071092D0078091050288237B
:100EB00021F08BE6DF91CF9108958091080A81118E
:100EC000F8CF8091060A8111F4CF8091070A882318
:100ED00081F388E797E00E94A8061092050281E05E
:100EE0008093080A1092060A1092070A1092D107FE
:100EF0001092D007DECF8111DCCF8091080A8111DA
:100F0000D8CF8091060A8823A1F28091070A811127
:100F1000D0CF84E897E00E94A806CBCF82E7CACF63
:100F20008CE6C8CF80E2C6CFCF92DF92EF92FF92DD
:100F30000F931F93CF93DF93C82ED12C80E1E82E1F
:100F4000F12CC4E0D0E0DC14B9F00E94770F8C01E2
:100F50000E94770FB7010E943C12FC01FF27E55168
:100F6000F74F80818111EFCFC801BE010E943C1272
:100F70008F5F8083D394E7CF0E941B04DF91CF91D2
:100F80001F910F91FF90EF90DF90CF900C94310460
:100F9000CF92DF92EF92FF920F931F93CF930E9415
:100FA00052040091FF091091000A6091010AC801E2
:100FB0000E946801C82F8093010A6091020AC8014B
:100FC0000E946801F82E8093020A6091030AC8010A
:100FD0000E9468018093030A6091040A70E0AC2FBC
:100FE000B0E09B0144E0220F331F4A95E1F7F9017D
:100FF000EA0FFB1FEE0FFF1FE550F74FCC24C39401
:10100000D12CD182C0824F2D50E0F901E40FF51FA1
:10101000EE0FFF1FE550F74FD182C082E82EF12C72
:10102000F901EE0DFF1DEE0FFF1FE550F74FD182C6
:10103000C082FB0131970115110509F4C82F84E026
:10104000EE0FFF1F8A95E1F7EC0FF11DEE0FFF1F6A
:10105000E550F74F81E090E091838083F701E551FF
:10106000F74F208121110DC0FA01E551F74F808122
:10107000811107C0FD01E551F74F8081882309F4F4
:1010800055C088E090E0FC01E21BF1096E177F0774
:1010900094F44551574FFA012081AC01421B51098C
:1010A0006417750744F4A551B74F2C91821B910921
:1010B00068177907DCF18091FB09811109C091E083
:1010C000909305021092080A1092060A1092070ADD
:1010D00081508093FB090E94520482E08093010AB0
:1010E00081E08093020A1092030A8093040A81E04F
:1010F00090E09093200980931F0990931E0980939C
:101100001D0990931C0980931B09E0E0012B09F055
:10111000E2E0F0E0EE0FFF1FE550F74F81E090E0D6
:10112000918380830E9431040E9444050E944405FB
:101130008091050A882309F485C0E091E9086E2FA3
:1011400070E02091EA0830E0DB0194E0AA0FBB1FB9
:101150009A95E1F7A20FB31FAA0FBB1FA550B74F77
:101160001D921C92D901A551B74F8C91882349F04B
:1011700047E050E0461B570B8417150611F48150C9
:101180008C93EF5FE093E908E83008F464C0809145
:10119000E8088823A1F09091FE098091FD098F5FF6
:1011A0008093FD099F5F9093FE0965E00E943012D5
:1011B000911105C08091FB098F5F8093FB0910920C
:1011C000050A1092E808C091FE098091FC09C81335
:1011D00039C00E941B04EBEEF8E08BEF98E011920F
:1011E0008E179F07E1F71092000A1092FF0982E024
:1011F0008093010A81E08093020A1092030A80938F
:10120000040A1092FE098C2FC03108F08FE08F5F26
:101210008093FC0921E030E03093200920931F09DE
:1012200030931E0920931D0930931C0920931B093C
:101230003093FC082093FB080E9494070E9431041D
:101240000E94C807CF911F910F91FF90EF90DF9000
:10125000CF900C94440550E1E59FF0011124E20F7A
:10126000F31FEE0FFF1FE550F74F81E090E09183F1
:101270008083E8CF1F920F920FB60F9211242F9305
:101280003F938F939F93AF93BF9380910A0A90915E
:101290000B0AA0910C0AB0910D0A3091090A23E0C3
:1012A000230F2D3758F50196A11DB11D2093090A72
:1012B00080930A0A90930B0AA0930C0AB0930D0A2C
:1012C00080910E0A90910F0AA091100AB091110A14
:1012D0000196A11DB11D80930E0A90930F0AA09351
:1012E000100AB093110ABF91AF919F918F913F91D6
:1012F0002F910F900FBE0F901F90189526E8230F87
:101300000296A11DB11DD2CF1F920F920FB60F9260
:1013100011240BB60F922F933F934F935F936F93CC
:101320007F938F939F93AF93BF93EF93FF9382E14C
:101330009AE00E945B03FF91EF91BF91AF919F9163
:101340008F917F916F915F914F913F912F910F906E
:101350000BBE0F900FBE0F901F9018951F920F920B
:101360000FB60F9211240BB60F922F938F939F936A
:10137000EF93FF93E091220AF091230A8081E0919C
:10138000280AF091290A82FD1DC0908180912B0AC4
:101390008F5F8F7320912C0A821741F0E0912B0A06
:1013A000F0E0EE5EF54F958F80932B0AFF91EF9161
:1013B0009F918F912F910F900BBE0F900FBE0F90AA
:1013C0001F9018958081F2CFCF93DF931092150A6A
:1013D0001092140A88EE93E0A0E0B0E08093160A21
:1013E0009093170AA093180AB093190A8CE397E018
:1013F0009093130A8093120A85EC90E090931F0A51
:1014000080931E0A84EC90E09093210A8093200A36
:1014100080EC90E09093230A8093220A81EC90E084
:101420009093250A8093240A82EC90E09093270AF7
:101430008093260A86EC90E09093290A8093280AEC
:1014400010922B0A10922C0A10922D0A10922E0A3A
:10145000C3E3D0E0D093000BC093FF0A85E390E094
:101460009093020B8093010B84E390E09093040B24
:101470008093030B81E090E09093060B8093050B23
:1014800061E083E30E94350261E08091010B0E94DC
:10149000350261E08091030B0E94350261E080918A
:1014A000030B0E940702D093000BC093FF0AEFEBDF
:1014B000FAE011928AE0EF3FF807D9F7D0E0C0E0F8
:1014C0008091050B9091060BC817D90774F540E081
:1014D0006FE0CE010E9493048091050B9091060B62
:1014E000C817D9072CF447E06BE0CE010E949304A3
:1014F00040E069E0CE010E9493048091050B909139
:10150000060BC817D9071CF4CE010E94F104809184
:10151000050B9091060BC817D9072CF440E06CE03E
:10152000CE010E9493042196CBCFDF91CF910895F5
:10153000CF93DF9300D0CDB7DEB7789484B58260C7
:1015400084BD84B5816084BD85B5826085BD85B567
:10155000816085BD80916E00816080936E001092E5
:101560008100809181008260809381008091810060
:1015700081608093810080918000816080938000F1
:101580008091B10084608093B1008091B00081604F
:101590008093B0008091910082608093910080914F
:1015A0009100816080939100809190008160809390
:1015B00090008091A10082608093A1008091A100A1
:1015C00081608093A1008091A00081608093A00041
:1015D00080912101826080932101809121018160AD
:1015E000809321018091200181608093200180916E
:1015F0007A00846080937A0080917A008260809380
:101600007A0080917A00816080937A0080917A00DC
:10161000806880937A001092C100E091220AF091D4
:10162000230A82E08083E0911E0AF0911F0A108253
:10163000E091200AF091210A8FEC808310922A0A0F
:10164000E091260AF091270A86E08083E091240A3F
:10165000F091250A808180618083E091240AF091D5
:10166000250A808188608083E091240AF091250A10
:10167000808180688083E091240AF091250A80812E
:101680008F7D808380E00E946602BC01990F880BE9
:10169000990B611571058105910511F00E942110CA
:1016A00008E116E028EA36E03B832A83AA81BB8161
:1016B0008C911296BB83AA8361E00E943502F801E7
:1016C00080810E5F1F4F61E00E9435022A813B81BD
:1016D000285B364059F78091050B9091060B181640
:1016E000190634F441E06CE090E080E00E9493043D
:1016F0008091050B9091060B1816190634F448E0FA
:101700006AE090E080E00E9493048091050B909144
:10171000060B1816190624F490E080E00E94F104EC
:1017200008E116E01B830A83AA81BB818C91129683
:10173000BB83AA8360E00E94070208EA16E0F80172
:1017400080810E5F1F4F61E00E940702F6E0083BB8
:101750001F07A9F70A811B810852164029F760E08C
:1017600086E00E94350260E087E00E94350260E07A
:1017700084E00E94350260E083E00E9435020EE0C2
:1017800012E083ED97E09B838A837C0154E6852EEB
:10179000912CA12CB12CD8016D917D918D01072E3A
:1017A000000C880B990B0E94371120E030E040E4D8
:1017B00050E40E948D1020E030E048EC52E40E949A
:1017C000C3110E94FF109B01AC01A7E0B0E00E9492
:1017D0004910A50194010E942A102F5F3F4F4F4FDF
:1017E0005F4FF701219331937F01F2E008311F072A
:1017F00091F686EE97E030E020E0F901EE0FFF1F52
:10180000E80FF91F118210822F5F3F4F2031310501
:10181000A1F7809608E0863E900769F790E080E0A7
:1018200067E070E0A1E0B0E0EA81FB8121913191B5
:10183000FB83EA832115310591F0FC01E853F74F52
:1018400047E050E08B01021B130B041715070CF047
:10185000F0C2B183A08341505109B097F6CF0696EC
:101860008E31910509F73324339401E010E088EEBE
:10187000482E83E0582E612C712C8091050288231C
:1018800009F490C084E997E00E94A8060E94B60679
:101890000E94DB026B017C018091E4079091E507D7
:1018A0004BEF58E0BC01685E7D4FF0E0E0E0DB010B
:1018B000AE0FBF1FAC919F01220F331F240F351FA6
:1018C000A11153C0D9011D921C923196E031F1054E
:1018D00071F7405E5F4F60587F4FEBEFF9E0E41720
:1018E000F50719F74091E0075091E1076091E20791
:1018F0007091E30746015701841A950AA60AB70AB0
:101900004091010250910202609103027091040221
:10191000481559056A057B0508F5C092E007D09285
:10192000E107E092E207F092E3074091DF072091A0
:10193000DD073091DE07442311F18F379105C9F09F
:1019400001969093E5078093E40721153105A1F0F6
:10195000215031093093DE072093DD070E944405B2
:101960000E941B040E94EA0388CFD9010D931C93A7
:10197000ACCF90E080E0E5CF2EE730E0EBCF0097F2
:1019800059F001979093E5078093E4072F373105CD
:1019900031F02F5F3F4FDECF8EE790E0F3CF30E0A6
:1019A00020E0D8CFF091080AF983FF2309F41AC187
:1019B0008FE997E00E94A8068091E6089091E708D9
:1019C000892B09F05AC00E941105B8E2AB2EB6E08F
:1019D000BB2E88EAC82E86E0D82ED6019C90B2E0B5
:1019E000CB0ED11C60E0892D0E940702F12CE12C66
:1019F000F501EE0DFF1D80819181019739F461E0C1
:101A0000F701E85EF94F80810E940702E2E0EE0EE6
:101A1000F11CF0E1EF16F10459F761E0892D0E9405
:101A20000702A8E1EA2EA6E0FA2ED7018C91B2E0D7
:101A3000EB0EF11C60E00E940702E8E2EE16E6E021
:101A4000FE0699F7F0E1AF0EB11C28EBC21626E0B6
:101A5000D20619F681E090E09093E7088093E608BB
:101A60000E94B6068C36A9F587EA97E00E94A80680
:101A70001092080A3092060A75CF0E94DB022BEF03
:101A800038E068EB76E050E040E0FB01E40FF51F42
:101A9000E081CA01880F991F820F931FE11115C0C1
:101AA000DC011D921C924F5F5F4F4031510569F779
:101AB000205E3F4F605F7F4FF9E02B3F3F0719F7F4
:101AC0000E9444050E941B04CBCFFC0111830083BC
:101AD000EACF0E94B606833709F076C08DEA97E018
:101AE0000E94A806212C812C912C54010E94DB021B
:101AF0008BEFE82E88E0F82E96EEC92E97E0D92ECF
:101B000090E080E0F601E80FF91F20813181F701B4
:101B1000E80FF91F232B71F5118210820296803293
:101B2000910581F761E070E080E090E00E94A802FA
:101B300020E2E20EF11C30E2C30ED11C8BEFE8165E
:101B400089E0F806E9F60E9444050E941B040E9401
:101B5000DB026B017C0183E00E94DE01019741F40E
:101B600021100BC00E94DB024B015C012980BECF1B
:101B7000212CBCCF11830083D1CFC818D908EA0823
:101B8000FB0890EFC91A9AE0D90AE108F108A5EF1D
:101B9000CA16A1E0DA06E104F10408F0A7CF82E05A
:101BA0000E94DE01892B09F0A1CF0E941B0464E68C
:101BB00070E080E090E00E94A80266E970E080E0BA
:101BC00090E00E94A802CECE0E94B606823709F0AD
:101BD000C9CE83EB97E00E94A8061092080A3092C3
:101BE000070AC0CE8091070A882309F49CC08CEBB9
:101BF00097E00E94A8060E94B6060E94DB0286E3D8
:101C00000E9466029C01A2EEBFEF0E945812A3013F
:101C100092010E942A1049015A01BEE18B0E911CCB
:101C2000A11CB11CC4016DEF7FEF0E943C127B012F
:101C3000EAE0EE0EF11C8092010290920202A09264
:101C40000302B09204028EE30E94660227E030E0B5
:101C5000DC010E946012A30192010E942A10BA01C5
:101C6000A9014D5F5F4F6F4F7F4FDA014093000234
:101C70006BEF78E04FEF5FEF2BEF3FEF90E080E00E
:101C8000FC01EE0FFF1FE60FF71F1182108242309A
:101C9000510528F48E159F0514F41183008322301A
:101CA000310528F48A179B0714F4118300830196E9
:101CB0008031910529F7605E7F4F2F5F3F4F4F5F67
:101CC0005F4F23303105D1F647010F2C000CAA08D5
:101CD000BB084AE0C501B401F7FE0DC06DE282E128
:101CE0009AE00E947D0366277727CB01681979095E
:101CF0008A099B094AE00E9464068AE497E00E94F0
:101D00005706609101027091020280910302909146
:101D100004024AE00E9464068AE497E00E945706A3
:101D20000E9444051FCE86EC97E00E94A8060E9400
:101D300011058091060A8823E1F10E941B04EBEE55
:101D4000F8E0119228E0EB3FF207D9F7809100020A
:101D50008093FB091092000A1092FF0932E0309341
:101D6000010A3092020A1092030A3092040A109279
:101D7000FE091092FD091092050A3092FC0981E0DB
:101D800090E09093200980931F0990931E098093FF
:101D90001D0990931C0980931B099093FC08809364
:101DA000FB080E9494070E9431040E94C807109209
:101DB000060A0E94C8070E94B6068C3669F4109283
:101DC000000A1092FF096091010270910202809155
:101DD000030290910402F5CE823739F4A1E0B0E01D
:101DE000B093000AA093FF09EECF8B3649F410920E
:101DF00005021092080A1092060A1092070AE3CF11
:101E0000833709F78091050A8111DDCF3092050AE9
:101E1000E091020AE093EA088091040A8093E908BD
:101E2000F0E0E551F74F8081882369F23092E808AD
:101E3000CACFFC01E653F74F47E050E08B01021B8D
:101E4000130B9801241735070CF009CDB183A0833B
:101E500041505109B097F6CF8F929F92AF92BF92A7
:101E6000CF92DF92EF92FF92CF93DF93EC016881E4
:101E700079818A819B81611571058105910521F424
:101E800064E279ED8BE597E02DE133EF41E050E03E
:101E90000E942A1049015A019B01AC01A7EAB1E452
:101EA0000E9449106B017C01ACEEB4EFA5019401D6
:101EB0000E945710DC01CB018C0D9D1DAE1DBF1D76
:101EC000B7FF03C00197A109B04888839983AA830B
:101ED000BB839F77DF91CF91FF90EF90DF90CF9002
:101EE000BF90AF909F908F9008950C942C0F86E038
:101EF00092E00C942C0FB0E0A0E080930602909347
:101F00000702A0930802B093090208958F929F924E
:101F1000AF92BF92CF92DF92EF92FF92CF93DF9377
:101F2000EC01688179818A819B8161157105810548
:101F3000910521F464E279ED8BE597E02DE133EF33
:101F400041E050E00E942A1049015A019B01AC0176
:101F5000A7EAB1E40E9449106B017C01ACEEB4EF3A
:101F6000A50194010E945710C60ED71EE81EF91E47
:101F7000F7FE06C081E0C81AD108E10880E8F80A37
:101F8000C882D982EA82FB82C701B6019F77DF91BE
:101F9000CF91FF90EF90DF90CF90BF90AF909F9048
:101FA0008F9008958F929F92AF92BF92CF92DF92BF
:101FB000EF92FF9260910A0270910B0280910C02E5
:101FC00090910D02611571058105910521F464E27E
:101FD00079ED8BE597E02DE133EF41E050E00E9491
:101FE0002A1049015A019B01AC01A7EAB1E40E9401
:101FF00049106B017C01ACEEB4EFA50194010E9485
:102000005710C60ED71EE81EF91EF7FE06C081E067
:10201000C81AD108E10880E8F80AC0920A02D092F2
:102020000B02E0920C02F0920D02C701B6019F77FD
:10203000FF90EF90DF90CF90BF90AF909F908F90E8
:10204000089560930A0270930B0280930C029093A0
:102050000D020895052E97FB1EF400940E94411076
:1020600057FD07D00E945C1007FC03D04EF40C947F
:10207000411050954095309521953F4F4F4F5F4F00
:10208000089590958095709561957F4F8F4F9F4FE4
:1020900008950E947E10A59F900DB49F900DA49F5F
:1020A000800D911D11240895B7FF0C9449100E94D2
:1020B0004910821B930B0895A1E21A2EAA1BBB1B89
:1020C000FD010DC0AA1FBB1FEE1FFF1FA217B30704
:1020D000E407F50720F0A21BB30BE40BF50B661F1A
:1020E000771F881F991F1A9469F7609570958095DE
:1020F00090959B01AC01BD01CF010895A29FB00155
:10210000B39FC001A39F700D811D1124911DB29F2B
:10211000700D811D1124911D08950E94A1100C9431
:1021200089110E94821158F00E947B1140F029F41D
:102130005F3F29F00C94721151110C94BD110C9455
:1021400078110E949A1168F39923B1F3552391F302
:10215000951B550BBB27AA2762177307840738F016
:102160009F5F5F4F220F331F441FAA1FA9F335D073
:102170000E2E3AF0E0E832D091505040E695001C27
:10218000CAF72BD0FE2F29D0660F771F881FBB1FE1
:10219000261737074807AB07B0E809F0BB0B802DBF
:1021A000BF01FF2793585F4F3AF09E3F510578F0EB
:1021B0000C9472110C94BD115F3FE4F3983ED4F37C
:1021C000869577956795B795F7959F5FC9F7880FBF
:1021D000911D9695879597F90895E1E0660F771F11
:1021E000881FBB1F621773078407BA0720F0621BA2
:1021F000730B840BBA0BEE1F88F7E09508950E94CD
:1022000006116894B1110C94BD1108950E94A21199
:1022100088F09F5798F0B92F9927B751B0F0E1F0A7
:10222000660F771F881F991F1AF0BA95C9F714C057
:10223000B13091F00E94BC11B1E008950C94BC1132
:10224000672F782F8827B85F39F0B93FCCF3869590
:1022500077956795B395D9F73EF4909580957095ED
:1022600061957F4F8F4F9F4F0895E89409C097FB6A
:102270003EF490958095709561957F4F8F4F9F4F5D
:102280009923A9F0F92F96E9BB279395F6958795A1
:1022900077956795B795F111F8CFFAF4BB0F11F464
:1022A00060FF1BC06F5F7F4F8F4F9F4F16C088230B
:1022B00011F096E911C0772321F09EE8872F762F41
:1022C00005C0662371F096E8862F70E060E02AF082
:1022D0009A95660F771F881FDAF7880F969587956E
:1022E00097F9089597F99F6780E870E060E0089596
:1022F0009FEF80EC089500240A941616170618061E
:102300000906089500240A941216130614060506F9
:102310000895092E0394000C11F4882352F0BB0F8A
:1023200040F4BF2B11F460FF04C06F5F7F4F8F4FED
:102330009F4F089557FD9058440F551F59F05F3F28
:1023400071F04795880F97FB991F61F09F3F79F0D7
:1023500087950895121613061406551FF2CF469559
:10236000F1DF08C0161617061806991FF1CF8695DB
:102370007105610508940895E894BB2766277727BF
:10238000CB0197F908950E94D6110C9489110E94EF
:102390007B1138F00E94821120F0952311F00C94EB
:1023A00072110C94781111240C94BD110E949A1191
:1023B00070F3959FC1F3950F50E0551F629FF00198
:1023C000729FBB27F00DB11D639FAA27F00DB11DB1
:1023D000AA1F649F6627B00DA11D661F829F22273A
:1023E000B00DA11D621F739FB00DA11D621F839FC1
:1023F000A00D611D221F749F3327A00D611D231F97
:10240000849F600D211D822F762F6A2F11249F57E4
:1024100050409AF0F1F088234AF0EE0FFF1FBB1FE7
:10242000661F771F881F91505040A9F79E3F5105A6
:1024300080F00C9472110C94BD115F3FE4F3983E50
:10244000D4F3869577956795B795F795E7959F5F50
:10245000C1F7FE2B880F911D9695879597F90895E2
:10246000991B79E004C0991F961708F0961B881FE6
:102470007A95C9F78095089597FB072E16F4009476
:1024800007D077FD09D00E94671207FC05D03EF403
:10249000909581959F4F0895709561957F4F089510
:1024A000EE0FFF1F881F8BBF0790F691E02D199448
:1024B0000E947E10332312F48A1B9B0B0C94621231
:1024C0000E947E10B7FF0895821B930B0895AA1BEC
:1024D000BB1B51E107C0AA1FBB1FA617B70710F00F
:1024E000A61BB70B881F991F5A95A9F78095909541
:0A24F000BC01CD010895F894FFCF60
:1024FA00031E0000000101000000010000000200AC
:10250A0001000000000000000000000000000000C0
:10251A0000000000000000000000000000000000B1
:10252A0000000000000000000000000000000000A1
:10253A000000000000000000000000000000000091
:10254A000000000000000000000000000000000081
:10255A000000000000000000000000000000000071
:10256A000000000000000000000000000000000061
:10257A000000000000000000000000000000000051
:10258A000000000000000000000000000000000041
:10259A000101010100000001010100000000010029
:1025AA00000000000000000000000000010101011D
:1025BA00010000000000000000010101000000010C
:1025CA0001010000000101010000000101010000F9
:1025DA0000000100000000000000010101010000EC
:1025EA0001000000010001010101000000010101D8
:1025FA0000000000000000000001010100000000CE
:10260A0001000100000000000000010101010000BA
:10261A0001000000010001000000010001010100A9
:10262A00000000000000000000000000000001009F
:10263A00000000000000000001000000010001008D
:10264A00000001000100000001000100000001007B
:10265A00000100000001010100000100000001006A
:10266A00010000000100010000000100010000005B
:10267A00010000000000000001000000010001014B
:10268A00010000010000000000000100000001003C
:10269A00010000000100010000000100000001002B
:1026AA00010101010100000000000000000001001A
:1026BA000000010101010100000000010000010009
:1026CA0000000100000000010000000000010000FD
:1026DA0001000000010000000100010000010000EB
:1026EA0001000000010001000000010001000000DB
:1026FA0001000000000000000000000100000000CE
:10270A0001000000010000000000010000000100BB
:10271A0001010101000001010101010000000100A5
:10272A000101010101000100000001000100010096
:10273A000000010101010100000001000000010088
:10274A00000001000000010000000000010100007B
:10275A000100000001000000010001010100000069
:10276A000100000001000101010100000100000058
:10277A00010000000000000000000100000000004D
:10278A000100000001000000000001010101000039
:10279A00010000010000010000000100000001002A
:1027AA00000000000000000100010000010001001B
:1027BA00000000000000000000010000000001000D
:1027CA0000000100000100000000010000000100FB
:1027DA0000010000000101010100010000010000E8
:1027EA0001000000010001000000000001000000DB
:1027FA0001000000000000000001000000000000CD
:10280A0001000001000000000000010000000000BB
:10281A0001000000010001000000010000000100A9
:10282A00000000000000000001000000000100009C
:10283A000000000000000000010101010100000188
:10284A000101000001010101010000010101000074
:10285A00000001000000000001000100000001006A
:10286A000001010100000100000000000001010157
:10287A000000000000000000010101010100000049
:10288A00010001000000000000000100000000003B
:10289A00000000000000000000000000000000002E
:1028AA00000000000000000000000000000000001E
:1028BA00000000000000000000000000000000000E
:1028CA0000000000000000000000000000000000FE
:1028DA0000000000000101010000000000000000EB
:1028EA0000000000000000000000000000000000DE
:1028FA0000000000000000000000000000000000CE
:10290A0000000000000000002A002900280027001B
:10291A00260025002400230000000000000000001B
:10292A00000000000000000000000000000000009D
:10293A00000000000000000000000000000000008D
:10294A00000000000000000000000000000000007D
:10295A00000000000000000000000000000000006D
:10296A00000000000000000000000000000000005D
:10297A00000000000000000000000000000000004D
:10298A00000000000000000000000000000000003D
:10299A0000000000000000003200310030002F006B
:1029AA002E002D002C002B00000000000001010168
:1029BA000101010000000000000000000001010107
:1029CA0001010100000000000001000000010001F7
:1029DA0001010100000101000001010100010001E3
:1029EA0001000100010000000000010000010000D8
:1029FA0001000100010000000000000000010000C9
:102A0A0000000100000101000000000000010101B6
:102A1A0001010100000000000000000000010101A6
:102A2A000101010000000000000000007D03E70230
:102A3A001403CA034503230337030D0A0043616DD8
:102A4A0062696F20646520646972656363696F6E89
:102A5A0000697A717569657264610064657265639B
:102A6A0068610033736567003373656720636F6E4F
:102A7A00666967004C415320564944415320534FDD
:102A8A004E203A00656E206D656E73616A65006559
:102A9A006E206D656E75004A7565676F00737461A7
:102AAA00747300656E436F6E66696700656E2063B6
:102ABA006F6E66696700656E206A7565676F0000EC
:00000001FF
