:100000000C9435010C9466010C9466010C94660105
:100010000C9466010C9466010C9466010C946601C4
:100020000C9466010C9466010C9466010C946601B4
:100030000C9466010C9466010C9466010C946601A4
:100040000C9466010C9466010C9466010C94660194
:100050000C9466010C9466010C9466010C9494094E
:100060000C9466010C94080A0C94DE090C94660149
:100070000C9466010C9466010C9466010C94660164
:100080000C9466010C9466010C9466010C94660154
:100090000C9466010C9466010C9466010C94660144
:1000A0000C9466010C9466010C9466010C94660134
:1000B0000C9466010C9466010C9466010C94660124
:1000C0000C9466010C9466010C9466010C94660114
:1000D0000C9466010C9466010C9466010C94660104
:1000E0000C9466010C943E0A0C9414030C94C20107
:1000F0000C94A3010C94D6010C9423030C94B0012E
:100100000C9437030C94E7020C94D5010C94AA01CB
:100110000C94DA010C94A7010C94BA010C949F0181
:100120000C949B010C94BE010C94D0010C94CC0156
:100130000C94C8010C9445030C94B4010C94CA03AC
:100140000C9495010C947D030000210024002700ED
:100150002A002D00300033000101000004010701D6
:100160000A0100002200250028002B002E0031008B
:10017000340002010000050108010B01000020000D
:100180002300260029002C002F003200000100006F
:10019000030106010901050505050705080808080A
:1001A000020202020A0A080804040404010101010F
:1001B000010101010303030303030303040707070A
:1001C0000C0C0C0C0C0C0C0C0202020206060606AF
:1001D000060606060B0B0B0B0B0B0B0B010210207C
:1001E000200808102040102040800201020108046D
:1001F0000201010204081020408080402010080401
:100200000201800402018040201008040201080459
:10021000020101020408102040800102040810209D
:10022000408000000A0B02090C0D0E0807030401B0
:1002300000000000000000000000000000000000BE
:10024000000000000000000000000000000012118B
:10025000100000000000000000000000000000008E
:1002600000000000000000003E0A11241FBECFEF76
:10027000D1E2DEBFCDBF00E00CBF17E0A0E0B2E0EE
:10028000E8EFF4E200E00BBF02C007900D92A03D42
:10029000B107D9F72BE0A0EDB7E001C01D92A73060
:1002A000B207E1F711E0C5E3D1E000E006C0219715
:1002B0000109802FFE010E944F12C433D10780E054
:1002C0000807A9F70E94F20A0C947A120C94000015
:1002D000892B39F481E0860F803140F081EF860F61
:1002E0000895662311F08FEFFACF8FE008958150C3
:1002F000823108F05AC0E82FF0E08827ED57FE4F12
:100300008F4F0C944F12A301A70195019B019F01F0
:10031000D501AA01B001B401BA01BE01C201C801F0
:10032000CC01D501D001D601DA01809180008F7710
:10033000809380000895809180008F7DF9CF809117
:100340008000877FF5CF84B58F7784BD089584B50D
:100350008F7DFBCF8091B0008F778093B0000895A0
:100360008091B0008F7DF9CF809190008F7780933E
:1003700090000895809190008F7DF9CF809190003A
:10038000877FF5CF8091A0008F778093A00008959C
:100390008091A0008F7DF9CF8091A000877FF5CF5D
:1003A000809120018F778093200108958091200112
:1003B0008F7DF9CF80912001877FF5CFCF93DF9399
:1003C000282F30E0F901EE5DFD4F8491F901E452F0
:1003D000FE4FD491F901EA56FE4FC491CC23A1F00F
:1003E00081110E947701EC2FF0E0EE0FFF1FE4581F
:1003F000FE4FA591B491EC91ED2381E090E009F4DA
:1004000080E0DF91CF91089580E090E0FACF1F93D4
:10041000CF93DF93282F30E0F901EE5DFD4F8491FB
:10042000F901E452FE4FD491F901EA56FE4FC4910E
:10043000CC23A9F0162F81110E947701EC2FF0E058
:10044000EE0FFF1FEE59FE4FA591B4918FB7F894B0
:10045000EC91111108C0D095DE23DC938FBFDF91A2
:10046000CF911F910895DE2BF8CFCF93DF9390E0CB
:10047000FC01E452FE4F24918A569E4FFC01849168
:100480008823D1F090E0880F991FFC01E85BFE4FB4
:10049000A591B491FC01EE59FE4FC591D491611123
:1004A0000EC09FB7F8948C91E22FE0958E238C9329
:1004B0002881E223E8839FBFDF91CF9108958FB712
:1004C000F894EC91E22BEC938FBFF6CF863308F0D3
:1004D000865320917B00982F9870277F922B9093C2
:1004E0007B008770806480937C0080917A008064B8
:1004F00080937A0080917A0086FDFCCF809178000D
:100500009091790008953FB7F89480910E0A9091E8
:100510000F0AA091100AB091110A26B5A89B05C038
:100520002F3F19F00196A11DB11D3FBFBA2FA92F72
:10053000982F8827BC01CD01620F711D811D911D6F
:1005400042E0660F771F881F991F4A95D1F70895DB
:100550008F929F92AF92BF92CF92DF92EF92FF92D3
:100560006B017C010E9483024B015C01C114D10428
:10057000E104F104B9F00E948302681979098A093B
:100580009B09683E73408105910580F321E0C21A02
:10059000D108E108F10888EE880E83E0981EA11CBE
:1005A000B11CE4CFFF90EF90DF90CF90BF90AF9061
:1005B0009F908F9008952FB7F89460910A0A7091D8
:1005C0000B0A80910C0A90910D0A2FBF0895AF92EB
:1005D000BF92CF92DF92EF92FF920F931F93CF9330
:1005E000DF936C017B018B01040F151FEB015E0192
:1005F000AE18BF08C017D10759F06991D601ED9127
:10060000FC910190F081E02DC6011995892B79F7B5
:10061000C501DF91CF911F910F91FF90EF90DF9077
:10062000CF90BF90AF900895FC01538D448D252F3E
:1006300030E0842F90E0821B930B541710F0CF967C
:10064000089501970895FC01918D828D981761F0AE
:10065000A28DAE0FBF2FB11D5D968C91928D9F5FC5
:100660009F73928F90E008958FEF9FEF0895FC01A4
:10067000918D828D981731F0828DE80FF11D858D57
:1006800090E008958FEF9FEF0895FC01918D228DEA
:10069000892F90E0805C9F4F821B91098F7399276F
:1006A000089582E19AE00E94450321E0892B09F434
:1006B00020E0822F0895FC01A48DA80FB92FB11D51
:1006C000A35ABF4F2C91848D90E001968F73992788
:1006D000848FA689B7892C93A089B1898C91837066
:1006E00080648C93938D848D981306C00288F3895F
:1006F000E02D80818F7D80830895EF92FF920F938C
:100700001F93CF93DF93EC0181E0888F9B8D8C8DBD
:1007100098131AC0E889F989808185FF15C09FB7B1
:10072000F894EE89FF896083E889F9898081837074
:10073000806480839FBF81E090E0DF91CF911F9123
:100740000F91FF90EF900895F62E0B8D10E00F5F44
:100750001F4F0F731127E02E8C8D8E110CC00FB61A
:1007600007FCFACFE889F989808185FFF5CFCE01B2
:100770000E945B03F1CFEB8DEC0FFD2FF11DE35ACF
:10078000FF4FF0829FB7F8940B8FEA89FB89808135
:100790008062CFCFCF93DF93EC01888D8823B9F0AF
:1007A000AA89BB89E889F9898C9185FD03C080817C
:1007B00086FD0DC00FB607FCF7CF8C9185FFF2CFF9
:1007C000808185FFEDCFCE010E945B03E9CFDF91F1
:1007D000CF91089580E090E0892B29F00E94510389
:1007E00081110E94000080E090E0892B49F080E0B8
:1007F00090E0892B29F00E94000081110E940000E6
:1008000080E090E0892B49F080E090E0892B29F08E
:100810000E94000081110E94000080E090E0892B7E
:1008200049F080E090E0892B29F00E9400008111BE
:100830000C9400000895BF92CF92DF92EF92FF9246
:100840000F931F93CF93DF9308EA12E08EE0E82E18
:1008500082E0F82E98EAC92E92E0D92EF801B080F5
:100860000E5F1F4F60E08B2D0E940702D0E0C0E0BA
:10087000F701EC0FFD1F80819181019739F461E050
:10088000FE01E856FD4F80810E9407022296C0318A
:10089000D10571F761E070E080E090E00E94A8026D
:1008A00061E08B2D0E940702C8E9D2E08881229680
:1008B00060E00E940702CC16DD06C1F7F0E1EF0E02
:1008C000F11C82E0083B180749F6DF91CF911F9198
:1008D0000F91FF90EF90DF90CF90BF90089588EE3A
:1008E00098E030E020E0F901EE0FFF1FE80FF91F5C
:1008F000118210822F5F3F4F20313105A1F7809682
:1009000029E0883E920769F70895CF93DF93E9EED7
:10091000F9E088EE98E0A1E0B0E0619170E0AC0110
:1009200030E020E040525109261737073CF4EA0135
:10093000D395B983A8832F5F3F4FF4CF029629E068
:10094000E93FF20751F7DF91CF9108952091040A12
:1009500030E04091010AD90154E0AA0FBB1F5A951B
:10096000E1F7FD01E40FF11DEE0FFF1FE851F74F16
:1009700011821082E091020AEA0FFB2FF11DEE0FA7
:10098000FF1FE851F74F11821082E091030AAE0F6A
:10099000B11DAA0FBB1FA851B74F1D921C92215029
:1009A00031098091FF099091000A892B09F0E42F09
:1009B00084E0220F331F8A95E1F7E20FF32FF11D38
:1009C000EE0FFF1FE851F74F118210820895CF926A
:1009D000DF92EF92FF920F931F93CF93DF931F92BB
:1009E0001F92CDB7DEB769834A83880F991F0091A4
:1009F000050B1091060B000F111FEFEAFAE09F01A3
:100A00002F5A3A402017310714F41192F8CF298158
:100A1000FC01E155F54F21838A81808360E080915C
:100A2000030B0E9407021016110604F5015011096C
:100A3000F801E155F54FE080D090010BC090FF0A1E
:100A400088E0F82E6E2D661F6627661F8C2D0E948B
:100A50000702EE0C61E08D2D0E94070260E08D2DF3
:100A60000E940702FA94F110EDCFDDCF61E0809192
:100A7000030B0F900F90DF91CF911F910F91FF907B
:100A8000EF90DF90CF900C940702EF92FF920F93BC
:100A90001F93CF937C018C0183E0000F111F8A9577
:100AA000E1F70154154FC1E0F80111928F0140E0C8
:100AB0006C2FC7010E94E704CF5FC930A9F7CF911F
:100AC0001F910F91FF90EF900895EF92FF920F9377
:100AD0001F93CF93DF938091050B9091060B18160F
:100AE000190624F490E080E00E944505C8E9D2E0B0
:100AF00088EBE82E82E0F82E8881229661E00E9441
:100B0000070208EA12E0F80180810E5F1F4F60E0E3
:100B10000E940702E016F106B1F7F2E0C83ADF07DB
:100B200059F7DF91CF911F910F91FF90EF900895AA
:100B30002F923F924F925F926F927F928F929F92ED
:100B4000AF92BF92CF92DF92EF92FF920F931F93DB
:100B5000CF93DF93CDB7DEB7C250D1400FB6F89434
:100B6000DEBF0FBECDBF80E88E010F5F1F4FD801E3
:100B7000E82F1D92EA95E9F7FE01EF57FF4FDF01DD
:100B80001D928A95E9F74F0168EE78E05F019801C0
:100B900090E080E050E040E07B01E80EF91ED701D4
:100BA000CD90DC907901E80EF91E4830510534F003
:100BB0007C01B0E1EB1AF108EA0CFB1CD701CD92E5
:100BC000DC924F5F5F4F02964031510529F7205F5D
:100BD0003F4FB0E1AB0EB11C605E7F4F2E173F0759
:100BE000B9F638E9232E32E0332E4FEAE42E4AE0FC
:100BF000F42EE1E0CF5FDE4FE883C150D140D10158
:100C0000BC91CE5FDE4FB883C250D140E2E02E0EE1
:100C1000311C61E08B2F0E94070228EAA22E22E0FD
:100C2000B22E35012401D12CC12CD3018C91B2E01C
:100C30006B0E711CF2012081318160E021303105A1
:100C400009F061E00E9407028091050B9091060B6C
:100C5000181619062CF580E890E00C2C02C095952A
:100C600087950A94E2F7D70150962C915097F60198
:100C7000EE0FFF1FE00FF11F40815181452B09F45A
:100C800065C0822B50968C93D70150964C91CF5FC4
:100C9000DE4F6881C150D14090E080E00E94E704BF
:100CA000BFEFCB1ADB0AE0E14E0E511CF8E0CF1685
:100CB000D10409F0BACF61E070E080E090E00E94DA
:100CC000A80260E0CE5FDE4F8881C250D1400E9412
:100CD0000702D5018C91B2E0AB0EB11C61E00E941D
:100CE0000702E8EBAE16E2E0BE0699F7FFEFEF1A57
:100CF000FF0ACF5FDE4F8881C150D1408F5FCF5F49
:100D0000DE4F8883C150D140005F1F4F92E0890EB3
:100D1000911C893009F073CFCE5FDE4F0FB6F89487
:100D2000DEBF0FBECDBFDF91CF911F910F91FF901E
:100D3000EF90DF90CF90BF90AF909F908F907F907B
:100D40006F905F904F903F902F90089580958223F1
:100D5000F701808B99CFFC0101900020E9F73197D2
:100D6000AF01481B590BBC0182E19AE00C94E702E9
:100D70008F929F92AF92BF920F931F93CF93DF9367
:100D8000CDB7DEB7A1970FB6F894DEBF0FBECDBFCB
:100D900019A2423008F44AE08E010F5D1F4F842EE5
:100DA000912CB12CA12CA50194010E945B10E62F7F
:100DB000B901CA01EA30F4F4E05DD801EE938D0187
:100DC000232B242B252B79F790E080E0109719F046
:100DD000CD010E94AB06A1960FB6F894DEBF0FBE00
:100DE000CDBFDF91CF911F910F91BF90AF909F909A
:100DF0008F900895E95CE1CFCF93DF930E94AB061B
:100E0000EC018AE497E00E94AB068C0F9D1FDF91F6
:100E1000CF910895CF93DF9386E00E94DE01019782
:100E200009F4D6C087E00E94DE01019709F4D2C020
:100E300084E00E94DE010197C1F5809105028823BC
:100E400019F18091080A81111FC08091060A811151
:100E50001BC08091070A811117C08DE497E00E94A2
:100E6000FC068091D207811111C065E070E080E03E
:100E700090E00E94A80281E697E00E94FC0681E0D3
:100E80008093D2078093DF0783E76EC065E070E050
:100E900080E090E00E94A8028BE697E00E94FC06AA
:100EA0001092D2071092DF07EFCF83E00E94DE019D
:100EB000019709F091C0C091D007D091D107219638
:100EC000D093D107C093D00764EF71E080E090E049
:100ED0000E94A8028091050223970CF466C0882323
:100EE000E9F08091080A811119C08091060A8111E8
:100EF00015C08091070A811111C083E797E00E9415
:100F0000FC061092050281E08093080A1092060AFE
:100F10001092070A1092D1071092D0078091050213
:100F200081111DC08091080A811119C08091060AA3
:100F30008823A9F08091070A811111C083E797E007
:100F40000E94FC061092050281E08093080A10922C
:100F5000060A1092070A1092D1071092D0078091CA
:100F60000502882321F08BE6DF91CF9108958091CF
:100F7000080A8111F8CF8091060A8111F4CF80917F
:100F8000070A882381F388E797E00E94FC06109205
:100F9000050281E08093080A1092060A1092070A5F
:100FA0001092D1071092D007DECF8111DCCF809153
:100FB000080A8111D8CF8091060A8823A1F2809176
:100FC000070A8111D0CF84E897E00E94FC06CBCFBE
:100FD00082E7CACF8CE6C8CF80E2C6CFCF92DF923D
:100FE000EF92FF920F931F93CF93DF93C82ED12CD4
:100FF00080E1E82EF12CC4E0D0E0DC14B9F00E94CE
:10100000760F8C010E94760FB7010E943B12FC0103
:10101000FF27E751F64F80818111EFCFC801BE0154
:101020000E943B128F5F8083D394E7CF0E946F04AE
:10103000DF91CF911F910F91FF90EF90DF90CF90B4
:101040000C948504CF92DF92EF92FF920F931F933F
:10105000CF930E94A6040091FF091091000A6091AD
:10106000010AC8010E946801C82F8093010A60919B
:10107000020AC8010E946801F82E8093020A60915A
:10108000030AC8010E9468018093030A6091040A60
:1010900070E0AC2FB0E09B0144E0220F331F4A9573
:1010A000E1F7F901EA0FFB1FEE0FFF1FE851F74FC1
:1010B000CC24C394D12CD182C0824F2D50E0F901B1
:1010C000E40FF51FEE0FFF1FE851F74FD182C082EA
:1010D000E82EF12CF901EE0DFF1DEE0FFF1FE85178
:1010E000F74FD182C082FB0131970115110509F438
:1010F000C82F84E0EE0FFF1F8A95E1F7EC0FF11D7A
:10110000EE0FFF1FE851F74F81E090E0918380835D
:10111000F701E751F64F208121110DC0FA01E75187
:10112000F64F8081811107C0FD01E751F64F8081A4
:10113000882309F455C088E090E0FC01E21BF10926
:101140006E177F0794F44751564FFA012081AC0186
:10115000421B51096417750744F4A751B64F2C91EF
:10116000821B910968177907DCF18091FB098111D5
:1011700009C091E0909305021092080A1092060AA5
:101180001092070A81508093FB090E94A60482E016
:101190008093010A81E08093020A1092030A8093EF
:1011A000040A81E090E090930D0980930C099093DC
:1011B0000B0980930A099093090980930809E0E0DC
:1011C000012B09F0E2E0F0E0EE0FFF1FE851F74FCE
:1011D00081E090E0918380830E9485040E949805BD
:1011E0000E9498058091050A882309F485C0E09142
:1011F000F9096E2F70E02091FA0930E0DB0194E0EC
:10120000AA0FBB1F9A95E1F7A20FB31FAA0FBB1F2E
:10121000A851B74F1D921C92D901A751B64F8C917E
:10122000882349F047E050E0461B570B841715060A
:1012300011F481508C93EF5FE093F909E83008F4E2
:1012400064C08091E8098823A1F09091FE09809103
:10125000FD098F5F8093FD099F5F9093FE0965E014
:101260000E942F12911105C08091FB098F5F80931E
:10127000FB091092050A1092E809C091FE098091BD
:10128000FC09C81339C00E946F04E9EEF9E089EF48
:1012900099E011928E179F07E1F71092000A1092C1
:1012A000FF0982E08093010A81E08093020A109294
:1012B000030A8093040A1092FE098C2FC03108F0B3
:1012C0008FE08F5F8093FC0921E030E030930D09BF
:1012D00020930C0930930B0920930A0930930909D4
:1012E000209308093093E9082093E8080E94EE074C
:1012F0000E9485040E942208CF911F910F91FF90B8
:10130000EF90DF90CF900C94980550E1E59FF001AD
:101310001124E20FF31FEE0FFF1FE851F74F81E09A
:1013200090E091838083E8CF1F920F920FB60F92C7
:1013300011242F933F938F939F93AF93BF938091EB
:101340000A0A90910B0AA0910C0AB0910D0A3091F3
:10135000090A23E0230F2D3758F50196A11DB11D71
:101360002093090A80930A0A90930B0AA0930C0A0F
:10137000B0930D0A80910E0A90910F0AA091100A65
:10138000B091110A0196A11DB11D80930E0A909390
:101390000F0AA093100AB093110ABF91AF919F91C9
:1013A0008F913F912F910F900FBE0F901F90189526
:1013B00026E8230F0296A11DB11DD2CF1F920F92D6
:1013C0000FB60F9211240BB60F922F933F934F93AA
:1013D0005F936F937F938F939F93AF93BF93EF939D
:1013E000FF9382E19AE00E945B03FF91EF91BF912E
:1013F000AF919F918F917F916F915F914F913F91AD
:101400002F910F900BBE0F900FBE0F901F9018954D
:101410001F920F920FB60F9211240BB60F922F93BB
:101420008F939F93EF93FF93E091220AF091230A09
:101430008081E091280AF091290A82FD1DC09081E7
:1014400080912B0A8F5F8F7320912C0A821741F0B5
:10145000E0912B0AF0E0EE5EF54F958F80932B0A1A
:10146000FF91EF919F918F912F910F900BBE0F9055
:101470000FBE0F901F9018958081F2CFCF93DF930E
:101480001092150A1092140A88EE93E0A0E0B0E0E2
:101490008093160A9093170AA093180AB093190A1A
:1014A0008CE397E09093130A8093120A85EC90E006
:1014B00090931F0A80931E0A84EC90E09093210A77
:1014C0008093200A80EC90E09093230A8093220A74
:1014D00081EC90E09093250A8093240A82EC90E0BE
:1014E0009093270A8093260A86EC90E09093290A2D
:1014F0008093280A10922B0A10922C0A10922D0A1F
:1015000010922E0AC3E3D0E0D093000BC093FF0AE1
:1015100085E390E09093020B8093010B84E390E0CD
:101520009093040B8093030B81E090E09093060B63
:101530008093050B61E083E30E94350261E08091B6
:10154000010B0E94350261E08091030B0E9435027D
:1015500061E08091030B0E940702D093000BC093BF
:10156000FF0AEFEBFAE011928AE0EF3FF807D9F7B4
:10157000D0E0C0E08091050B9091060BC817D90709
:1015800074F540E06FE0CE010E94E7048091050B06
:101590009091060BC817D9072CF447E06BE0CE01F9
:1015A0000E94E70440E069E0CE010E94E7048091D8
:1015B000050B9091060BC817D9071CF4CE010E94A9
:1015C00045058091050B9091060BC817D9072CF49F
:1015D00040E06CE0CE010E94E7042196CBCFDF9182
:1015E000CF910895789484B5826084BD84B581607C
:1015F00084BD85B5826085BD85B5816085BD8091DE
:101600006E00816080936E00109281008091810055
:10161000826080938100809181008160809381004D
:10162000809180008160809380008091B10084600F
:101630008093B1008091B00081608093B000809170
:1016400091008260809391008091910081608093ED
:101650009100809190008160809390008091A10022
:1016600082608093A1008091A10081608093A1009D
:101670008091A00081608093A00080912101826010
:1016800080932101809121018160809321018091CB
:10169000200181608093200180917A008460809392
:1016A0007A0080917A00826080937A0080917A003B
:1016B000816080937A0080917A00806880937A00BC
:1016C0001092C100E091220AF091230A82E0808307
:1016D000E0911E0AF0911F0A1082E091200AF09119
:1016E000210A8FEC808310922A0AE091260AF09159
:1016F000270A86E08083E091240AF091250A808100
:1017000080618083E091240AF091250A80818860BD
:101710008083E091240AF091250A8081806880838B
:10172000E091240AF091250A80818F7D808380E0FA
:101730000E946602BC01990F880B990B6115710517
:101740008105910511F00E942010C8E9D2E07E01C8
:1017500008EA12E0F80180810E5F1F4F61E00E94ED
:101760003502F7018081F2E0EF0EF11C61E00E948A
:10177000350222E0083B120769F78091050B909132
:10178000060B1816190634F441E06CE090E080E096
:101790000E94E7048091050B9091060B181619061C
:1017A00034F448E06AE090E080E00E94E704809131
:1017B000050B9091060B1816190624F490E080E0B2
:1017C0000E9445058881229660E00E94070208EA8F
:1017D00012E0F80180810E5F1F4F61E00E94070256
:1017E000F2E0083B1F07A9F702E0C83AD00751F71B
:1017F00060E086E00E94350260E087E00E943502EA
:1018000060E084E00E94350260E083E00E943502DF
:101810000EE812E0C3EDD7E07E01B4E68B2E912CEA
:10182000A12CB12CF801619171918F01072E000C50
:10183000880B990B0E94361120E030E040E450E420
:101840000E948C1020E030E048EC52E40E94C2116B
:101850000E94FE109B01AC01A7E0B0E00E9448107E
:10186000A50194010E9429102F5F3F4F4F4F5F4FFA
:10187000F701219331937F01F2E008391F0791F6B8
:1018800086EE97E030E020E0F901EE0FFF1FE80F51
:10189000F91F118210822F5F3F4F20313105A1F7D0
:1018A000809608E0863E900769F790E080E067E068
:1018B00070E0A1E0B0E0299139912115310591F056
:1018C000FC01E853F74F47E050E08B01021B130B7C
:1018D000041715070CF0ACC2B183A0834150510925
:1018E000B097F6CF06968E31910529F711E0EE24D8
:1018F000E394F12C02E080910502882309F4AFC043
:1019000084E997E00E94FC060E940A070E94DB021D
:101910004B015C01E8EECE2EE8E0DE2E312C212CCE
:10192000C091E407D091E50730E020E0AE01420D20
:10193000531DFA01E20FF31FE854FD4F6081C90106
:10194000880F991F8C0D9D1D61116BC0FC011182C8
:1019500010822F5F3F4F2031310559F7409001022F
:10196000509002026090030270900402C301B20121
:1019700024E630E040E050E00E945B10CA01B9016B
:101980000E94A80270E2C70ED11C80E8280E311C0C
:10199000211494E0390621F68091E0079091E10747
:1019A000A091E207B091E307A5019401281B390B30
:1019B0004A0B5B0BDA01C901481659066A067B0619
:1019C000F8F48092E0079092E107A092E207B092CB
:1019D000E3072091DF078091DD079091DE07222346
:1019E00061F1CF37D10519F12196D093E507C09366
:1019F000E4070097F9F001979093DE078093DD07E5
:101A00000E9498050E946F04609101027091020289
:101A100080910302909104020E94A8020E94EA03AE
:101A20006ACF61E070E0FC017183608392CFD0E007
:101A3000C0E0DBCF8EE790E0DFCF209751F0219719
:101A4000D093E507C093E4078F37910529F00196FD
:101A5000D3CFCEE7D0E0F4CF90E080E0CDCF80913F
:101A6000080A882309F4B3C08FE997E00E94FC06B6
:101A70008091E6089091E708892B01F50E946505A1
:101A80000E941B040E941B040E941B046AE070E079
:101A900080E090E00E94A802F092E708E092E60859
:101AA0000E940A078C3609F04CC087EA97E00E9432
:101AB000FC061092080A1093060AA6CF0E94DB02C9
:101AC00068EEA62E68E0B62EC8EBD6E030E020E047
:101AD000FE01E20FF31F4081C901880F991F8A0D93
:101AE0009B1D411127C0FC01118210822F5F3F4FC7
:101AF0002031310569F760910102709102028091F5
:101B000003029091040224E630E040E050E00E949D
:101B10005B10CA01B9010E94A80220E2A20EB11C0A
:101B2000609637E0C833D30789F60E9498050E9473
:101B30006F04B6CFCC24C394D12CFC01D182C082D7
:101B4000D5CF0E940A078337A1F58DEA97E00E945E
:101B5000FC06EE24E394F12C0E94DB02C8EED8E0F0
:101B600006EE17E090E080E0F801E80FF91F208111
:101B70003181FE01E80FF91F232BC1F4118210827D
:101B800002968032910581F761E070E080E090E09C
:101B90000E94A802A096005E1F4F49E0C83ED407ED
:101BA00009F70E9498050E946F04D6CFF182E08267
:101BB000E7CF0E940A07823709F026CF83EB97E030
:101BC0000E94FC061092080A1093070A1DCF80910C
:101BD000070A882309F4ACC08CEB97E00E94FC064E
:101BE00061E070E080E090E00E94A8020E940A0795
:101BF0000E94DB0286E30E9466029C01A8EDBFEF13
:101C00000E94571228EE33E040E050E00E94291075
:101C1000DA01C9018896A11DB11DEC0197FD23963B
:101C2000D595C795D595C795D195C195D1092A96D2
:101C30008093010290930202A0930302B0930402E6
:101C40008EE30E94660227E030E0DC010E945F1212
:101C500028EE33E040E050E00E942910BA01A901CB
:101C60004D5F5F4F6F4F7F4FDA014093000268EE88
:101C700078E04FEF5FEF2BEF3FEF90E080E0FC016B
:101C8000EE0FFF1FE60FF71F118210824230510541
:101C900040F48C179D072CF4CC24C394D12CD18212
:101CA000C0822230310540F48A179B072CF4CC24E3
:101CB000C394D12CD182C082019680319105F9F66E
:101CC000605E7F4F2F5F3F4F4F5F5F4F2330310587
:101CD000A1F64E010D2E000CAA08BB084AE0C50172
:101CE000B401D7FF0DC06DE282E19AE00E947D034E
:101CF00066277727CB01681979098A099B094AE089
:101D00000E94B8068AE497E00E94AB066091010247
:101D10007091020280910302909104024AE00E94B5
:101D2000B8068AE497E00E94AB060E9498056CCE44
:101D300086EC97E00E94FC060E9465058091060AE9
:101D40008823D1F10E946F04E9EEF9E0119229E0B5
:101D5000E93FF207D9F7809100028093FB091092C6
:101D6000000A1092FF090093010A1093020A1092D0
:101D7000030A1093040A1092FE091092FD091092B2
:101D8000050A1093FC09F0920D09E0920C09F092FB
:101D90000B09E0920A09F0920909E0920809F09211
:101DA000E908E092E80881E00E94EE070E948504BD
:101DB0000E9422081092060A0E9422080E940A0726
:101DC0008C3659F41092000A1092FF0961E070E01D
:101DD00080E090E00E94A80217CE823729F4F092AA
:101DE000000AE092FF09F2CF8B3649F41092050207
:101DF0001092080A1092060A1092070AE7CF83375A
:101E000029F78091050A8111E1CF1093050AE0912D
:101E1000020AE093FA098091040A8093F909F0E03C
:101E2000E751F64F8081882389F21093E809CECFDD
:101E3000FC01E653F74F47E050E06B01C21AD30AAA
:101E40009601241735070CF04DCDB183A083415086
:101E50005109B097F6CF8F929F92AF92BF92CF92D7
:101E6000DF92EF92FF92CF93DF93EC01688179814B
:101E70008A819B81611571058105910521F464E2D8
:101E800079ED8BE597E02DE133EF41E050E00E94E2
:101E9000291049015A019B01AC01A7EAB1E40E9453
:101EA00048106B017C01ACEEB4EFA50194010E94D7
:101EB0005610DC01CB018C0D9D1DAE1DBF1DB7FF63
:101EC00003C00197A109B04888839983AA83BB8383
:101ED0009F77DF91CF91FF90EF90DF90CF90BF90F1
:101EE000AF909F908F9008950C942B0F86E092E016
:101EF0000C942B0FB0E0A0E08093060290930702B1
:101F0000A0930802B093090208958F929F92AF9216
:101F1000BF92CF92DF92EF92FF92CF93DF93EC01CB
:101F2000688179818A819B8161157105810591059F
:101F300021F464E279ED8BE597E02DE133EF41E0A8
:101F400050E00E94291049015A019B01AC01A7EA07
:101F5000B1E40E9448106B017C01ACEEB4EFA50126
:101F600094010E945610C60ED71EE81EF91EF7FEF9
:101F700006C081E0C81AD108E10880E8F80AC882E2
:101F8000D982EA82FB82C701B6019F77DF91CF91A8
:101F9000FF90EF90DF90CF90BF90AF909F908F9089
:101FA00008958F929F92AF92BF92CF92DF92EF925D
:101FB000FF9260910A0270910B0280910C02909145
:101FC0000D02611571058105910521F464E279ED39
:101FD0008BE597E02DE133EF41E050E00E942910BE
:101FE00049015A019B01AC01A7EAB1E40E944810E3
:101FF0006B017C01ACEEB4EFA50194010E94561078
:10200000C60ED71EE81EF91EF7FE06C081E0C81AEC
:10201000D108E10880E8F80AC0920A02D0920B02C7
:10202000E0920C02F0920D02C701B6019F77FF907B
:10203000EF90DF90CF90BF90AF909F908F900895DA
:1020400060930A0270930B0280930C0290930D022E
:102050000895052E97FB1EF400940E94401057FD32
:1020600007D00E945B1007FC03D04EF40C94401084
:1020700050954095309521953F4F4F4F5F4F0895B4
:1020800090958095709561957F4F8F4F9F4F0895E4
:102090000E947D10A59F900DB49F900DA49F800D70
:1020A000911D11240895B7FF0C9448100E94481008
:1020B000821B930B0895A1E21A2EAA1BBB1BFD01E4
:1020C0000DC0AA1FBB1FEE1FFF1FA217B307E40717
:1020D000F50720F0A21BB30BE40BF50B661F771F6F
:1020E000881F991F1A9469F760957095809590954F
:1020F0009B01AC01BD01CF010895A29FB001B39F28
:10210000C001A39F700D811D1124911DB29F700D00
:10211000811D1124911D08950E94A0100C94881116
:102120000E94811158F00E947A1140F029F45F3F1B
:1021300029F00C94711151110C94BC110C9477116D
:102140000E94991168F39923B1F3552391F3951BDC
:10215000550BBB27AA2762177307840738F09F5FC8
:102160005F4F220F331F441FAA1FA9F335D00E2E35
:102170003AF0E0E832D091505040E695001CCAF7A2
:102180002BD0FE2F29D0660F771F881FBB1F261765
:1021900037074807AB07B0E809F0BB0B802DBF013C
:1021A000FF2793585F4F3AF09E3F510578F00C940B
:1021B00071110C94BC115F3FE4F3983ED4F3869503
:1021C00077956795B795F7959F5FC9F7880F911D2C
:1021D0009695879597F90895E1E0660F771F881F18
:1021E000BB1F621773078407BA0720F0621B730BCB
:1021F000840BBA0BEE1F88F7E09508950E94051135
:102200006894B1110C94BC1108950E94A11188F03A
:102210009F5798F0B92F9927B751B0F0E1F0660FAA
:10222000771F881F991F1AF0BA95C9F714C0B130EB
:1022300091F00E94BB11B1E008950C94BB11672F7F
:10224000782F8827B85F39F0B93FCCF3869577951A
:102250006795B395D9F73EF4909580957095619503
:102260007F4F8F4F9F4F0895E89409C097FB3EF42E
:1022700090958095709561957F4F8F4F9F4F9923D3
:10228000A9F0F92F96E9BB279395F6958795779551
:102290006795B795F111F8CFFAF4BB0F11F460FF11
:1022A0001BC06F5F7F4F8F4F9F4F16C0882311F069
:1022B00096E911C0772321F09EE8872F762F05C07D
:1022C000662371F096E8862F70E060E02AF09A9518
:1022D000660F771F881FDAF7880F9695879597F90D
:1022E000089597F99F6780E870E060E008959FEF98
:1022F00080EC089500240A9416161706180609069D
:10230000089500240A94121613061406050608956B
:10231000092E0394000C11F4882352F0BB0F40F4F3
:10232000BF2B11F460FF04C06F5F7F4F8F4F9F4F33
:10233000089557FD9058440F551F59F05F3F71F0B5
:102340004795880F97FB991F61F09F3F79F087951C
:102350000895121613061406551FF2CF4695F1DFA5
:1023600008C0161617061806991FF1CF8695710535
:10237000610508940895E894BB2766277727CB0169
:1023800097F908950E94D5110C9488110E947A1132
:1023900038F00E94811120F0952311F00C947111F6
:1023A0000C94771111240C94BC110E94991170F3B4
:1023B000959FC1F3950F50E0551F629FF001729FEA
:1023C000BB27F00DB11D639FAA27F00DB11DAA1FF9
:1023D000649F6627B00DA11D661F829F2227B00D46
:1023E000A11D621F739FB00DA11D621F839FA00DD1
:1023F000611D221F749F3327A00D611D231F849F21
:10240000600D211D822F762F6A2F11249F57504077
:102410009AF0F1F088234AF0EE0FFF1FBB1F661FF2
:10242000771F881F91505040A9F79E3F510580F0BB
:102430000C9471110C94BC115F3FE4F3983ED4F3FB
:10244000869577956795B795F795E7959F5FC1F75F
:10245000FE2B880F911D9695879597F90895991BE6
:1024600079E004C0991F961708F0961B881F7A958B
:10247000C9F78095089597FB072E16F4009407D0AE
:1024800077FD09D00E94661207FC05D03EF49095B6
:1024900081959F4F0895709561957F4F0895EE0F38
:1024A000FF1F881F8BBF0790F691E02D19940E94A3
:1024B0007D10332312F48A1B9B0B0C9461120E9433
:1024C0007D10B7FF0895821B930B0895AA1BBB1BB9
:1024D00051E107C0AA1FBB1FA617B70710F0A61B24
:1024E000B70B881F991F5A95A9F780959095BC0145
:0824F000CD010895F894FFCF1F
:1024F80003280000000101000000010000000000A6
:1025080000000000000000000000000000000000C3
:1025180000000000000000000000000000000000B3
:1025280000000000000000000000000000000000A3
:102538000000000000000000000000000000000093
:102548000000000000000000000000000000000083
:102558000000000000000000000000000000000073
:102568000000000000000000000000000000000063
:102578000000000000000000000000000000020051
:1025880001000000000000002A00290028002700A0
:1025980026002500240023003200310030002F00DF
:1025A8002E002D002C002B00000000000000000071
:1025B8000000000000000000000000000000000013
:1025C8000000000000000000000000000000000003
:1025D80000000000000000000000000000000000F3
:1025E80000000000000000000000000000000000E3
:1025F80000000000000000000000000000000000D3
:1026080000000000000000000000000000000000C2
:1026180000000000000000000000000000000000B2
:1026280000000000000000000000000000000000A2
:10263800010101010000000101010000000001008A
:10264800000000000000000000000000010101017E
:10265800010000000000000000010101000000016D
:10266800010100000001010100000001010100005A
:10267800000001000000000000000101010100004D
:102688000100000001000101010100000001010139
:10269800000000000000000000010101000000002F
:1026A800010001000000000000000101010100001C
:1026B800010000000100010000000100010101000B
:1026C8000000000000000000000000000000010001
:1026D80000000000000000000100000001000100EF
:1026E80000000100010000000100010000000100DD
:1026F80000010000000101010000010000000100CC
:1027080001000000010001000000010001000000BC
:1027180001000000000000000100000001000101AC
:10272800010000010000000000000100000001009D
:10273800010000000100010000000100000001008C
:10274800010101010100000000000000000001007B
:10275800000001010101010000000001000001006A
:10276800000001000000000100000000000100005E
:10277800010000000100000001000100000100004C
:10278800010000000100010000000100010000003C
:10279800010000000000000000000001000000002F
:1027A800010000000100000000000100000001001D
:1027B8000101010100000101010101000000010007
:1027C80001010101010001000000010001000100F8
:1027D80000000101010101000000010000000100EA
:1027E80000000100000001000000000001010000DD
:1027F80001000000010000000100010101000000CB
:1028080001000000010001010101000001000000B9
:1028180001000000000000000000010000000000AE
:10282800010000000100000000000101010100009A
:10283800010000010000010000000100000001008B
:10284800000000000000000100010000010001007C
:10285800000000000000000000010000000001006E
:10286800000001000001000000000100000001005C
:102878000001000000010101010001000001000049
:10288800010000000100010000000000010000003C
:10289800010000000000000000010000000000002E
:1028A800010000010000000000000100000000001D
:1028B800010000000100010000000100000001000B
:1028C80000000000000000000100000000010000FE
:1028D80000000000000000000101010101000001EA
:1028E80001010000010101010100000101010000D6
:1028F80000000100000000000100010000000100CC
:1029080000010101000001000000000000010101B8
:1029180000000000000000000101010101000000AA
:10292800010001000000000000000100000000009C
:10293800000000000000000000000000000000008F
:10294800000000000000000000000000000000007F
:10295800000000000000000000000000000000006F
:10296800000000000000000000000000000000005F
:10297800000000000001010100000000000000004C
:10298800000000000000000000000000000000003F
:10299800000000000000000000000000000000002F
:1029A800000000000000000000000000000101011C
:1029B8000101010000000000000000000001010109
:1029C80001010100000000000001000000010001F9
:1029D80001010100000101000001010100010001E5
:1029E80001000100010000000000010000010000DA
:1029F80001000100010000000000000000010000CB
:102A080000000100000101000000000000010101B8
:102A180001010100000000000000000000010101A8
:102A28000101010000000000000000007D03E70232
:102A38001403CA034503230337030D0A0043616DDA
:102A480062696F20646520646972656363696F6E8B
:102A580000697A717569657264610064657265639D
:102A680068610033736567003373656720636F6E51
:102A7800666967004C415320564944415320534FDF
:102A88004E203A00656E206D656E73616A6500655B
:102A98006E206D656E75004A7565676F00737461A9
:102AA800747300656E436F6E66696700656E2063B8
:102AB8006F6E66696700656E206A7565676F0000EE
:00000001FF
