:100000000C9435010C9466010C9466010C94660105
:100010000C9466010C9466010C9466010C946601C4
:100020000C9466010C9466010C9466010C946601B4
:100030000C9466010C9466010C9466010C946601A4
:100040000C9466010C9466010C9466010C94660194
:100050000C9466010C9466010C9466010C94050CDA
:100060000C9466010C94790C0C944F0C0C94660162
:100070000C9466010C9466010C9466010C94660164
:100080000C9466010C9466010C9466010C94660154
:100090000C9466010C9466010C9466010C94660144
:1000A0000C9466010C9466010C9466010C94660134
:1000B0000C9466010C9466010C9466010C94660124
:1000C0000C9466010C9466010C9466010C94660114
:1000D0000C9466010C9466010C9466010C94660104
:1000E0000C9466010C9423030C94A7010C94D60184
:1000F0000C9495010C94BE010C94A3010C94C201C4
:100100000C94CA030C947D030C9414030C943703D1
:100110000C94BA010C94D0010C94E7020C94AF0C2F
:100120000C94C8010C949B010C9445030C94B401ED
:100130000C94B0010C94D5010C94DA010C94CC0110
:100140000C949F010C94AA010000210024002700B8
:100150002A002D00300033000101000004010701D6
:100160000A0100002200250028002B002E0031008B
:10017000340002010000050108010B01000020000D
:100180002300260029002C002F003200000100006F
:10019000030106010901050505050705080808080A
:1001A000020202020A0A080804040404010101010F
:1001B000010101010303030303030303040707070A
:1001C0000C0C0C0C0C0C0C0C0202020206060606AF
:1001D000060606060B0B0B0B0B0B0B0B010210207C
:1001E000200808102040102040800201020108046D
:1001F0000201010204081020408080402010080401
:100200000201800402018040201008040201080459
:10021000020101020408102040800102040810209D
:10022000408000000A0B02090C0D0E0807030401B0
:1002300000000000000000000000000000000000BE
:10024000000000000000000000000000000012118B
:10025000100000000000000000000000000000008E
:100260000000000000000000AF0C11241FBECFEF03
:10027000D1E2DEBFCDBF00E00CBF1DE0A0E0B2E0E8
:10028000E2E3FAE200E00BBF02C007900D92AA3051
:10029000B107D9F721E1AAE0BDE001C01D92A73462
:1002A000B207E1F711E0C5E3D1E000E006C0219715
:1002B0000109802FFE010E94EC14C433D10780E0B5
:1002C0000807A9F70E94630D0C9417150C94000001
:1002D000892B39F481E0860F803140F081EF860F61
:1002E0000895662311F08FEFFACF8FE008958150C3
:1002F000823108F05AC0E82FF0E08827ED57FE4F12
:100300008F4F0C94EC14A301A70195019B019F0151
:10031000D501AA01B001B401BA01BE01C201C801F0
:10032000CC01D501D001D601DA01809180008F7710
:10033000809380000895809180008F7DF9CF809117
:100340008000877FF5CF84B58F7784BD089584B50D
:100350008F7DFBCF8091B0008F778093B0000895A0
:100360008091B0008F7DF9CF809190008F7780933E
:1003700090000895809190008F7DF9CF809190003A
:10038000877FF5CF8091A0008F778093A00008959C
:100390008091A0008F7DF9CF8091A000877FF5CF5D
:1003A000809120018F778093200108958091200112
:1003B0008F7DF9CF80912001877FF5CFCF93DF9399
:1003C000282F30E0F901EE5DFD4F8491F901E452F0
:1003D000FE4FD491F901EA56FE4FC491CC23A1F00F
:1003E00081110E947701EC2FF0E0EE0FFF1FE4581F
:1003F000FE4FA591B491EC91ED2381E090E009F4DA
:1004000080E0DF91CF91089580E090E0FACF1F93D4
:10041000CF93DF93282F30E0F901EE5DFD4F8491FB
:10042000F901E452FE4FD491F901EA56FE4FC4910E
:10043000CC23A9F0162F81110E947701EC2FF0E058
:10044000EE0FFF1FEE59FE4FA591B4918FB7F894B0
:10045000EC91111108C0D095DE23DC938FBFDF91A2
:10046000CF911F910895DE2BF8CFCF93DF9390E0CB
:10047000FC01E452FE4F24918A569E4FFC01849168
:100480008823D1F090E0880F991FFC01E85BFE4FB4
:10049000A591B491FC01EE59FE4FC591D491611123
:1004A0000EC09FB7F8948C91E22FE0958E238C9329
:1004B0002881E223E8839FBFDF91CF9108958FB712
:1004C000F894EC91E22BEC938FBFF6CF863308F0D3
:1004D000865320917B00982F9870277F922B9093C2
:1004E0007B008770806480937C0080917A008064B8
:1004F00080937A0080917A0086FDFCCF809178000D
:100500009091790008953FB7F89480914E109091A2
:100510004F10A0915010B091511026B5A89B05C066
:100520002F3F19F00196A11DB11D3FBFBA2FA92F72
:10053000982F8827BC01CD01620F711D811D911D6F
:1005400042E0660F771F881F991F4A95D1F70895DB
:100550008F929F92AF92BF92CF92DF92EF92FF92D3
:100560006B017C010E9483024B015C01C114D10428
:10057000E104F104B9F00E948302681979098A093B
:100580009B09683E73408105910580F321E0C21A02
:10059000D108E108F10888EE880E83E0981EA11CBE
:1005A000B11CE4CFFF90EF90DF90CF90BF90AF9061
:1005B0009F908F9008952FB7F89460914A10709192
:1005C0004B1080914C1090914D102FBF0895AF9219
:1005D000BF92CF92DF92EF92FF920F931F93CF9330
:1005E000DF936C017B018B01040F151FEB015E0192
:1005F000AE18BF08C017D10759F06991D601ED9127
:10060000FC910190F081E02DC6011995892B79F7B5
:10061000C501DF91CF911F910F91FF90EF90DF9077
:10062000CF90BF90AF900895FC01538D448D252F3E
:1006300030E0842F90E0821B930B541710F0CF967C
:10064000089501970895FC01918D828D981761F0AE
:10065000A28DAE0FBF2FB11D5D968C91928D9F5FC5
:100660009F73928F90E008958FEF9FEF0895FC01A4
:10067000918D828D981731F0828DE80FF11D858D57
:1006800090E008958FEF9FEF0895FC01918D228DEA
:10069000892F90E0805C9F4F821B91098F7399276F
:1006A000089582E590E10E94450321E0892B09F439
:1006B00020E0822F0895FC01A48DA80FB92FB11D51
:1006C000A35ABF4F2C91848D90E001968F73992788
:1006D000848FA689B7892C93A089B1898C91837066
:1006E00080648C93938D848D981306C00288F3895F
:1006F000E02D80818F7D80830895EF92FF920F938C
:100700001F93CF93DF93EC0181E0888F9B8D8C8DBD
:1007100098131AC0E889F989808185FF15C09FB7B1
:10072000F894EE89FF896083E889F9898081837074
:10073000806480839FBF81E090E0DF91CF911F9123
:100740000F91FF90EF900895F62E0B8D10E00F5F44
:100750001F4F0F731127E02E8C8D8E110CC00FB61A
:1007600007FCFACFE889F989808185FFF5CFCE01B2
:100770000E945B03F1CFEB8DEC0FFD2FF11DE35ACF
:10078000FF4FF0829FB7F8940B8FEA89FB89808135
:100790008062CFCFCF93DF93EC01888D8823B9F0AF
:1007A000AA89BB89E889F9898C9185FD03C080817C
:1007B00086FD0DC00FB607FCF7CF8C9185FFF2CFF9
:1007C000808185FFEDCFCE010E945B03E9CFDF91F1
:1007D000CF91089580E090E0892B29F00E94510389
:1007E00081110E94000080E090E0892B49F080E0B8
:1007F00090E0892B29F00E94000081110E940000E6
:1008000080E090E0892B49F080E090E0892B29F08E
:100810000E94000081110E94000080E090E0892B7E
:1008200049F080E090E0892B29F00E9400008111BE
:100830000C9400000895BF92CF92DF92EF92FF9246
:100840000F931F93CF93DF9308EA17E08EE0E82E13
:1008500082E0F82E98EAC92E97E0D92EF801B080F0
:100860000E5F1F4F60E08B2D0E940702D0E0C0E0BA
:10087000F701EC0FFD1F80819181019739F461E050
:10088000FE01E856F84F80810E9407022296C0318F
:10089000D10571F761E070E080E090E00E94A8026D
:1008A00061E08B2D0E940702C8E9D7E0888122967B
:1008B00060E00E940702CC16DD06C1F7F0E1EF0E02
:1008C000F11C87E0083B180749F6DF91CF911F9193
:1008D0000F91FF90EF90DF90CF90BF90089585E348
:1008E0009FE030E020E0F901EE0FFF1FE80FF91F55
:1008F000118210822F5F3F4F20313105A1F7809682
:1009000020E18533920769F70895CF93DF93E5E2FD
:10091000FFE085E39FE0A1E0B0E0619170E0AC0111
:1009200030E020E040525109261737073CF4EA0135
:10093000D395B983A8832F5F3F4FF4CF02962FE062
:10094000E533F20751F7DF91CF91089520914010E0
:1009500030E040913D10D90154E0AA0FBB1F5A95D9
:10096000E1F7FD01E40FF11DEE0FFF1FEB5CF04F0F
:1009700011821082E0913E10EA0FFB2FF11DEE0F65
:10098000FF1FEB5CF04F11821082E0913F10AE0F21
:10099000B11DAA0FBB1FAB5CB04F1D921C92215022
:1009A000310980913B1090913C10892B09F0E42F84
:1009B00084E0220F331F8A95E1F7E20FF32FF11D38
:1009C000EE0FFF1FEB5CF04F118210820895CF9263
:1009D000DF92EF92FF920F931F93CF93DF931F92BB
:1009E0001F92CDB7DEB769834A83880F991F0091A4
:1009F000451110914611000F111FEFEEF0E19F011C
:100A00002F5E30412017310714F41192F8CF29815D
:100A1000FC01E151FF4E21838A81808360E0809157
:100A200043110E9407021016110604F50150110926
:100A3000F801E151FF4EE080D0904111C0903F118C
:100A400088E0F82E6E2D661F6627661F8C2D0E948B
:100A50000702EE0C61E08D2D0E94070260E08D2DF3
:100A60000E940702FA94F110EDCFDDCF61E0809192
:100A700043110F900F90DF91CF911F910F91FF9035
:100A8000EF90DF90CF900C940702EF92FF920F93BC
:100A90001F93CF937C018C0183E0000F111F8A9577
:100AA000E1F701501F4EC1E0F80111928F0140E0C3
:100AB0006C2FC7010E94E704CF5FC930A9F7CF911F
:100AC0001F910F91FF90EF900895EF92FF920F9377
:100AD0001F93CF93DF938091451190914611181683
:100AE000190624F490E080E00E944505C8E9D7E0AB
:100AF00088EBE82E87E0F82E8881229661E00E943C
:100B0000070208EA17E0F80180810E5F1F4F60E0DE
:100B10000E940702E016F106B1F7F7E0C83ADF07D6
:100B200059F7DF91CF911F910F91FF90EF900895AA
:100B30002F923F924F925F926F927F928F929F92ED
:100B4000AF92BF92CF92DF92EF92FF920F931F93DB
:100B5000CF93DF9300D01F92CDB7DEB738E9632E75
:100B600037E0732E2FEE30E13C832B836C012B0199
:100B700031E0398340E8242E312CF301F081FA83EF
:100B800022E0620E711C61E08F2F0E94070228EAAA
:100B9000E22E27E0F22E5701420110E000E0F501BD
:100BA0008081F2E0AF0EB11CF4012081318160E060
:100BB0002130310509F061E00E9407028091451162
:100BC000909146111816190604F5C101002E02C0B5
:100BD000959587950A94E2F7EB81FC812089F801CD
:100BE000EE0FFF1FEC0DFD1D40815181452B09F4D7
:100BF00053C0822BEB81FC81808BEB81FC8140898F
:100C0000698190E080E00E94E7040F5F1F4FF0E1F0
:100C10008F0E911C0830110511F661E070E080E044
:100C200090E00E94A80260E08A810E940702F7011A
:100C30008081F2E0EF0EF11C61E00E94070228EBD8
:100C400037E02E153F0599F78B819C8101969C8397
:100C50008B8399819F5F9983E0E1CE0ED11CF2E0F6
:100C60004F0E511C993009F088CF0F900F900F90C4
:100C70000F90DF91CF911F910F91FF90EF90DF9038
:100C8000CF90BF90AF909F908F907F906F905F902C
:100C90004F903F902F90089580958223ABCF6F9215
:100CA0007F928F929F92AF92BF92CF92DF92EF92FC
:100CB000FF920F931F93CF93DF93CDB7DEB7DA95F3
:100CC0000FB6F894DEBF0FBECDBF9C015B01942E22
:100CD000EAE0F0E0BF010E94D8146C01C9018C1950
:100CE0009D09BF010E94D8149B013695322F2227FF
:100CF0003795279522573D4F40E15DE0C61AD70A48
:100D0000D694DC2CCC24D794C7943A0170E060E0F0
:100D100089010C0D1D1DF30190E080E07901683020
:100D200071050CF07801E80EF91ED701ED90FC90EA
:100D3000F182E082B09640968038910579F76F5F36
:100D40007F4F2E5F3F4FB2E06B0E711C603171051B
:100D5000F9F680E88E010F5F1F4FF801982F11926E
:100D60009A95E9F77E01A1E8EA0EF11CF7011192CC
:100D70008A95E9F7B801F70190E080E030E020E0E3
:100D8000DA01A80FB91FCD90DC90DB01A80FB91FC5
:100D90002830310524F0DC015097AE0FBF1FCD92F3
:100DA000DC922F5F3F4F02962031310549F7605F9B
:100DB0007F4F7096405E5F4F6E157F05E9F691108C
:100DC00013C088E28A9D40018B9D900C1124D12C88
:100DD000C12CB701C8010E949805FFEFCF1ADF0AA6
:100DE0008C149D04B1F703C0C8010E949805D395E7
:100DF0000FB6F894DEBF0FBECDBFDF91CF911F912C
:100E00000F91FF90EF90DF90CF90BF90AF909F90A9
:100E10008F907F906F900895AF92BF92CF92DF92A4
:100E2000EF92FF920F931F93CF93DF93CDB7DEB76F
:100E3000DA950FB6F894DEBF0FBECDBF20E8CE0125
:100E40000196DC01E22F1D92EA95E9F75E01F1E8D7
:100E5000AF0EB11CD5011D922A95E9F7BC018501A1
:100E6000A5E3BFE030E020E050E040E07D01E20E8D
:100E7000F31EF701C080D1807B01E20EF31E4830E3
:100E8000510534F07901F0E1EF1AF108E00EF11E9E
:100E9000F701D182C0824F5F5F4F2E5F3F4F4031DD
:100EA000510521F7605F7F4F005F1F4F90966A15D5
:100EB0007B05C1F60E949805D3950FB6F894DEBF66
:100EC0000FBECDBFDF91CF911F910F91FF90EF909B
:100ED000DF90CF90BF90AF900895BF92CF92DF92F6
:100EE000EF92FF920F931F93CF93DF9300913F10E8
:100EF000E02EF12CF701EB5DF04F4081C0913E10E8
:100F0000D0E010913D10C12ED12C41110DC0FE0139
:100F1000EB5DF04F8081811107C0F601EB5DF04F72
:100F20008081882309F483C0B09040102B2D30E0DD
:100F300088E090E0BC01641B710926173707A4F410
:100F4000FE01EB5DF04F4081BC01641B7109261767
:100F5000370754F4F601EB5DF04F4081841B910993
:100F6000281739070CF463C08091371081110DC028
:100F7000109246101092351091E090930502109255
:100F800048101092361010924710815080933710FD
:100F90000E94A604BA94BA94B09240108B2D90E0AF
:100FA0009C0144E0220F331F4A95E1F7F901EC0D53
:100FB000FD1DEE0FFF1FEB5CF04F41E050E0518351
:100FC0004083C20FD31FCC0FDD1FCB5CD04F5983A2
:100FD0004883F901EE0DFF1DEE0FFF1FEB5CF04F94
:100FE00051834083FC01319780913B1090913C10DC
:100FF000892B09F4102F84E0EE0FFF1F8A95E1F78B
:10100000E10FF11DEE0FFF1FEB5CF04F81E090E070
:10101000918380830E948504DF91CF911F910F916E
:10102000FF90EF90DF90CF90BF900C940C07DF9172
:10103000CF911F910F91FF90EF90DF90CF90BF90D5
:101040000895FC0101900020E9F73197AF01481B9A
:10105000590BBC0182E590E10C94E7028F929F92BC
:10106000AF92BF920F931F93CF93DF93CDB7DEB7AD
:10107000A1970FB6F894DEBF0FBECDBF19A24230C4
:1010800008F44AE08E010F5D1F4F842E912CB12C85
:10109000A12CA50194010E94F812E62FB901CA0102
:1010A000EA30F4F4E05DD801EE938D01232B242B7C
:1010B000252B79F790E080E0109719F0CD010E9480
:1010C0002108A1960FB6F894DEBF0FBECDBFDF9109
:1010D000CF911F910F91BF90AF909F908F900895E7
:1010E000E95CE1CFCF92DF92EF92FF92CF93DF9353
:1010F0006B017C016DE282E590E10E947D03EC01D1
:1011000066277727CB016C197D098E099F094AE074
:101110000E942E088C0F9D1FDF91CF91FF90EF90C2
:10112000DF90CF900895BC01990F880B990B97FD24
:101130000C9472084AE00C942E08CF93DF930E941F
:101140002108EC018AE49CE00E9421088C0F9D1F7D
:10115000DF91CF910895DF92EF92FF920F931F934B
:10116000CF93DF938C3661F410923C1010923B10B9
:10117000DF91CF911F910F91FF90EF90DF90089535
:10118000823739F481E090E090933C1080933B10DB
:10119000EFCF8B3609F078C0F0904610FF2009F4AD
:1011A00065C010920E0D10920D0DE12CD12C83E034
:1011B0000E94DE010197C9F500910D0D10910E0DF1
:1011C000E8012196D0930E0DC0930D0D64E670E0FA
:1011D00080E090E00E94A8028091371041E061E039
:1011E00070E090E00E944F06CE31D1054CF0CE0168
:1011F0000E9493088DE49CE00E949D08DF2CD7CFCD
:1012000003511109CE010A30110540F40E949308E0
:101210008FE59CE00E949D08EF2CC9CF0E949308A7
:1012200081E79CE00E949D08C2CFDD2091F01092E2
:101230004610109235101092050281E080934810FC
:10124000109236101092471010920E0D10920D0D44
:101250008FCFEE2009F48CCF1092461081E080935E
:1012600035101092050210924810EACF81E0809369
:1012700046101092351010920502109248101092EC
:1012800036101092471074CF833709F071CF8091D8
:10129000411081116DCF81E080934110E0913E10AB
:1012A000E0930B0D9091401090930C0DF0E0EB5DEE
:1012B000F04F9081992309F45BCF80930A0D58CFAA
:1012C000CF93DF93BC01990F880B990B97FF0CC04C
:1012D0000E947208EC018AE49CE00E9421088C0FB5
:1012E0009D1FDF91CF9108954AE00E942E08F2CF12
:1012F000CF93DF9386E00E94DE01019709F4CEC010
:1013000087E00E94DE01019709F4CAC084E00E94D0
:10131000DE01019791F580910502882319F18091F2
:10132000481081111FC08091361081111BC080911F
:101330004710811117C083E89CE00E949D088091AE
:101340000F0D811111C087E99CE00E949D0881E08A
:1013500080930F0D80931C0E62E370E080E090E0BC
:101360000E94A80283E714C081EA9CE00E949D08C5
:1013700010920F0D10921C0EEFCF83E00E94DE0141
:10138000019709F085C080914610882321F08BE6F3
:10139000DF91CF910895C0910D0DD0910E0D219642
:1013A000D0930E0DC0930D0D62E370E080E090E0ED
:1013B0000E94A802CE010E94600980910D0D9091BB
:1013C0000E0D4E9724F3809105028823E9F0809159
:1013D0004810811119C080913610811115C080917B
:1013E0004710811111C089EA9CE00E949D0810926B
:1013F000050281E080934810109236101092471039
:1014000010920E0D10920D0D8091050281111DC0DC
:1014100080914810811119C0809136108823A9F05D
:1014200080914710811111C089EA9CE00E949D08BB
:101430001092050281E080934810109236101092AD
:10144000471010920E0D10920D0D80910502811122
:101450009ECF8091481081119ACF809136108111D2
:1014600096CF80914710882309F491CF8EEA9CE0B3
:101470000E949D081092050281E08093481010920E
:1014800036101092471010920E0D10920D0D7FCF56
:1014900010920E0D10920D0D80E27ACF82E778CF78
:1014A0008CE676CF9F92AF92BF92CF92DF92EF926F
:1014B000FF920F931F93CF93DF93912CC82FD0E00F
:1014C000219680E1C82ED12C04E010E0A92CB12C8B
:1014D000CA15DB05BCF00E9413127C010E94131296
:1014E000B6010E94D814FC01FF27EB5DF04F80810C
:1014F0008111EECFC701B8010E94D8148F5F80839D
:101500009394E4CF0E946F04DF91CF911F910F91CC
:10151000FF90EF90DF90CF90BF90AF909F900C9492
:1015200085040F931F93CF93DF930E94A60400912D
:101530003B1010913C1060913D10C8010E94680161
:10154000C82F80933D1060913E10C8010E94680131
:10155000D82F80933E1060913F10C8010E9468010F
:1015600080933F10E0914010F0E09F0194E0220F43
:10157000331F9A95E1F7D901AC0FB11DAA0FBB1F1C
:10158000AB5CB04F41E050E04D935C93D901AD0F9F
:10159000B11DAA0FBB1FAB5CB04F4D935C93D9013B
:1015A000A80FB11DAA0FBB1FAB5CB04F4D935C934E
:1015B0003197012B09F4C82F14E0EE0FFF1F1A9585
:1015C000E1F7EC0FF11DEE0FFF1FEB5CF04F81E038
:1015D00090E0918380830E946D070E94DB0200915E
:1015E0004210109143102091441030914510601B1F
:1015F000710B820B930B693E73408105910508F4D2
:1016000058C00E94DB026093421070934310809395
:101610004410909345100E94A6048091401087309A
:1016200008F086E08F5F8093401090E0E0913D10DD
:101630009C0174E0220F331F7A95E1F7D901AE0FB8
:10164000B11DAA0FBB1FAB5CB04F41E050E04D9302
:101650005C93A0913E10A20FB32FB11DAA0FBB1F28
:10166000AB5CB04F4D935C9360913F10D901A60FD6
:10167000B11DAA0FBB1FAB5CB04F4D935C9301979C
:1016800020913B1030913C10232B09F4E62F54E0BD
:10169000880F991F5A95E1F7E80FF92FF11DEE0F0A
:1016A000FF1FEB5CF04F81E090E0918380830E940C
:1016B0006D070E940C0780914110882309F490C0A7
:1016C000E0910C0D6E2F70E020910B0D30E0DB01EE
:1016D00094E0AA0FBB1F9A95E1F7A20FB31FAA0FC0
:1016E000BB1FAB5CB04F1D921C92D901AB5DB04FDC
:1016F0008C91882349F047E050E0461B570B841734
:10170000150611F481508C93EF5FE0930C0DE830D7
:1017100008F46CC080910A0D8823A1F090913A10D2
:10172000809139108F5F809339109F5F90933A10AA
:1017300065E00E94CC14911105C0809137108F5F35
:10174000809337101092411010920A0DC0913810FA
:1017500020913A108C2F90E002962817190609F074
:101760003FC00E946F04E5E2FFE011928FE0E53395
:10177000F807D9F710923C1010923B1082E080934A
:101780003D1081E080933E1010923F1080934010F6
:1017900010923A10CE3008F0CDE0CF5FC0933810F1
:1017A00040E062E070E08C2F90E00E944F0681E004
:1017B00090E090935A0F8093590F9093580F809315
:1017C000570F9093560F8093550F9093360F809339
:1017D000350F8C2F0E94520A0E9485040E94910AA4
:1017E000DF91CF911F910F910C940C0780E1E89F3E
:1017F000F0011124E20FF31FEE0FFF1FEB5CF04F1F
:1018000081E090E091838083EBCF1F920F920FB61F
:101810000F9211242F933F938F939F93AF93BF9376
:1018200080914A1090914B10A0914C10B0914D10A6
:101830003091491023E0230F2D3758F50196A11D53
:10184000B11D2093491080934A1090934B10A093A0
:101850004C10B0934D1080914E1090914F10A0916C
:101860005010B09151100196A11DB11D80934E10E2
:1018700090934F10A0935010B0935110BF91AF911F
:101880009F918F913F912F910F900FBE0F901F90BE
:10189000189526E8230F0296A11DB11DD2CF1F92E5
:1018A0000F920FB60F9211240BB60F922F933F9306
:1018B0004F935F936F937F938F939F93AF93BF9358
:1018C000EF93FF9382E590E10E945B03FF91EF911C
:1018D000BF91AF919F918F917F916F915F914F9148
:1018E0003F912F910F900BBE0F900FBE0F901F9046
:1018F00018951F920F920FB60F9211240BB60F92EC
:101900002F938F939F93EF93FF93E0916210F09149
:1019100063108081E0916810F091691082FD1DC014
:10192000908180916B108F5F8F7320916C10821764
:1019300041F0E0916B10F0E0EE5AFF4E958F8093EE
:101940006B10FF91EF919F918F912F910F900BBE94
:101950000F900FBE0F901F9018958081F2CFCF93FC
:10196000DF93109255101092541088EE93E0A0E08F
:10197000B0E08093561090935710A0935810B093F6
:1019800059108CE39CE0909353108093521085EC97
:1019900090E090935F1080935E1084EC90E09093C1
:1019A00061108093601080EC90E0909363108093BE
:1019B000621081EC90E0909365108093641082EC4B
:1019C00090E0909367108093661086EC90E090937F
:1019D00069108093681010926B1010926C10109226
:1019E0006D1010926E10C3E3D0E0D0934011C093FD
:1019F0003F1185E390E0909342118093411184E37D
:101A000090E0909344118093431181E090E0909393
:101A100046118093451161E083E30E94350261E045
:101A2000809141110E94350261E0809143110E9432
:101A3000350261E0809143110E940702D09340116A
:101A4000C0933F11EFEFF0E1119281E1EF33F8071E
:101A5000D9F7D0E0C0E08091451190914611C817A8
:101A6000D90774F540E06FE0CE010E94E704809151
:101A7000451190914611C817D9072CF447E06BE047
:101A8000CE010E94E70440E069E0CE010E94E70435
:101A90008091451190914611C817D9071CF4CE01C9
:101AA0000E9445058091451190914611C817D907AC
:101AB0002CF440E06CE0CE010E94E7042196CBCFED
:101AC000DF91CF910895789484B5826084BD84B508
:101AD000816084BD85B5826085BD85B5816085BD29
:101AE00080916E00816080936E00109281008091E1
:101AF0008100826080938100809181008160809369
:101B00008100809180008160809380008091B1008D
:101B100084608093B1008091B00081608093B000B8
:101B2000809191008260809391008091910081600A
:101B300080939100809190008160809390008091CB
:101B4000A10082608093A1008091A10081608093B8
:101B5000A1008091A00081608093A000809121016C
:101B60008260809321018091210181608093210115
:101B70008091200181608093200180917A008460AF
:101B800080937A0080917A00826080937A008091BD
:101B90007A00816080937A0080917A0080688093D7
:101BA0007A001092C100E0916210F091631082E01F
:101BB0008083E0915E10F0915F101082E0916010E0
:101BC000F09161108FEC808310926A10E0916610A2
:101BD000F091671086E08083E0916410F0916510C9
:101BE000808180618083E0916410F0916510808134
:101BF00088608083E0916410F09165108081806836
:101C00008083E0916410F091651080818F7D8083E6
:101C100080E00E946602BC01990F880B990B611548
:101C200071058105910511F00E94BD12C8E9D7E048
:101C30007E0108EA17E0F80180810E5F1F4F61E026
:101C40000E943502F7018081F2E0EF0EF11C61E0A5
:101C50000E94350227E0083B120769F78091451181
:101C6000909146111816190634F441E06CE090E0AA
:101C700080E00E94E704809145119091461118166A
:101C8000190634F448E06AE090E080E00E94E7043E
:101C900080914511909146111816190624F490E090
:101CA00080E00E9445058881229660E00E9407023C
:101CB00008EA17E0F80180810E5F1F4F61E00E9483
:101CC0000702F7E0083B1F07A9F707E0C83AD0076B
:101CD00051F760E086E00E94350260E087E00E94F4
:101CE000350260E084E00E94350260E083E00E94FB
:101CF00035020EE817E0C0E1DEE07E0184E6882EC2
:101D0000912CA12CB12CF801619171918F01072EBA
:101D1000000C880B990B0E94D31320E030E040E4C4
:101D200050E40E94291320E030E048EC52E40E9485
:101D30005F140E949B139B01AC01A7E0B0E00E94DE
:101D4000E512A50194010E94C6122F5F3F4F4F4F2D
:101D50005F4FF701219331937F01F7E008391F07A7
:101D600091F683E29EE030E020E0F901EE0FFF1FE4
:101D7000E80FF91F118210822F5F3F4F203131058C
:101D8000A1F780960FE08332900769F790E080E03A
:101D900067E070E0A1E0B0E02991399121153105AB
:101DA00091F0FC01EB5FF04F47E050E08B01021B2C
:101DB000130B041715070CF0D8C2B183A083415050
:101DC0005109B097F6CF06968E31910529F7C1E0FB
:101DD000D0E044244394512C80910502882309F4D7
:101DE000ADC08AEB9CE00E949D080E9478090E9489
:101DF000DB026B017C01F5E36F2EFFE07F2E312CBF
:101E0000212C0091210E1091220E30E020E0B8012B
:101E1000620D731DFB01E20FF31FE854F84F408180
:101E2000C901880F991F860D971DFC01411169C0DA
:101E3000118210822F5F3F4F2031310559F780907A
:101E4000010290900202A0900302B0900402C5012A
:101E5000B40124E630E040E050E00E94F812CA01EC
:101E6000B9010E94A802F0E26F0E711C20E8220E58
:101E7000311C211434E0330621F680911D0E90911F
:101E80001E0EA0911F0EB091200EA7019601281BD7
:101E9000390B4A0B5B0BDA01C90188169906AA06B1
:101EA000BB0600F5C0921D0ED0921E0EE0921F0ED2
:101EB000F092200E20911C0E80911A0E90911B0E14
:101EC000222341F10F371105F9F00F5F1F4F1093D7
:101ED000220E0093210E0097D1F0019790931B0ED4
:101EE00080931A0E0E940C070E946F0460910102F9
:101EF0007091020280910302909104020E94A80254
:101F0000C0C1D183C08396CF10E000E0E0CF8EE760
:101F100090E0E4CF0115110559F00150110910931B
:101F2000220E0093210E8F37910529F00196D6CF0E
:101F30000EE710E0F4CF90E080E0D0CF7090481032
:101F4000772009F4F6C085EC9CE00E949D08809102
:101F5000230F9091240F892B09F50E9465050E949B
:101F60001B040E941B040E941B046AE070E080E0D6
:101F700090E00E94A8025092240F4092230F0E94EA
:101F800078098C3609F04EC08DEC9CE00E949D08CB
:101F90001092481031E030933610A8CF0E94DB0237
:101FA00005E31FE068EBE62E6BE0F62E74E6872E65
:101FB000912CA12CB12C30E020E0F701E20FF31FAF
:101FC0004081C901880F991F800F911FFC014111A9
:101FD00026C0118210822F5F3F4F2031310569F7F3
:101FE00060910102709102028091030290910402BB
:101FF000A50194010E94F812CA01B9010E94A80229
:10200000005E1F4FF0E1EF0EF11C25E330E12017D9
:10201000310789F60E940C070E946F04B0CFD1836C
:10202000C083D9CF0E947809833709F073C083ED4C
:102030009CE00E949D08612C812C912C54010E94EF
:10204000DB0205E31FE033E2E32E3EE0F32E90E0F7
:1020500080E0F701E80FF91F20813181F801E80FD6
:10206000F91F232B69F511821082029680329105A7
:1020700081F761E070E080E090E00E94A802005EDD
:102080001F4F40E2E40EF11C85E390E180179107B9
:10209000F1F60E940C070E946F040E94DB026B01A4
:1020A0007C0183E00E94DE01019741F461100BC0C6
:1020B0000E94DB024B015C01672CC1CF612CBFCFBA
:1020C000D183C083D2CFC818D908EA08FB0890EFA3
:1020D000C91A9AE0D90AE108F108E5EFCE16E1E065
:1020E000DE06E104F10408F0AACF82E00E94DE01DE
:1020F000892B09F0A4CF0E946F0464E670E080E0B1
:1021000090E00E94A80266E970E080E090E00E9402
:10211000A802ECCE0E947809823709F0E7CE89ED5B
:102120009CE00E949D0810924810F1E0F093471047
:10213000DDCE80914710882309F48FC082EE9CE0A9
:102140000E949D0861E070E080E090E00E94A8029B
:102150000E9478090E94DB0286E30E9466029C01CD
:10216000A8EDBFEF0E94F41428EE33E040E050E009
:102170000E94C612DA01C9018896A11DB11D8C0109
:1021800097FF02C00D5F1F4F159507951595079591
:10219000119501951109065F1F4F809301029093DD
:1021A0000202A0930302B09304028EE30E9466022F
:1021B00027E030E0DC010E94FC1428EE33E040E030
:1021C00050E00E94C612BA01A9014D5F5F4F6F4FE8
:1021D0007F4FDA014093000265E37FE04FEF5FEF4E
:1021E0002BEF3FEF90E080E0FC01EE0FFF1FE60FCA
:1021F000F71F118210824230510528F48017910791
:1022000014F4D183C0832230310528F48A179B0748
:1022100014F4D183C08301968031910529F7605E63
:102220007F4F2F5F3F4F4F5F5F4F23303105D1F618
:10223000C8010E94600960910102709102028091C0
:102240000302909104024AE00E942E088AE49CE076
:102250000E9421080E940C0749CE809146108823D5
:1022600099F08CEE9CE00E949D088091371041E02F
:1022700061E070E090E00E944F060E9478090E94A1
:10228000AB080E94EA03A8CD80913610882309F498
:1022900056C085EF9CE00E949D080E946F04E5E215
:1022A000FFE011920FE0E533F007D9F780910002CB
:1022B0008093371010923C1010923B1012E0109354
:1022C0003D1021E020933E1010923F1020934010CB
:1022D00010923A1010923910109241102093381039
:1022E0000E94DB026093421070934310809344106D
:1022F0009093451050925A0F4092590F5092580F98
:102300004092570F5092560F4092550F5092360FF1
:102310004092350F81E00E94520A0E94850480910C
:10232000381040E062E070E090E00E944F060E94AA
:10233000910A1092361031E030933510D7CD80914C
:102340003510882309F4D2CD81E09DE00E949D08DC
:102350000E9465050E94910A0E9478090E94AB08BC
:1023600061E070E080E090E0D2CEFC01E95FF04FE8
:1023700047E050E08B01021B130B9801241735072F
:102380000CF021CDB183A08341505109B097F6CF15
:102390008F929F92AF92BF92CF92DF92EF92FF9275
:1023A000CF93DF93EC01688179818A819B816115EC
:1023B00071058105910521F464E279ED8BE597E0E3
:1023C0002DE133EF41E050E00E94C61249015A016D
:1023D0009B01AC01A7EAB1E40E94E5126B017C010C
:1023E000ACEEB4EFA50194010E94F312DC01CB0125
:1023F0008C0D9D1DAE1DBF1DB7FF03C00197A10928
:10240000B04888839983AA83BB839F77DF91CF915C
:10241000FF90EF90DF90CF90BF90AF909F908F9004
:1024200008950C94C81186E092E00C94C811B0E0B5
:10243000A0E08093060290930702A0930802B09355
:10244000090208958F929F92AF92BF92CF92DF922E
:10245000EF92FF92CF93DF93EC01688179818A81BB
:102460009B81611571058105910521F464E279ED87
:102470008BE597E02DE133EF41E050E00E94C6127A
:1024800049015A019B01AC01A7EAB1E40E94E5129F
:102490006B017C01ACEEB4EFA50194010E94F31234
:1024A000C60ED71EE81EF91EF7FE06C081E0C81A48
:1024B000D108E10880E8F80AC882D982EA82FB8262
:1024C000C701B6019F77DF91CF91FF90EF90DF902A
:1024D000CF90BF90AF909F908F9008958F929F92D2
:1024E000AF92BF92CF92DF92EF92FF9260910A0279
:1024F00070910B0280910C0290910D026115710593
:102500008105910521F464E279ED8BE597E02DE1F9
:1025100033EF41E050E00E94C61249015A019B018D
:10252000AC01A7EAB1E40E94E5126B017C01ACEEBC
:10253000B4EFA50194010E94F312C60ED71EE81E47
:10254000F91EF7FE06C081E0C81AD108E10880E84C
:10255000F80AC0920A02D0920B02E0920C02F092AA
:102560000D02C701B6019F77FF90EF90DF90CF90EB
:10257000BF90AF909F908F90089560930A027093E0
:102580000B0280930C0290930D020895052E97FB89
:102590001EF400940E94DD1257FD07D00E94F8122D
:1025A00007FC03D04EF40C94DD1250954095309505
:1025B00021953F4F4F4F5F4F0895909580957095AF
:1025C00061957F4F8F4F9F4F08950E941A13A59FCB
:1025D000900DB49F900DA49F800D911D112408951E
:1025E000B7FF0C94E5120E94E512821B930B08952D
:1025F000A1E21A2EAA1BBB1BFD010DC0AA1FBB1F07
:10260000EE1FFF1FA217B307E407F50720F0A21B78
:10261000B30BE40BF50B661F771F881F991F1A94E5
:1026200069F760957095809590959B01AC01BD010F
:10263000CF010895A29FB001B39FC001A39F700D69
:10264000811D1124911DB29F700D811D1124911DBA
:1026500008950E943D130C9425140E941E1458F0F6
:102660000E94171440F029F45F3F29F00C940E14D7
:1026700051110C9459140C9414140E94361468F3DC
:102680009923B1F3552391F3951B550BBB27AA272B
:1026900062177307840738F09F5F5F4F220F331F65
:1026A000441FAA1FA9F335D00E2E3AF0E0E832D02D
:1026B00091505040E695001CCAF72BD0FE2F29D030
:1026C000660F771F881FBB1F261737074807AB0702
:1026D000B0E809F0BB0B802DBF01FF2793585F4F77
:1026E0003AF09E3F510578F00C940E140C94591456
:1026F0005F3FE4F3983ED4F3869577956795B79559
:10270000F7959F5FC9F7880F911D9695879597F963
:102710000895E1E0660F771F881FBB1F62177307DC
:102720008407BA0720F0621B730B840BBA0BEE1FF1
:1027300088F7E09508950E94A2136894B1110C9453
:10274000591408950E943E1488F09F5798F0B92FAD
:102750009927B751B0F0E1F0660F771F881F991FD6
:102760001AF0BA95C9F714C0B13091F00E9458140C
:10277000B1E008950C945814672F782F8827B85F1C
:1027800039F0B93FCCF3869577956795B395D9F72E
:102790003EF490958095709561957F4F8F4F9F4F38
:1027A0000895E89409C097FB3EF490958095709544
:1027B00061957F4F8F4F9F4F9923A9F0F92F96E98D
:1027C000BB279395F695879577956795B795F11102
:1027D000F8CFFAF4BB0F11F460FF1BC06F5F7F4F9F
:1027E0008F4F9F4F16C0882311F096E911C07723B1
:1027F00021F09EE8872F762F05C0662371F096E8BA
:10280000862F70E060E02AF09A95660F771F881F88
:10281000DAF7880F9695879597F9089597F99F6746
:1028200080E870E060E008959FEF80EC0895002458
:102830000A941616170618060906089500240A9425
:1028400012161306140605060895092E0394000CAB
:1028500011F4882352F0BB0F40F4BF2B11F460FF3A
:1028600004C06F5F7F4F8F4F9F4F089557FD905863
:10287000440F551F59F05F3F71F04795880F97FB44
:10288000991F61F09F3F79F08795089512161306FE
:102890001406551FF2CF4695F1DF08C0161617062D
:1028A0001806991FF1CF8695710561050894089562
:1028B000E894BB2766277727CB0197F908950E94F4
:1028C00072140C9425140E94171438F00E941E14E0
:1028D00020F0952311F00C940E140C941414112470
:1028E0000C9459140E94361470F3959FC1F3950F00
:1028F00050E0551F629FF001729FBB27F00DB11D84
:10290000639FAA27F00DB11DAA1F649F6627B00D13
:10291000A11D661F829F2227B00DA11D621F739FFC
:10292000B00DA11D621F839FA00D611D221F749F0A
:102930003327A00D611D231F849F600D211D822F51
:10294000762F6A2F11249F5750409AF0F1F0882378
:102950004AF0EE0FFF1FBB1F661F771F881F9150A5
:102960005040A9F79E3F510580F00C940E140C9432
:1029700059145F3FE4F3983ED4F3869577956795B5
:10298000B795F795E7959F5FC1F7FE2B880F911DCF
:102990009695879597F90895991B79E004C0991F3A
:1029A000961708F0961B881F7A95C9F780950895A9
:1029B00097FB072E16F4009407D077FD09D00E94EC
:1029C000031507FC05D03EF4909581959F4F08951F
:1029D000709561957F4F0895EE0FFF1F881F8BBF85
:1029E0000790F691E02D19940E941A13332312F4E4
:1029F0008A1B9B0B0C94FE140E941A13B7FF0895B8
:102A0000821B930B0895AA1BBB1B51E107C0AA1F91
:102A1000BB1FA617B70710F0A61BB70B881F991F7F
:102A20005A95A9F780959095BC01CD010895F89429
:022A3000FFCFD6
:102A32000328000000010100000001000000000066
:102A42000000000000000000000000000000000084
:102A52000000000000000000000000000000000074
:102A62000000000000000000000000000000000064
:102A72000000000000000000000000000000000054
:102A82000000000000000000000000000000000044
:102A92000000000000000000000000000000000034
:102AA2000000000000000000000000000000000024
:102AB2000000000000000000000000000000000014
:102AC2000000010001000100000000000000000001
:102AD20001000000000000000100000000000000F2
:102AE20001000000000000000100000000000000E2
:102AF20001000000000000000100000000000000D2
:102B020001000000000000000100000000000000C1
:102B120001000000000000000100000000000000B1
:102B220001000000000000000100000000000000A1
:102B32000000010001000100000000000000000090
:102B42000000000001000000000000000000000082
:102B52000000010001000000000000000000000071
:102B62000000000001000000000000000000000062
:102B72000000000001000000000000000000000052
:102B82000000000001000000000000000000000042
:102B92000000000001000000000000000000000032
:102BA2000000000001000000000000000000000022
:102BB2000000010001000100000000000000000010
:102BC2000000000000000000000000000000000003
:102BD20000000100010001000000000000000000F0
:102BE20001000000000000000100000000000000E1
:102BF20000000000000001000000000000000000D2
:102C020000000000010000000000000000000000C1
:102C120000000100000000000000000000000000B1
:102C2200010001000100010001000000000000009D
:102C32000000000000000000000000000000000092
:102C42000000000000000000000000000000000082
:102C5200000001000100010000000000000000006F
:102C62000100000000000000010000000000000060
:102C72000000000000000000010000000000000051
:102C82000000000001000100000000000000000040
:102C92000000000000000000010000000000000031
:102CA2000100000000000000010000000000000020
:102CB200000001000100010000000000000000000F
:102CC2000000000000000000000000000000000002
:102CD20001000000000000000100000000000000F0
:102CE20001000000000000000100000000000000E0
:102CF20001000100010001000100010000000000CC
:102D020000000000000000000100000000000000C0
:102D120000000000000000000100000000000000B0
:102D220000000000000000000100000000000000A0
:102D32000000000000000000000000000000000091
:102D42000000000000000000000000000000000081
:102D5200010001000100010001000100000000006B
:102D62000100000000000000000000000000000060
:102D7200010001000100010000000000000000004D
:102D82000000000000000000010000000000000040
:102D92000000000000000000000001000000000030
:102DA2000000000000000000010000000000000020
:102DB200010001000100010000000000000000000D
:102DC2000000000000000000000000000000000001
:102DD20000000100010001000000000000000000EE
:102DE20001000000000000000000000000000000E0
:102DF20001000000010001000100000000000000CD
:102E020001000100000000000000010000000000BD
:102E120001000000000000000000010000000000AE
:102E2200000001000100010001000000000000009C
:102E32000000000000000000000000000000000090
:102E42000000000000000000000000000000000080
:102E5200010001000100010001000100000000006A
:102E6200000000000000000000000100000000005F
:102E7200000000000000000001000000000000004F
:102E8200000000000000010000000000000000003F
:102E9200000000000100000000000000000000002F
:102EA200000001000000000000000000000000001F
:102EB2000000000000000000000000000000000010
:102EC2000000000000000000000000000000000000
:102ED20001000100010001000100010000000000EA
:102EE20001000000000000000000010000000000DE
:102EF20001000000000000000000010000000000CE
:102F020001000100010001000100010000000000B9
:102F120001000000000000000000010000000000AD
:102F2200010000000000000000000100000000009D
:102F32000100010001000100010001000000000089
:102F4200000000000000000000000000000000007F
:102F52000100010001000100010001000000000069
:102F6200010000000000000000000100000000005D
:102F72000100010001000100010001000000000049
:102F8200000000000000000000000100000000003E
:102F9200000000000000000000000100000000002E
:102FA200000000000000000000000100000000001E
:102FB200000000000000000000000000000002000D
:102FC20001000000000000002A002900280027005C
:102FD20026002500240023003200310030002F009B
:102FE2002E002D002C002B0000000000000000002D
:102FF20000000000000000000000000000000000CF
:1030020000000000000000000000000000000000BE
:1030120000000000000000000000000000000000AE
:10302200000000000000000000000000000000009E
:10303200000000000000000000000000000000008E
:10304200000000000000000000000000000000007E
:10305200000000000000000000000000000000006E
:10306200000000000000000000000000000000005E
:103072000101010100000001010100000000010046
:10308200000000000000000000000000010101013A
:103092000100000000000000000101010000000129
:1030A2000101000000010101000000010101000016
:1030B2000000010000000000000001010101000009
:1030C20001000000010001010101000000010101F5
:1030D20000000000000000000001010100000000EB
:1030E20001000100000000000000010101010000D8
:1030F20001000000010001000000010001010100C7
:1031020000000000000000000000000000000100BC
:1031120000000000000000000100000001000100AA
:103122000000010001000000010001000000010098
:103132000001000000010101000001000000010087
:103142000100000001000100000001000100000078
:103152000100000000000000010000000100010168
:103162000100000100000000000001000000010059
:103172000100000001000100000001000000010048
:103182000101010101000000000000000000010037
:103192000000010101010100000000010000010026
:1031A200000001000000000100000000000100001A
:1031B2000100000001000000010001000001000008
:1031C20001000000010001000000010001000000F8
:1031D20001000000000000000000000100000000EB
:1031E20001000000010000000000010000000100D9
:1031F20001010101000001010101010000000100C3
:1032020001010101010001000000010001000100B3
:1032120000000101010101000000010000000100A5
:103222000000010000000100000000000101000098
:103232000100000001000000010001010100000086
:103242000100000001000101010100000100000075
:10325200010000000000000000000100000000006A
:103262000100000001000000000001010101000056
:103272000100000100000100000001000000010047
:103282000000000000000001000100000100010038
:10329200000000000000000000010000000001002A
:1032A2000000010000010000000001000000010018
:1032B2000001000000010101010001000001000005
:1032C20001000000010001000000000001000000F8
:1032D20001000000000000000001000000000000EA
:1032E20001000001000000000000010000000000D9
:1032F20001000000010001000000010000000100C7
:1033020000000000000000000100000000010000B9
:1033120000000000000000000101010101000001A5
:103322000101000001010101010000010101000091
:103332000000010000000000010001000000010087
:103342000001010100000100000000000001010174
:103352000000000000000000010101010100000066
:103362000100010000000000000001000000000058
:10337200000000000000000000000000000000004B
:10338200000000000000000000000000000000003B
:10339200000000000000000000000000000000002B
:1033A200000000000000000000000000000000001B
:1033B2000000000000010101000000000000000008
:1033C20000000000000000000000000000000000FB
:1033D20000000000000000000000000000000000EB
:1033E20000000000000000000000000000010101D8
:1033F20001010100000000000000000000010101C5
:1034020001010100000000000001000000010001B4
:1034120001010100000101000001010100010001A0
:103422000100010001000000000001000001000095
:103432000100010001000000000000000001000086
:103442000000010000010100000000000001010174
:103452000101010000000000000000000001010164
:103462000101010000000000000000007D03E702EE
:103472001403CA034503230337030D0A00205245F0
:1034820047524553415220414C204D454E55005222
:103492004547524553415220414C204A5545474FDA
:1034A20000515545444152534520454E2050415507
:1034B20053410043616D62696F20646520646972E3
:1034C200656363696F6E00697A71756965726461BB
:1034D2000064657265636861003373656700337306
:1034E200656720636F6E66696700656E206D656E45
:1034F20073616A6500656E206D656E75004A75655B
:10350200676F00737461747300656E436F6E6669F2
:103512006700656E20636F6E66696700656E207076
:1035220061757361006E7565766F206A7565676F88
:0A35320000656E206A7565676F0082
:00000001FF
