:100000000C9435010C9466010C9466010C94660105
:100010000C9466010C9466010C9466010C946601C4
:100020000C9466010C9466010C9466010C946601B4
:100030000C9466010C9466010C9466010C946601A4
:100040000C9466010C9466010C9466010C94660194
:100050000C9466010C9466010C9466010C94CF0C10
:100060000C9466010C94430D0C94190D0C946601CC
:100070000C9466010C9466010C9466010C94660164
:100080000C9466010C9466010C9466010C94660154
:100090000C9466010C9466010C9466010C94660144
:1000A0000C9466010C9466010C9466010C94660134
:1000B0000C9466010C9466010C9466010C94660124
:1000C0000C9466010C9466010C9466010C94660114
:1000D0000C9466010C9466010C9466010C94660104
:1000E0000C9466010C94B0010C94CA030C947D032B
:1000F0000C94C8010C94CC010C94790D0C94D00193
:100100000C9495010C9414030C94E7020C94C20116
:100110000C94DA010C9437030C949B010C94230388
:100120000C94BA010C94A3010C94A7010C94D60171
:100130000C9445030C94AA010C94D5010C949F01D6
:100140000C94B4010C94BE0100002100240027008F
:100150002A002D00300033000101000004010701D6
:100160000A0100002200250028002B002E0031008B
:10017000340002010000050108010B01000020000D
:100180002300260029002C002F003200000100006F
:10019000030106010901050505050705080808080A
:1001A000020202020A0A080804040404010101010F
:1001B000010101010303030303030303040707070A
:1001C0000C0C0C0C0C0C0C0C0202020206060606AF
:1001D000060606060B0B0B0B0B0B0B0B010210207C
:1001E000200808102040102040800201020108046D
:1001F0000201010204081020408080402010080401
:100200000201800402018040201008040201080459
:10021000020101020408102040800102040810209D
:10022000408000000A0B02090C0D0E0807030401B0
:1002300000000000000000000000000000000000BE
:10024000000000000000000000000000000012118B
:10025000100000000000000000000000000000008E
:100260000000000000000000790D11241FBECFEF38
:10027000D1E2DEBFCDBF00E00CBF1DE0A0E0B2E0E8
:10028000E8E9FBE200E00BBF02C007900D92A0304E
:10029000B107D9F721E1A0E0BDE001C01D92A7346C
:1002A000B207E1F711E0C5E3D1E000E006C0219715
:1002B0000109802FFE010E949F15C433D10780E001
:1002C0000807A9F70E942D0E0C94CA150C94000083
:1002D000892B39F481E0860F803140F081EF860F61
:1002E0000895662311F08FEFFACF8FE008958150C3
:1002F000823108F05AC0E82FF0E08827ED57FE4F12
:100300008F4F0C949F15A301A70195019B019F019D
:10031000D501AA01B001B401BA01BE01C201C801F0
:10032000CC01D501D001D601DA01809180008F7710
:10033000809380000895809180008F7DF9CF809117
:100340008000877FF5CF84B58F7784BD089584B50D
:100350008F7DFBCF8091B0008F778093B0000895A0
:100360008091B0008F7DF9CF809190008F7780933E
:1003700090000895809190008F7DF9CF809190003A
:10038000877FF5CF8091A0008F778093A00008959C
:100390008091A0008F7DF9CF8091A000877FF5CF5D
:1003A000809120018F778093200108958091200112
:1003B0008F7DF9CF80912001877FF5CFCF93DF9399
:1003C000282F30E0F901EE5DFD4F8491F901E452F0
:1003D000FE4FD491F901EA56FE4FC491CC23A1F00F
:1003E00081110E947701EC2FF0E0EE0FFF1FE4581F
:1003F000FE4FA591B491EC91ED2381E090E009F4DA
:1004000080E0DF91CF91089580E090E0FACF1F93D4
:10041000CF93DF93282F30E0F901EE5DFD4F8491FB
:10042000F901E452FE4FD491F901EA56FE4FC4910E
:10043000CC23A9F0162F81110E947701EC2FF0E058
:10044000EE0FFF1FEE59FE4FA591B4918FB7F894B0
:10045000EC91111108C0D095DE23DC938FBFDF91A2
:10046000CF911F910895DE2BF8CFCF93DF9390E0CB
:10047000FC01E452FE4F24918A569E4FFC01849168
:100480008823D1F090E0880F991FFC01E85BFE4FB4
:10049000A591B491FC01EE59FE4FC591D491611123
:1004A0000EC09FB7F8948C91E22FE0958E238C9329
:1004B0002881E223E8839FBFDF91CF9108958FB712
:1004C000F894EC91E22BEC938FBFF6CF863308F0D3
:1004D000865320917B00982F9870277F922B9093C2
:1004E0007B008770806480937C0080917A008064B8
:1004F00080937A0080917A0086FDFCCF809178000D
:100500009091790008953FB7F89480914E109091A2
:100510004F10A0915010B091511026B5A89B05C066
:100520002F3F19F00196A11DB11D3FBFBA2FA92F72
:10053000982F8827BC01CD01620F711D811D911D6F
:1005400042E0660F771F881F991F4A95D1F70895DB
:100550008F929F92AF92BF92CF92DF92EF92FF92D3
:100560006B017C010E9483024B015C01C114D10428
:10057000E104F104B9F00E948302681979098A093B
:100580009B09683E73408105910580F321E0C21A02
:10059000D108E108F10888EE880E83E0981EA11CBE
:1005A000B11CE4CFFF90EF90DF90CF90BF90AF9061
:1005B0009F908F9008952FB7F89460914A10709192
:1005C0004B1080914C1090914D102FBF0895AF9219
:1005D000BF92CF92DF92EF92FF920F931F93CF9330
:1005E000DF936C017B018B01040F151FEB015E0192
:1005F000AE18BF08C017D10759F06991D601ED9127
:10060000FC910190F081E02DC6011995892B79F7B5
:10061000C501DF91CF911F910F91FF90EF90DF9077
:10062000CF90BF90AF900895FC01538D448D252F3E
:1006300030E0842F90E0821B930B541710F0CF967C
:10064000089501970895FC01918D828D981761F0AE
:10065000A28DAE0FBF2FB11D5D968C91928D9F5FC5
:100660009F73928F90E008958FEF9FEF0895FC01A4
:10067000918D828D981731F0828DE80FF11D858D57
:1006800090E008958FEF9FEF0895FC01918D228DEA
:10069000892F90E0805C9F4F821B91098F7399276F
:1006A000089582E590E10E94450321E0892B09F439
:1006B00020E0822F0895FC01A48DA80FB92FB11D51
:1006C000A35ABF4F2C91848D90E001968F73992788
:1006D000848FA689B7892C93A089B1898C91837066
:1006E00080648C93938D848D981306C00288F3895F
:1006F000E02D80818F7D80830895EF92FF920F938C
:100700001F93CF93DF93EC0181E0888F9B8D8C8DBD
:1007100098131AC0E889F989808185FF15C09FB7B1
:10072000F894EE89FF896083E889F9898081837074
:10073000806480839FBF81E090E0DF91CF911F9123
:100740000F91FF90EF900895F62E0B8D10E00F5F44
:100750001F4F0F731127E02E8C8D8E110CC00FB61A
:1007600007FCFACFE889F989808185FFF5CFCE01B2
:100770000E945B03F1CFEB8DEC0FFD2FF11DE35ACF
:10078000FF4FF0829FB7F8940B8FEA89FB89808135
:100790008062CFCFCF93DF93EC01888D8823B9F0AF
:1007A000AA89BB89E889F9898C9185FD03C080817C
:1007B00086FD0DC00FB607FCF7CF8C9185FFF2CFF9
:1007C000808185FFEDCFCE010E945B03E9CFDF91F1
:1007D000CF91089580E090E0892B29F00E94510389
:1007E00081110E94000080E090E0892B49F080E0B8
:1007F00090E0892B29F00E94000081110E940000E6
:1008000080E090E0892B49F080E090E0892B29F08E
:100810000E94000081110E94000080E090E0892B7E
:1008200049F080E090E0892B29F00E9400008111BE
:100830000C9400000895BF92CF92DF92EF92FF9246
:100840000F931F93CF93DF930EE917E08EE0E82E0E
:1008500082E0F82E9EE9C92E97E0D92EF801B080EB
:100860000E5F1F4F60E08B2D0E940702D0E0C0E0BA
:10087000F701EC0FFD1F80819181019739F461E050
:10088000FE01E257F84F80810E9407022296C03194
:10089000D10571F761E070E080E090E00E94A8026D
:1008A00061E08B2D0E940702CEE8D7E08881229676
:1008B00060E00E940702CC16DD06C1F7F0E1EF0E02
:1008C000F11C87E00E3A180749F6DF91CF911F918E
:1008D0000F91FF90EF90DF90CF90BF90089585E348
:1008E0009FE030E020E0F901EE0FFF1FE80FF91F55
:1008F000118210822F5F3F4F20313105A1F7809682
:1009000020E18533920769F70895CF93DF93EBE1F8
:10091000FFE085E39FE0A1E0B0E0619170E0AC0111
:1009200030E020E040525109261737073CF4EA0135
:10093000D395B983A8832F5F3F4FF4CF02962FE062
:10094000EB32F20751F7DF91CF91089520914010DB
:1009500030E040913D10D90154E0AA0FBB1F5A95D9
:10096000E1F7FD01E40FF11DEE0FFF1FEB5CF04F0F
:1009700011821082E0913E10EA0FFB2FF11DEE0F65
:10098000FF1FEB5CF04F11821082E0913F10AE0F21
:10099000B11DAA0FBB1FAB5CB04F1D921C92215022
:1009A000310980913B1090913C10892B09F0E42F84
:1009B00084E0220F331F8A95E1F7E20FF32FF11D38
:1009C000EE0FFF1FEB5CF04F1182108208952F9203
:1009D0003F924F925F926F927F928F929F92AF92CF
:1009E000BF92CF92DF92EF92FF920F931F93CF931C
:1009F000DF9320902B0F30902C0F80912D0F909132
:100A00002E0F280E391E80912F0F9091300F280E37
:100A1000391E8091310F9091320F280E391E80912E
:100A2000330F9091340F280E391E0BE21FE0C6E001
:100A3000DEE06101032C000CEE08FF0884E6882E3E
:100A4000912CA12CB12C21143104F1F481E090E01F
:100A5000998388830E5F1F4F2296FEE0C031DF0727
:100A600091F7DF91CF911F910F91FF90EF90DF9061
:100A7000CF90BF90AF909F908F907F906F905F903E
:100A80004F903F902F900895F80160817181072E5B
:100A9000000C880B990B0E9486142B013C01C701A6
:100AA000B6010E9486149B01AC01C301B2010E94F1
:100AB000DC1320E030E048EC52E40E9412150E9462
:100AC0004E149B01AC01A7E0B0E00E949813A50171
:100AD00094010E9479132F5F3F4F4F4F5F4F39832F
:100AE0002883B8CFCF92DF92EF92FF920F931F939C
:100AF000CF93DF931F921F92CDB7DEB769834A83EE
:100B0000880F991F0091451110914611000F111F78
:100B1000EFEEF0E19F012F5E30412017310714F412
:100B20001192F8CF2981FC01E151FF4E21838A8186
:100B3000808360E0809143110E9407021016110625
:100B400004F501501109F801E151FF4EE080D09009
:100B50004111C0903F1188E0F82E6E2D661F662768
:100B6000661F8C2D0E940702EE0C61E08D2D0E9405
:100B7000070260E08D2D0E940702FA94F110EDCF7C
:100B8000DDCF61E0809143110F900F90DF91CF9105
:100B90001F910F91FF90EF90DF90CF900C94070280
:100BA000EF92FF920F931F93CF937C018C0183E010
:100BB000000F111F8A95E1F701501F4EC1E0F801A7
:100BC00011928F0140E06C2FC7010E947205CF5F28
:100BD000C930A9F7CF911F910F91FF90EF90089521
:100BE000EF92FF920F931F93CF93DF938091451164
:100BF000909146111816190624F490E080E00E94A6
:100C0000D005CEE8D7E08EEAE82E87E0F82E88817E
:100C1000229660E00E9407020EE917E0F801808149
:100C20000E5F1F4F61E00E940702E016F106B1F768
:100C3000F7E0CE39DF0759F7DF91CF911F910F9180
:100C4000FF90EF9008952F923F924F925F926F9294
:100C50007F928F929F92AF92BF92CF92DF92EF924C
:100C6000FF920F931F93CF93DF9300D01F92CDB7C6
:100C7000DEB73EE8632E37E0732E2FEE30E13C8383
:100C80002B836C012B0131E0398340E8242E312C79
:100C9000F301F081FA8322E0620E711C61E08F2F74
:100CA0000E9407022EE9E22E27E0F22E57014201B0
:100CB00010E000E0F5018081F2E0AF0EB11CF4011C
:100CC0002081318160E02130310509F061E00E942E
:100CD000070280914511909146111816190604F5E6
:100CE000C101002E02C0959587950A94E2F7EB8129
:100CF000FC812089F801EE0FFF1FEC0DFD1D4081E6
:100D00005181452B09F453C0822BEB81FC81808BF0
:100D1000EB81FC814089698190E080E00E9472054E
:100D20000F5F1F4FF0E18F0E911C0830110511F677
:100D300061E070E080E090E00E94A80260E08A81BB
:100D40000E940702F7018081F2E0EF0EF11C61E0E2
:100D50000E9407022EEA37E02E153F0599F78B8196
:100D60009C8101969C838B8399819F5F9983E0E1AD
:100D7000CE0ED11CF2E04F0E511C993009F088CFF5
:100D80000F900F900F900F90DF91CF911F910F91C7
:100D9000FF90EF90DF90CF90BF90AF909F908F909B
:100DA0007F906F905F904F903F902F900895809527
:100DB0008223ABCF6F927F928F929F92AF92BF921E
:100DC000CF92DF92EF92FF920F931F93CF93DF9317
:100DD000CDB7DEB7DA950FB6F894DEBF0FBECDBF44
:100DE0009C015B01942EEAE0F0E0BF010E948B15AC
:100DF0006C01C9018C199D09BF010E948B159B01D3
:100E00003695322F22273795279522573D4F46E0BA
:100E10005DE0C61AD70AD694DC2CCC24D794C794AC
:100E20003A0170E060E089010C0D1D1DF30190E0B6
:100E300080E07901683071050CF07801E80EF91E48
:100E4000D701ED90FC90F182E082B0964096803818
:100E5000910579F76F5F7F4F2E5F3F4FB2E06B0ECA
:100E6000711C60317105F9F680E88E010F5F1F4F2C
:100E7000F801982F11929A95E9F77E01A1E8EA0E00
:100E8000F11CF70111928A95E9F7B801F70190E09A
:100E900080E030E020E0DA01A80FB91FCD90DC90AF
:100EA000DB01A80FB91F2830310524F0DC01509771
:100EB000AE0FBF1FCD92DC922F5F3F4F02962031C5
:100EC000310549F7605F7F4F7096405E5F4F6E154A
:100ED0007F05E9F6911013C088E28A9D40018B9D41
:100EE000900C1124D12CC12CB701C8010E942306FB
:100EF000FFEFCF1ADF0A8C149D04B1F703C0C801BD
:100F00000E942306D3950FB6F894DEBF0FBECDBF67
:100F1000DF91CF911F910F91FF90EF90DF90CF90D5
:100F2000BF90AF909F908F907F906F900895AF92F9
:100F3000BF92CF92DF92EF92FF920F931F93CF93C6
:100F4000DF93CDB7DEB7DA950FB6F894DEBF0FBEEC
:100F5000CDBF20E8CE010196DC01E22F1D92EA957B
:100F6000E9F75E01F1E8AF0EB11CD5011D922A959B
:100F7000E9F7BC018501A5E3BFE030E020E050E0E7
:100F800040E07D01E20EF31EF701C080D1807B01BD
:100F9000E20EF31E4830510534F07901F0E1EF1A0A
:100FA000F108E00EF11EF701D182C0824F5F5F4F62
:100FB0002E5F3F4F4031510521F7605F7F4F005F4B
:100FC0001F4F90966A157B05C1F60E942306D395A4
:100FD0000FB6F894DEBF0FBECDBFDF91CF911F914A
:100FE0000F91FF90EF90DF90CF90BF90AF9008955A
:100FF000BF92CF92DF92EF92FF920F931F93CF9306
:10100000DF9300913F10C02ED12CF601E55EF04F2A
:101010004081C0913E10D0E010913D10E12EF12CA6
:1010200041110DC0FE01E55EF04F8081811107C0C6
:10103000F701E55EF04F8081882309F4AEC0B090DF
:1010400040102B2D30E088E090E0BC01641B71095A
:1010500026173707A4F4FE01E55EF04F4081BC017E
:10106000641B71092617370754F4F701E55EF04F4A
:101070004081841B9109281739070CF48EC0809198
:101080003710815080933710811138C0809139100A
:1010900090E02091310F3091320F3093340F209334
:1010A000330F20912F0F3091300F3093320F209358
:1010B000310F20912D0F30912E0F3093300F209350
:1010C0002F0F20912B0F30912C0F30932E0F209348
:1010D0002D0F90932C0F80932B0F0E94E7041092FA
:1010E0003910109246101092351081E0809305025D
:1010F0001092481010923610109247100E94A604C9
:10110000BA94BA94B09240108B2D90E09C0144E0C8
:10111000220F331F4A95E1F7F901EE0DFF1DEE0F87
:10112000FF1FEB5CF04F41E050E051834083C20F62
:10113000D31FCC0FDD1FCB5CD04F59834883F901FF
:10114000EC0DFD1DEE0FFF1FEB5CF04F5183408354
:10115000FC01319780913B1090913C10892B09F450
:10116000102F84E0EE0FFF1F8A95E1F7E10FF11DCC
:10117000EE0FFF1FEB5CF04F81E090E091838083E6
:101180000E948504DF91CF911F910F91FF90EF9006
:10119000DF90CF90BF900C949707DF91CF911F9174
:1011A0000F91FF90EF90DF90CF90BF900895FC01DA
:1011B00001900020E9F73197AF01481B590BBC01A2
:1011C00082E590E10C94E7028F929F92AF92BF92DA
:1011D0000F931F93CF93DF93CDB7DEB7A1970FB6D1
:1011E000F894DEBF0FBECDBF19A2423008F44AE02A
:1011F0008E010F5D1F4F842E912CB12CA12CA501C7
:1012000094010E94AB13E62FB901CA01EA30F4F44D
:10121000E05DD801EE938D01232B242B252B79F74C
:1012200090E080E0109719F0CD010E94D708A196B8
:101230000FB6F894DEBF0FBECDBFDF91CF911F91E7
:101240000F91BF90AF909F908F900895E95CE1CF90
:10125000CF92DF92EF92FF92CF93DF9397FF1BC065
:101260006B017C016DE282E590E10E947D03EC015F
:1012700066277727CB016C197D098E099F094AE003
:101280000E94E4088C0F9D1FDF91CF91FF90EF909B
:10129000DF90CF9008954AE0DF91CF91FF90EF90DB
:1012A000DF90CF900C94E408CF93DF930E94D7088F
:1012B000EC0180E49CE00E94D7088C0F9D1FDF9119
:1012C000CF9108958F929F92AF92BF92CF92DF926B
:1012D000EF92FF921F93CF93DF93823781F41092A6
:1012E0003C1010923B10DF91CF911F91FF90EF9037
:1012F000DF90CF90BF90AF909F908F9008958C36E5
:1013000039F481E090E090933C1080933B10EBCF58
:101310008B3609F079C0C0914610CC2309F466C021
:101320000E94DB026B017C01D0E010E083E00E94B0
:10133000DE010197D1F58091371041E061E070E066
:1013400090E00E94DA060E94DB026C197D098E098A
:101350009F0965352BE072078105910544F00E94D5
:10136000280983E49CE00E9454091C2FDFCF4B0125
:101370005C012DE6821A27E0920AA108B1082BE44D
:10138000821624E09206A104B10440F40E942809C8
:1013900085E59CE00E945409DC2FC8CF0E942809F3
:1013A00087E69CE00E945409C1CF112391F010926E
:1013B0004610109235101092050281E0809348107B
:1013C00010923610109247101092040D1092030DD7
:1013D0008ACFDD2309F487CF1092461081E08093F5
:1013E00035101092050210924810EACF81E08093E8
:1013F000461010923510109205021092481010926B
:101400003610109247106FCF833709F06CCF809160
:101410004110811168CF81E080934110E0913E102E
:10142000E093010D909140109093020DF0E0E55E85
:10143000F04F9081992309F456CF8093000D53CF3C
:10144000CF93DF93BC01990F880B990B0E94280959
:10145000EC0180E49CE00E94D7088C0F9D1FDF9177
:10146000CF910895CF93DF9386E00E94DE0101972C
:1014700009F4D4C087E00E94DE01019709F4D0C0CE
:1014800084E00E94DE010197C1F580910502882366
:1014900049F180914810811125C080913610811149
:1014A00021C08091471081111DC089E79CE00E94F6
:1014B000540962E370E080E090E00E94A80280910D
:1014C000050D811111C08DE89CE00E94540981E056
:1014D0008093050D8093120E62E370E080E090E04F
:1014E0000E94A80283E714C087E99CE00E94540987
:1014F0001092050D1092120EEFCF83E00E94DE01D4
:10150000019709F085C080914610882321F08BE671
:10151000DF91CF910895C091030DD091040D2196D4
:10152000D093040DC093030D62E370E080E090E07F
:101530000E94A802CE010E94200A8091030D909182
:10154000040D4E9724F3809105028823E9F08091E1
:101550004810811119C080913610811115C08091F9
:101560004710811111C08FE99CE00E94540910922C
:10157000050281E0809348101092361010924710B7
:101580001092040D1092030D8091050281111DC06F
:1015900080914810811119C0809136108823A9F0DC
:1015A00080914710811111C08FE99CE00E9454097D
:1015B0001092050281E0809348101092361010922C
:1015C00047101092040D1092030D809105028111B5
:1015D0009ECF8091481081119ACF80913610811151
:1015E00096CF80914710882309F491CF84EA9CE03C
:1015F0000E9454091092050281E0809348101092D5
:101600003610109247101092040D1092030D7FCFE8
:101610001092040D1092030D80E27ACF82E778CF0A
:101620008CE676CF9F92AF92BF92CF92DF92EF92ED
:10163000FF920F931F93CF93DF93912CC82FD0E08D
:10164000219680E1C82ED12C04E010E0A92CB12C09
:10165000CA15DB05BCF00E94C6127C010E94C612AE
:10166000B6010E948B15FC01FF27E55EF04F8081DB
:101670008111EECFC701B8010E948B158F5F808367
:101680009394E4CF0E946F04DF91CF911F910F914B
:10169000FF90EF90DF90CF90BF90AF909F900C9411
:1016A00085040F931F93CF93DF930E94A6040091AC
:1016B0003B1010913C1060913D10C8010E946801E0
:1016C000C82F80933D1060913E10C8010E946801B0
:1016D000D82F80933E1060913F10C8010E9468018E
:1016E00080933F10E0914010F0E09F0194E0220FC2
:1016F000331F9A95E1F7D901AC0FB11DAA0FBB1F9B
:10170000AB5CB04F41E050E04D935C93D901AD0F1D
:10171000B11DAA0FBB1FAB5CB04F4D935C93D901B9
:10172000A80FB11DAA0FBB1FAB5CB04F4D935C93CC
:101730003197012B09F4C82F14E0EE0FFF1F1A9503
:10174000E1F7EC0FF11DEE0FFF1FEB5CF04F81E0B6
:1017500090E0918380830E94F8070E94DB02009151
:101760004210109143102091441030914510601B9D
:10177000710B820B930B693E73408105910508F450
:1017800058C00E94DB026093421070934310809314
:101790004410909345100E94A60480914010873019
:1017A00008F086E08F5F8093401090E0E0913D105C
:1017B0009C0174E0220F331F7A95E1F7D901AE0F37
:1017C000B11DAA0FBB1FAB5CB04F41E050E04D9381
:1017D0005C93A0913E10A20FB32FB11DAA0FBB1FA7
:1017E000AB5CB04F4D935C9360913F10D901A60F55
:1017F000B11DAA0FBB1FAB5CB04F4D935C9301971B
:1018000020913B1030913C10232B09F4E62F54E03B
:10181000880F991F5A95E1F7E80FF92FF11DEE0F88
:10182000FF1FEB5CF04F81E090E0918380830E948A
:10183000F8070E94970780914110882309F49AC005
:10184000E091020D6E2F70E02091010D30E0DB0180
:1018500094E0AA0FBB1F9A95E1F7A20FB31FAA0F3E
:10186000BB1FAB5CB04F1D921C92D901A55EB04F5F
:101870008C91882349F047E050E0461B570B8417B2
:10188000150611F481508C93EF5FE093020DE83060
:1018900008F476C08091000D8823A1F090913A1051
:1018A000809139108F5F809339109F5F90933A1029
:1018B00065E00E947F15911105C0809137108F5F00
:1018C00080933710109241101092000DC091381083
:1018D00020913A108C2F90E002962817190609F0F3
:1018E00049C00E946F04EBE1FFE011928FE0EB3200
:1018F000F807D9F710923C1010923B1082E08093C9
:101900003D1081E080933E1010923F108093401074
:1019100010923A10CE3008F0CDE0CF5FC09338106F
:1019200040E062E070E08C2F90E00E94DA060E94B6
:10193000DB026093421070934310809344109093A5
:10194000451081E090E090935A0F8093590F909347
:10195000580F8093570F9093560F8093550F909385
:10196000360F8093350F8C2F0E94120B0E94850436
:101970000E94510BDF91CF911F910F910C9497070B
:1019800080E1E89FF0011124E20FF31FEE0FFF1F2B
:10199000EB5CF04F81E090E091838083EBCF1F926E
:1019A0000F920FB60F9211242F933F938F939F9313
:1019B000AF93BF9380914A1090914B10A0914C101F
:1019C000B0914D103091491023E0230F2D3758F579
:1019D0000196A11DB11D2093491080934A10909348
:1019E0004B10A0934C10B0934D1080914E109091DD
:1019F0004F10A0915010B09151100196A11DB11D32
:101A000080934E1090934F10A0935010B0935110AC
:101A1000BF91AF919F918F913F912F910F900FBEEA
:101A20000F901F90189526E8230F0296A11DB11D57
:101A3000D2CF1F920F920FB60F9211240BB60F92B6
:101A40002F933F934F935F936F937F938F939F93C6
:101A5000AF93BF93EF93FF9382E590E10E945B0306
:101A6000FF91EF91BF91AF919F918F917F916F9176
:101A70005F914F913F912F910F900BBE0F900FBE32
:101A80000F901F9018951F920F920FB60F9211246E
:101A90000BB60F922F938F939F93EF93FF93E09149
:101AA0006210F09163108081E0916810F0916910EC
:101AB00082FD1DC0908180916B108F5F8F7320918C
:101AC0006C10821741F0E0916B10F0E0EE5AFF4E7F
:101AD000958F80936B10FF91EF919F918F912F9134
:101AE0000F900BBE0F900FBE0F901F901895808126
:101AF000F2CFCF93DF93109255101092541088EECE
:101B000093E0A0E0B0E08093561090935710A0931C
:101B10005810B093591082E39CE090935310809337
:101B2000521085EC90E090935F1080935E1084ECEF
:101B300090E0909361108093601080EC90E090931F
:101B400063108093621081EC90E090936510809315
:101B5000641082EC90E0909367108093661086EC9E
:101B600090E0909369108093681010926B1010921F
:101B70006C1010926D1010926E10C3E3D0E0D093F1
:101B80004011C0933F1185E390E090934211809300
:101B9000411184E390E0909344118093431181E0DC
:101BA00090E0909346118093451161E083E30E9499
:101BB000350261E0809141110E94350261E080911F
:101BC00043110E94350261E0809143110E94070297
:101BD000D0934011C0933F11EFEFF0E1119281E1FA
:101BE000EF33F807D9F7D0E0C0E08091451190912C
:101BF0004611C817D90774F540E06FE0CE010E9486
:101C000072058091451190914611C817D9072CF49F
:101C100047E06BE0CE010E94720540E069E0CE0132
:101C20000E9472058091451190914611C817D907FD
:101C30001CF4CE010E94D00580914511909146116F
:101C4000C817D9072CF440E06CE0CE010E94720561
:101C50002196CBCFDF91CF910895CF93DF9300D022
:101C6000CDB7DEB7789484B5826084BD84B58160D9
:101C700084BD85B5826085BD85B5816085BD809157
:101C80006E00816080936E001092810080918100CF
:101C900082608093810080918100816080938100C7
:101CA000809180008160809380008091B100846089
:101CB0008093B1008091B00081608093B0008091EA
:101CC0009100826080939100809191008160809367
:101CD0009100809190008160809390008091A1009C
:101CE00082608093A1008091A10081608093A10017
:101CF0008091A00081608093A0008091210182608A
:101D00008093210180912101816080932101809144
:101D1000200181608093200180917A00846080930B
:101D20007A0080917A00826080937A0080917A00B4
:101D3000816080937A0080917A00806880937A0035
:101D40001092C100E0916210F091631082E08083F4
:101D5000E0915E10F0915F101082E0916010F091C0
:101D600061108FEC808310926A10E0916610F09100
:101D7000671086E08083E0916410F09165108081A7
:101D800080618083E0916410F091651080818860AB
:101D90008083E0916410F091651080818068808379
:101DA000E0916410F091651080818F7D808380E0E8
:101DB0000E946602BC01990F880B990B6115710591
:101DC0008105910511F00E9470130EE817E01B8346
:101DD0000A8378010EE917E0F80180810E5F1F4F3A
:101DE00061E00E943502F7018081F2E0EF0EF11C04
:101DF00061E00E94350227E00E3A120769F78091F0
:101E00004511909146111816190634F441E06CE022
:101E100090E080E00E9472058091451190914611FA
:101E20001816190634F448E06AE090E080E00E9459
:101E3000720580914511909146111816190624F4E7
:101E400090E080E00E94D005EA81FB81808132969B
:101E5000FB83EA8360E00E9407020EE917E0F801C5
:101E600080810E5F1F4F61E00E940702F7E00E3A8B
:101E70001F07A9F70A811B810E59174029F760E057
:101E800086E00E94350260E087E00E94350260E053
:101E900084E00E94350260E083E00E9435020E94E7
:101EA000E70489E19EE030E020E0F901EE0FFF1F3A
:101EB000E80FF91F118210822F5F3F4F203131054B
:101EC000A1F780963FE08931930769F7A6E0BEE06D
:101ED00090E080E067E070E02D913D9121153105A3
:101EE000A9F0FC01E550F14F47E050E08B01021BE7
:101EF000130B041715070CF0E9C2EE24E394F12C40
:101F0000F182E08241505109B097F3CF06968E31AD
:101F1000910511F7CC24C394D12C66246394712CC1
:101F200080910502882309F49DC080EB9CE00E940B
:101F300054090E94320A0E94DB021B012C01F5E3C6
:101F4000AF2EFFE0BF2EF12CE12C0091170E109167
:101F5000180E30E020E0B8016E0D7F1DFB01E20F8E
:101F6000F31FE255F84F4081C901880F991F8A0D70
:101F70009B1DFC01411159C0118210822F5F3F4F00
:101F80002031310559F761E070E080E090E00E9477
:101F9000A802F0E2AF0EB11C20E8E20EF11CE11441
:101FA00034E0F30691F68091130E9091140EA091F7
:101FB000150EB091160EB201A101481B590B6A0B08
:101FC0007B0B8091010290910202A0910302B091DB
:101FD000040284179507A607B70700F52092130E91
:101FE0003092140E4092150E5092160E2091120E41
:101FF0008091100E9091110E222301F10F371105DF
:10200000B9F00F5F1F4F1093180E0093170E009733
:1020100091F001979093110E8093100E0E949707F4
:102020000E946F040E94EA037BCFD182C082A6CFB8
:1020300010E000E0E8CF8EE790E0ECCF011511054D
:1020400059F0015011091093180E0093170E8F3795
:10205000910529F00196DECF0EE710E0F4CF90E075
:1020600080E0D8CFE0904810E982EE2009F4F0C07B
:102070008BEB9CE00E9454098091190F90911A0FEC
:10208000892B01F50E94F0050E941B040E941B048D
:102090000E941B046AE070E080E090E00E94A802C9
:1020A00070921A0F6092190F0E94320A8C36E1F575
:1020B00083EC9CE00E9454091092481031E0309368
:1020C0003610B0CF65E3E62E6FE0F62E0EEA1BE089
:1020D00030E020E0F801E20FF31F4081C901880FD2
:1020E000991F8E0D9F1DFC0141111BC01182108292
:1020F0002F5F3F4F2031310569F761E070E080E0EC
:1021000090E00E94A802F0E2EF0EF11C005F1F4F6A
:102110002CE00E321207E1F60E9497070E946F042E
:10212000C3CFD182C082E4CF0E94320A833709F044
:1021300080C089EC9CE00E9454090BE21FE0F8018A
:10214000819191918F010E94200AFFE005331F07C2
:10215000B1F71A82812C912C540101C01A820E947D
:10216000DB0205E31FE089E1E82E8EE0F82E90E027
:1021700080E0F701E80FF91F20813181F801E80FB5
:10218000F91F232B61F5118210820296803291058E
:1021900081F761E070E080E090E00E94A802005EBC
:1021A0001F4F20E2E20EF11C30E105331307F9F670
:1021B0000E9497070E946F040E94DB021B012C0102
:1021C00083E00E94DE01019749F6EA80E1100AC02F
:1021D0000E94DB024B015C01F980FA82C0CFD18200
:1021E000C082D3CF281839084A085B0800EF201AAC
:1021F0000AE0300A4108510815EF211611E03106B6
:102200004104510408F0ABCF82E00E94DE01892B2B
:1022100009F0A5CF0E946F0464E670E080E090E0D2
:102220000E94A80266E970E080E090E00E94A802A7
:10223000F9CE0E94320A823709F0F4CE8FEC9CE08E
:102240000E9454091092481021E020934710EACED2
:1022500080914710882309F483C088ED9CE00E9498
:1022600054090E94320A86E30E9466029C01ACE98E
:10227000BFEF0E94A71520E034E040E050E00E944C
:10228000791349015A0184E6880E911CA11CB11CE6
:10229000C40166EF7FEF0E948B158B01065F1F4F15
:1022A0008092010290920202A0920302B092040274
:1022B0008EE30E94660227E030E0DC010E94AF1549
:1022C00028EE33E040E050E00E947913BA01A90102
:1022D0004D5F5F4F6F4F7F4FDA014093000265E320
:1022E0007FE04FEF5FEF2BEF3FEF90E080E0FC01EE
:1022F000EE0FFF1FE60FF71F1182108242305105CB
:1023000028F48017910714F4D182C082223031055D
:1023100028F48A179B0714F4D182C0820196803179
:10232000910529F7605E7F4F2F5F3F4F4F5F5F4FF3
:1023300023303105D1F6C8010E94200A60910102C4
:102340007091020280910302909104024AE00E947F
:10235000E40880E49CE00E94D7080E94970762CEC0
:1023600080914610882389F082EE9CE00E945409F7
:102370008091371041E061E070E090E00E94DA0661
:102380000E94320A0E9462094DCE80913610882345
:1023900009F482C08BEE9CE00E9454090E946F04F5
:1023A000EBE1FFE011929FE0EB32F907D9F7809162
:1023B00000028093371010923C1010923B10E2E024
:1023C000E0933D10F1E0F0933E1010923F10F09337
:1023D000401010923A1080913910882339F12091E1
:1023E000310F3091320F3093340F2093330F2091FF
:1023F0002F0F3091300F3093320F2093310F2091F7
:102400002D0F30912E0F3093300F20932F0F2091EE
:102410002B0F30912C0F30932E0F20932D0F90E027
:1024200090932C0F80932B0F0E94E7041092391089
:1024300010924110EE24E394E09238100E94DB02E7
:102440006093421070934310809344109093451012
:1024500070925A0F6092590F7092580F6092570FF6
:102460007092560F6092550F7092360F6092350F32
:1024700081E00E94120B0E9485048091381040E098
:1024800062E070E090E00E94DA060E94510B109228
:102490003610E0923510C6CD80913510882309F4AE
:1024A000C1CD87EF9CE00E9454090E94F0050E9474
:1024B000510B0E94320A0E946209609101027091E0
:1024C00002028091030290910402B0CEFC01E3501D
:1024D000F14F47E050E08B01021B130B98012417CA
:1024E00035070CF013CD01E010E01183008341505B
:1024F0005109B097F4CF8F929F92AF92BF92CF9233
:10250000DF92EF92FF92CF93DF93EC0168817981A4
:102510008A819B81611571058105910521F464E231
:1025200079ED8BE597E02DE133EF41E050E00E943B
:10253000791349015A019B01AC01A7EAB1E40E9459
:1025400098136B017C01ACEEB4EFA50194010E94DD
:10255000A613DC01CB018C0D9D1DAE1DBF1DB7FF69
:1025600003C00197A109B04888839983AA83BB83DC
:102570009F77DF91CF91FF90EF90DF90CF90BF904A
:10258000AF909F908F9008950C947B1286E092E01C
:102590000C947B12B0E0A0E08093060290930702B7
:1025A000A0930802B093090208958F929F92AF9270
:1025B000BF92CF92DF92EF92FF92CF93DF93EC0125
:1025C000688179818A819B816115710581059105F9
:1025D00021F464E279ED8BE597E02DE133EF41E002
:1025E00050E00E94791349015A019B01AC01A7EA0E
:1025F000B1E40E9498136B017C01ACEEB4EFA5012D
:1026000094010E94A613C60ED71EE81EF91EF7FEFF
:1026100006C081E0C81AD108E10880E8F80AC8823B
:10262000D982EA82FB82C701B6019F77DF91CF9101
:10263000FF90EF90DF90CF90BF90AF909F908F90E2
:1026400008958F929F92AF92BF92CF92DF92EF92B6
:10265000FF9260910A0270910B0280910C0290919E
:102660000D02611571058105910521F464E279ED92
:102670008BE597E02DE133EF41E050E00E947913C4
:1026800049015A019B01AC01A7EAB1E40E949813E9
:102690006B017C01ACEEB4EFA50194010E94A6137E
:1026A000C60ED71EE81EF91EF7FE06C081E0C81A46
:1026B000D108E10880E8F80AC0920A02D0920B0221
:1026C000E0920C02F0920D02C701B6019F77FF90D5
:1026D000EF90DF90CF90BF90AF909F908F90089534
:1026E00060930A0270930B0280930C0290930D0288
:1026F0000895052E97FB1EF400940E94901357FD39
:1027000007D00E94AB1307FC03D04EF40C94901337
:1027100050954095309521953F4F4F4F5F4F08950D
:1027200090958095709561957F4F8F4F9F4F08953D
:102730000E94CD13A59F900DB49F900DA49F800D76
:10274000911D11240895B7FF0C9498130E949813BB
:10275000821B930B0895A1E21A2EAA1BBB1BFD013D
:102760000DC0AA1FBB1FEE1FFF1FA217B307E40770
:10277000F50720F0A21BB30BE40BF50B661F771FC8
:10278000881F991F1A9469F76095709580959095A8
:102790009B01AC01BD01CF010895A29FB001B39F81
:1027A000C001A39F700D811D1124911DB29F700D5A
:1027B000811D1124911D08950E94F0130C94D814CA
:1027C0000E94D11458F00E94CA1440F029F45F3FCF
:1027D00029F00C94C11451110C940C150C94C714CD
:1027E0000E94E91468F39923B1F3552391F3951BE3
:1027F000550BBB27AA2762177307840738F09F5F22
:102800005F4F220F331F441FAA1FA9F335D00E2E8E
:102810003AF0E0E832D091505040E695001CCAF7FB
:102820002BD0FE2F29D0660F771F881FBB1F2617BE
:1028300037074807AB07B0E809F0BB0B802DBF0195
:10284000FF2793585F4F3AF09E3F510578F00C9464
:10285000C1140C940C155F3FE4F3983ED4F38695B5
:1028600077956795B795F7959F5FC9F7880F911D85
:102870009695879597F90895E1E0660F771F881F71
:10288000BB1F621773078407BA0720F0621B730B24
:10289000840BBA0BEE1F88F7E09508950E9455143B
:1028A0006894B1110C940C1508950E94F11488F0ED
:1028B0009F5798F0B92F9927B751B0F0E1F0660F04
:1028C000771F881F991F1AF0BA95C9F714C0B13045
:1028D00091F00E940B15B1E008950C940B15672F31
:1028E000782F8827B85F39F0B93FCCF38695779574
:1028F0006795B395D9F73EF490958095709561955D
:102900007F4F8F4F9F4F0895E89409C097FB3EF487
:1029100090958095709561957F4F8F4F9F4F99232C
:10292000A9F0F92F96E9BB279395F69587957795AA
:102930006795B795F111F8CFFAF4BB0F11F460FF6A
:102940001BC06F5F7F4F8F4F9F4F16C0882311F0C2
:1029500096E911C0772321F09EE8872F762F05C0D6
:10296000662371F096E8862F70E060E02AF09A9571
:10297000660F771F881FDAF7880F9695879597F966
:10298000089597F99F6780E870E060E008959FEFF1
:1029900080EC089500240A941616170618060906F6
:1029A000089500240A9412161306140605060895C5
:1029B000092E0394000C11F4882352F0BB0F40F44D
:1029C000BF2B11F460FF04C06F5F7F4F8F4F9F4F8D
:1029D000089557FD9058440F551F59F05F3F71F00F
:1029E0004795880F97FB991F61F09F3F79F0879576
:1029F0000895121613061406551FF2CF4695F1DFFF
:102A000008C0161617061806991FF1CF869571058E
:102A1000610508940895E894BB2766277727CB01C2
:102A200097F908950E9425150C94D8140E94CA1491
:102A300038F00E94D11420F0952311F00C94C114A9
:102A40000C94C71411240C940C150E94E91470F313
:102A5000959FC1F3950F50E0551F629FF001729F43
:102A6000BB27F00DB11D639FAA27F00DB11DAA1F52
:102A7000649F6627B00DA11D661F829F2227B00D9F
:102A8000A11D621F739FB00DA11D621F839FA00D2A
:102A9000611D221F749F3327A00D611D231F849F7A
:102AA000600D211D822F762F6A2F11249F575040D1
:102AB0009AF0F1F088234AF0EE0FFF1FBB1F661F4C
:102AC000771F881F91505040A9F79E3F510580F015
:102AD0000C94C1140C940C155F3FE4F3983ED4F3AE
:102AE000869577956795B795F795E7959F5FC1F7B9
:102AF000FE2B880F911D9695879597F90895991B40
:102B000079E004C0991F961708F0961B881F7A95E4
:102B1000C9F78095089597FB072E16F4009407D007
:102B200077FD09D00E94B61507FC05D03EF49095BC
:102B300081959F4F0895709561957F4F0895EE0F91
:102B4000FF1F881F8BBF0790F691E02D19940E94FC
:102B5000CD13332312F48A1B9B0B0C94B1150E94E6
:102B6000CD13B7FF0895821B930B0895AA1BBB1BBF
:102B700051E107C0AA1FBB1FA617B70710F0A61B7D
:102B8000B70B881F991F5A95A9F780959095BC019E
:082B9000CD010895F894FFCF78
:102B980003640000000101000000010000000000C3
:102BA800000000000000000000000000000000001D
:102BB800000000000000000000000000000000000D
:102BC80000000000000000000000000000000000FD
:102BD80000000000000000000000000000000000ED
:102BE80000000000000000000000000000000000DD
:102BF80000000000000000000000000000000000CD
:102C080000000000000000000000000000000000BC
:102C180000000000000000000000000000000000AC
:102C28000000010001000100000000000000000099
:102C3800010000000000000001000000000000008A
:102C4800010000000000000001000000000000007A
:102C5800010000000000000001000000000000006A
:102C6800010000000000000001000000000000005A
:102C7800010000000000000001000000000000004A
:102C8800010000000000000001000000000000003A
:102C98000000010001000100000000000000000029
:102CA800000000000100000000000000000000001B
:102CB800000001000100000000000000000000000A
:102CC80000000000010000000000000000000000FB
:102CD80000000000010000000000000000000000EB
:102CE80000000000010000000000000000000000DB
:102CF80000000000010000000000000000000000CB
:102D080000000000010000000000000000000000BA
:102D180000000100010001000000000000000000A8
:102D2800000000000000000000000000000000009B
:102D38000000010001000100000000000000000088
:102D48000100000000000000010000000000000079
:102D5800000000000000010000000000000000006A
:102D6800000000000100000000000000000000005A
:102D7800000001000000000000000000000000004A
:102D88000100010001000100010000000000000036
:102D9800000000000000000000000000000000002B
:102DA800000000000000000000000000000000001B
:102DB8000000010001000100000000000000000008
:102DC80001000000000000000100000000000000F9
:102DD80000000000000000000100000000000000EA
:102DE80000000000010001000000000000000000D9
:102DF80000000000000000000100000000000000CA
:102E080001000000000000000100000000000000B8
:102E180000000100010001000000000000000000A7
:102E2800000000000000000000000000000000009A
:102E38000100000000000000010000000000000088
:102E48000100000000000000010000000000000078
:102E58000100010001000100010001000000000064
:102E68000000000000000000010000000000000059
:102E78000000000000000000010000000000000049
:102E88000000000000000000010000000000000039
:102E9800000000000000000000000000000000002A
:102EA800000000000000000000000000000000001A
:102EB8000100010001000100010001000000000004
:102EC80001000000000000000000000000000000F9
:102ED80001000100010001000000000000000000E6
:102EE80000000000000000000100000000000000D9
:102EF80000000000000000000000010000000000C9
:102F080000000000000000000100000000000000B8
:102F180001000100010001000000000000000000A5
:102F28000000000000000000000000000000000099
:102F38000000010001000100000000000000000086
:102F48000100000000000000000000000000000078
:102F58000100000001000100010000000000000065
:102F68000100010000000000000001000000000056
:102F78000100000000000000000001000000000047
:102F88000000010001000100010000000000000035
:102F98000000000000000000000000000000000029
:102FA8000000000000000000000000000000000019
:102FB8000100010001000100010001000000000003
:102FC80000000000000000000000010000000000F8
:102FD80000000000000000000100000000000000E8
:102FE80000000000000001000000000000000000D8
:102FF80000000000010000000000000000000000C8
:1030080000000100000000000000000000000000B7
:1030180000000000000000000000000000000000A8
:103028000000000000000000000000000000000098
:103038000100010001000100010001000000000082
:103048000100000000000000000001000000000076
:103058000100000000000000000001000000000066
:103068000100010001000100010001000000000052
:103078000100000000000000000001000000000046
:103088000100000000000000000001000000000036
:103098000100010001000100010001000000000022
:1030A8000000000000000000000000000000000018
:1030B8000100010001000100010001000000000002
:1030C80001000000000000000000010000000000F6
:1030D80001000100010001000100010000000000E2
:1030E80000000000000000000000010000000000D7
:1030F80000000000000000000000010000000000C7
:1031080000000000000000000000010000000000B6
:1031180000000000000000000000000000002A007D
:10312800290028002700260025002400230032005B
:10313800310030002F002E002D002C002B00000045
:103148000000000000000000000000000000000077
:103158000000000000000000000000000000000067
:103168000000000000000000000000000000000057
:103178000000000000000000000000000000000047
:103188000000000000000000000000000000000037
:103198000000000000000000000000000000000027
:1031A8000000000000000000000000000000000017
:1031B8000000000000000000000000000000000007
:1031C80000000000000001010101000000010101F0
:1031D80000000000010000000000000000000000E6
:1031E80000000101010101000000000000000001D1
:1031F80001010000000101010000000101010000BF
:1032080000010101000000000100000000000000B2
:10321800010101010000010000000100010101019C
:103228000000000101010000000000000001000092
:103238000001000100000001000100010000000081
:10324800010101010000010000000100010000006F
:103258000100010101000000000000000000000062
:103268000000000001000000000000000000010054
:103278000000010001000000010001000000010041
:103288000100000001000001000000010101000030
:103298000100000001000100000001000100000021
:1032A8000100010000000100000000000000010012
:1032B8000100000001000100000100000100000001
:1032C80001000000010001000000010001000000F1
:1032D80001000000010001010101010000000000DF
:1032E80000000000010000000101010101000000D0
:1032F80000010000010000000100000000010000C2
:1033080000000001000001000000010000000100B1
:1033180001000001000001000000010001000000A0
:103328000100010000000100000000000000000191
:103338000000000000010000000100000001000082
:10334800010000000100010101010000010101016B
:10335800010000000100010101010100010000005D
:10336800010001000100000001010101010000004D
:103378000100000001000000010000000100000041
:103388000000010100000100000001000000010030
:10339800010101000000010000000100010101011C
:1033A8000000010000000100000000000000010012
:1033B8000100000001000100000100000001000000
:1033C80001010101000001000001000001000000EE
:1033D80001000000010000000000000000010001E1
:1033E80000000100010000000000000000000001D2
:1033F80000000000010000000100000100000000C2
:1034080001000000010000010000000101010100AD
:10341800010000010000010000000100010000009F
:103428000000010000000100000000000001000091
:10343800000100010000000100010000010000007F
:103448000100000000000100000001000100000070
:103458000100000001000000000000000000010061
:103468000000000100000000000000000000010151
:103478000101010000010101000001010101010039
:10348800000101010000000001000000000001002F
:10349800010000000100000101010000010000001E
:1034A8000000000101010000000000000000000011
:1034B8000000000000000000000000010000000003
:1034C80001000000000000000000000000000000F3
:1034D80000000000000000000000000000000000E4
:1034E80000000000000000000000000000000000D4
:1034F80000000000000000000000000000000000C4
:1035080000000000000000000000000101010000B0
:1035180000000000000000000000000000000000A3
:103528000000000000000000000000000000000093
:103538000000000000000000000000000000000083
:10354800000000010101010101000000000000006D
:10355800000000010101010101000000000000015C
:10356800000000010001010101000001010000014B
:10357800010100010001010001000100000000003C
:10358800010000010000010001000100000000002E
:10359800000000010000000001000001010000001F
:1035A800000000010101010101000000000000000D
:1035B80000000001010101010100000000000000FD
:1035C80000007D03E7021403CA03450323033703FE
:1035D8000D0A0020524547524553415220414C2084
:1035E8004D454E5500524547524553415220414C96
:1035F800204A5545474F00515545444152534520AF
:10360800454E2050415553410043616D62696F201A
:10361800646520646972656363696F6E00697A71B5
:103628007569657264610064657265636861003319
:10363800736567003373656720636F6E666967003B
:10364800656E206D656E73616A6500656E206D65D7
:103658006E75004A7565676F0073746174730065F1
:103668006E436F6E66696700656E20636F6E66698C
:103678006700656E207061757361006E7565766FA1
:10368800206A7565676F00656E206A7565676F00EB
:00000001FF
