:020000040000FA
:100000000C9435010C9466010C9466010C94660105
:100010000C9466010C9466010C9466010C946601C4
:100020000C9466010C9466010C9466010C946601B4
:100030000C9466010C9466010C9466010C946601A4
:100040000C9466010C9466010C9466010C94660194
:100050000C9466010C9466010C9466010C940E0CD1
:100060000C9466010C94820C0C94580C0C94660150
:100070000C9466010C9466010C9466010C94660164
:100080000C9466010C9466010C9466010C94660154
:100090000C9466010C9466010C9466010C94660144
:1000A0000C9466010C9466010C9466010C94660134
:1000B0000C9466010C9466010C9466010C94660124
:1000C0000C9466010C9466010C9466010C94660114
:1000D0000C9466010C9466010C9466010C94660104
:1000E0000C9466010C94B0010C94CA030C947D032B
:1000F0000C94C8010C94CC010C94B80C0C94D00155
:100100000C9495010C9414030C94E7020C94C20116
:100110000C94DA010C9437030C949B010C94230388
:100120000C94BA010C94A3010C94A7010C94D60171
:100130000C9445030C94AA010C94D5010C949F01D6
:100140000C94B4010C94BE0100002100240027008F
:100150002A002D00300033000101000004010701D6
:100160000A0100002200250028002B002E0031008B
:10017000340002010000050108010B01000020000D
:100180002300260029002C002F003200000100006F
:10019000030106010901050505050705080808080A
:1001A000020202020A0A080804040404010101010F
:1001B000010101010303030303030303040707070A
:1001C0000C0C0C0C0C0C0C0C0202020206060606AF
:1001D000060606060B0B0B0B0B0B0B0B010210207C
:1001E000200808102040102040800201020108046D
:1001F0000201010204081020408080402010080401
:100200000201800402018040201008040201080459
:10021000020101020408102040800102040810209D
:10022000408000000A0B02090C0D0E0807030401B0
:1002300000000000000000000000000000000000BE
:10024000000000000000000000000000000012118B
:10025000100000000000000000000000000000008E
:100260000000000000000000B80C11241FBECFEFFA
:10027000D1E2DEBFCDBF00E00CBF1DE0A0E0B2E0E8
:10028000E2E2FAE200E00BBF02C007900D92AA3052
:10029000B107D9F721E1AAE0BDE001C01D92A73462
:1002A000B207E1F711E0C5E3D1E000E006C0219715
:1002B0000109802FFE010E94E414C433D10780E0BD
:1002C0000807A9F70E946C0D0C940F150C94000000
:1002D000892B39F481E0860F803140F081EF860F61
:1002E0000895662311F08FEFFACF8FE008958150C3
:1002F000823108F05AC0E82FF0E08827ED57FE4F12
:100300008F4F0C94E414A301A70195019B019F0159
:10031000D501AA01B001B401BA01BE01C201C801F0
:10032000CC01D501D001D601DA01809180008F7710
:10033000809380000895809180008F7DF9CF809117
:100340008000877FF5CF84B58F7784BD089584B50D
:100350008F7DFBCF8091B0008F778093B0000895A0
:100360008091B0008F7DF9CF809190008F7780933E
:1003700090000895809190008F7DF9CF809190003A
:10038000877FF5CF8091A0008F778093A00008959C
:100390008091A0008F7DF9CF8091A000877FF5CF5D
:1003A000809120018F778093200108958091200112
:1003B0008F7DF9CF80912001877FF5CFCF93DF9399
:1003C000282F30E0F901EE5DFD4F8491F901E452F0
:1003D000FE4FD491F901EA56FE4FC491CC23A1F00F
:1003E00081110E947701EC2FF0E0EE0FFF1FE4581F
:1003F000FE4FA591B491EC91ED2381E090E009F4DA
:1004000080E0DF91CF91089580E090E0FACF1F93D4
:10041000CF93DF93282F30E0F901EE5DFD4F8491FB
:10042000F901E452FE4FD491F901EA56FE4FC4910E
:10043000CC23A9F0162F81110E947701EC2FF0E058
:10044000EE0FFF1FEE59FE4FA591B4918FB7F894B0
:10045000EC91111108C0D095DE23DC938FBFDF91A2
:10046000CF911F910895DE2BF8CFCF93DF9390E0CB
:10047000FC01E452FE4F24918A569E4FFC01849168
:100480008823D1F090E0880F991FFC01E85BFE4FB4
:10049000A591B491FC01EE59FE4FC591D491611123
:1004A0000EC09FB7F8948C91E22FE0958E238C9329
:1004B0002881E223E8839FBFDF91CF9108958FB712
:1004C000F894EC91E22BEC938FBFF6CF863308F0D3
:1004D000865320917B00982F9870277F922B9093C2
:1004E0007B008770806480937C0080917A008064B8
:1004F00080937A0080917A0086FDFCCF809178000D
:100500009091790008953FB7F89480914E109091A2
:100510004F10A0915010B091511026B5A89B05C066
:100520002F3F19F00196A11DB11D3FBFBA2FA92F72
:10053000982F8827BC01CD01620F711D811D911D6F
:1005400042E0660F771F881F991F4A95D1F70895DB
:100550008F929F92AF92BF92CF92DF92EF92FF92D3
:100560006B017C010E9483024B015C01C114D10428
:10057000E104F104B9F00E948302681979098A093B
:100580009B09683E73408105910580F321E0C21A02
:10059000D108E108F10888EE880E83E0981EA11CBE
:1005A000B11CE4CFFF90EF90DF90CF90BF90AF9061
:1005B0009F908F9008952FB7F89460914A10709192
:1005C0004B1080914C1090914D102FBF0895AF9219
:1005D000BF92CF92DF92EF92FF920F931F93CF9330
:1005E000DF936C017B018B01040F151FEB015E0192
:1005F000AE18BF08C017D10759F06991D601ED9127
:10060000FC910190F081E02DC6011995892B79F7B5
:10061000C501DF91CF911F910F91FF90EF90DF9077
:10062000CF90BF90AF900895FC01538D448D252F3E
:1006300030E0842F90E0821B930B541710F0CF967C
:10064000089501970895FC01918D828D981761F0AE
:10065000A28DAE0FBF2FB11D5D968C91928D9F5FC5
:100660009F73928F90E008958FEF9FEF0895FC01A4
:10067000918D828D981731F0828DE80FF11D858D57
:1006800090E008958FEF9FEF0895FC01918D228DEA
:10069000892F90E0805C9F4F821B91098F7399276F
:1006A000089582E590E10E94450321E0892B09F439
:1006B00020E0822F0895FC01A48DA80FB92FB11D51
:1006C000A35ABF4F2C91848D90E001968F73992788
:1006D000848FA689B7892C93A089B1898C91837066
:1006E00080648C93938D848D981306C00288F3895F
:1006F000E02D80818F7D80830895EF92FF920F938C
:100700001F93CF93DF93EC0181E0888F9B8D8C8DBD
:1007100098131AC0E889F989808185FF15C09FB7B1
:10072000F894EE89FF896083E889F9898081837074
:10073000806480839FBF81E090E0DF91CF911F9123
:100740000F91FF90EF900895F62E0B8D10E00F5F44
:100750001F4F0F731127E02E8C8D8E110CC00FB61A
:1007600007FCFACFE889F989808185FFF5CFCE01B2
:100770000E945B03F1CFEB8DEC0FFD2FF11DE35ACF
:10078000FF4FF0829FB7F8940B8FEA89FB89808135
:100790008062CFCFCF93DF93EC01888D8823B9F0AF
:1007A000AA89BB89E889F9898C9185FD03C080817C
:1007B00086FD0DC00FB607FCF7CF8C9185FFF2CFF9
:1007C000808185FFEDCFCE010E945B03E9CFDF91F1
:1007D000CF91089580E090E0892B29F00E94510389
:1007E00081110E94000080E090E0892B49F080E0B8
:1007F00090E0892B29F00E94000081110E940000E6
:1008000080E090E0892B49F080E090E0892B29F08E
:100810000E94000081110E94000080E090E0892B7E
:1008200049F080E090E0892B29F00E9400008111BE
:100830000C9400000895BF92CF92DF92EF92FF9246
:100840000F931F93CF93DF9308EA17E08EE0E82E13
:1008500082E0F82E98EAC92E97E0D92EF801B080F0
:100860000E5F1F4F60E08B2D0E940702D0E0C0E0BA
:10087000F701EC0FFD1F80819181019739F461E050
:10088000FE01E856F84F80810E9407022296C0318F
:10089000D10571F761E070E080E090E00E94A8026D
:1008A00061E08B2D0E940702C8E9D7E0888122967B
:1008B00060E00E940702CC16DD06C1F7F0E1EF0E02
:1008C000F11C87E0083B180749F6DF91CF911F9193
:1008D0000F91FF90EF90DF90CF90BF90089585E348
:1008E0009FE030E020E0F901EE0FFF1FE80FF91F55
:1008F000118210822F5F3F4F20313105A1F7809682
:1009000020E18533920769F70895CF93DF93E5E2FD
:10091000FFE085E39FE0A1E0B0E0619170E0AC0111
:1009200030E020E040525109261737073CF4EA0135
:10093000D395B983A8832F5F3F4FF4CF02962FE062
:10094000E533F20751F7DF91CF91089520914010E0
:1009500030E040913D10D90154E0AA0FBB1F5A95D9
:10096000E1F7FD01E40FF11DEE0FFF1FEB5CF04F0F
:1009700011821082E0913E10EA0FFB2FF11DEE0F65
:10098000FF1FEB5CF04F11821082E0913F10AE0F21
:10099000B11DAA0FBB1FAB5CB04F1D921C92215022
:1009A000310980913B1090913C10892B09F0E42F84
:1009B00084E0220F331F8A95E1F7E20FF32FF11D38
:1009C000EE0FFF1FEB5CF04F118210820895CF9263
:1009D000DF92EF92FF920F931F93CF93DF931F92BB
:1009E0001F92CDB7DEB769834A83880F991F0091A4
:1009F000451110914611000F111FEFEEF0E19F011C
:100A00002F5E30412017310714F41192F8CF29815D
:100A1000FC01E151FF4E21838A81808360E0809157
:100A200043110E9407021016110604F50150110926
:100A3000F801E151FF4EE080D0904111C0903F118C
:100A400088E0F82E6E2D661F6627661F8C2D0E948B
:100A50000702EE0C61E08D2D0E94070260E08D2DF3
:100A60000E940702FA94F110EDCFDDCF61E0809192
:100A700043110F900F90DF91CF911F910F91FF9035
:100A8000EF90DF90CF900C940702EF92FF920F93BC
:100A90001F93CF937C018C0183E0000F111F8A9577
:100AA000E1F701501F4EC1E0F80111928F0140E0C3
:100AB0006C2FC7010E94E704CF5FC930A9F7CF911F
:100AC0001F910F91FF90EF900895EF92FF920F9377
:100AD0001F93CF93DF938091451190914611181683
:100AE000190624F490E080E00E944505C8E9D7E0AB
:100AF00088EBE82E87E0F82E8881229660E00E943D
:100B0000070208EA17E0F80180810E5F1F4F61E0DD
:100B10000E940702E016F106B1F7F7E0C83ADF07D6
:100B200059F7DF91CF911F910F91FF90EF900895AA
:100B30002F923F924F925F926F927F928F929F92ED
:100B4000AF92BF92CF92DF92EF92FF920F931F93DB
:100B5000CF93DF9300D01F92CDB7DEB738E9632E75
:100B600037E0732E2FEE30E13C832B836C012B0199
:100B700031E0398340E8242E312CF301F081FA83EF
:100B800022E0620E711C61E08F2F0E94070228EAAA
:100B9000E22E27E0F22E5701420110E000E0F501BD
:100BA0008081F2E0AF0EB11CF4012081318160E060
:100BB0002130310509F061E00E9407028091451162
:100BC000909146111816190604F5C101002E02C0B5
:100BD000959587950A94E2F7EB81FC812089F801CD
:100BE000EE0FFF1FEC0DFD1D40815181452B09F4D7
:100BF00053C0822BEB81FC81808BEB81FC8140898F
:100C0000698190E080E00E94E7040F5F1F4FF0E1F0
:100C10008F0E911C0830110511F661E070E080E044
:100C200090E00E94A80260E08A810E940702F7011A
:100C30008081F2E0EF0EF11C61E00E94070228EBD8
:100C400037E02E153F0599F78B819C8101969C8397
:100C50008B8399819F5F9983E0E1CE0ED11CF2E0F6
:100C60004F0E511C993009F088CF0F900F900F90C4
:100C70000F90DF91CF911F910F91FF90EF90DF9038
:100C8000CF90BF90AF909F908F907F906F905F902C
:100C90004F903F902F90089580958223ABCF6F9215
:100CA0007F928F929F92AF92BF92CF92DF92EF92FC
:100CB000FF920F931F93CF93DF93CDB7DEB7DA95F3
:100CC0000FB6F894DEBF0FBECDBF9C015B01942E22
:100CD000EAE0F0E0BF010E94D0146C01C9018C1958
:100CE0009D09BF010E94D0149B013695322F222707
:100CF0003795279522573D4F40E15DE0C61AD70A48
:100D0000D694DC2CCC24D794C7943A0170E060E0F0
:100D100089010C0D1D1DF30190E080E07901683020
:100D200071050CF07801E80EF91ED701ED90FC90EA
:100D3000F182E082B09640968038910579F76F5F36
:100D40007F4F2E5F3F4FB2E06B0E711C603171051B
:100D5000F9F680E88E010F5F1F4FF801982F11926E
:100D60009A95E9F77E01A1E8EA0EF11CF7011192CC
:100D70008A95E9F7B801F70190E080E030E020E0E3
:100D8000DA01A80FB91FCD90DC90DB01A80FB91FC5
:100D90002830310524F0DC015097AE0FBF1FCD92F3
:100DA000DC922F5F3F4F02962031310549F7605F9B
:100DB0007F4F7096405E5F4F6E157F05E9F691108C
:100DC00013C088E28A9D40018B9D900C1124D12C88
:100DD000C12CB701C8010E949805FFEFCF1ADF0AA6
:100DE0008C149D04B1F703C0C8010E949805D395E7
:100DF0000FB6F894DEBF0FBECDBFDF91CF911F912C
:100E00000F91FF90EF90DF90CF90BF90AF909F90A9
:100E10008F907F906F900895AF92BF92CF92DF92A4
:100E2000EF92FF920F931F93CF93DF93CDB7DEB76F
:100E3000DA950FB6F894DEBF0FBECDBF20E8CE0125
:100E40000196DC01E22F1D92EA95E9F75E01F1E8D7
:100E5000AF0EB11CD5011D922A95E9F7BC018501A1
:100E6000A5E3BFE030E020E050E040E07D01E20E8D
:100E7000F31EF701C080D1807B01E20EF31E4830E3
:100E8000510534F07901F0E1EF1AF108E00EF11E9E
:100E9000F701D182C0824F5F5F4F2E5F3F4F4031DD
:100EA000510521F7605F7F4F005F1F4F90966A15D5
:100EB0007B05C1F60E949805D3950FB6F894DEBF66
:100EC0000FBECDBFDF91CF911F910F91FF90EF909B
:100ED000DF90CF90BF90AF900895BF92CF92DF92F6
:100EE000EF92FF920F931F93CF93DF9300913F10E8
:100EF000E02EF12CF701EB5DF04F4081C0913E10E8
:100F0000D0E010913D10C12ED12C41110DC0FE0139
:100F1000EB5DF04F8081811107C0F601EB5DF04F72
:100F20008081882309F483C0B09040102B2D30E0DD
:100F300088E090E0BC01641B710926173707A4F410
:100F4000FE01EB5DF04F4081BC01641B7109261767
:100F5000370754F4F601EB5DF04F4081841B910993
:100F6000281739070CF463C08091371081110DC028
:100F7000109246101092351091E090930502109255
:100F800048101092361010924710815080933710FD
:100F90000E94A604BA94BA94B09240108B2D90E0AF
:100FA0009C0144E0220F331F4A95E1F7F901EC0D53
:100FB000FD1DEE0FFF1FEB5CF04F41E050E0518351
:100FC0004083C20FD31FCC0FDD1FCB5CD04F5983A2
:100FD0004883F901EE0DFF1DEE0FFF1FEB5CF04F94
:100FE00051834083FC01319780913B1090913C10DC
:100FF000892B09F4102F84E0EE0FFF1F8A95E1F78B
:10100000E10FF11DEE0FFF1FEB5CF04F81E090E070
:10101000918380830E948504DF91CF911F910F916E
:10102000FF90EF90DF90CF90BF900C940C07DF9172
:10103000CF911F910F91FF90EF90DF90CF90BF90D5
:101040000895FC0101900020E9F73197AF01481B9A
:10105000590BBC0182E590E10C94E7028F929F92BC
:10106000AF92BF920F931F93CF93DF93CDB7DEB7AD
:10107000A1970FB6F894DEBF0FBECDBF19A24230C4
:1010800008F44AE08E010F5D1F4F842E912CB12C85
:10109000A12CA50194010E94F012E62FB901CA010A
:1010A000EA30F4F4E05DD801EE938D01232B242B7C
:1010B000252B79F790E080E0109719F0CD010E9480
:1010C0002108A1960FB6F894DEBF0FBECDBFDF9109
:1010D000CF911F910F91BF90AF909F908F900895E7
:1010E000E95CE1CFCF92DF92EF92FF92CF93DF9353
:1010F00097FF1BC06B017C016DE282E590E10E94CD
:101100007D03EC0166277727CB016C197D098E09D9
:101110009F094AE00E942E088C0F9D1FDF91CF91FE
:10112000FF90EF90DF90CF9008954AE0DF91CF914C
:10113000FF90EF90DF90CF900C942E08CF93DF9329
:101140000E942108EC018AE49CE00E9421088C0F97
:101150009D1FDF91CF9108958F929F92AF92BF9282
:10116000CF92DF92EF92FF921F93CF93DF9382375C
:1011700081F410923C1010923B10DF91CF911F919F
:10118000FF90EF90DF90CF90BF90AF909F908F90A7
:1011900008958C3639F481E090E090933C10809370
:1011A0003B10EBCF8B3609F079C0C0914610CC23B1
:1011B00009F466C00E94DB026B017C01D0E010E004
:1011C00083E00E94DE010197D1F58091371041E064
:1011D00061E070E090E00E944F060E94DB026C1913
:1011E0007D098E099F0965352BE072078105910500
:1011F00044F00E9472088DE49CE00E949E081C2F1F
:10120000DFCF4B015C012DE6821A27E0920AA1088C
:10121000B1082BE4821624E09206A104B10440F444
:101220000E9472088FE59CE00E949E08DC2FC8CFC8
:101230000E94720881E79CE00E949E08C1CF1123A2
:1012400091F010924610109235101092050281E034
:1012500080934810109236101092471010920E0D85
:1012600010920D0D8ACFDD2309F487CF109246101E
:1012700081E0809335101092050210924810EACF59
:1012800081E0809346101092351010920502109262
:10129000481010923610109247106FCF833709F024
:1012A0006CCF80914110811168CF81E08093411013
:1012B000E0913E10E0930B0D9091401090930C0D37
:1012C000F0E0EB5DF04F9081992309F456CF8093C5
:1012D0000A0D53CFCF93DF9386E00E94DE01019782
:1012E00009F4DBC087E00E94DE01019709F4D7C052
:1012F00084E00E94DE010197C1F5809105028823F8
:1013000049F180914810811125C0809136108111DA
:1013100021C08091471081111DC083E89CE00E948C
:101320009E0862E370E080E090E00E94A802809155
:101330000F0D811111C087E99CE00E949E0881E099
:1013400080930F0D80931C0E62E370E080E090E0CC
:101350000E94A80283E714C081EA9CE00E949E08D4
:1013600010920F0D10921C0EEFCF83E00E94DE0151
:10137000019709F08CC080914610882321F08BE6FC
:10138000DF91CF910895C0910D0DD0910E0D219652
:10139000D0930E0DC0930D0D62E370E080E090E0FD
:1013A0000E94A802BE01DD0F880B990B0E947208F3
:1013B0008AE49CE00E94210880910D0D90910E0D11
:1013C0004E97ECF2809105028823E9F08091481055
:1013D000811119C080913610811115C0809147107C
:1013E000811111C089EA9CE00E949E0810920502BA
:1013F00081E080934810109236101092471010929E
:101400000E0D10920D0D8091050281111DC080916D
:101410004810811119C0809136108823A9F080915D
:101420004710811111C089EA9CE00E949E08109229
:10143000050281E0809348101092361010924710F8
:1014400010920E0D10920D0D80910502811197CF13
:1014500080914810811193CF8091361081118FCFE8
:1014600080914710882309F48ACF8EEA9CE00E947D
:101470009E081092050281E0809348101092361069
:101480001092471010920E0D10920D0D78CF109201
:101490000E0D10920D0D80E273CF82E771CF8CE6B6
:1014A0006FCF9F92AF92BF92CF92DF92EF92FF9257
:1014B0000F931F93CF93DF93912CC82FD0E02196E9
:1014C00080E1C82ED12C04E010E0A92CB12CCA1563
:1014D000DB05BCF00E940B127C010E940B12B601CE
:1014E0000E94D014FC01FF27EB5DF04F8081811139
:1014F000EECFC701B8010E94D0148F5F8083939410
:10150000E4CF0E946F04DF91CF911F910F91FF9064
:10151000EF90DF90CF90BF90AF909F900C94850498
:101520000F931F93CF93DF930E94A60400913B106B
:1015300010913C1060913D10C8010E946801C82FB5
:1015400080933D1060913E10C8010E946801D82F21
:1015500080933E1060913F10C8010E946801809303
:101560003F10E0914010F0E09F0194E0220F331F04
:101570009A95E1F7D901AC0FB11DAA0FBB1FAB5C67
:10158000B04F41E050E04D935C93D901AD0FB11DD8
:10159000AA0FBB1FAB5CB04F4D935C93D901A80F52
:1015A000B11DAA0FBB1FAB5CB04F4D935C9331973D
:1015B000012B09F4C82F14E0EE0FFF1F1A95E1F775
:1015C000EC0FF11DEE0FFF1FEB5CF04F81E090E0A0
:1015D000918380830E946D070E94DB02009142107C
:1015E000109143102091441030914510601B710BF5
:1015F000820B930B693E73408105910508F458C036
:101600000E94DB0260934210709343108093441059
:10161000909345100E94A60480914010873008F0F6
:1016200086E08F5F8093401090E0E0913D109C0138
:1016300074E0220F331F7A95E1F7D901AE0FB11D87
:10164000AA0FBB1FAB5CB04F41E050E04D935C93E1
:10165000A0913E10A20FB32FB11DAA0FBB1FAB5C10
:10166000B04F4D935C9360913F10D901A60FB11D0F
:10167000AA0FBB1FAB5CB04F4D935C9301972091B9
:101680003B1030913C10232B09F4E62F54E0880FD7
:10169000991F5A95E1F7E80FF92FF11DEE0FFF1F83
:1016A000EB5CF04F81E090E0918380830E946D07B6
:1016B0000E940C0780914110882309F49AC0E091A0
:1016C0000C0D6E2F70E020910B0D30E0DB0194E0EB
:1016D000AA0FBB1F9A95E1F7A20FB31FAA0FBB1F5A
:1016E000AB5CB04F1D921C92D901AB5DB04F8C9199
:1016F000882349F047E050E0461B570B8417150636
:1017000011F481508C93EF5FE0930C0DE83008F4F6
:1017100076C080910A0D8823A1F090913A108091B3
:1017200039108F5F809339109F5F90933A1065E076
:101730000E94C414911105C0809137108F5F80936F
:1017400037101092411010920A0DC091381020915C
:101750003A108C2F90E002962817190609F049C01C
:101760000E946F04E5E2FFE011928FE0E533F80795
:10177000D9F710923C1010923B1082E080933D10FC
:1017800081E080933E1010923F10809340101092A1
:101790003A10CE3008F0CDE0CF5FC093381040E073
:1017A00062E070E08C2F90E00E944F060E94DB0206
:1017B00060934210709343108093441090934510AF
:1017C00081E090E090935A0F8093590F9093580FB7
:1017D0008093570F9093560F8093550F9093360F29
:1017E0008093350F8C2F0E94510A0E9485040E941D
:1017F000900ADF91CF911F910F910C940C0780E11B
:10180000E89FF0011124E20FF31FEE0FFF1FEB5CC6
:10181000F04F81E090E091838083EBCF1F920F9295
:101820000FB60F9211242F933F938F939F93AF93F3
:10183000BF9380914A1090914B10A0914C10B091A1
:101840004D103091491023E0230F2D3758F50196A4
:10185000A11DB11D2093491080934A1090934B1005
:10186000A0934C10B0934D1080914E1090914F105A
:10187000A0915010B09151100196A11DB11D8093FF
:101880004E1090934F10A0935010B0935110BF91F1
:10189000AF919F918F913F912F910F900FBE0F901D
:1018A0001F90189526E8230F0296A11DB11DD2CFD7
:1018B0001F920F920FB60F9211240BB60F922F9317
:1018C0003F934F935F936F937F938F939F93AF93C8
:1018D000BF93EF93FF9382E590E10E945B03FF913A
:1018E000EF91BF91AF919F918F917F916F915F9198
:1018F0004F913F912F910F900BBE0F900FBE0F9005
:101900001F9018951F920F920FB60F9211240BB6CD
:101910000F922F938F939F93EF93FF93E091621019
:10192000F09163108081E0916810F091691082FD60
:101930001DC0908180916B108F5F8F7320916C1010
:10194000821741F0E0916B10F0E0EE5AFF4E958F58
:1019500080936B10FF91EF919F918F912F910F903A
:101960000BBE0F900FBE0F901F9018958081F2CF85
:10197000CF93DF93109255101092541088EE93E09D
:10198000A0E0B0E08093561090935710A0935810A9
:10199000B09359108CE39CE09093531080935210B5
:1019A00085EC90E090935F1080935E1084EC90E063
:1019B000909361108093601080EC90E0909363109E
:1019C0008093621081EC90E0909365108093641096
:1019D00082EC90E0909367108093661086EC90E024
:1019E000909369108093681010926B1010926C1095
:1019F00010926D1010926E10C3E3D0E0D09340119E
:101A0000C0933F1185E390E0909342118093411180
:101A100084E390E0909344118093431181E090E03F
:101A2000909346118093451161E083E30E94350253
:101A300061E0809141110E94350261E08091431183
:101A40000E94350261E0809143110E940702D09309
:101A50004011C0933F11EFEFF0E1119281E1EF33BC
:101A6000F807D9F7D0E0C0E0809145119091461178
:101A7000C817D90774F540E06FE0CE010E94E70473
:101A80008091451190914611C817D9072CF447E071
:101A90006BE0CE010E94E70440E069E0CE010E94C5
:101AA000E7048091451190914611C817D9071CF49D
:101AB000CE010E9445058091451190914611C817AD
:101AC000D9072CF440E06CE0CE010E94E704219697
:101AD000CBCFDF91CF910895CF93DF9300D0CDB7D7
:101AE000DEB7789484B5826084BD84B5816084BD9E
:101AF00085B5826085BD85B5816085BD80916E00AC
:101B0000816080936E0010928100809181008260DC
:101B10008093810080918100816080938100809119
:101B200080008160809380008091B1008460809308
:101B3000B1008091B00081608093B00080919100ED
:101B400082608093910080919100816080939100E8
:101B5000809190008160809390008091A1008260CC
:101B60008093A1008091A10081608093A100809169
:101B7000A00081608093A000809121018260809309
:101B800021018091210181608093210180912001B8
:101B900081608093200180917A00846080937A0034
:101BA00080917A00826080937A0080917A008160CF
:101BB00080937A0080917A00806880937A001092F6
:101BC000C100E0916210F091631082E08083E091A7
:101BD0005E10F0915F101082E0916010F091611042
:101BE0008FEC808310926A10E0916610F09167107C
:101BF00086E08083E0916410F091651080818061BF
:101C00008083E0916410F09165108081886080830A
:101C1000E0916410F0916510808180688083E0918C
:101C20006410F091651080818F7D808380E00E9438
:101C30006602BC01990F880B990B6115710581052E
:101C4000910511F00E94B51208E917E01B830A8381
:101C5000780108EA17E0F80180810E5F1F4F61E00C
:101C60000E943502F7018081F2E0EF0EF11C61E085
:101C70000E94350227E0083B120769F78091451161
:101C8000909146111816190634F441E06CE090E08A
:101C900080E00E94E704809145119091461118164A
:101CA000190634F448E06AE090E080E00E94E7041E
:101CB00080914511909146111816190624F490E070
:101CC00080E00E944505EA81FB8180813296FB839A
:101CD000EA8360E00E94070208EA17E0F8018081C9
:101CE0000E5F1F4F61E00E940702F7E0083B1F07ED
:101CF000A9F70A811B81085A174029F760E086E09E
:101D00000E94350260E087E00E94350260E084E0D6
:101D10000E94350260E083E00E9435020EE817E081
:101D200080E19EE09B838A837C0184E6882E912C4F
:101D3000A12CB12CF801619171918F01072E000C3B
:101D4000880B990B0E94CB1320E030E040E450E474
:101D50000E94211320E030E048EC52E40E94571426
:101D60000E9493139B01AC01A7E0B0E00E94DD123A
:101D7000A50194010E94BE122F5F3F4F4F4F5F4F4E
:101D8000F701219331937F01F7E008391F0791F69E
:101D900083E29EE030E020E0F901EE0FFF1FE80F44
:101DA000F91F118210822F5F3F4F20313105A1F7BB
:101DB00080960FE08332900769F790E080E067E05B
:101DC00070E0A1E0B0E0EA81FB8121913191FB83D9
:101DD000EA832115310591F0FC01EB5FF04F47E0FC
:101DE00050E08B01021B130B041715070CF0B5C252
:101DF000B183A08341505109B097F6CF06968E313A
:101E0000910509F7CC24C394D12C66246394712CDA
:101E100080910502882309F49DC08AEB9CE00E9412
:101E20009E080E946A090E94DB021B012C01F5E357
:101E3000AF2EFFE0BF2EF12CE12C0091210E10916E
:101E4000220E30E020E0B8016E0D7F1DFB01E20F95
:101E5000F31FE854F84F4081C901880F991F8A0D7C
:101E60009B1DFC01411159C0118210822F5F3F4F11
:101E70002031310559F761E070E080E090E00E9488
:101E8000A802F0E2AF0EB11C20E8E20EF11CE11452
:101E900034E0F30691F680911D0E90911E0EA091F4
:101EA0001F0EB091200EB201A101481B590B6A0B05
:101EB0007B0B8091010290910202A0910302B091EC
:101EC000040284179507A607B70700F520921D0E98
:101ED00030921E0E40921F0E5092200E20911C0E2A
:101EE00080911A0E90911B0E222301F10F371105DC
:101EF000B9F00F5F1F4F1093220E0093210E009731
:101F000091F0019790931B0E80931A0E0E940C077C
:101F10000E946F040E94EA037BCFD182C082A6CFC9
:101F200010E000E0E8CF8EE790E0ECCF011511055E
:101F300059F0015011091093220E0093210E8F3792
:101F4000910529F00196DECF0EE710E0F4CF90E086
:101F500080E0D8CF009148100983002309F4E4C041
:101F600085EC9CE00E949E088091230F9091240FA5
:101F7000892B01F50E9465050E941B040E941B0429
:101F80000E941B046AE070E080E090E00E94A802DA
:101F90007092240F6092230F0E946A098C36E1F53B
:101FA0008DEC9CE00E949E081092481031E0309326
:101FB0003610B0CF05E31FE068EBE62E6BE0F62E9F
:101FC00030E020E0F701E20FF31F4081C901880FE4
:101FD000991F800F911FFC0141111BC011821082BB
:101FE0002F5F3F4F2031310569F761E070E080E0FD
:101FF00090E00E94A802005E1F4FF0E1EF0EF11C7E
:1020000020E105331207E1F60E940C070E946F04DD
:10201000C3CFD182C082E4CF0E946A09833709F01E
:1020200074C083ED9CE00E949E081A82812C912C42
:1020300054010E94DB0205E31FE083E2E82E8EE0FC
:10204000F82E90E080E0F701E80FF91F2081318140
:10205000F801E80FF91F232B71F511821082029607
:102060008032910581F761E070E080E090E00E94AD
:10207000A802005E1F4F80E2E80EF11C90E10533DC
:102080001907F9F60E940C070E946F040E94DB02F8
:102090001B012C0183E00E94DE01019751F40A81AB
:1020A00001110CC00E94DB024B015C0119811A83F3
:1020B000C0CF1A82BECFD182C082D1CF28183908B2
:1020C0004A085B0820EF221A2AE0320A4108510828
:1020D00035EF231631E033064104510408F0A9CF4F
:1020E00082E00E94DE01892B09F0A3CF0E946F04D9
:1020F00064E670E080E090E00E94A80266E970E08B
:1021000080E090E00E94A80205CF0E946A09823711
:1021100009F000CF89ED9CE00E949E0810924810C3
:1021200081E080934710F6CE80914710882309F410
:102130008AC082EE9CE00E949E080E946A0986E3A3
:102140000E9466029C01ACE9BFEF0E94EC1420E003
:1021500034E040E050E00E94BE1249015A0194E68A
:10216000890E911CA11CB11CC40166EF7FEF0E9477
:10217000D0148B01065F1F4F8092010290920202E1
:10218000A0920302B09204028EE30E94660227E04E
:1021900030E0DC010E94F41428EE33E040E050E02F
:1021A0000E94BE12BA01A9014D5F5F4F6F4F7F4F72
:1021B000DA014093000265E37FE04FEF5FEF2BEF22
:1021C0003FEF90E080E0FC01EE0FFF1FE60FF71FEE
:1021D000118210824230510528F48017910714F4BF
:1021E000D182C0822230310528F48A179B0714F46B
:1021F000D182C08201968031910529F7605E7F4FC0
:102200002F5F3F4F4F5F5F4F23303105D1F6B8014D
:10221000110F880B990B0E9472088AE49CE00E94BF
:102220002108609101027091020280910302909155
:1022300004024AE00E942E088AE49CE00E942108E1
:102240000E940C0767CE80914610882389F08CEE9F
:102250009CE00E949E088091371041E061E070E0B0
:1022600090E00E944F060E946A090E94AC0852CE7C
:1022700080913610882309F456C085EF9CE00E94B7
:102280009E080E946F04E5E2FFE011920FE0E53343
:10229000F007D9F7809100028093371010923C101C
:1022A00010923B1012E010933D1021E020933E105D
:1022B00010923F102093401010923A101092391053
:1022C00010924110209338100E94DB02609342105C
:1022D00070934310809344109093451070925A0F5E
:1022E0006092590F7092580F6092570F7092560F6C
:1022F0006092550F7092360F6092350F81E00E9408
:10230000510A0E9485048091381040E062E070E03C
:1023100090E00E944F060E94900A1092361031E021
:1023200030933510F7CD80913510882309F4F2CD24
:1023300081E09DE00E949E080E9465050E94900A2F
:102340000E946A090E94AC08609101027091020229
:102350008091030290910402D5CEFC01E95FF04F19
:1023600047E050E08B01021B130B9801241735073F
:102370000CF044CDB183A08341505109B097F6CF02
:102380008F929F92AF92BF92CF92DF92EF92FF9285
:10239000CF93DF93EC01688179818A819B816115FC
:1023A00071058105910521F464E279ED8BE597E0F3
:1023B0002DE133EF41E050E00E94BE1249015A0185
:1023C0009B01AC01A7EAB1E40E94DD126B017C0124
:1023D000ACEEB4EFA50194010E94EB12DC01CB013D
:1023E0008C0D9D1DAE1DBF1DB7FF03C00197A10938
:1023F000B04888839983AA83BB839F77DF91CF916D
:10240000FF90EF90DF90CF90BF90AF909F908F9014
:1024100008950C94C01186E092E00C94C011B0E0D5
:10242000A0E08093060290930702A0930802B09365
:10243000090208958F929F92AF92BF92CF92DF923E
:10244000EF92FF92CF93DF93EC01688179818A81CB
:102450009B81611571058105910521F464E279ED97
:102460008BE597E02DE133EF41E050E00E94BE1292
:1024700049015A019B01AC01A7EAB1E40E94DD12B7
:102480006B017C01ACEEB4EFA50194010E94EB124C
:10249000C60ED71EE81EF91EF7FE06C081E0C81A58
:1024A000D108E10880E8F80AC882D982EA82FB8272
:1024B000C701B6019F77DF91CF91FF90EF90DF903A
:1024C000CF90BF90AF909F908F9008958F929F92E2
:1024D000AF92BF92CF92DF92EF92FF9260910A0289
:1024E00070910B0280910C0290910D0261157105A3
:1024F0008105910521F464E279ED8BE597E02DE10A
:1025000033EF41E050E00E94BE1249015A019B01A5
:10251000AC01A7EAB1E40E94DD126B017C01ACEED4
:10252000B4EFA50194010E94EB12C60ED71EE81E5F
:10253000F91EF7FE06C081E0C81AD108E10880E85C
:10254000F80AC0920A02D0920B02E0920C02F092BA
:102550000D02C701B6019F77FF90EF90DF90CF90FB
:10256000BF90AF909F908F90089560930A027093F0
:102570000B0280930C0290930D020895052E97FB99
:102580001EF400940E94D51257FD07D00E94F0124D
:1025900007FC03D04EF40C94D5125095409530951D
:1025A00021953F4F4F4F5F4F0895909580957095BF
:1025B00061957F4F8F4F9F4F08950E941213A59FE3
:1025C000900DB49F900DA49F800D911D112408952E
:1025D000B7FF0C94DD120E94DD12821B930B08954D
:1025E000A1E21A2EAA1BBB1BFD010DC0AA1FBB1F17
:1025F000EE1FFF1FA217B307E407F50720F0A21B89
:10260000B30BE40BF50B661F771F881F991F1A94F5
:1026100069F760957095809590959B01AC01BD011F
:10262000CF010895A29FB001B39FC001A39F700D79
:10263000811D1124911DB29F700D811D1124911DCA
:1026400008950E9435130C941D140E94161458F01E
:102650000E940F1440F029F45F3F29F00C940614F7
:1026600051110C9451140C940C140E942E1468F304
:102670009923B1F3552391F3951B550BBB27AA273B
:1026800062177307840738F09F5F5F4F220F331F75
:10269000441FAA1FA9F335D00E2E3AF0E0E832D03D
:1026A00091505040E695001CCAF72BD0FE2F29D040
:1026B000660F771F881FBB1F261737074807AB0712
:1026C000B0E809F0BB0B802DBF01FF2793585F4F87
:1026D0003AF09E3F510578F00C9406140C94511476
:1026E0005F3FE4F3983ED4F3869577956795B79569
:1026F000F7959F5FC9F7880F911D9695879597F974
:102700000895E1E0660F771F881FBB1F62177307EC
:102710008407BA0720F0621B730B840BBA0BEE1F01
:1027200088F7E09508950E949A136894B1110C946B
:10273000511408950E94361488F09F5798F0B92FCD
:102740009927B751B0F0E1F0660F771F881F991FE6
:102750001AF0BA95C9F714C0B13091F00E94501424
:10276000B1E008950C945014672F782F8827B85F34
:1027700039F0B93FCCF3869577956795B395D9F73E
:102780003EF490958095709561957F4F8F4F9F4F48
:102790000895E89409C097FB3EF490958095709554
:1027A00061957F4F8F4F9F4F9923A9F0F92F96E99D
:1027B000BB279395F695879577956795B795F11112
:1027C000F8CFFAF4BB0F11F460FF1BC06F5F7F4FAF
:1027D0008F4F9F4F16C0882311F096E911C07723C1
:1027E00021F09EE8872F762F05C0662371F096E8CA
:1027F000862F70E060E02AF09A95660F771F881F99
:10280000DAF7880F9695879597F9089597F99F6756
:1028100080E870E060E008959FEF80EC0895002468
:102820000A941616170618060906089500240A9435
:1028300012161306140605060895092E0394000CBB
:1028400011F4882352F0BB0F40F4BF2B11F460FF4A
:1028500004C06F5F7F4F8F4F9F4F089557FD905873
:10286000440F551F59F05F3F71F04795880F97FB54
:10287000991F61F09F3F79F087950895121613060E
:102880001406551FF2CF4695F1DF08C0161617063D
:102890001806991FF1CF8695710561050894089572
:1028A000E894BB2766277727CB0197F908950E9404
:1028B0006A140C941D140E940F1438F00E94161410
:1028C00020F0952311F00C9406140C940C14112490
:1028D0000C9451140E942E1470F3959FC1F3950F20
:1028E00050E0551F629FF001729FBB27F00DB11D94
:1028F000639FAA27F00DB11DAA1F649F6627B00D24
:10290000A11D661F829F2227B00DA11D621F739F0C
:10291000B00DA11D621F839FA00D611D221F749F1A
:102920003327A00D611D231F849F600D211D822F61
:10293000762F6A2F11249F5750409AF0F1F0882388
:102940004AF0EE0FFF1FBB1F661F771F881F9150B5
:102950005040A9F79E3F510580F00C9406140C944A
:1029600051145F3FE4F3983ED4F3869577956795CD
:10297000B795F795E7959F5FC1F7FE2B880F911DDF
:102980009695879597F90895991B79E004C0991F4A
:10299000961708F0961B881F7A95C9F780950895B9
:1029A00097FB072E16F4009407D077FD09D00E94FC
:1029B000FB1407FC05D03EF4909581959F4F089538
:1029C000709561957F4F0895EE0FFF1F881F8BBF95
:1029D0000790F691E02D19940E941213332312F4FC
:1029E0008A1B9B0B0C94F6140E941213B7FF0895D8
:1029F000821B930B0895AA1BBB1B51E107C0AA1FA2
:102A0000BB1FA617B70710F0A61BB70B881F991F8F
:102A10005A95A9F780959095BC01CD010895F89439
:102A2000FFCF03640000000101000000010000006E
:102A30000000000000000000000000000000000096
:102A40000000000000000000000000000000000086
:102A50000000000000000000000000000000000076
:102A60000000000000000000000000000000000066
:102A70000000000000000000000000000000000056
:102A80000000000000000000000000000000000046
:102A90000000000000000000000000000000000036
:102AA0000000000000000000000000000000000026
:102AB0000000000001000100010000000000000013
:102AC0000000010000000000000001000000000004
:102AD00000000100000000000000010000000000F4
:102AE00000000100000000000000010000000000E4
:102AF00000000100000000000000010000000000D4
:102B000000000100000000000000010000000000C3
:102B100000000100000000000000010000000000B3
:102B200000000000010001000100000000000000A2
:102B30000000000000000100000000000000000094
:102B40000000000001000100000000000000000083
:102B50000000000000000100000000000000000074
:102B60000000000000000100000000000000000064
:102B70000000000000000100000000000000000054
:102B80000000000000000100000000000000000044
:102B90000000000000000100000000000000000034
:102BA0000000000001000100010000000000000022
:102BB0000000000000000000000000000000000015
:102BC0000000000001000100010000000000000002
:102BD00000000100000000000000010000000000F3
:102BE00000000000000000000100000000000000E4
:102BF00000000000000001000000000000000000D4
:102C000000000000010000000000000000000000C3
:102C100000000100010001000100010000000000AF
:102C200000000000000000000000000000000000A4
:102C30000000000000000000000000000000000094
:102C40000000000001000100010000000000000081
:102C50000000010000000000000001000000000072
:102C60000000000000000000000001000000000063
:102C70000000000000000100010000000000000052
:102C80000000000000000000000001000000000043
:102C90000000010000000000000001000000000032
:102CA0000000000001000100010000000000000021
:102CB0000000000000000000000000000000000014
:102CC0000000010000000000000001000000000002
:102CD00000000100000000000000010000000000F2
:102CE00000000100010001000100010001000000DE
:102CF00000000000000000000000010000000000D3
:102D000000000000000000000000010000000000C2
:102D100000000000000000000000010000000000B2
:102D200000000000000000000000000000000000A3
:102D30000000000000000000000000000000000093
:102D4000000001000100010001000100010000007D
:102D50000000010000000000000000000000000072
:102D6000000001000100010001000000000000005F
:102D70000000000000000000000001000000000052
:102D80000000000000000000000000000100000042
:102D90000000000000000000000001000000000032
:102DA000000001000100010001000000000000001F
:102DB0000000000000000000000000000000000013
:102DC0000000000001000100010000000000000000
:102DD00000000100000000000000000000000000F2
:102DE00000000100000001000100010000000000DF
:102DF00000000100010000000000000001000000D0
:102E000000000100000000000000000001000000C0
:102E100000000000010001000100010000000000AE
:102E200000000000000000000000000000000000A2
:102E30000000000000000000000000000000000092
:102E4000000001000100010001000100010000007C
:102E50000000000000000000000000000100000071
:102E60000000000000000000000001000000000061
:102E70000000000000000000010000000000000051
:102E80000000000000000100000000000000000041
:102E90000000000001000000000000000000000031
:102EA0000000000000000000000000000000000022
:102EB0000000000000000000000000000000000012
:102EC00000000100010001000100010001000000FC
:102ED00000000100000000000000000001000000F0
:102EE00000000100000000000000000001000000E0
:102EF00000000100010001000100010001000000CC
:102F000000000100000000000000000001000000BF
:102F100000000100000000000000000001000000AF
:102F2000000001000100010001000100010000009B
:102F30000000000000000000000000000000000091
:102F4000000001000100010001000100010000007B
:102F5000000001000000000000000000010000006F
:102F6000000001000100010001000100010000005B
:102F70000000000000000000000000000100000050
:102F80000000000000000000000000000100000040
:102F90000000000000000000000000000100000030
:102FA0000000000000000000000000000000000021
:102FB000020001000000000000002A002900280093
:102FC00027002600250024002300320031003000B5
:102FD0002F002E002D002C002B0000000000000010
:102FE00000000000000000000000000000000000E1
:102FF00000000000000000000000000000000000D1
:1030000000000000000000000000000000000000C0
:1030100000000000000000000000000000000000B0
:1030200000000000000000000000000000000000A0
:103030000000000000000000000000000000000090
:103040000000000000000000000000000000000080
:103050000000000000000000000000000000000070
:103060000000010101010000000101010000000059
:10307000010000000000000000000000000001014D
:10308000010101000000000000000001010100003A
:103090000001010100000001010100000001010127
:1030A000000000000100000000000000010101011B
:1030B0000000010000000100010101010000000109
:1030C00001010000000000000001000000010001FB
:1030D00000000001000100010000000001010101E9
:1030E00000000100000001000100000001000101DA
:1030F00001000000000000000000000000000000CF
:1031000001000000000000000000010000000100BC
:1031100001000000010001000000010001000000AA
:103120000100000100000001010100000100000099
:103130000100010000000100010000000100010089
:10314000000001000000000000000100010000007C
:10315000010001000001000001000000010000006A
:10316000010001000000010001000000010000005A
:103170000100010101010100000000000000000049
:103180000100000001010101010000000001000038
:10319000010000000100000000010000000000012B
:1031A000000001000000010000000100010000011A
:1031B000000001000000010001000000010001000A
:1031C00000000100000000000000000100000000FD
:1031D00000010000000100000001000001000000EB
:1031E00001000101010100000101010101000000D5
:1031F00001000101010101000100000001000100C6
:1032000001000000010101010100000001000000B7
:1032100001000000010000000100000000000101A9
:103220000000010000000100000001000101010098
:103230000000010000000100010101010000010087
:10324000000001000000000000000100010000007B
:103250000100010000010000000100000101010166
:10326000000001000001000001000000010000005A
:10327000010000000000000000010001000001004A
:10328000010000000000000000000001000000003C
:10329000010000000100000100000000010000002A
:1032A0000100000100000001010101000100000116
:1032B000000001000000010001000000000001000A
:1032C00000000100000000000001000000010001FA
:1032D00000000001000100000100000001000000EA
:1032E00000000100000001000100000001000000DA
:1032F00001000000000000000000010000000001CB
:1033000000000000000000000000010101010100B8
:1033100000010101000001010101010000010101A2
:10332000000000000100000000000100010000009A
:103330000100000101010000010000000000000187
:10334000010100000000000000000000000000007B
:10335000000000000000000100000000010000006B
:10336000000000000000000000000000000000005D
:10337000000000000000000000000000000000004D
:10338000000000000000000000000000000000003D
:10339000000000000000000000000000000000002D
:1033A000000000000000000101010000000000001A
:1033B000000000000000000000000000000000000D
:1033C00000000000000000000000000000000000FD
:1033D00000000000000000000000000000000001EC
:1033E00001010101010000000000000000000001D7
:1033F00001010101010000000000000100000001C6
:1034000000010101010000010100000101010001B2
:1034100000010100010001000000000001000001A6
:103420000000010001000100000000000000000198
:103430000000000001000001010000000000000188
:103440000101010101000000000000000000000176
:1034500001010101010000000000000000007D03E7
:10346000E7021403CA034503230337030D0A0020B0
:10347000524547524553415220414C204D454E55EF
:1034800000524547524553415220414C204A554530
:10349000474F00515545444152534520454E205019
:1034A000415553410043616D62696F20646520643A
:1034B0006972656363696F6E00697A7175696572B7
:1034C00064610064657265636861003373656700F9
:1034D0003373656720636F6E66696700656E206D84
:1034E000656E73616A6500656E206D656E75004A74
:1034F0007565676F00737461747300656E436F6EFA
:1035000066696700656E20636F6E66696700656E49
:10351000207061757361006E7565766F206A7565E0
:0C352000676F00656E206A7565676F00BC
:020000040003F7
:10E000000D9489F10D94B2F10D94B2F10D94B2F129
:10E010000D94B2F10D94B2F10D94B2F10D94B2F1F0
:10E020000D94B2F10D94B2F10D94B2F10D94B2F1E0
:10E030000D94B2F10D94B2F10D94B2F10D94B2F1D0
:10E040000D94B2F10D94B2F10D94B2F10D94B2F1C0
:10E050000D94B2F10D94B2F10D94B2F10D94B2F1B0
:10E060000D94B2F10D94B2F10D94B2F10D94B2F1A0
:10E070000D94B2F10D94B2F10D94B2F10D94B2F190
:10E080000D94B2F10D94B2F10D94B2F10D94B2F180
:10E090000D94B2F10D94B2F10D94B2F10D94B2F170
:10E0A0000D94B2F10D94B2F10D94B2F10D94B2F160
:10E0B0000D94B2F10D94B2F10D94B2F10D94B2F150
:10E0C0000D94B2F10D94B2F10D94B2F10D94B2F140
:10E0D0000D94B2F10D94B2F10D94B2F10D94B2F130
:10E0E0000D94B2F141546D656761323536300041AF
:10E0F000726475696E6F206578706C6F72657220DE
:10E1000073746B3530305632206279204D4C530099
:10E11000426F6F746C6F616465723E004875683F52
:10E1200000436F6D70696C6564206F6E203D200048
:10E130004350552054797065202020203D20005FF9
:10E140005F4156525F415243485F5F3D2000415658
:10E1500052204C696243205665723D20004743437C
:10E160002056657273696F6E203D20004350552024
:10E1700049442020202020203D20004C6F7720663D
:10E18000757365202020203D20004869676820665F
:10E190007573652020203D200045787420667573D6
:10E1A00065202020203D20004C6F636B2066757336
:10E1B000652020203D20004D617220203720323024
:10E1C000313300312E362E3800342E332E350056A2
:10E1D00023202020414444522020206F7020636F70
:10E1E00064652020202020696E73747275637469E1
:10E1F0006F6E2061646472202020496E74657272B3
:10E20000757074006E6F20766563746F7200726A49
:10E210006D702020006A6D70200057686174207056
:10E220006F72743A00506F7274206E6F7420737541
:10E2300070706F72746564004D7573742062652030
:10E2400061206C6574746572002000577269747483
:10E25000696E672045450052656164696E672045B7
:10E26000450045452065727220636E743D00504F35
:10E27000525400303D5A65726F2061646472003FF1
:10E280003D43505520737461747300403D454550C3
:10E29000524F4D207465737400423D426C696E6B41
:10E2A000204C454400453D44756D70204545505215
:10E2B0004F4D00463D44756D7020464C415348001B
:10E2C000483D48656C70004C3D4C69737420492F83
:10E2D0004F20506F72747300513D51756974005234
:10E2E0003D44756D702052414D00563D73686F7707
:10E2F00020696E7465727275707420566563746FF0
:10E30000727300593D506F727420626C696E6B00BD
:10E310002A0011241FBECFEFD1E2DEBFCDBF01E046
:10E320000CBF12E0A0E0B2E0EEE1FDEF03E00BBFB6
:10E3300002C007900D92A030B107D9F712E0A0E01B
:10E34000B2E001C01D92AE30B107E1F70F9460F367
:10E350000D948DFE01E20EBF0FEF0DBF11241FBE05
:10E360000D9460F30D9400F020E030E040ED57E0B4
:10E3700005C0FA013197F1F72F5F3F4F2817390792
:10E38000C0F308959C01260F311DC901A0E0B0E043
:10E390002F5F3F4FABBFFC018791882361F08093D3
:10E3A000C6008091C00086FFFCCF8091C0008064D1
:10E3B0008093C000EACF08958DE08093C6008091DD
:10E3C000C00086FFFCCF8091C00080648093C000B5
:10E3D0008AE08093C6008091C00086FFFCCF8091C8
:10E3E000C00080648093C00008950F94C2F10F9420
:10E3F000DCF10895FC019081992359F09093C600B7
:10E400008091C00086FFFCCF8091C0008064809323
:10E41000C0003196992379F70895282F982F929567
:10E420009F70892F805D8A3308F0895F8093C600D2
:10E430008091C00086FFFCCF8091C00080648093F3
:10E44000C000822F8F70982F905D9A3308F0995FEB
:10E450009093C6008091C00086FFFCCF8091C000E1
:10E4600080648093C00008959C01FB01853691056E
:10E470001CF46330710594F0C90164E670E00F94F8
:10E480002EFE605D7F4F6093C6008091C00086FFC6
:10E49000FCCF8091C00080648093C0002B30310598
:10E4A00014F43297B4F0C90164E670E00F942EFEC4
:10E4B0006AE070E00F942EFE605D7F4F6093C600AF
:10E4C0008091C00086FFFCCF8091C0008064809363
:10E4D000C000C9016AE070E00F942EFEC0968093E0
:10E4E000C6008091C00086FFFCCF8091C000806490
:10E4F0008093C00008951F93182F8EE692EE60E07F
:10E500000F94C2F11093C6008091C00086FFFCCF2B
:10E510008091C00080648093C0000F94DCF11F9153
:10E5200008952F923F924F925F926F927F928F92B7
:10E530009F92AF92BF92CF92DF92EF92FF920F9392
:10E540001F93DF93CF93CDB7DEB762970FB6F894E2
:10E55000DEBF0FBECDBF382E622ECA01DB015C01CB
:10E560006D01772420E2222E2E010894411C511CBB
:10E570008BC081E0A81680E0B80681E0C80680E084
:10E58000D80628F0C601AA27BB270F940DF2BB2797
:10E59000AD2D9C2D8B2D0F940DF28A2D0F940DF225
:10E5A0002092C6008091C00086FFFCCF8091C00001
:10E5B00080648093C0009DE29093C6008091C0006B
:10E5C00086FFFCCF8091C00080648093C0002092C1
:10E5D000C6008091C00086FFFCCF8091C00080649F
:10E5E0008093C00019828601750188249924A1E0D6
:10E5F0003A1651F03A1620F0B2E03B1661F409C029
:10E600000BBFF701779007C0C7010F9477FE782EF4
:10E6100002C0F7017080872D0F940DF22092C60082
:10E620008091C00086FFFCCF8091C0008064809301
:10E63000C000872D8052F401EF70F0708F3520F408
:10E64000E40DF51D708204C0E40DF51D8EE280839B
:10E650000894E11CF11C011D111D0894811C911CE2
:10E6600090E18916910409F0C2CF80E190E0A0E02A
:10E67000B0E0A80EB91ECA1EDB1E198AC2010F9493
:10E68000FAF10F94DCF16A94662009F072CF629679
:10E690000FB6F894DEBF0FBECDBFCF91DF911F91B3
:10E6A0000F91FF90EF90DF90CF90BF90AF909F9031
:10E6B0008F907F906F905F904F903F902F90089534
:10E6C0002F923F924F925F926F927F928F929F9282
:10E6D000AF92BF92CF92DF92EF92FF920F931F9370
:10E6E000DF93CF93CDB7DEB7CD53D1400FB6F894BB
:10E6F000DEBF0FBECDBF01E20EBF0FEF0DBF94B75F
:10E70000F894A89514BE80916000886180936000A1
:10E7100010926000789493FF05C0E0910002F091A0
:10E7200001021995279A2F9A8091C00082608093E8
:10E73000C00080E18093C40088E18093C1000000A4
:10E74000EE24FF24870144E0A42EB12CCC24DD2448
:10E7500024C0C5010197F1F70894E11CF11C011DCB
:10E76000111D21E2E2162EE4F20620E0020720E06D
:10E77000120718F031E0C32ED12CC801B70127ECE5
:10E780003BE140E050E00F9441FE611571058105C9
:10E79000910519F485B1805885B98091C00087FD35
:10E7A00003C0C114D104A9F2A6014F5F5F4FC25E3E
:10E7B000DE4F59834883CE51D140C25EDE4F8881FF
:10E7C0009981CE51D140019711F00D9410FEC05D9A
:10E7D000DE4F19821882C053D14060E0C15DDE4F28
:10E7E0001882CF52D14088249924C35DDE4F19820C
:10E7F0001882CD52D140C05EDE4F188219821A8233
:10E800001B82C052D140CE5CDE4F188219821A8220
:10E810001B82C253D140EE24FF2487010BBFF701B6
:10E8200007911691C45CDE4F19830883CC53D14005
:10E830000D940BFEC25EDE4F28813981CE51D1404E
:10E840002130310509F52091C600C25EDE4F1982E4
:10E850001882CE51D14022C02F5F3F4F4F4F5F4FA4
:10E86000213082E138078AE7480780E0580780F0C6
:10E87000C45CDE4FE881F981CC53D140EF5FFF4F9C
:10E8800019F0EE27FF27099420E030E040E050E047
:10E890008091C00087FFE0CF2091C600C35DDE4FAE
:10E8A00048815981CD52D1404F5F5F4FC35DDE4FEC
:10E8B00059834883CD52D140213209F063C64A3092
:10E8C000510508F05FC60894811C911C53E0851621
:10E8D000910409F059C600E010E018C081E280936D
:10E8E000C6008091C00086FFFCCF8091C00080648C
:10E8F0008093C0002F5F3F4F2931310579F70F9486
:10E90000DCF10F5F1F4F0530110519F020E030E0FA
:10E91000E5CF10920A0210920B0210920C02109294
:10E920000D02109206021092070210920802109235
:10E930000902109202021092030210920402109235
:10E9400005028FEE90EE60E00F94F5F180E191EE1C
:10E9500060E00F94C2F18091C00087FFFCCF9091DE
:10E96000C600903608F09F759032B8F09093C600BC
:10E970008091C00086FFFCCF8091C00080648093AE
:10E98000C000A0E2A093C6008091C00086FFFCCF2B
:10E990008091C00080648093C000983409F4D7C18E
:10E9A0009934B8F4923409F459C1933458F490333B
:10E9B00019F1903308F4E3C59F33A1F1903409F0C5
:10E9C000DEC5BDC0953409F470C1963409F0D7C5D1
:10E9D00098C1923509F42BC2933538F49C3409F46C
:10E9E000F5C1913509F0CBC518C2963509F445C279
:10E9F000993509F0C4C567C483E792EE62E00F94CD
:10EA0000F5F110920602109207021092080210927D
:10EA1000090210920A0210920B0210920C0210923C
:10EA20000D0213C18FE792EE62E00F94F5F18FEEC5
:10EA300090EE60E00F94F5F181E291EE60E00F94CA
:10EA4000C2F187EB91EE60E00F94F5F180E391EE77
:10EA500060E00F94C2F184EE90EE60E00F94F5F167
:10EA60008FE391EE60E00F94C2F186E090E061E008
:10EA700070E00F9434F20F94DCF18DE591EE60E0DC
:10EA80000F94C2F189EC91EE60E00F94F5F18EE401
:10EA900091EE60E00F94C2F183EC91EE60E00F9490
:10EAA000F5F18CE691EE60E00F94C2F18EE10F94E7
:10EAB0000DF288E90F940DF281E00F940DF20F949E
:10EAC000DCF18BE791EE60E00F94C2F119E0E0E039
:10EAD000F0E010935700E4918E2F0F940DF20F94F5
:10EAE000DCF18AE891EE60E00F94C2F1E3E0F0E03F
:10EAF00010935700E4918E2F0F940DF20F94DCF1D8
:10EB000089E991EE60E00F94C2F1E2E0F0E0109349
:10EB10005700E4918E2F0F940DF20F94DCF188EAE8
:10EB200091EE60E00F94C2F1E1E0F0E01093570045
:10EB30001491812F0F940DF20F94DCF107CF8BE825
:10EB400092EE62E00F94F5F18BE492EE60E00F94A8
:10EB5000F5F10F94DCF100E010E019C0C8016F2D51
:10EB60000F947FFEFF2031F489E492EE60E00F9471
:10EB7000C2F10BC0F092C6008091C00086FFFCCFAE
:10EB80008091C00080648093C0000F5F1F4FC80158
:10EB900081519F41A0E0B0E0ABBFFC01F790BAE229
:10EBA000FB1621F0E2E000301E07C1F60F94DCF105
:10EBB0000F94DCF187E592EE60E00F94F5F10F948D
:10EBC000DCF1CC24DD2400E010E01EC0C8010F946D
:10EBD00077FEF82E882331F489E492EE60E00F94FA
:10EBE000C2F10BC08093C6008091C00086FFFCCFAD
:10EBF0008091C00080648093C000FE1419F00894D6
:10EC0000C11CD11C0F5F1F4FC80181519F41A0E063
:10EC1000B0E0ABBFFC01E790FAE2EF1621F022E092
:10EC20000030120799F60F94DCF10F94DCF182E6C4
:10EC300092EE60E00F94C2F1C60161E070E00F94C3
:10EC400034F20F94DCF10F94DCF110920202109276
:10EC50000302109204021092050278CE89E992EE26
:10EC600062E00F94F5F1279A2F9A16C02F9880E052
:10EC700090E0E0EDF7E03197F1F7019684369105E9
:10EC8000C1F72F9A80E090E0E0EDF7E03197F1F7DF
:10EC9000019684369105C1F78091C00087FFE6CFC9
:10ECA0008091C00087FFFCCF64C485EA92EE62E0E9
:10ECB0000F94F5F140910202509103026091040219
:10ECC0007091050281E020E10F9491F2809102029F
:10ECD00090910302A0910402B091050280509F4FD1
:10ECE000AF4FBF4F8093020290930302A0930402A0
:10ECF000B093050280509041A040B04008F426CE69
:10ED0000A4CF83EB92EE62E00F94F5F140910602FE
:10ED100050910702609108027091090280E020E1A1
:10ED20000F9491F28091060290910702A09108023F
:10ED3000B091090280509F4FAF4FBF4F80930602A2
:10ED400090930702A0930802B0930902FFCD80ECD4
:10ED500092EE62E00F94F5F183E792EE60E00F949B
:10ED6000F5F18FE792EE60E00F94F5F18BE892EE0B
:10ED700060E00F94F5F189E992EE60E00F94F5F10F
:10ED800085EA92EE60E00F94F5F183EB92EE60E09D
:10ED90000F94F5F180EC92EE60E00F94F5F187ECC2
:10EDA00092EE60E00F94F5F188ED92EE60E00F9442
:10EDB000F5F18FED92EE60E00F94F5F18AEE92EEB0
:10EDC00060E00F94F5F183E093EEBDCD87EC92EE19
:10EDD00062E00F94F5F181E40F947BF282E40F94EA
:10EDE0007BF283E40F947BF284E40F947BF285E45E
:10EDF0000F947BF286E40F947BF287E40F947BF20E
:10EE000088E40F947BF28AE40F947BF28BE40F94F6
:10EE10007BF28CE40F947BF299CD88ED92EE62E068
:10EE20000F94F5F1772473948824992409C48FED05
:10EE300092EE62E00F94F5F140910A0250910B02BC
:10EE400060910C0270910D0282E020E10F9491F22A
:10EE500080910A0290910B02A0910C02B0910D02D8
:10EE600080509F4FAF4FBF4F80930A0290930B0289
:10EE7000A0930C02B0930D0269CD8AEE92EE62E08F
:10EE80000F94F5F184EE90EE60E00F94F5F18FECC5
:10EE900091EE60E00F94F5F1662477244301CC5D98
:10EEA000DE4F19821882C452D140D401C301B695F5
:10EEB000A79597958795CA5DDE4F88839983AA8326
:10EEC000BB83C652D140CC5DDE4FA881B981C4520C
:10EED000D1401196CC5DDE4FB983A883C452D14096
:10EEE000CD0162E070E00F9434F2B0E2B093C6005E
:10EEF0008091C00086FFFCCF8091C0008064809329
:10EF0000C000EDE2E093C6008091C00086FFFCCF18
:10EF10008091C00080648093C000F0E2F093C6004E
:10EF20008091C00086FFFCCF8091C00080648093F8
:10EF3000C000CA5DDE4FE880F9800A811B81C6529D
:10EF4000D140BB27A12F902F8F2D0F940DF2CA5DBA
:10EF5000DE4F8881C652D1400F940DF2B0E2FB2EF5
:10EF6000F092C6008091C00086FFFCCF8091C00067
:10EF700080648093C0000DE30093C6008091C000C0
:10EF800086FFFCCF8091C00080648093C00010E2B7
:10EF90001093C6008091C00086FFFCCF8091C00016
:10EFA00080648093C0008BBEF3012791C65DDE4F65
:10EFB0002883CA52D140A22EBB24CC24DD2408943D
:10EFC000611C711C811C911C8BBEF3018791282E42
:10EFD0003324442455240894611C711C811C911C09
:10EFE0008BBEF3013791C55DDE4F3883CB52D140E4
:10EFF0000894611C711C811C911C8BBEF30147910C
:10F00000C45DDE4F4883CC52D140ADEFEA2EAFEF66
:10F01000FA2EAFEF0A2FAFEF1A2F6E0C7F1C801E57
:10F02000911E142D032DF22CEE24EA0CFB1C0C1D5A
:10F030001D1D0F940DF220E22093C6008091C000A8
:10F0400086FFFCCF8091C00080648093C000C65DC5
:10F05000DE4F8881CA52D1400F940DF230E23093D6
:10F06000C6008091C00086FFFCCF8091C000806404
:10F070008093C000C45DDE4F8881CC52D1400F9494
:10F080000DF240E24093C6008091C00086FFFCCFA5
:10F090008091C00080648093C000C55DDE4F888190
:10F0A000CB52D1400F940DF250E25093C6008091A4
:10F0B000C00086FFFCCF8091C00080648093C000B8
:10F0C0008FEFE8168FEFF80680E0080780E018075A
:10F0D00031F484E092EE60E00F94C2F1DFC0D80119
:10F0E000C7018070907CA070B0708050904CA040A0
:10F0F000B040D1F52FEF3FE340E050E0E222F322B1
:10F1000004231523CA5DDE4FA880B980CA80DB8046
:10F11000C652D140AE0CBF1CC01ED11EAA0CBB1CD7
:10F12000CC1CDD1C8EE092EE60E00F94C2F1BB2798
:10F13000A12F902F8F2D0F940DF28E2D0F940DF285
:10F1400030E23093C6008091C00086FFFCCF8091F2
:10F15000C00080648093C0004EE34093C60080915D
:10F16000C00086FFFCCF87C08EE09EEFA0E0B0E03D
:10F17000E822F9220A231B239CE0E91694E9F90608
:10F1800090E0090790E0190709F088C0C45DDE4FE0
:10F19000A881CC52D140EA2EFF2400E010E0102FCD
:10F1A0000F2DFE2CEE24C55DDE4FB881CB52D14031
:10F1B000EB0EF11C011D111DD601C501817090706F
:10F1C000A070B070DC0199278827E80EF91E0A1F8D
:10F1D0001B1F20EF30E040E050E0A222B322C42207
:10F1E000D52241E1AA0CBB1CCC1CDD1C4A95D1F7F1
:10F1F000EA0CFB1C0C1D1D1D81E090E0A0E0B0E0BE
:10F20000282239224A225B2235E1220C331C441C7D
:10F21000551C3A95D1F7E20CF31C041D151D57013E
:10F220006801AA0CBB1CCC1CDD1C85E192EE60E0E1
:10F230000F94C2F1C801AA27BB270F940DF2BB2778
:10F24000A12F902F8F2D0F940DF28E2D0F940DF274
:10F2500090E29093C6008091C00086FFFCCF809121
:10F26000C00080648093C000AEE3A093C60080918C
:10F27000C00086FFFCCF8091C00080648093C000F6
:10F28000C601AA27BB270F940DF2BB27AD2D9C2DDD
:10F290008B2D0F940DF28A2D0F940DF20F94DCF14B
:10F2A000CC5DDE4FE881F981C452D140F99709F471
:10F2B0004DCBF4E0EF2EF12C012D112D6E0C7F1CA7
:10F2C000801E911EF2CD83E093EE62E00F94F5F183
:10F2D0008AE192EE60E00F94C2F18091C00087FF56
:10F2E000FCCF1091C6001F751093C6008091C0001E
:10F2F00086FFFCCF8091C00080648093C0000F9493
:10F30000DCF1812F81548A3108F036C1163409F4BA
:10F3100095C0173490F4133409F44EC0143430F40B
:10F320001134F1F0123409F01DC130C0143409F465
:10F3300059C0153409F016C16BC01A3409F4C4C0A1
:10F340001B3438F4173409F48FC0183409F00AC19B
:10F35000A1C01B3409F4D2C01C3409F003C1E8C0B9
:10F360008FEF81B90DC082B1809582B980E090E0C5
:10F37000E0EDF7E03197F1F70196883C9105C1F790
:10F380008091C00087FFEFCF12B8EFC08FEF84B934
:10F390000DC085B1809585B980E090E0E0EDF7E0A3
:10F3A0003197F1F70196883C9105C1F78091C00033
:10F3B00087FFEFCF15B8D9C08FEF87B90DC088B1DF
:10F3C000809588B980E090E0E0EDF7E03197F1F7C3
:10F3D0000196883C9105C1F78091C00087FFEFCF6F
:10F3E00018B8C3C08FEF8AB90DC08BB180958BB9A7
:10F3F00080E090E0E0EDF7E03197F1F70196883C8E
:10F400009105C1F78091C00087FFEFCF1BB8ADC059
:10F410008FEF8DB90DC08EB180958EB980E090E0F0
:10F42000E0EDF7E03197F1F70196883C9105C1F7DF
:10F430008091C00087FFEFCF1EB897C08FEF80BBD1
:10F440000DC081B3809581BB80E090E0E0EDF7E0F6
:10F450003197F1F70196883C9105C1F78091C00082
:10F4600087FFEFCF11BA81C08FEF83BB0DC084B38C
:10F47000809584BB80E090E0E0EDF7E03197F1F714
:10F480000196883C9105C1F78091C00087FFEFCFBE
:10F4900014BA6BC08FEF809301010FC080910201FD
:10F4A00080958093020180E090E0E0EDF7E03197F5
:10F4B000F1F70196883C9105C1F78091C00087FF64
:10F4C000EDCF1092020151C08FEF809304010FC065
:10F4D0008091050180958093050180E090E0E0ED4A
:10F4E000F7E03197F1F70196883C9105C1F78091DB
:10F4F000C00087FFEDCF1092050137C08FEF8093DA
:10F5000007010FC08091080180958093080180E079
:10F5100090E0E0EDF7E03197F1F70196883C910536
:10F52000C1F78091C00087FFEDCF109208011DC088
:10F530008FEF80930A010FC080910B01809580931B
:10F540000B0180E090E0E0EDF7E03197F1F70196F4
:10F55000883C9105C1F78091C00087FFEDCF1092E4
:10F560000B0103C085E292EEEEC98091C00087FFD7
:10F57000FCCF8091C600EAC988E392EEE4C98CE131
:10F5800091EEE1C988249924933011F1943028F444
:10F59000913089F09230B8F408C0953061F195301F
:10F5A000F0F0963009F048C043C02B3109F042C951
:10F5B00091E06BE13FC96227C15DDE4F2883CF52E6
:10F5C000D14092E037C9B22FA0E0622793E032C960
:10F5D000822F90E0A82BB92B622794E02BC92E3004
:10F5E00009F039C3622795E0C05DDE4F19821882A9
:10F5F000C053D1401FC9E1E0F0E0EC0FFD1FC05D3A
:10F60000DE4F08811981C053D140E00FF11F2083E4
:10F610000F5F1F4FC05DDE4F19830883C053D14079
:10F6200062270A171B0709F005C9D80196E002C92D
:10F63000261709F010C303C0973009F0FBC87724E0
:10F640009981933109F412C19431C8F4963009F4C8
:10F65000D8C0973050F4923009F406C1933009F4C1
:10F660006DC0913009F059C253C0913109F477C08F
:10F67000923108F0BBC0903109F04FC2F5C098310B
:10F6800009F487C0993150F4953109F4EFC09531F0
:10F6900008F4C6C1963109F040C2C2C19A3109F4DA
:10F6A0006CC09A3108F491C09B3109F45BC09D3164
:10F6B00009F033C29D81903359F48F81882311F46E
:10F6C0009EE11CC0813011F091E018C098E916C08D
:10F6D000892F807591F0903539F4E0E0F0E089E011
:10F6E0008093570094910AC0983539F4E3E0F0E034
:10F6F00089E080935700949101C090E01A821B82A8
:10F700008D818C831D829E831F8227E030E009C299
:10F710001A8288E08B8381E48C8386E58D8382E581
:10F720008E8389E48F8383E5888780E589878FE5E9
:10F730008A8782E38B872BE030E0F3C18A818139AD
:10F7400041F0823941F0803911F48FE005C080E04A
:10F7500003C082E001C08AE01A828B8344C0772410
:10F76000739482C08D81882311F48EE12CC0813086
:10F7700011F081E028C088E926C01A82E1E0F0E0BB
:10F7800089E08093570084918B831C8224E030E0D1
:10F79000C8C18B81803589F48C81883039F4E2E0EE
:10F7A000F0E089E08093570084910DC0E0E0F0E044
:10F7B00089E080935700849106C0E3E0F0E089E09F
:10F7C0008093570084911A82DFCF8D81836C99E0FA
:10F7D000E1E0F0E0082E90935700E89507B600FCB2
:10F7E000FDCF1A821B8223E030E09BC180EC8A832C
:10F7F000CE5CDE4F188219821A821B82C253D1401E
:10F800008EC18A8190E0A0E0B0E0582F44273327D2
:10F8100022278B8190E0A0E0B0E0DC0199278827C7
:10F82000282B392B4A2B5B2B8D8190E0A0E0B0E098
:10F83000282B392B4A2B5B2B8C8190E0A0E0B0E089
:10F84000BA2FA92F982F8827282B392B4A2B5B2BCF
:10F85000220F331F441F551FC05EDE4F288339839C
:10F860004A835B83C052D1401A8259C13A81C95C34
:10F87000DE4F3883C753D140CA5CDE4F1882C6536F
:10F88000D1408B81C82EDD24CA5CDE4F488159816E
:10F89000C653D140C42AD52A933109F082C0CE5C28
:10F8A000DE4F88819981AA81BB81C253D1408050AB
:10F8B000904CA340B04030F583E0CE5CDE4FE88052
:10F8C000F9800A811B81C253D140F70100935B008C
:10F8D00080935700E89507B600FCFDCFCE5CDE4F65
:10F8E000088119812A813B81C253D14000501F4FAA
:10F8F0002F4F3F4FCE5CDE4F088319832A833B8313
:10F90000C253D140C05EDE4F488159816A817B81FC
:10F91000C052D140DE011B9631E08C9111962C91A2
:10F9200011971296C75CDE4F2883C953D140C85C3B
:10F93000DE4F1882C853D14090E0C85CDE4FE881AA
:10F94000F981C853D1408E2B9F2B0C01FA01609393
:10F950005B0030935700E89511244E5F5F4F6F4F67
:10F960007F4F0EEFE02E0FEFF02ECE0CDF1CC114F8
:10F97000D10499F685E0C05EDE4F088119812A81A5
:10F980003B81C052D140F80120935B008093570027
:10F99000E89507B600FCFDCF81E180935700E8951C
:10F9A00035C0C05EDE4F88819981AA81BB81C0527B
:10F9B000D140B695A795979587957C018601ABE0D8
:10F9C000AA2EB12CAC0EBD1E0BC0D5016D915D01F0
:10F9D000C7010F947FFE0894E11CF11C01501040F8
:10F9E0000115110591F7A60160E070E0440F551F65
:10F9F000661F771FC05EDE4FE880F9800A811B8199
:10FA0000C052D1404E0D5F1D601F711F1A82C05E33
:10FA1000DE4F488359836A837B83C052D1407FC0C5
:10FA2000FA80C55CDE4FF882CB53D140C65CDE4F16
:10FA30001882CA53D1408B81C82EDD24C65CDE4FAC
:10FA400008811981CA53D140C02AD12A1A828981DA
:10FA5000BE016D5F7F4F843121F59601C05EDE4FA0
:10FA6000E880F9800A811B81C052D1400BBFF701A9
:10FA700087919691DB018C9311969C936E5F7F4FDB
:10FA8000D801C7010296A11DB11DC05EDE4F88835B
:10FA90009983AA83BB83C052D14022503040F1F6F3
:10FAA00036C0C05EDE4F288139814A815B81C052F9
:10FAB000D1400894C108D108760100E010E0089414
:10FAC000C11CD11C0894E11CF11C011D111DE20E8A
:10FAD000F31E041F151F21BDBB27A52F942F832FB5
:10FAE00082BD2F5F3F4F4F4F5F4FF89A80B5DB01CC
:10FAF0008D93BD012E153F054007510761F7C05E8C
:10FB0000DE4F288339834A835B83C052D1409601FC
:10FB10002D5F3F4FFB01108204C080EC8A8322E0FE
:10FB200030E08BE18093C6008091C00086FFFCCF5F
:10FB30008091C00080648093C000C15DDE4FF88179
:10FB4000CF52D140F093C6008091C00086FFFCCF19
:10FB50008091C00080648093C000432F3093C60022
:10FB60008091C00086FFFCCF8091C00080648093AC
:10FB7000C000922F2093C6008091C00086FFFCCF6A
:10FB80008091C00080648093C0008EE08093C600A6
:10FB90008091C00086FFFCCF8091C000806480937C
:10FBA000C00065E1C15DDE4FE880CF52D1406E25D7
:10FBB00069276427FE01319610C090819093C6009A
:10FBC0008091C00086FFFCCF31968091C000806498
:10FBD0008093C0006927215030402115310569F715
:10FBE0006093C6008091C00086FFFCCF8091C0006A
:10FBF00080648093C00085B1805885B9772081F4F6
:10FC0000C15DDE4F0881CF52D1400F5FC15DDE4F35
:10FC10000883CF52D14090E0A0E0B0E00D941AF4F8
:10FC200027982F9880E090E020ED37E0F901319798
:10FC3000F1F7019684369105C9F700008091C00064
:10FC40008D7F8093C00081E180935700E895EE2777
:10FC5000FF270994FFCF90E00D941AF497FB092E2B
:10FC600007260AD077FD04D02ED006D000201AF443
:10FC7000709561957F4F0895F6F7909581959F4F08
:10FC80000895A1E21A2EAA1BBB1BFD010DC0AA1FDD
:10FC9000BB1FEE1FFF1FA217B307E407F50720F0F5
:10FCA000A21BB30BE40BF50B661F771F881F991F70
:10FCB0001A9469F760957095809590959B01AC01B9
:10FCC000BD01CF010895AA1BBB1B51E107C0AA1FAC
:10FCD000BB1FA617B70710F0A61BB70B881F991FED
:10FCE0005A95A9F780959095BC01CD010895F99991
:10FCF000FECF92BD81BDF89A992780B50895262F31
:10FD0000F999FECF1FBA92BD81BD20BD0FB6F89400
:0EFD1000FA9AF99A0FBE01960895F894FFCF63
:00000001FF
